:0400000007EF00F016
:100008004B82E5ED04F0AEEF0CF0070E926EF20EA7
:10001800936E000E946E000E956E000E966E000E96
:10002800896E000E8A6E000E8B6E000E8C6E000EAE
:100038008D6E000EC26E0D0EC16EB10EC06EF28EC8
:10004800F28CF086F090F28AF2949D809E90070ED2
:10005800D56ED90ED76EDA0ED66E800ECD6EE20E44
:10006800CF6EB30ECE6ED1EC0CF0100E426E270E92
:10007800436E000E446E000E456EE0EC0BF0F28EFF
:1000880056D0800EC4EC0DF0CB0E00019E6FFF0E13
:1000980000019F6F1DEC03F0C00EC4EC0DF0ED0ED7
:1000A80000019E6FFF0E00019F6F1DEC03F0000E14
:1000B8000001B46F310E0001B46501D011D0020EF9
:1000C8000001B719D8A40CD0210E0001B06F760E2C
:1000D800E82EFED7B02FFCD700F00001B42BEAD7EA
:1000E800800EC4EC0DF0C00EC4EC0DF0A90E00019A
:1000F8009E6FFF0E00019F6F1DEC03F0000E0001C4
:10010800B56F310E0001B56501D011D0020E0001A6
:10011800B719D8A40CD0210E0001B06F760EE82EC6
:10012800FED7B02FFCD700F00001B52BEAD7020E9E
:100138000001B719D8A401D1A4D7800EC4EC0DF0E2
:10014800C00EC4EC0DF0BA0E00019E6FFF0E000148
:100158009F6F1DEC03F0000E60EC0AF039503A1066
:10016800D8A4EBD0C350C4CFB0F00001B16BB0C07D
:10017800B1F00001B06B0001B027000EB1230001FF
:10018800B1BF08D00001B15104E1320E0001B05DE9
:10019800D8B0D3D0898E11EC08F0899E0001875120
:1001A80000018811D8B402D08B82CD80000194510F
:1001B800D8B408D08D848996010E486E010E0001CE
:1001C8009A6FCD8000019551D8B408D08D84899656
:1001D800040E486E010E0001996FCD800001965102
:1001E800D8B408D08A808A94010E496E010E0001A5
:1001F8009C6FCD8000019751D8B408D08A808A942A
:10020800040E496E010E00019B6FCD8000019451D0
:100218000001961100019511000197110001B06FBE
:100228000001B051000187110001B16F000E0001FB
:1002380088110001B26F0001B1510001B211D8B4A8
:1002480004D00001B705D8B4E1D7010E00019D6FB5
:1002580000019D51D8B404D00001B705D8B4F8D72F
:100268008D8489968A808A9499C094F09AC095F072
:100278009BC096F09CC097F0000194510001961124
:1002880000019511000197110001B06F0001B051F4
:10029800000187110001B16F000E000188110001F3
:1002A800B26F0001B1510001B211D8B404D00001FD
:1002B800B705D8B4E1D7CD908B948D948996899859
:1002C800899A8A908A948A96899C00018A518BC05F
:1002D800B0F00001B16B0001B027000EB12300019E
:1002E80089510001B027000EB12300018C51000193
:1002F800B027000EB1230001B1BF0AD00001B151EF
:1003080005E10F0E0001B05DD8A002D0010E01D0AA
:10031800000E0001B26FB36B00018D510001B213E2
:10032800000EB3130001B2510001B311D8B405D0C7
:10033800000E0001B76F2BEC09F00001B705D8A437
:1003480017D0FBD6800EC4EC0DF0760E00019E6F20
:10035800FF0E00019F6F1DEC03F0C00EC4EC0DF002
:10036800540E00019E6FFF0E00019F6F1DEC03F0FD
:100378000001B751D8A41FD0E5D7800EC4EC0DF00A
:10038800980E00019E6FFF0E00019F6F1DEC03F099
:10039800C00EC4EC0DF06A0E00019E6FFE0E000147
:1003A8009F6F8EC0A0F00001A16B98C0A2F0000161
:1003B800A36B1DEC03F0030E0001B719D8A41BD0E2
:1003C800DCD7800EC4EC0DF0430E00019E6FFF0ECB
:1003D80000019F6F1DEC03F0C00EC4EC0DF0DB0EA6
:1003E80000019E6FFE0E00019F6F91C0A0F00001FA
:1003F800A16B1DEC03F0040E0001B719D8A41BD0A3
:10040800E0D7800EC4EC0DF0100E00019E6FFF0EB9
:1004180000019F6F1DEC03F0C00EC4EC0DF0DB0E65
:1004280000019E6FFE0E00019F6F92C0A0F00001B8
:10043800A16B1DEC03F0050E0001B719D8A41BD061
:10044800E0D7800EC4EC0DF0320E00019E6FFF0E57
:1004580000019F6F1DEC03F0C00EC4EC0DF0B10E4F
:1004680000019E6FFE0E00019F6F8FC0A0F000017B
:10047800A16B1DEC03F0060E0001B719D8A41BD020
:10048800E0D7800EC4EC0DF0210E00019E6FFF0E28
:1004980000019F6F1DEC03F0C00EC4EC0DF0B10E0F
:1004A80000019E6FFE0E00019F6F90C0A0F000013A
:1004B800A16B1DEC03F0070E0001B719D8A41BD0DF
:1004C800E0D7800EC4EC0DF0650E00019E6FFF0EA4
:1004D80000019F6F1DEC03F0C00EC4EC0DF0B10ECF
:1004E80000019E6FFE0E00019F6F93C0A0F00001F7
:1004F800A16B1DEC03F0080E0001B719D8A466D053
:10050800E0D7DFEC0DF0000E376ED00E366ED6EC6D
:100518000DF0000E376E000E366ED6EC0DF0DBECEB
:100528000DF0DFEC0DF0000E376ED10E366ED6EC06
:100538000DF0000E0001B66F050E0001B66501D082
:1005480010D00001B651010D800EF324D96E000EB3
:10055800F420DA6E010E5DEC0DF0DF6E0001B62BB3
:10056800EBD7000E5DEC0DF00001866FDBEC0DF0B3
:10057800800EC4EC0DF0830E00019E6FFE0E00018C
:100588009F6F86C0A0F00001A16B85C0A2F000019A
:10059800A36B84C0A4F00001A56B1DEC03F0C00E92
:1005A800C4EC0DF09A0E00019E6FFE0E00019F6FC5
:1005B80082C0A0F00001A16B81C0A2F00001A36B72
:1005C80080C0A4F00001A56B1DEC03F0090E00012A
:1005D800B719D8A428D095D7800EC4EC0DF0870E93
:1005E80000019E6FFF0E00019F6F1DEC03F0C00E0F
:1005F800C4EC0DF0FF0E00019E6FFE0E00019F6F10
:100608001DEC03F01A0E0001B16F5E0E0001B06F11
:100618006E0EE82EFED7B02FFCD7B12FFAD700F018
:10062800020E0001B76F0A0E0001B719D8A47FD5D2
:10063800D3D7A00E0001A76F000E0001A86FB2D19A
:10064800250E0001AF19D8B405D00001AF51BEEC9A
:100658000DF0A8D1000E0001AE6F000EAD6F000EB8
:100668000001AC6F05D00001AC8500019E4B9F2BAB
:100678009EC0F6FF9FC0F7FF0800F550300AD8B4B7
:10068800F2D79EC0F6FF9FC0F7FF0800F55083EC35
:100698000DF0D8A03AD0000E0001AE6F000EAD6F7D
:1006A800ADC035F0AEC036F0000E386E0A0E376EAB
:1006B8004AEC0DF035C0ADF036C0AEF0D00E416E4C
:1006C800FF0E426E9EC0F6FF9FC0F7FF0800F55070
:1006D800436E446A4150432642504422435000012D
:1006E800AD2744500001AE2300019E4B9F2B9EC0B6
:1006F800F6FF9FC0F7FF0800F55083EC0DF0D8A077
:1007080004D0CED70001AC8F19D09EC0F6FF9FC091
:10071800F7FF00019E4B9F2B0800F5CFAFF00001BB
:10072800AF51000AD8B41200640AD8B407D00D0A31
:10073800D8B404D0110AD8B4E5D734D10001ACBF7D
:1007480019D0A7C0D9FFA8C0DAFFDECFAAF0DDCF45
:10075800ABF0020E0001A727000EA8230001ABAFE3
:1007680053D0030E0001AC130001AA6DAB1FD8B023
:10077800AB2B4AD0A7C0D9FFA8C0DAFFDECFAAF0BA
:10078800DDCFABF0020E0001A727000EA8233CD056
:10079800010E0001AF6F050E0001AF19D8B43DD0AE
:1007A8000001AF51020D580EF324F66EFE0EF42030
:1007B800F76E0900F5500001AA5D0900F550000127
:1007C800AB59D8A02AD00001AF2BE5D7010E000104
:1007D800AF6F040E0001AF19D8B41FD00001AF519C
:1007E800020D620EF324F66EFE0EF420F76E090079
:1007F800F5500001AA5D0900F5500001AB59D8A0D9
:100808000CD00001AF2BE5D70001AC51800B000ADA
:10081800D8B4BED7800AD8B4D9D70001AD510001E9
:10082800AE11D8B40AD0ACC041F0030E4116D8B40A
:1008380004D00001AD07D8A0AE07800E0001AFBFFD
:100848007F0E416E0001AD510001AF5D0001AE5158
:10085800800A4158D8B00BD00001AF510001AD5FFC
:10086800000E0001AFBFFF0E0001AE5B05D0000E09
:100878000001AE6F000EAD6F0001ACA517D0ACC083
:1008880041F0030E4116D8B403D02D0EBEEC0DF086
:100898000001AD510001AE11D8B424D0300EBEEC29
:1008A8000DF00001AD07D8A0AE07F2D70001AD5199
:1008B8000001AE11D8B40DD0200EBEEC0DF0000131
:1008C800AD07D8A0AE070001AD510001AE11D8A404
:1008D800F3D7ACC041F0030E4116D8B403D02D0EA7
:1008E800BEEC0DF0AFC0A9F057D00001A951020D20
:1008F800580EF324F66EFE0EF420F76E0900F5CFBD
:1009080037F00A00F5CF38F0AAC035F0ABC036F0A2
:100918000EEC0CF035C03CF036C03DF0000E3F6EDA
:100928000A0E3E6EF4EC0CF03C50300F0001AF6F35
:100938002FD0AAC035F0ABC036F00001A951020D86
:10094800620EF324F66EFE0EF420F76E0900F5CF62
:1009580037F00A00F5CF38F00EEC0CF035500F0BDD
:100968000001A66F0001A651010DEE0EF324F66EEC
:10097800FE0EF420F76E0800F5CFAFF009D00001A5
:10098800AC51800B000AD8B4B0D7800AD8B4D1D7FC
:100998000001AF51BEEC0DF00001A9070001A92923
:1009A800D8A4EDD79EC0F6FF9FC0F7FF00019E4B6D
:1009B8009F2B0800F5CFAFF00001AF51D8B412005B
:1009C8003FD60600FACF26F0FBCF27F0E9CF28F074
:1009D800EACF29F0E1CF2AF0E2CF2BF0D9CF2CF0E3
:1009E800DACF2DF0F3CF2EF0F4CF2FF0F6CF30F092
:1009F800F7CF31F0F8CF32F0F5CF33F0F0A015D0C3
:100A080081380F0B0F0B346E360E216E3450010DEA
:100A1800470EF324F66EFE0EF420F76E0800F5CFAD
:100A280022F0340E0DEC0AF0F0900001B705D8B4AE
:100A3800F2A46CD0F294D90ED76EDA0ED66E472A8D
:100A480047C001F0026A000E046E3C0E036EEDEC26
:100A58000AF0015000018E6F47C001F0026A000ED3
:100A6800046E3C0E036EA8EC0BF001500001986F69
:100A7800800ED0EC0DF0C60E0D6EFE0E0E6E8EC002
:100A88000FF0106A98C011F0126A8BEC06F00001A2
:100A98009D51D8B409D000019D2B010E00019D6520
:100AA80003D0000E00019D6FB30E476405D0000E01
:100AB8000001B76F9CEC09F08BA002D08B9007D097
:100AC8004A2A030E4A6403D0000E4A6E8B80020E37
:100AD800ABEC0DF0C350C4CF24F0256A24C025F038
:100AE800246A2426000E252225BE0ED0255004E1B6
:100AF800330E245CD8A008D0462A090E466406D0D6
:100B0800010E00018D6F02D0000E466E0001B70580
:100B1800D8B49EA0DED09E90E20ECF6EB30ECE6EFD
:100B28000001875100018811D8B41FD00001874BFC
:100B3800882B0B0E0001875D010E00018859D8A093
:100B480007D0000E0001886F000E876F8B948B9280
:100B58008BB403D0246A242A01D0246A244624466C
:100B68008B502418FB0B24188B6E00019451D8B4B9
:100B780029D04804D8A402D0898A8998020E481836
:100B8800D8A402D08D948986030E4818D8A402D020
:100B9800899A8988040E4818D8A402D08D84899629
:100BA8000001942BC70E0001946505D0000E0001CA
:100BB800946F000E04D0030E486403D0010E486EF3
:100BC80001D0482A00019551D8B429D0040E4818FC
:100BD800D8A402D0899A8988030E4818D8A402D0CC
:100BE8008D948986020E4818D8A402D0898A8998DB
:100BF8004804D8A402D08D8489960001952BC70E8D
:100C08000001956505D0000E0001956F000E04D017
:100C1800020E486003D0040E486E01D04806000159
:100C28009651D8B429D04904D8A402D0898C8A9680
:100C3800020E4918D8A402D08A908A84030E491853
:100C4800D8A402D0899C8A86040E4918D8A402D058
:100C58008A808A940001962BC70E0001966505D0FC
:100C6800000E0001966F000E04D0030E496403D0F5
:100C7800010E496E01D0492A00019751D8B429D0F4
:100C8800040E4918D8A402D0899C8A86030E4918F4
:100C9800D8A402D08A908A84020E4918D8A402D017
:100CA800898C8A964904D8A402D08A808A94000143
:100CB800972BC70E0001976505D0000E0001976FAE
:100CC800000E04D0020E496003D0040E496E01D014
:100CD800490633C0F5FF32C0F8FF31C0F7FF30C016
:100CE800F6FF2FC0F4FF2EC0F3FF2DC0DAFF2CC093
:100CF800D9FF2BC0E2FF2AC0E1FF29C0EAFF28C0C4
:100D0800E9FF27C0FBFF26C0FAFF4B9211000F0E28
:100D1800186E000E196E74D1250E2018D8B404D0A0
:100D28002050CAEC0DF06CD1000E1F6E000E1E6E26
:100D3800000E1D6E03D01D840D4A0E2A0DC0F6FF4D
:100D48000EC0F7FF0800F550300AD8B4F4D70DC02C
:100D5800F6FF0EC0F7FF0800F55092EC0DF0D8A092
:100D680035D0000E1F6E000E1E6E1EC001F01FC093
:100D780002F0000E046E0A0E036E70EC0DF001C056
:100D88001EF002C01FF0D00E136EFF0E146E0DC0C1
:100D9800F6FF0EC0F7FF0800F550156E166A1350DF
:100DA80015261450162215501E2616501F220D4ABD
:100DB8000E2A0DC0F6FF0EC0F7FF0800F55092ECA2
:100DC8000DF0D8A003D0D1D71D8E17D00DC0F6FFD7
:100DD8000EC0F7FF0D4A0E2A0800F5CF20F020506C
:100DE800000AD8B41200640AD8B407D00D0AD8B4DF
:100DF80004D0110AD8B4E8D703D11DBE15D018C045
:100E0800D9FF19C0DAFFDECF1BF0DDCF1CF0020ED0
:100E18001826000E19221CAE44D0030E1D121B6C9E
:100E28001C1ED8B01C2A3DD018C0D9FF19C0DAFF43
:100E3800DECF1BF0DDCF1CF0020E1826000E1922A3
:100E480030D0010E206E050E2018D8B432D02050B4
:100E5800020D580EF324F66EFE0EF420F76E09000C
:100E6800F5501B5C0900F5501C58D8A022D0202A48
:100E7800EAD7010E206E040E2018D8B41AD02050DC
:100E8800020D620EF324F66EFE0EF420F76E0900D2
:100E9800F5501B5C0900F5501C58D8A00AD0202A30
:100EA800EAD71D50800B000AD8B4CBD7800AD8B433
:100EB800E0D71E501F10D8B409D01DC013F0030E80
:100EC8001316D8B403D01E06D8A01F06800E20BE65
:100ED8007F0E136E1E50205C1F50800A1358D8B026
:100EE80007D020501E5E000E20BEFF0E1F5A04D0F1
:100EF800000E1F6E000E1E6E1DA414D01DC013F030
:100F0800030E1316D8B403D02D0ECAEC0DF01E50E4
:100F18001F10D8B41ED0300ECAEC0DF01E06D8A093
:100F28001F06F5D71E501F10D8B40AD0200ECAECE1
:100F38000DF01E06D8A01F061E501F10D8A4F6D705
:100F48001DC013F0030E1316D8B403D02D0ECAEC2F
:100F58000DF020C01AF050D01A50020D580EF3248C
:100F6800F66EFE0EF420F76E0900F5CF03F00A00C6
:100F7800F5CF04F01BC001F01CC002F037EC0CF0F8
:100F880001C008F002C009F0000E0B6E0A0E0A6ECE
:100F980015EC0DF00850300F206E2BD01BC001F05F
:100FA8001CC002F01A50020D620EF324F66EFE0EFB
:100FB800F420F76E0900F5CF03F00A00F5CF04F02E
:100FC80037EC0CF001500F0B176E1750010DEE0E99
:100FD800F324F66EFE0EF420F76E0800F5CF20F02D
:100FE80008D01D50800B000AD8B4B6D7800AD8B4F0
:100FF800D5D72050CAEC0DF01A061A28D8A4F1D774
:101008000DC0F6FF0EC0F7FF0D4A0E2A0800F5CFF7
:1010180020F02050D8B412007FD6000E0001886F4F
:10102800010E876F8D80C350C4CF35F0366A35C046
:1010380036F0356A3526000E362236BE10D0C20E7E
:10104800355C020E3658D8A00AD08D900001892B45
:10105800010E0001956F010E0001966F1200C3503A
:10106800C4CF35F0366A35C036F0356A3526000EFD
:10107800362236BE10D0365004E1050E355CD8A0B5
:101088000AD08D9000018C2B010E0001946F010E87
:101098000001976F12008D908D82C350C4CF35F038
:1010A800366A35C036F0356A3526000E362236BE29
:1010B80010D0365004E1050E355CD8A00AD08D92C8
:1010C8000001892B010E0001956F010E0001966F3A
:1010D8001200C350C4CF35F0366A35C036F0356AD1
:1010E8003526000E362236BE10D0365004E1050EE5
:1010F800355CD8A00AD08D9200018C2B010E00011E
:10110800946F010E0001976F12008D928B8AC35065
:10111800C4CF35F0366A35C036F0356A3526000E4C
:10112800362236BE10D0365004E1360E355CD8A0D3
:101138000AD08B9A00018B2B010E0001956F010ECE
:101148000001966F1200C350C4CF35F0366A35C01F
:1011580036F0356A3526000E362236BE10D03650A7
:1011680004E1050E355CD8A00AD08B9A00018C2BBF
:10117800010E0001946F010E0001976F12008B9A07
:101188008C80C350C4CF35F0366A35C036F0356A26
:101198003526000E362236BE0DD0365004E1360E06
:1011A800355CD8A007D08C9000018A2B010E000175
:1011B800956F18D0C350C4CF35F0366A35C036F0B5
:1011C800356A3526000E362236BE0CD0365004E17C
:1011D800050E355CD8A006D08C9000018C2B010E32
:1011E8000001946F8C908C82C350C4CF35F0366A5E
:1011F80035C036F0356A3526000E362236BE0DD09B
:10120800365004E1360E355CD8A007D08C92000128
:101218008A2B010E0001966F18D0C350C4CF35F049
:10122800366A35C036F0356A3526000E362236BEA7
:101238000CD0365004E1050E355CD8A006D08C924F
:1012480000018C2B010E0001976F8C921200D59E25
:10125800CD90D90ED76EDA0ED66EE20ECF6EB30EE3
:10126800CE6E89C08FF08BC092F08AC090F08CC08F
:1012780093F0000E0001896F000E00018B6F000EC5
:1012880000018A6F000E00018C6F47C035F0366A86
:10129800000E386E3C0E376EABEC0AF0355000018C
:1012A8008E6F47C035F0366A000E386E3C0E376ECA
:1012B80070EC0BF035500001986F000E476E000E71
:1012C8004A6E000E466E000E00018D6F000E000182
:1012D8009D6F000E0001886F000E876F000E0001E1
:1012E800946F000E0001956F000E0001966F000EBE
:1012F8000001976F000E00019B6F000E0001996FAF
:10130800000E00019C6F000E00019A6F8D908D9267
:101318008B9A8C908C928D9489968998899A8A90C8
:101328008A948A96899C8B92899E8B948B901200C2
:10133800D59ECD90D90ED76EDA0ED66EE20ECF6E50
:10134800B30ECE6E89C08FF08BC092F08AC090F039
:101358008CC093F0000E0001896F000E00018B6FA6
:10136800000E00018A6F000E00018C6F47C001F06B
:10137800026A000E046E3C0E036EEDEC0AF001509A
:1013880000018E6F47C001F0026A000E046E3C0E29
:10139800036EA8EC0BF001500001986F000E476E29
:1013A800000E4A6E000E466E000E00018D6F000E94
:1013B80000019D6F000E0001886F000E876F000E00
:1013C8000001946F000E0001956F000E0001966FEA
:1013D800000E0001976F000E00019B6F000E0001C8
:1013E800996F000E00019C6F000E00019A6F8D909E
:1013F8008D928B9A8C908C928D9489968998899AE3
:101408008A908A948A96899C8B92899E8B948B90D9
:101418001200236E2A0E2218D8A41CD0020E000136
:10142800B719D8A40FD0010E0001B76FD58ECD9093
:10143800800ED0EC0DF0DC0E0D6EFF0E0E6E8BECF8
:1014480006F012000001B751D8A41200020E0001E4
:10145800B76F12000001B705D8A40AD0230E2218CE
:10146800D8A412000A0E0001B76F9CEC09F0120014
:101478000001B751D8B4120021502218D8A40CD0BA
:10148800020E0001B719D8A404D0090E0001B76FE5
:1014980012000001B707120023502218D8A4120026
:1014A800090E0001B719D8A404D0020E0001B76FC5
:1014B80012000001B72B1200416E4150A1EC0DF053
:1014C800C4503C6E3B6AC3503B243F6E000E3C2028
:1014D800406E000E426E090E426401D033D0040EF5
:1014E8003B6E3E0EE82EFED73B2EFCD74150A1ECBA
:1014F8000DF03FC03BF040C03CF03B1E3C1E3B4A59
:101508003C2AC350C4CF3DF03E6A3DC03EF03D6A20
:101518003D26000E3E223B503D24356E3C503E2079
:10152800366E36EC0DF036BE0BD0365004E1150E93
:10153800355CD8A005D0000E3A6E010E396E120047
:10154800422AC9D7000E3A6E000E396E1200000EFC
:101558003A6E38AE06D0376C381ED8B0382A010E2D
:101568003A6E36AE06D0356C361ED8B0362A010E25
:101578003A1A000E3C6E000E3B6E37503810D8B445
:101588001CD0010E396E04D0D89037363836392A37
:1015980038AEFAD7D8903B363C363750355C3850A1
:1015A8003658D8A005D03750355E3850365A3B806B
:1015B800D89038323732392EEDD73A50D8B404D0D3
:1015C8003B6C3C1ED8B03C2A3BC035F03CC036F0E2
:1015D8001200000E066E04AE06D0036C041ED8B0CE
:1015E800042A010E066E02AE06D0016C021ED8B0A7
:1015F800022A010E061A000E086E000E076E03502E
:101608000410D8B41CD0010E056E04D0D89003364F
:101618000436052A04AEFAD7D890073608360350A0
:10162800015C04500258D8A005D00350015E045054
:10163800025A0780D89004320332052EEDD706509F
:10164800D8B404D0076C081ED8B0082A07C001F027
:1016580008C002F01200000E3D6E000E3E6E000E35
:101668003F6E000E406E39503A103B103C10D8B413
:101678002AD0010E416E06D0D89039363A363B361C
:101688003C36412A3CAEF8D7D8903D363E363F36F8
:1016980040363950355C3A5036583B5037583C50F4
:1016A8003858D8A009D03950355E3A50365A3B5090
:1016B800375A3C50385A3D80D8903C323B323A3207
:1016C8003932412EE1D73DC035F03EC036F03FC03B
:1016D80037F040C038F01200000E3A6E36AE06D031
:1016E800356C361ED8B0362A010E3A6E38AE04D0A4
:1016F800376C381ED8B0382A37503810D8B418D0BC
:10170800010E396E04D0D89037363836392A38AEBB
:10171800FAD73750355C38503658D8A004D03750EF
:10172800355E3850365AD89038323732392EF1D79C
:101738003A50D8B404D0356C361ED8B0362A35C0E5
:1017480035F036C036F01200000E066E02AE06D036
:10175800016C021ED8B0022A010E066E04AE04D037
:10176800036C041ED8B0042A03500410D8B418D04F
:10177800010E056E04D0D89003360436052A04AE4F
:10178800FAD70350015C04500258D8A004D0035083
:10179800015E0450025AD89004320332052EF1D764
:1017A8000650D8B404D0016C021ED8B0022A01C079
:1017B80001F002C002F01200000EC76E280EC66EBD
:1017C800000EC56E800E356E960E366E980E376E0C
:1017D800000E386E42C09EF043C09FF044C0A0F097
:1017E80045C0A1F0020ED89000019E379F37A03760
:1017F800A137E82EF8D79EC039F09FC03AF0A0C0B4
:101808003BF0A1C03CF02FEC0BF03504C86E948679
:1018180094881200000E3A6E000E396E3750381058
:10182800D8B41CD0010E3B6E04D0D8903736383669
:101838003B2A38AEFAD7D89039363A363750355C25
:1018480038503658D8A005D03750355E3850365AFB
:101858003980D890383237323B2EEDD739C035F041
:101868003AC036F01200000E066E000E056E0350E8
:101878000410D8B41CD0010E076E04D0D8900336DB
:101888000436072A04AEFAD7D89005360636035030
:10189800015C04500258D8A005D00350015E0450E2
:1018A800025A0580D89004320332072EEDD705C0BE
:1018B80001F006C002F01200366E3650F00B356E9D
:1018C8008C500F0B8C6E35508C108C6E8C96190EBC
:1018D800E82EFED78C86190EE82EFED73638F00B88
:1018E800366E3650F00B356E8C500F0B8C6E3550B3
:1018F8008C108C6E8C96190EE82EFED78C86190EDD
:10190800E82EFED71200026E0250F00B016E8C50CA
:101918000F0B8C6E01508C108C6E8C96190EE82E65
:10192800FED78C86190EE82EFED70238F00B026E11
:101938000250F00B016E8C500F0B8C6E01508C1006
:101948008C6E8C96190EE82EFED78C86190EE82E12
:10195800FED71200C70EF66E1B0EF76E000EF86E5D
:101968000900F5CFB7F0C60EF66E1B0EF76E000E27
:10197800F86E0900F5CF4AF000EE80F01E0EEE6A10
:10198800E806FDE1496A486A476A466A4B904B9205
:10199800000EF86E000109EF00F0310E386EB20E3D
:1019A800E82EFED7382EFCD700D0330EC4EC0DF04D
:1019B800320EC4EC0DF0280EC4EC0DF00F0EC4EC82
:1019C8000DF0060EC4EC0DF0010EC4EC0DF0310E56
:1019D800386EB20EE82EFED7382EFCD700D0120093
:1019E8003E503F10D8B418D0010E406E04D0D890A5
:1019F8003E363F36402A3FAEFAD73E503C5C3F5019
:101A08003D58D8A004D03E503C5E3F503D5AD89037
:101A18003F323E32402EF1D73CC03CF03DC03DF055
:101A280012000A500B10D8B418D0010E0C6E04D056
:101A3800D8900A360B360C2A0BAEFAD70A50085C37
:101A48000B500958D8A004D00A50085E0B50095A08
:101A5800D8900B320A320C2EF1D708C008F009C012
:101A680009F0120036AE0DD035C037F036C038F068
:101A7800371E381E374A382A37C035F038C036F096
:101A8800120035C035F036C036F012003550370236
:101A9800F3CF39F0F4CF3AF035503802F3503A2604
:101AA80036503702F3503A2639C035F03AC036F08E
:101AB8001200366EB5EC0DF0C586B5EC0DF0C9CF49
:101AC80037F0B5EC0DF03650D8A402D0C58A01D055
:101AD800C59AC5883750120001500302F3CF05F0AC
:101AE800F4CF06F001500402F35006260250030218
:101AF800F350062605C001F006C002F01200376E4A
:101B0800000E366E3A0E376005D02F0E376402D0BD
:101B1800010E366E36C035F035301200036E000EF9
:101B2800026E3A0E036005D02F0E036402D0010E38
:101B3800026E02C001F001301200356E3544E846ED
:101B4800FC0BC26EC280C282C2A21200FDD7016E17
:101B58000144E846FC0BC26EC280C282C2A21200D7
:101B6800FDD7C7B4FED7C5CF35F01F0E3516D8B48C
:101B78001200F7D7376E8C84375060EC0CF01200E7
:101B8800376E8C94375060EC0CF01200036E8C8426
:101B9800035087EC0CF01200036E8C94035087EC12
:101BA8000CF01200B5EC0DF036C0C9FF1200B5EC10
:101BB8000DF0C5841200B5EC0DF0C58012000402CA
:10FE4600003132334134353642373839432A30238C
:10FE5600440001000A006400E803102701001000B6
:10FE660000010010253032643A253032642020200B
:10FE76002020202020202020202020200044415423
:10FE8600453A20253032782F253032782F253032EA
:10FE96007820200054494D453A20253032783A25BD
:10FEA6003032783A25303278202000424154544589
:10FEB600524945533A202530326420202020200024
:10FEC60052554E4E494E472E2E2E20253032643A3C
:10FED60025303264004241545445524945533A2034
:10FEE6002530326420202000303132333435363725
:10FEF6003839616263646566002020202020202056
:10FF06002020202020202020200023204F46204390
:10FF1600202020202020202020200023204F4620A3
:10FF260041412020202020202020200023204F4651
:10FF360020395620202020202020202000544F54F5
:10FF4600414C2023204F4620202020202000544FC3
:10FF560020434F4E54494E55452020202020002353
:10FF6600204F4620445241494E454420202020003F
:10FF7600444F4E4521205052455353202A202020DD
:10FF860000454D455247454E43592053544F502046
:10FF96002000544F54414C2052554E2054494D4553
:10FFA6003A2000203C342020204441544120202087
:10FFB600363E20005052455353202320544F2053A1
:10FFC600544F50200053544152543A20202050524E
:10FFD600455353202A0052554E4E494E472E2E2E3B
:10FFE6002030303A3030003C203420202044415428
:09FFF6004120202036203E0000CD
:020000040020DA
:08000000FFFFFFFFFFFFFFFF00
:020000040030CA
:0E000000FF021F1EFF8381FF0FC00FE00F40A5
:00000001FF
