:0400000007EF00F016
:100008004A8247ED05F0D9EF0CF0070E926EF20E1A
:10001800936E000E946E000E956E000E966E000E96
:10002800896E000E8A6E000E8B6E000E8C6E000EAE
:100038008D6E000EC26E0D0EC16EB10EC06EF28EC8
:10004800F28CF086F090F28AF2949D809E90070ED2
:10005800D56ED90ED76EDA0ED66E800ECD6EE20E44
:10006800CF6EB30ECE6EFCEC0CF0100E416E270E68
:10007800426E000E436E000E446E0BEC0CF0F28ED6
:1000880056D0800ED1EC0DF0DC0E0001A26FFF0EF1
:100098000001A36F7FEC03F0C00ED1EC0DF0ED0E64
:1000A8000001A26FFF0E0001A36F7FEC03F0000EAA
:1000B8000001B86F310E0001B86501D011D0020EF1
:1000C8000001BB19D8A40CD0210E0001B46F760E24
:1000D800E82EFED7B42FFCD700F00001B82BEAD7E2
:1000E800800ED1EC0DF0C00ED1EC0DF0CB0E00015E
:1000F800A26FFF0E0001A36F7FEC03F0000E00015A
:10010800B96F310E0001B96501D011D0020E00019E
:10011800BB19D8A40CD0210E0001B46F760EE82EBE
:10012800FED7B42FFCD700F00001B92BEAD7020E96
:100138000001BB19D8A463D1A4D7000EB8EC0DF008
:10014800800ED1EC0DF0C00ED1EC0DF0ED0E0001DB
:10015800A26FFE0E0001A36FC4500001B56FB46B0F
:10016800C3500001B4250001A46F000E0001B521A1
:100178000001A56F0001925194C0B6F00001B76B61
:100188000001B627000EB723000191510001B627E0
:10019800000EB723000193510001B6250001A66F98
:1001A8000001000E0001B7210001A76F7FEC03F0EA
:1001B800C350C4CFB4F00001B56BB4C0B5F00001B2
:1001C800B46B0001B427000EB5230001B5BF08D0F9
:1001D8000001B55104E1320E0001B45DD8B001D17F
:1001E800898E68EC08F0899E00018F5100019011FA
:1001F800D8B402D08B82CD800001875100018811CC
:10020800D8B408D08D848996010E476E010E00017E
:100218009E6FCD800001895100018A11D8B408D0A1
:100228008D848996040E476E010E00019D6FCD8066
:1002380000018B5100018C11D8B408D08A808A94AF
:10024800010E486E010E0001A06FCD8000018D5196
:1002580000018E11D8B408D08A808A94040E486EA2
:10026800010E00019F6FCD800001875100018F11A1
:100278000001B46F00018851000190110001B56FB1
:1002880000018B510001B41300018C510001B5131A
:10029800000189510001B41300018A510001B5130E
:1002A80000018D510001B41300018E510001B513F6
:1002B8000001B4510001B511D8B404D00001BB0548
:1002C800D8B4D2D7010E0001A16F0001A151D8B452
:1002D80004D00001BB05D8B4F8D78D8489968A80EC
:1002E8008A949DC087F00001886B9EC089F0000148
:1002F8008A6B9FC08BF000018C6BA0C08DF0000151
:100308008E6B0001875100018F110001B46F00014D
:100318008851000190110001B56F00018B51000157
:10032800B41300018C510001B5130001895100017B
:10033800B41300018A510001B51300018D51000169
:10034800B41300018E510001B5130001B45100012E
:10035800B511D8B404D00001BB05D8B4D2D7CD901C
:100368008B948D9489968998899A8A908A948B9C83
:10037800899C0001925193C0B4F00001B56B000153
:10038800B427000EB523000191510001B427000ED7
:10039800B523000194510001B427000EB5230001D4
:1003A800B5BF0AD00001B55105E10F0E0001B45DDB
:1003B800D8A002D0010E01D0000E0001B66FB76BB5
:1003C800000195510001B613000EB7130001B65194
:1003D8000001B711D8B405D0000E0001BB6F90EC36
:1003E80009F0070E0001B56F580E0001B46F590EE1
:1003F800E82EFED7B42FFCD7B52FFAD700D00001CE
:10040800BB05D8A417D099D6800ED1EC0DF0870E75
:100418000001A26FFF0E0001A36F7FEC03F0C00E76
:10042800D1EC0DF0650E0001A26FFF0E0001A36F65
:100438007FEC03F00001BB51D8A41FD0E5D7800E94
:10044800D1EC0DF0BA0E0001A26FFF0E0001A36FF0
:100458007FEC03F0C00ED1EC0DF0680E0001A26F26
:10046800FE0E0001A36F96C0A4F00001A56B9CC00E
:10047800A6F00001A76B7FEC03F0030E0001BB1987
:10048800D8A41BD0DCD7800ED1EC0DF0540E00019F
:10049800A26FFF0E0001A36F7FEC03F0C00ED1EC3A
:1004A8000DF0DA0E0001A26FFE0E0001A36F99C0D5
:1004B800A4F00001A56B7FEC03F0040E0001BB194A
:1004C800D8A41BD0E0D7800ED1EC0DF0210E00018E
:1004D800A26FFF0E0001A36F7FEC03F0C00ED1ECFA
:1004E8000DF0DA0E0001A26FFE0E0001A36F9AC094
:1004F800A4F00001A56B7FEC03F0050E0001BB1909
:10050800D8A41BD0E0D7800ED1EC0DF0430E00012B
:10051800A26FFF0E0001A36F7FEC03F0C00ED1ECB9
:100528000DF0C50E0001A26FFE0E0001A36F97C06B
:10053800A4F00001A56B7FEC03F0060E0001BB19C7
:10054800D8A41BD0E0D7800ED1EC0DF0320E0001FC
:10055800A26FFF0E0001A36F7FEC03F0C00ED1EC79
:100568000DF0C50E0001A26FFE0E0001A36F98C02A
:10057800A4F00001A56B7FEC03F0070E0001BB1986
:10058800D8A41BD0E0D7800ED1EC0DF0760E000178
:10059800A26FFF0E0001A36F7FEC03F0C00ED1EC39
:1005A8000DF0C50E0001A26FFE0E0001A36F9BC0E7
:1005B800A4F00001A56B7FEC03F0080E0001BB1945
:1005C800D8A466D0E0D7ECEC0DF0000E366ED00E55
:1005D800356EE3EC0DF0000E366E000E356EE3EC72
:1005E8000DF0E8EC0DF0ECEC0DF0000E366ED10ECF
:1005F800356EE3EC0DF0000E0001BA6F050E000138
:10060800BA6501D010D00001BA51010D800EF32453
:10061800D96E000EF420DA6E010E74EC0DF0DF6E68
:100628000001BA2BEBD7000E74EC0DF00001866FB9
:10063800E8EC0DF0800ED1EC0DF0810E0001A26FF8
:10064800FE0E0001A36F86C0A4F00001A56B85C053
:10065800A6F00001A76B84C0A8F00001A96B7FEC8D
:1006680003F0C00ED1EC0DF0980E0001A26FFE0E43
:100678000001A36F82C0A4F00001A56B81C0A6F0A1
:100688000001A76B80C0A8F00001A96B7FEC03F004
:10069800090E0001BB19D8A428D095D7800ED1EC3B
:1006A8000DF0A90E0001A26FFF0E0001A36F7FECF1
:1006B80003F0C00ED1EC0DF0100E0001A26FFF0E7A
:1006C8000001A36F7FEC03F01A0E0001B56F5E0EF8
:1006D8000001B46F6E0EE82EFED7B42FFCD7B52FED
:1006E800FAD700F0020E0001BB6F0A0E0001BB1919
:1006F800D8A41DD5D3D7A40E0001AB6F000E0001FE
:10070800AC6FB2D1250E0001B319D8B405D00001E1
:10071800B351CBEC0DF0A8D1000E0001B26F000E62
:10072800B16F000E0001B06F05D00001B085000167
:10073800A24BA32BA2C0F6FFA3C0F7FF0800F550F9
:10074800300AD8B4F2D7A2C0F6FFA3C0F7FF08005A
:10075800F5509AEC0DF0D8A03AD0000E0001B26F17
:10076800000EB16FB1C034F0B2C035F0000E376E74
:100778000A0E366E61EC0DF034C0B1F035C0B2F03F
:10078800D00E406EFF0E416EA2C0F6FFA3C0F7FF69
:100798000800F550426E436A4050422641504322B9
:1007A80042500001B12743500001B2230001A24B7F
:1007B800A32BA2C0F6FFA3C0F7FF0800F5509AECE0
:1007C8000DF0D8A004D0CED70001B08F19D0A2C0A8
:1007D800F6FFA3C0F7FF0001A24BA32B0800F5CF3B
:1007E800B3F00001B351000AD8B41200640AD8B4B7
:1007F80007D00D0AD8B404D0110AD8B4E5D734D13B
:100808000001B0BF19D0ABC0D9FFACC0DAFFDECF52
:10081800AEF0DDCFAFF0020E0001AB27000EAC2327
:100828000001AFAF53D0030E0001B0130001AE6D4D
:10083800AF1FD8B0AF2B4AD0ABC0D9FFACC0DAFFDE
:10084800DECFAEF0DDCFAFF0020E0001AB27000E19
:10085800AC233CD0010E0001B36F050E0001B319A3
:10086800D8B43DD00001B351020D560EF324F66EF4
:10087800FE0EF420F76E0900F5500001AE5D090088
:10088800F5500001AF59D8A02AD00001B32BE5D705
:10089800010E0001B36F040E0001B319D8B41FD0C4
:1008A8000001B351020D600EF324F66EFE0EF42023
:1008B800F76E0900F5500001AE5D0900F550000122
:1008C800AF59D8A00CD00001B32BE5D70001B05127
:1008D800800B000AD8B4BED7800AD8B4D9D7000193
:1008E800B1510001B211D8B40AD0B0C040F0030E23
:1008F8004016D8B404D00001B107D8A0B207800EC2
:100908000001B3BF7F0E406E0001B1510001B35D1D
:100918000001B251800A4058D8B00BD00001B35141
:100928000001B15F000E0001B3BFFF0E0001B25B12
:1009380005D0000E0001B26F000EB16F0001B0A526
:1009480017D0B0C040F0030E4016D8B403D02D0E17
:10095800CBEC0DF00001B1510001B211D8B424D094
:10096800300ECBEC0DF00001B107D8A0B207F2D7DA
:100978000001B1510001B211D8B40DD0200ECBEC5A
:100988000DF00001B107D8A0B2070001B151000174
:10099800B211D8A4F3D7B0C040F0030E4016D8B4B3
:1009A80003D02D0ECBEC0DF0B3C0ADF057D0000145
:1009B800AD51020D560EF324F66EFE0EF420F76EBE
:1009C8000900F5CF36F00A00F5CF37F0AEC034F0A5
:1009D800AFC035F039EC0CF034C03BF035C03CF01A
:1009E800000E3E6E0A0E3D6E1FEC0DF03B50300FB0
:1009F8000001B36F2FD0AEC034F0AFC035F00001A6
:100A0800AD51020D600EF324F66EFE0EF420F76E63
:100A18000900F5CF36F00A00F5CF37F039EC0CF0C5
:100A280034500F0B0001AA6F0001AA51010DFF0EEF
:100A3800F324F66EFE0EF420F76E0800F5CFB3F03F
:100A480009D00001B051800B000AD8B4B0D7800A91
:100A5800D8B4D1D70001B351CBEC0DF00001AD07EC
:100A68000001AD29D8A4EDD7A2C0F6FFA3C0F7FFB7
:100A78000001A24BA32B0800F5CFB3F00001B3513E
:100A8800D8B412003FD60600FACF25F0FBCF26F0E7
:100A9800E9CF27F0EACF28F0E1CF29F0E2CF2AF01A
:100AA800D9CF2BF0DACF2CF0F3CF2DF0F4CF2EF0F6
:100AB800F6CF2FF0F7CF30F0F8CF31F0F5CF32F096
:100AC800F0A015D081380F0B0F0B336E360E216E48
:100AD8003350010D450EF324F66EFE0EF420F76E2A
:100AE8000800F5CF22F0340E82EC0AF0F0900001F5
:100AF800BB05D8B4F2A44DD0F294D90ED76EDA0E55
:100B0800D66E462A46C001F0026A000E046E3C0EFC
:100B1800036E18EC0BF001500001966F46C001F00F
:100B2800026A000E046E3C0E036ED3EC0BF001500B
:100B380000019C6F800EDDEC0DF0AF0E0D6EFE0E09
:100B48000E6E96C00FF0106A9CC011F0126AE2ECAB
:100B580006F00001A151D8B409D00001A12B020E62
:100B68000001A16503D0000E0001A16FB30E466419
:100B780005D0000E0001BB6F09EC0AF08BA002D073
:100B88008B9007D0492A030E496403D0000E496EA2
:100B98008B800001BB05D8B49EA0F2D09E90E20ED7
:100BA800CF6EB30ECE6E00018F5100019011D8B4F4
:100BB8001FD000018F4B902B0B0E00018F5D010E93
:100BC80000019059D8A007D0000E0001906F000EC8
:100BD8008F6F8B948B928BB403D0246A242A01D014
:100BE800246A244624468B502418FB0B24188B6E49
:100BF8000001875100018811D8B42CD04704D8A42B
:100C080002D0898A8998020E4718D8A402D08D94F8
:100C18008986030E4718D8A402D0899A8988040EB9
:100C28004718D8A402D08D8489960001874B882B59
:100C3800020E0001885DD8A006D0000E0001886F62
:100C4800000E876F03D0030E476403D0010E476E72
:100C580001D0472A0001895100018A11D8B42CD04B
:100C6800040E4718D8A402D0899A8988030E471819
:100C7800D8A402D08D948986020E4718D8A402D031
:100C8800898A89984704D8A402D08D84899600015E
:100C9800894B8A2B020E00018A5DD8A006D0000E6F
:100CA80000018A6F000E896F03D0020E476003D0DF
:100CB800040E476E01D0470600018B5100018C11CC
:100CC800D8B42CD04804D8A402D0898C8B9C020EAE
:100CD8004818D8A402D08A908A84030E4818D8A449
:100CE80002D0899C8B8C040E4818D8A402D08A8024
:100CF8008A9400018B4B8C2B020E00018C5DD8A0CE
:100D080006D0000E00018C6F000E8B6F03D0030E0F
:100D1800486403D0010E486E01D0482A00018D5165
:100D280000018E11D8B42CD0040E4818D8A402D0D3
:100D3800899C8B8C030E4818D8A402D08A908A8488
:100D4800020E4818D8A402D0898C8B9C4804D8A4D9
:100D580002D08A808A9400018D4B8E2B020E0001EE
:100D68008E5DD8A006D0000E00018E6F000E8D6F2C
:100D780003D0020E486003D0040E486E01D0480626
:100D880032C0F5FF31C0F8FF30C0F7FF2FC0F6FFC3
:100D98002EC0F4FF2DC0F3FF2CC0DAFF2BC0D9FF03
:100DA8002AC0E2FF29C0E1FF28C0EAFF27C0E9FF07
:100DB80026C0FBFF25C0FAFF4A9211000F0E186EDD
:100DC800000E196E74D1250E2018D8B404D0205006
:100DD800D7EC0DF06CD1000E1F6E000E1E6E000ECB
:100DE8001D6E03D01D840D4A0E2A0DC0F6FF0EC0DD
:100DF800F7FF0800F550300AD8B4F4D70DC0F6FF55
:100E08000EC0F7FF0800F550A9EC0DF0D8A035D0BA
:100E1800000E1F6E000E1E6E1EC001F01FC002F0F5
:100E2800000E046E0A0E036E87EC0DF001C01EF072
:100E380002C01FF0D00E136EFF0E146E0DC0F6FF29
:100E48000EC0F7FF0800F550156E166A13501526E8
:100E58001450162215501E2616501F220D4A0E2A0F
:100E68000DC0F6FF0EC0F7FF0800F550A9EC0DF015
:100E7800D8A003D0D1D71D8E17D00DC0F6FF0EC055
:100E8800F7FF0D4A0E2A0800F5CF20F02050000A7F
:100E9800D8B41200640AD8B407D00D0AD8B404D064
:100EA800110AD8B4E8D703D11DBE15D018C0D9FF90
:100EB80019C0DAFFDECF1BF0DDCF1CF0020E1826BA
:100EC800000E19221CAE44D0030E1D121B6C1C1EF2
:100ED800D8B01C2A3DD018C0D9FF19C0DAFFDECF20
:100EE8001BF0DDCF1CF0020E1826000E192230D0A0
:100EF800010E206E050E2018D8B432D02050020DF5
:100F0800560EF324F66EFE0EF420F76E0900F55027
:100F18001B5C0900F5501C58D8A022D0202AEAD71B
:100F2800010E206E040E2018D8B41AD02050020DDD
:100F3800600EF324F66EFE0EF420F76E0900F550ED
:100F48001B5C0900F5501C58D8A00AD0202AEAD703
:100F58001D50800B000AD8B4CBD7800AD8B4E0D78C
:100F68001E501F10D8B409D01DC013F0030E13165D
:100F7800D8B403D01E06D8A01F06800E20BE7F0E50
:100F8800136E1E50205C1F50800A1358D8B007D02B
:100F980020501E5E000E20BEFF0E1F5A04D0000E09
:100FA8001F6E000E1E6E1DA414D01DC013F0030E7C
:100FB8001316D8B403D02D0ED7EC0DF01E501F1009
:100FC800D8B41ED0300ED7EC0DF01E06D8A01F06E0
:100FD800F5D71E501F10D8B40AD0200ED7EC0DF04C
:100FE8001E06D8A01F061E501F10D8A4F6D71DC075
:100FF80013F0030E1316D8B403D02D0ED7EC0DF052
:1010080020C01AF050D01A50020D560EF324F66E76
:10101800FE0EF420F76E0900F5CF03F00A00F5CFB5
:1010280004F01BC001F01CC002F062EC0CF001C01F
:1010380008F002C009F0000E0B6E0A0E0A6E40ECB2
:101048000DF00850300F206E2BD01BC001F01CC0D3
:1010580002F01A50020D600EF324F66EFE0EF42014
:10106800F76E0900F5CF03F00A00F5CF04F062EC43
:101078000CF001500F0B176E1750010DFF0EF324E3
:10108800F66EFE0EF420F76E0800F5CF20F008D0BB
:101098001D50800B000AD8B4B6D7800AD8B4D5D76B
:1010A8002050D7EC0DF01A061A28D8A4F1D70DC095
:1010B800F6FF0EC0F7FF0D4A0E2A0800F5CF20F004
:1010C8002050D8B412007FD6000E0001906F010E98
:1010D8008F6F8D80C350C4CF34F0356A34C035F07B
:1010E800346A3426000E352235BE14D0C20E345C64
:1010F800020E3558D8A00ED08D900001912B000E0D
:1011080000018A6F010E896F000E00018C6F010EBD
:101118008B6F1200C350C4CF34F0356A34C035F039
:10112800346A3426000E352235BE14D0355004E119
:10113800050E345CD8A00ED08D900001942B000EC3
:101148000001886F010E876F000E00018E6F010E7F
:101158008D6F12008D908D82C350C4CF34F0356AE4
:1011680034C035F0346A3426000E352235BE14D02A
:10117800C20E345C020E3558D8A00ED08D920001F4
:10118800912B000E00018A6F010E896F000E00017D
:101198008C6F010E8B6F1200C350C4CF34F0356AC8
:1011A80034C035F0346A3426000E352235BE14D0EA
:1011B800355004E1050E345CD8A00ED08D920001A4
:1011C800942B000E0001886F010E876F000E00013E
:1011D8008E6F010E8D6F12008D928B8AC350C4CF13
:1011E80034F0356A34C035F0346A3426000E3522BE
:1011F80035BE14D0355004E1360E345CD8A00ED07C
:101208008B9A0001932B000E00018A6F010E896FE3
:10121800000E00018C6F010E8B6F1200C350C4CFFB
:1012280034F0356A34C035F0346A3426000E35227D
:1012380035BE14D0355004E1050E345CD8A00ED06C
:101248008B9A0001942B000E0001886F010E876FA6
:10125800000E00018E6F010E8D6F12008B9A8C802C
:10126800C350C4CF34F0356A34C035F0346A3426FC
:10127800000E352235BE0FD0355004E1360E345CF1
:10128800D8A009D08C900001922B000E00018A6F23
:10129800010E896F1AD0C350C4CF34F0356A34C0F8
:1012A80035F0346A3426000E352235BE0ED035505E
:1012B80004E1050E345CD8A008D08C900001942B72
:1012C800000E0001886F010E876F8C908C82C350CE
:1012D800C4CF34F0356A34C035F0346A3426000E91
:1012E800352235BE0FD0355004E1360E345CD8A017
:1012F80009D08C920001922B000E00018C6F010E18
:101308008B6F08D08C920001942B000E00018E6F19
:10131800010E8D6F8C921200D59ECD90D90ED76E8E
:10132800DA0ED66EE20ECF6EB30ECE6E91C097F087
:1013380093C09AF092C098F094C09BF0000E000100
:10134800916F000E0001936F000E0001926F000E66
:101358000001946F46C034F0356A000E376E3C0EBB
:10136800366ED6EC0AF034500001966F46C034F061
:10137800356A000E376E3C0E366E9BEC0BF034501F
:1013880000019C6F000E466E000E496E000E456E01
:10139800000E0001956F000E0001A16F000E000104
:1013A800906F000E8F6F000E0001886F000E876F20
:1013B800000E00018A6F000E896F000E00018C6F0D
:1013C800000E8B6F000E00018E6F000E8D6F000EE9
:1013D80000019F6F000E00019D6F000E0001A06FBD
:1013E800000E00019E6F8D908D928B9A8C908C923E
:1013F8008D9489968998899A8A908A948B9C899CDD
:101408008B92899E8B948B901200D59ECD90D90E8D
:10141800D76EDA0ED66EE20ECF6EB30ECE6E91C0D8
:1014280097F093C09AF092C098F094C09BF0000E89
:101438000001916F000E0001936F000E0001926F82
:10144800000E0001946F46C001F0026A000E046E9F
:101458003C0E036E18EC0BF001500001966F46C06D
:1014680001F0026A000E046E3C0E036ED3EC0BF022
:10147800015000019C6F000E466E000E496E000E72
:10148800456E000E0001956F000E0001A16F000E61
:101498000001906F000E8F6F000E0001886F000E24
:1014A800876F000E00018A6F000E896F000E000121
:1014B8008C6F000E8B6F000E00018E6F000E8D6F0B
:1014C800000E00019F6F000E00019D6F000E0001CD
:1014D800A06F000E00019E6F8D908D928B9A8C905C
:1014E8008C928D9489968998899A8A908A948B9CF3
:1014F800899C8B92899E8B948B901200236E2A0E66
:101508002218D8A41DD0020E0001BB19D8A410D0EF
:10151800010E0001BB6FD58ECD90800EDDEC0DF075
:10152800980E0D6EFF0E0E6EE2EC06F08B80120028
:101538000001BB51D8A41200020E0001BB6F1200BB
:101548000001BB05D8A40AD0230E2218D8A4120083
:101558000A0E0001BB6F09EC0AF012000001BB5132
:10156800D8B4120021502218D8A40CD0020E0001C1
:10157800BB19D8A404D0090E0001BB6F12000001EA
:10158800BB07120023502218D8A41200090E00012C
:10159800BB19D8A404D0020E0001BB6F12000001D1
:1015A800BB2B1200000E396E37AE06D0366C371ED4
:1015B800D8B0372A010E396E35AE06D0346C351ED8
:1015C800D8B0352A010E391A000E3B6E000E3A6E5D
:1015D80036503710D8B41CD0010E386E04D0D890CD
:1015E80036363736382A37AEFAD7D8903A363B36B9
:1015F8003650345C37503558D8A005D03650345E54
:101608003750355A3A80D89037323632382EEDD79F
:101618003950D8B404D03A6C3B1ED8B03B2A3AC0F3
:1016280034F03BC035F01200000E066E04AE06D052
:10163800036C041ED8B0042A010E066E02AE06D052
:10164800016C021ED8B0022A010E061A000E086E9E
:10165800000E076E03500410D8B41CD0010E056E9E
:1016680004D0D89003360436052A04AEFAD7D890A9
:10167800073608360350015C04500258D8A005D03C
:101688000350015E0450025A0780D8900432033296
:10169800052EEDD70650D8B404D0076C081ED8B074
:1016A800082A07C001F008C002F01200000E3C6EC4
:1016B800000E3D6E000E3E6E000E3F6E3850391023
:1016C8003A103B10D8B42AD0010E406E06D0D890FC
:1016D800383639363A363B36402A3BAEF8D7D890BA
:1016E8003C363D363E363F363850345C39503558F6
:1016F8003A5036583B503758D8A009D03850345E45
:101708003950355A3A50365A3B50375A3C80D8905F
:101718003B323A3239323832402EE1D73CC034F0CD
:101728003DC035F03EC036F03FC037F01200000E25
:10173800396E35AE06D0346C351ED8B0352A010E58
:10174800396E37AE04D0366C371ED8B0372A3650CB
:101758003710D8B418D0010E386E04D0D890363669
:101768003736382A37AEFAD73650345C37503558C2
:10177800D8A004D03650345E3750355AD890373216
:101788003632382EF1D73950D8B404D0346C351EDF
:10179800D8B0352A34C034F035C035F01200000E08
:1017A800066E02AE06D0016C021ED8B0022A010EE7
:1017B800066E04AE04D0036C041ED8B0042A03508D
:1017C8000410D8B418D0010E056E04D0D890033692
:1017D8000436052A04AEFAD70350015C04500258B7
:1017E800D8A004D00350015E0450025AD8900432A5
:1017F8000332052EF1D70650D8B404D0016C021E6E
:10180800D8B0022A01C001F002C002F01200000E96
:10181800C76E280EC66E000EC56E800E346E960E0C
:10182800356E980E366E000E376E41C0A2F042C07B
:10183800A3F043C0A4F044C0A5F0020ED890000164
:10184800A237A337A437A537E82EF8D7A2C038F0B7
:10185800A3C039F0A4C03AF0A5C03BF05AEC0BF095
:101868003404C86E948694881200000E396E000EF7
:10187800386E36503710D8B41CD0010E3A6E04D0EA
:10188800D890363637363A2A37AEFAD7D89038361F
:1018980039363650345C37503558D8A005D03650D4
:1018A800345E3750355A3880D890373236323A2E2F
:1018B800EDD738C034F039C035F01200000E066E8E
:1018C800000E056E03500410D8B41CD0010E076E2C
:1018D80004D0D89003360436072A04AEFAD7D89035
:1018E800053606360350015C04500258D8A005D0CE
:1018F8000350015E0450025A0580D8900432033226
:10190800072EEDD705C001F006C002F01200356EB3
:101918003550F00B346E8C500F0B8C6E34508C108D
:101928008C6E8C96190EE82EFED78C86190EE82E32
:10193800FED73538F00B356E3550F00B346E8C50C1
:101948000F0B8C6E34508C108C6E8C96190EE82E02
:10195800FED78C86190EE82EFED71200026E0250B2
:10196800F00B016E8C500F0B8C6E01508C108C6E2E
:101978008C96190EE82EFED78C86190EE82EFED707
:101988000238F00B026E0250F00B016E8C500F0BF8
:101998008C6E01508C108C6E8C96190EE82EFED72A
:1019A8008C86190EE82EFED71200E10EF66E1B0E7D
:1019B800F76E000EF86E0900F5CFBBF0E00EF66E7C
:1019C8001B0EF76E000EF86E0900F5CF49F000EE19
:1019D80080F0220EEE6AE806FDE1486A476A466A28
:1019E800456A4A904A92000EF86E000109EF00F02D
:1019F800310E376EB20EE82EFED7372EFCD700D048
:101A0800330ED1EC0DF0320ED1EC0DF0280ED1ECE6
:101A18000DF00F0ED1EC0DF0060ED1EC0DF0010E0D
:101A2800D1EC0DF0310E376EB20EE82EFED7372E00
:101A3800FCD700D012003D503E10D8B418D0010E8B
:101A48003F6E04D0D8903D363E363F2A3EAEFAD798
:101A58003D503B5C3E503C58D8A004D03D503B5EC6
:101A68003E503C5AD8903E323D323F2EF1D73BC0D3
:101A78003BF03CC03CF012000A500B10D8B418D010
:101A8800010E0C6E04D0D8900A360B360C2A0BAE19
:101A9800FAD70A50085C0B500958D8A004D00A504D
:101AA800085E0B50095AD8900B320A320C2EF1D727
:101AB80008C008F009C009F0120034503602F3CF0C
:101AC80038F0F4CF39F034503702F3503926355016
:101AD8003602F350392638C034F039C035F01200D8
:101AE800356EC2EC0DF0C586C2EC0DF0C9CF36F0EC
:101AF800C2EC0DF03550D8A402D0C58A01D0C59AE1
:101B0800C5883650120001500302F3CF05F0F4CF18
:101B180006F001500402F350062602500302F35067
:101B2800062605C001F006C002F01200366E000E4F
:101B3800356E3A0E366005D02F0E366402D0010E8F
:101B4800356E35C034F034301200036E000E026E6C
:101B58003A0E036005D02F0E036402D0010E026E08
:101B680002C001F001301200346E3444E846FC0B28
:101B7800C26EC280C282C2A21200FDD7C7B4FED70D
:101B8800C5CF34F01F0E3416D8B41200F7D7366E0E
:101B98008C8436508BEC0CF01200366E8C943650D8
:101BA8008BEC0CF01200036E8C840350B2EC0CF03A
:101BB8001200036E8C940350B2EC0CF01200C2ECCD
:101BC8000DF035C0C9FF1200C2EC0DF0C58412003B
:0A1BD800C2EC0DF0C58012000402FB
:10FE4400003132334134353642373839432A30238E
:10FE5400440001000A006400E803102701001000B8
:10FE640000010010253032643A253032642020200D
:10FE74002020202020202020202020200044415425
:10FE8400453A20253032782F253032782F253032EC
:10FE94007820200054494D453A20253032783A25BF
:10FEA4003032783A2530327820200052554E4E496F
:10FEB4004E473A20253032643A25303264202020DF
:10FEC400004241545445524945533A202530326446
:10FED4002020202020004241545445524945533AA1
:10FEE400202530326420202000253034642025323F
:10FEF4006420202020202020202000303132333480
:10FF04003536373839616263646566002020202005
:10FF14002020202020202020202020200023204FCB
:10FF240046204320202020202020202020002320A1
:10FF34004F46204141202020202020202020002343
:10FF4400204F462039562020202020202020200029
:10FF5400544F54414C2023204F4620202020202061
:10FF640000544F20434F4E54494E554520202020E5
:10FF7400200023204F4620445241494E454420202E
:10FF8400202000444F4E4521205052455353202AEF
:10FF94002020200052554E4E494E473A2030303AE8
:10FFA4003030202000454D455247454E435920539B
:10FFB400544F50202000544F54414C2052554E2051
:10FFC40054494D453A2000203C34202020444154DB
:10FFD40041202020363E200053544152543A2020E0
:10FFE400205052455353202A003C203420202044E2
:0BFFF40041544120202036203E000038
:020000040020DA
:08000000FFFFFFFFFFFFFFFF00
:020000040030CA
:0E000000FF021F1EFF8381FF0FC00FE00F40A5
:00000001FF
