:0400000007EF00F016
:100008004F82CDED0CF034EF12F02F0E926EF20EFF
:10001800936E000E946E000E956E010E966E000E95
:10002800896E000E8A6E000E8B6E000E8C6E000EAE
:100038008D6E000EC26E090EC16EB10EC06E000E3E
:10004800B56EB496F28EF28CF086F090F28AF29445
:100058009D809E90070ED56ED90ED76EDA0ED66E9D
:10006800800ECD6EEC0ECF6E770ECE6ECFEC11F00B
:10007800F19E100E3E6E270E3F6E000E406E000E73
:10008800416E02EC11F0F28E50D0800E33EC13F07A
:10009800DE0E3D6EFF0E3E6E02EC05F0C00E33EC38
:1000A80013F0CD0E3D6EFF0E3E6E02EC05F0000E15
:1000B8000001AA6F310E0001AA6501D011D0020E0D
:1000C8000001DC19D8A40CD0210E0001A86F760E0F
:1000D800E82EFED7A82FFCD700F00001AA2BEAD7FC
:1000E800800E33EC13F0C00E33EC13F0780E3D6E37
:1000F800FF0E3E6E02EC05F0000E0001AB6F310EF4
:100108000001AB6501D011D0020E0001DC19D8A4A2
:100118000CD0210E0001A86F760EE82EFED7A82F6E
:10012800FCD700F00001AB2BEAD7020E0001DC1966
:10013800D8A451D2AAD7000E03EC13F0800E33ECEA
:1001480013F0C00E33EC13F0DF0E3D6EFE0E3E6E64
:10015800C3CF3FF0C4CF40F00001D051D2C0A8F0C7
:100168000001A96B0001A827000EA9230001CF51A7
:100178000001A827000EA9230001D1510001A825DC
:10018800416E0001000E0001A921426E02EC05F04B
:100198000001DB51D8B473D0070E326ED00E316E29
:1001A800E0EC12F0000E0001DB6F8C90000E496E3F
:1001B800000E0001AF6F16D00001AF2B8C82110E1C
:1001C8000001A86F3A0EE82EFED7A82FFCD700F042
:1001D8008C92110E0001A86F3A0EE82EFED7A82FB8
:1001E800FCD700F0140E0001AF6104D00001DC055B
:1001F800D8B4E2D7000E0001AF6F14D00001AF2BC6
:100208008C82070E0001A86F7D0EE82EFED7A82F5E
:10021800FCD78C92070E0001A86F7D0EE82EFED742
:10022800A82FFCD7B20E0001AF6104D00001DC0595
:10023800D8B4E4D7000E0001AF6F16D00001AF2B81
:100248008C82110E0001A86F3A0EE82EFED7A82F57
:10025800FCD700F08C92110E0001A86F3A0EE82E20
:10026800FED7A82FFCD700F0020E0001AF6104D022
:100278000001DC05D8B4E2D7000E0001AF6FC4500E
:1002880004E1380EC35CD8A002D0010E01D0000EE4
:100298000001A86FC45006E1160EC35CD8B002D0A6
:1002A800010E01D0000E0001A811E8A08ED1000EA9
:1002B800326EFA0E316EE0EC12F0010E4C6E8B8E3F
:1002C800010E326EF40E316EE0EC12F01EEC0EF000
:1002D8008B9E0001D351D8B405D0020E0001C26F25
:1002E800000EC16F0001BF510001C011D8B402D087
:1002F800010E4D6E0001C1510001C211D8B402D0E7
:10030800040E4D6E0001C3510001C411D8B402D0CF
:10031800010E4E6E0001C5510001C611D8B402D0BD
:10032800040E4E6EBFC0C9F0C0C0CAF0C1C0C7F04D
:10033800C2C0C8F0C3C0CDF0C4C0CEF0C5C0CBF0B9
:10034800C6C0CCF08B828B948B808D940001C351F6
:100358000001BF110001A86F0001C4510001C011C4
:100368000001A96F0001C1510001A8130001C25189
:100378000001A9130001C5510001A8130001C651CD
:100388000001A9130001A8510001A911D8B404D093
:100398000001DC05D8B4DAD70001D351D8B40BD0AA
:1003A800020E0001C46F000EC36F010E4E6EC3C073
:1003B800CDF0C4C0CEF00001C3510001C411D8B4BF
:1003C80004D00001DC05D8B4F6D7010E326EF40E65
:1003D800316EE0EC12F00001D051D1C0A8F000015C
:1003E800A96B0001A827000EA9230001CF51000125
:1003F800A827000EA9230001D2510001A827000E4A
:10040800A9230001A9BF09D00001A95104E10F0ED9
:100418000001A85DD8B0DBEC09F08B828B948B804F
:100428008D94C7C0BFF0C8C0C0F0C9C0C1F0CAC071
:10043800C2F0CBC0C3F0CCC0C4F0CDC0C5F0CEC0B4
:10044800C6F0000E0001B06F16D00001B02B8C82F0
:10045800110E0001A86F3A0EE82EFED7A82FFCD780
:1004680000F08C92110E0001A86F3A0EE82EFED70C
:10047800A82FFCD700F0140E0001B06104D00001D1
:10048800DC05D8B4E2D7000E0001B06F14D000012B
:10049800B02B8C82070E0001A86F7D0EE82EFED7C8
:1004A800A82FFCD78C92070E0001A86F7D0EE82EAE
:1004B800FED7A82FFCD7B20E0001B06104D000010E
:1004C800DC05D8B4E4D7000E0001B06F16D00001E7
:1004D800B02B8C82110E0001A86F3A0EE82EFED7C1
:1004E800A82FFCD700F08C92110E0001A86F3A0ECD
:1004F800E82EFED7A82FFCD700F0020E0001B0614D
:1005080004D00001DC05D8B4E2D7000E0001B06FBA
:100518000001C3510001BF110001A86F0001C451BF
:100528000001C0110001A96F0001C1510001A81309
:100538000001C2510001A9130001C5510001A8130F
:100548000001C6510001A9130001A8510001A91119
:10055800D8B404D00001DC05D8B4DAD78C928C90DA
:10056800000E0001C26F000EC16F000E0001C66FC1
:10057800000EC56F000E0001C06F000EBF6F000EA9
:100588000001C46F000EC36F000E0001CA6F000E99
:10059800C96F000E0001C86F000EC76F000E000182
:1005A800CE6F000ECD6F000E0001CC6F000ECB6F2A
:1005B8008B928B948B9C8B9A8B908D948D9289982F
:1005C800000E0001D36F000E4C6E000E326EFA0E54
:1005D800316EE0EC12F00001DC05D8A413D0ABD5E5
:1005E800800E33EC13F0450E3D6EFF0E3E6E02ECAE
:1005F80005F0C00E33EC13F0230E3D6EFF0E3E6E79
:1006080002EC05F00001DC51D8A419D0E9D7800E1E
:1006180033EC13F0670E3D6EFF0E3E6E02EC05F0F4
:10062800C00E33EC13F0C20E3D6EFD0E3E6ED4C00C
:100638003FF0406ADAC041F0426A02EC05F0030E6E
:100648000001DC19D8A416D0E2D7800E33EC13F0E1
:10065800120E3D6EFF0E3E6E02EC05F0C00E33EC3E
:1006680013F0770E3D6EFE0E3E6ED7C03FF0406A27
:1006780002EC05F0040E0001DC19D8A416D0E5D769
:10068800800E33EC13F0AC0E3D6EFE0E3E6E02ECA7
:1006980005F0C00E33EC13F0770E3D6EFE0E3E6E85
:1006A800D8C03FF0406A02EC05F0050E0001DC19E5
:1006B800D8A416D0E5D7800E33EC13F0CE0E3D6EDD
:1006C800FE0E3E6E02EC05F0C00E33EC13F04E0E3B
:1006D8003D6EFE0E3E6ED5C03FF0406A02EC05F05E
:1006E800060E0001DC19D8A416D0E5D7800E33EC2D
:1006F80013F0BD0E3D6EFE0E3E6E02EC05F0C00E10
:1007080033EC13F04E0E3D6EFE0E3E6ED6C03FF03B
:10071800406A02EC05F0070E0001DC19D8A416D0D7
:10072800E5D7800E33EC13F0340E3D6EFF0E3E6EAF
:1007380002EC05F0C00E33EC13F04E0E3D6EFE0ECB
:100748003E6ED9C03FF0406A02EC05F0080E000189
:10075800DC19D8A463D0E5D7800E33EC13F0F00E83
:100768003D6EFE0E3E6E02EC05F0C00E33EC13F04B
:10077800DB0E3D6EFD0E3E6EB7C03FF0406AB6C060
:1007880041F0426AB5C043F0446A02EC05F0000E3D
:100798000001AC6FC70E0001AC6501D011D0090E85
:1007A8000001DC19D8A40CD0210E0001A86F760E28
:1007B800E82EFED7A82FFCD700F00001AC2BEAD713
:1007C800800E33EC13F0C00E33EC13F0F20E3D6ED6
:1007D800FD0E3E6EB3C03FF0406AB2C041F0426ABF
:1007E800B1C043F0446A02EC05F0000E0001AD6FA1
:1007F800C70E0001AD6501D011D0090E0001DC194A
:10080800D8A40CD0210E0001A86F760EE82EFED7D2
:10081800A82FFCD700F00001AD2BEAD7090E000184
:10082800DC19D8A41DD098D7800E33EC13F0890EAC
:100838003D6EFF0E3E6E02EC05F0C00E33EC13F079
:100848009B0E3D6EFE0E3E6E02EC05F0000E0001A2
:100858008F6F010E8E6F0A0E0001906F5AEC08F030
:100868000A0E0001DC19D8A41DD0DED7800E33ECA7
:1008780013F09A0E3D6EFF0E3E6E02EC05F0C00EB0
:1008880033EC13F09B0E3D6EFE0E3E6E02EC05F04F
:10089800000E00018F6F610E8E6F0B0E0001906FBE
:1008A8005AEC08F00B0E0001DC19D8A41DD0DED7D5
:1008B800800E33EC13F0AB0E3D6EFF0E3E6E02EC75
:1008C80005F0C00E33EC13F09B0E3D6EFE0E3E6E2F
:1008D80002EC05F0000E00018F6FC10E8E6F0C0E3A
:1008E8000001906F5AEC08F00C0E0001DC19D8A436
:1008F8001DD0DED7800E33EC13F0BC0E3D6EFF0E1C
:100908003E6E02EC05F0C00E33EC13F09B0E3D6E0C
:10091800FE0E3E6E02EC05F0010E00018F6F210EF7
:100928008E6F0D0E0001906F5AEC08F00D0E00014D
:10093800DC19D8A45CD0DED753EC13F0000E336E6C
:10094800D00E326E45EC13F0000E336E000E326E90
:1009580045EC13F04FEC13F053EC13F0000E336E2C
:10096800D10E326E45EC13F0000E0001AE6F050E8D
:100978000001AE6501D010D00001AE51010DB80ED6
:10098800F324D96E000EF420DA6E010E76EC12F024
:10099800DF6E0001AE2BEBD7000E76EC12F00001F3
:1009A800BE6F4FEC13F0800E33EC13F0090E3D6E62
:1009B800FE0E3E6EBEC03FF0406ABDC041F0426AC6
:1009C800BCC043F0446A02EC05F0C00E33EC13F0EF
:1009D800200E3D6EFE0E3E6EBAC03FF0406AB9C0B2
:1009E80041F0426AB8C043F0446A02EC05F00E0ECA
:1009F8000001DC19D8A499EF00F09ED73F0E000142
:100A0800856F000E0001866FBDD1250E00018D197E
:100A1800D8B405D000018D512DEC13F0B3D1000EE0
:100A280000018C6F000E8B6F000E00018A6F04D0DE
:100A380000018A853D4A3E2A3DC0F6FF3EC0F7FFC9
:100A48000800F550300AD8B4F3D73DC0F6FF3EC0D1
:100A5800F7FF0800F550C2EC12F0D8A042D0000E03
:100A680000018C6F000E8B6F8BC031F08CC032F0A0
:100A7800000E346E0A0E336E63EC12F031C08BF048
:100A880032C08CF0D00E0001806FFF0E0001816F24
:100A98003DC0F6FF3EC0F7FF0800F5500001826F29
:100AA800836B000180510001822700018151000100
:100AB80083230001825100018B270001835100012B
:100AC8008C233D4A3E2A3DC0F6FF3EC0F7FF080092
:100AD800F550C2EC12F0D8A004D0C6D700018A8F16
:100AE80018D03DC0F6FF3EC0F7FF3D4A3E2A080039
:100AF800F5CF8DF000018D51000AD8B41200640AB8
:100B0800D8B407D00D0AD8B404D0110AD8B4E6D79F
:100B180039D100018ABF19D085C0D9FF86C0DAFF54
:100B2800DECF88F0DDCF89F0020E00018527000EA8
:100B38008623000189AF53D0030E00018A130001F8
:100B4800886D891FD8B0892B4AD085C0D9FF86C047
:100B5800DAFFDECF88F0DDCF89F0020E00018527AD
:100B6800000E86233CD0010E00018D6F050E00019A
:100B78008D19D8B43DD000018D51020DB00EF3246B
:100B8800F66EFD0EF420F76E0900F5500001885D41
:100B98000900F55000018959D8A02AD000018D2BF1
:100BA800E5D7010E00018D6F040E00018D19D8B430
:100BB8001FD000018D51020DBA0EF324F66EFD0E02
:100BC800F420F76E0900F5500001885D0900F55022
:100BD80000018959D8A00CD000018D2BE5D7000160
:100BE8008A51800B000AD8B4BED7800AD8B4D9D7A6
:100BF80000018B5100018C11D8B40BD08AC080F051
:100C0800030E00018017D8B404D000018B07D8A0C8
:100C18008C07800E00018DBF7F0E0001806F0001E0
:100C28008B5100018D5D00018C51800A00018059B3
:100C3800D8B00BD000018D5100018B5F000E000170
:100C48008DBFFF0E00018C5B05D0000E00018C6F7C
:100C5800000E8B6F00018AA518D08AC080F0030EA1
:100C680000018017D8B403D02D0E2DEC13F000012D
:100C78008B5100018C11D8B425D0300E2DEC13F017
:100C880000018B07D8A08C07F2D700018B51000117
:100C98008C11D8B40DD0200E2DEC13F000018B0769
:100CA800D8A08C0700018B5100018C11D8A4F3D770
:100CB8008AC080F0030E00018017D8B403D02D0E2F
:100CC8002DEC13F08DC087F057D000018751020D2D
:100CD800B00EF324F66EFD0EF420F76E0900F5CF82
:100CE80033F00A00F5CF34F088C031F089C032F013
:100CF8002FEC11F031C038F032C039F0000E3B6EE5
:100D08000A0E3A6EF2EC11F03850300F00018D6F78
:100D18002FD088C031F089C032F000018751020D10
:100D2800BA0EF324F66EFD0EF420F76E0900F5CF27
:100D380033F00A00F5CF34F02FEC11F031500F0BDF
:100D48000001846F00018451010D8A0EF324F66EB0
:100D5800FE0EF420F76E0800F5CF8DF009D00001E3
:100D68008A51800B000AD8B4B0D7800AD8B4D1D73A
:100D780000018D512DEC13F0000187070001872930
:100D8800D8A4EDD73DC0F6FF3EC0F7FF3D4A3E2A46
:100D98000800F5CF8DF000018D51D8B4120035D67A
:100DA8000F0E146E000E156E74D1250E1C18D8B4D3
:100DB80004D01C5039EC13F06CD1000E1B6E000EE1
:100DC8001A6E000E196E03D019840D4A0E2A0DC032
:100DD800F6FF0EC0F7FF0800F550300AD8B4F4D774
:100DE8000DC0F6FF0EC0F7FF0800F550D1EC12F069
:100DF800D8A035D0000E1B6E000E1A6E1AC001F076
:100E08001BC002F0000E046E0A0E036E9CEC12F07A
:100E180001C01AF002C01BF0D00E0F6EFF0E106E4C
:100E28000DC0F6FF0EC0F7FF0800F550116E126AEC
:100E38000F5011261050122211501A2612501B2240
:100E48000D4A0E2A0DC0F6FF0EC0F7FF0800F55038
:100E5800D1EC12F0D8A003D0D1D7198E17D00DC07D
:100E6800F6FF0EC0F7FF0D4A0E2A0800F5CF1CF05A
:100E78001C50000AD8B41200640AD8B407D00D0A6E
:100E8800D8B404D0110AD8B4E8D703D119BE15D004
:100E980014C0D9FF15C0DAFFDECF17F0DDCF18F088
:100EA800020E1426000E152218AE44D0030E191295
:100EB800176C181ED8B0182A3DD014C0D9FF15C019
:100EC800DAFFDECF17F0DDCF18F0020E1426000E81
:100ED800152230D0010E1C6E050E1C18D8B432D065
:100EE8001C50020DB00EF324F66EFD0EF420F76EC2
:100EF8000900F550175C0900F5501858D8A022D001
:100F08001C2AEAD7010E1C6E040E1C18D8B41AD07D
:100F18001C50020DBA0EF324F66EFD0EF420F76E87
:100F28000900F550175C0900F5501858D8A00AD0E8
:100F38001C2AEAD71950800B000AD8B4CBD7800AEC
:100F4800D8B4E0D71A501B10D8B409D019C00FF084
:100F5800030E0F16D8B403D01A06D8A01B06800EAD
:100F68001CBE7F0E0F6E1A501C5C1B50800A0F5857
:100F7800D8B007D01C501A5E000E1CBEFF0E1B5ABC
:100F880004D0000E1B6E000E1A6E19A414D019C0DE
:100F98000FF0030E0F16D8B403D02D0E39EC13F052
:100FA8001A501B10D8B41ED0300E39EC13F01A06A4
:100FB800D8A01B06F5D71A501B10D8B40AD0200E9B
:100FC80039EC13F01A06D8A01B061A501B10D8A427
:100FD800F6D719C00FF0030E0F16D8B403D02D0E94
:100FE80039EC13F01CC016F050D01650020DB00E9C
:100FF800F324F66EFD0EF420F76E0900F5CF03F02A
:101008000A00F5CF04F017C001F018C002F058EC40
:1010180011F001C008F002C009F0000E0B6E0A0EB4
:101028000A6E13EC12F00850300F1C6E2BD017C04C
:1010380001F018C002F01650020DBA0EF324F66E35
:10104800FD0EF420F76E0900F5CF03F00A00F5CF86
:1010580004F058EC11F001500F0B136E1350010DF2
:101068008A0EF324F66EFE0EF420F76E0800F5CF14
:101078001CF008D01950800B000AD8B4B6D7800AE3
:10108800D8B4D5D71C5039EC13F016061628D8A4B6
:10109800F1D70DC0F6FF0EC0F7FF0D4A0E2A080063
:1010A800F5CF1CF01C50D8B412007FD6000E0001FA
:1010B800A36FC70E0001A36501D011D000019051A4
:1010C8000001DC19D8A40BD0210E456E760EE82E4F
:1010D800FED7452EFCD700D00001A32BEAD78EC03F
:1010E800A6F08FC0A7F0A6C031F0A7C032F0EDEC93
:1010F80012F000019D6FA6C031F0A7C032F01FECBE
:1011080013F031C0A6F032C0A7F0A6C031F0A7C0D6
:1011180032F0EDEC12F000019E6FA6C031F0A7C0CE
:1011280032F01FEC13F031C0A6F032C0A7F0A6C011
:1011380031F0A7C032F0EDEC12F000019F6FA6C0AD
:1011480031F0A7C032F01FEC13F031C0A6F032C066
:10115800A7F0A6C031F0A7C032F0EDEC12F0000104
:10116800A06FA6C031F0A7C032F01FEC13F031C059
:10117800A6F032C0A7F0A6C031F0A7C032F0EDEC5F
:1011880012F00001A16FA6C031F0A7C032F01FEC29
:1011980013F031C0A6F032C0A7F0A6C031F0A7C046
:1011A80032F0EDEC12F00001A26FA6C031F0A7C03A
:1011B80032F01FEC13F031C0A6F032C0A7F0A6C081
:1011C80031F0A7C032F0EDEC12F0456E4550000149
:1011D800936F946BA6C031F0A7C032F01FEC13F0E8
:1011E80031C0A6F032C0A7F0A6C031F0A7C032F0D7
:1011F800EDEC12F0456E45500001956F966BA6C058
:1012080031F0A7C032F01FEC13F031C0A6F032C0A5
:10121800A7F0A6C031F0A7C032F0EDEC12F0456E91
:1012280045500001976F986BA6C031F0A7C032F007
:101238001FEC13F031C0A6F032C0A7F0A6C031F001
:10124800A7C032F0EDEC12F0456E45500001996FE1
:101258009A6BA6C031F0A7C032F01FEC13F031C072
:10126800A6F032C0A7F0A6C031F0A7C032F0EDEC6E
:1012780012F0456E45500001916F926BA6C031F097
:10128800A7C032F01FEC13F031C0A6F032C0A7F0AF
:10129800A6C031F0A7C032F0EDEC12F0456E455013
:1012A80000019B6F9C6B7CD0800E33EC13F0DB0E3F
:1012B8003D6EFD0E3E6E9DC03FF0406A9EC041F0FF
:1012C800426A9FC043F0446A02EC05F0C00E33EC5A
:1012D80013F0F20E3D6EFD0E3E6EA0C03FF0406A68
:1012E800A1C041F0426AA2C043F0446A02EC05F092
:1012F800000E0001A46FC70E0001A46501D011D033
:10130800000190510001DC19D8A40BD0210E456EC4
:10131800760EE82EFED7452EFCD700D00001A42B70
:10132800EAD7800E33EC13F0370E3D6EFE0E3E6E9C
:1013380093C03FF094C040F095C041F096C042F091
:1013480097C043F098C044F002EC05F0C00E33ECAF
:1013580013F0630E3D6EFE0E3E6E99C03FF09AC0CC
:1013680040F09BC041F09CC042F002EC05F0000E3A
:101378000001A56FC70E0001A56501D011D00001BD
:1013880090510001DC19D8A40BD0210E456E760EC1
:10139800E82EFED7452EFCD700D00001A52BEAD7B2
:1013A800000190510001DC19D8A412007DD7D59E08
:1013B800CD90D90ED76EDA0ED66EEC0ECF6E770EB4
:1013C800CE6ECFC0D5F0D1C0D8F0D0C0D6F0D2C044
:1013D800D9F00001CF510001D1250001D02500012D
:1013E800D2250001D76F000E326E000E316EEDEC83
:1013F80012F0396E3950600D010EF3243A6E000E6A
:10140800F4203B6E3AC031F03BC032F0B7C033F045
:1014180050EC12F03AC031F03BC032F01FEC13F040
:1014280031C03AF032C03BF03AC031F03BC032F044
:10143800B6C033F050EC12F03AC031F03BC032F095
:101448001FEC13F031C03AF032C03BF03AC031F033
:101458003BC032F0B5C033F050EC12F03AC031F076
:101468003BC032F01FEC13F031C03AF032C03BF011
:101478003AC031F03BC032F0B3C033F050EC12F058
:101488003AC031F03BC032F01FEC13F031C03AF0F3
:1014980032C03BF03AC031F03BC032F0B2C033F05A
:1014A80050EC12F03AC031F03BC032F01FEC13F0B0
:1014B80031C03AF032C03BF03AC031F03BC032F0B4
:1014C800B1C033F050EC12F03AC031F03BC032F00A
:1014D8001FEC13F031C03AF032C03BF03AC031F0A3
:1014E8003BC032F0D0C033F050EC12F03AC031F0CB
:1014F8003BC032F01FEC13F031C03AF032C03BF081
:101508003AC031F03BC032F0D1C033F050EC12F0A9
:101518003AC031F03BC032F01FEC13F031C03AF062
:1015280032C03BF03AC031F03BC032F0CFC033F0AC
:1015380050EC12F03AC031F03BC032F01FEC13F01F
:1015480031C03AF032C03BF03AC031F03BC032F023
:10155800D2C033F050EC12F03AC031F03BC032F058
:101568001FEC13F031C03AF032C03BF03AC031F012
:101578003BC032F0D7C033F050EC12F03AC031F033
:101588003BC032F01FEC13F031C03AF032C03BF0F0
:101598003AC031F03BC032F04AC033F050EC12F0A0
:1015A800392A030E396409D0000E326E000E316EEE
:1015B800000E336E50EC12F008D0000E326E000EA2
:1015C800316E39C033F050EC12F0000E0001CF6FCD
:1015D800000E0001D16F000E0001D06F000E000157
:1015E800D26F4AC031F0326A000E346E3C0E336E50
:1015F800CDEC0FF031500001D46F4AC031F0326A9F
:10160800000E346E3C0E336E92EC10F03150000137
:10161800DA6F000E4A6E000E496E000E4C6E000E18
:101628000001C06F000EBF6F000E0001C26F000EF8
:10163800C16F000E0001C46F000EC36F000E0001E1
:10164800C66F000EC56F000E0001CC6F000ECB6F89
:10165800000E0001C86F000EC76F000E0001CE6FAC
:10166800000ECD6F000E0001CA6F000EC96F000E8C
:10167800486E000E476E000E0001D36F000E4B6ED1
:101688008B928B948B9C8B9A8B908D948D9289984E
:101698008C908B9E8C928A90000E0001DC6F120059
:1016A800D59ECD90D90ED76EDA0ED66EEC0ECF6ED3
:1016B800770ECE6ECFC0D5F0D1C0D8F0D0C0D6F05E
:1016C800D2C0D9F00001CF510001D1250001D025A9
:1016D8000001D2250001D76F000E026E000E016EC8
:1016E800F8EC12F0096E0950600D010EF3240A6E31
:1016F800000EF4200B6E0AC001F00BC002F0B7C058
:1017080003F089EC12F00AC001F00BC002F026ECDD
:1017180013F001C00AF002C00BF00AC001F00BC0C0
:1017280002F0B6C003F089EC12F00AC001F00BC059
:1017380002F026EC13F001C00AF002C00BF00AC058
:1017480001F00BC002F0B5C003F089EC12F00AC03A
:1017580001F00BC002F026EC13F001C00AF002C041
:101768000BF00AC001F00BC002F0B3C003F089EC23
:1017780012F00AC001F00BC002F026EC13F001C011
:101788000AF002C00BF00AC001F00BC002F0B2C0B0
:1017980003F089EC12F00AC001F00BC002F026EC4D
:1017A80013F001C00AF002C00BF00AC001F00BC030
:1017B80002F0B1C003F089EC12F00AC001F00BC0CE
:1017C80002F026EC13F001C00AF002C00BF00AC0C8
:1017D80001F00BC002F0D0C003F089EC12F00AC08F
:1017E80001F00BC002F026EC13F001C00AF002C0B1
:1017F8000BF00AC001F00BC002F0D1C003F089EC75
:1018080012F00AC001F00BC002F026EC13F001C080
:101818000AF002C00BF00AC001F00BC002F0CFC002
:1018280003F089EC12F00AC001F00BC002F026ECBC
:1018380013F001C00AF002C00BF00AC001F00BC09F
:1018480002F0D2C003F089EC12F00AC001F00BC01C
:1018580002F026EC13F001C00AF002C00BF00AC037
:1018680001F00BC002F0D7C003F089EC12F00AC0F7
:1018780001F00BC002F026EC13F001C00AF002C020
:101888000BF00AC001F00BC002F04AC003F089EC6B
:1018980012F0092A030E096409D0000E026E000E28
:1018A800016E000E036E89EC12F008D0000E026E75
:1018B800000E016E09C003F089EC12F0000E000161
:1018C800CF6F000E0001D16F000E0001D06F000E27
:1018D8000001D26F4AC001F0026A000E046E3C0E8D
:1018E800036E0FEC10F001500001D46F4AC001F0F4
:1018F800026A000E046E3C0E036ECAEC10F0015032
:101908000001DA6F000E4A6E000E496E000E4C6E32
:10191800000E0001C06F000EBF6F000E0001C26F05
:10192800000EC16F000E0001C46F000EC36F000EE1
:101938000001C66F000EC56F000E0001CC6F000ECF
:10194800CB6F000E0001C86F000EC76F000E0001BC
:10195800CE6F000ECD6F000E0001CA6F000EC96F6A
:10196800000E486E000E476E000E0001D36F000E89
:101978004B6E8B928B948B9C8B9A8B908D948D92C3
:1019880089988C908B9E8C928A90000E0001DC6F57
:1019980012000600FACF22F0FBCF23F0E9CF24F0A3
:1019A800EACF25F0E1CF26F0E2CF27F0D9CF28F013
:1019B800DACF29F0F3CF2AF0F4CF2BF0F6CF2CF0C2
:1019C800F7CF2DF0F8CF2EF0F5CF2FF0F0A015D0EF
:1019D80081380F0B0F0B306E360E1D6E3050010D17
:1019E8009F0EF324F66EFD0EF420F76E0800F5CF77
:1019F8001EF0340E46EC0FF0F0900001DC05D8B470
:101A0800F2A438D0F294D90ED76EDA0ED66E4A2ADE
:101A18004AC001F0026A000E046E3C0E036E0FEC21
:101A280010F001500001D46F4AC001F0026A000EA4
:101A3800046E3C0E036ECAEC10F001500001DA6F20
:101A4800B30E4A6402D054EC0BF04C50D8A410D01A
:101A5800C45004E1330EC35CD8A002D0492A02D096
:101A6800000E496E090E496405D054EC0BF002D003
:101A7800000E496E0001DC05D8B49EA0BDD09E9032
:101A8800EC0ECF6E770ECE6E47504810D8B403D008
:101A98004706D8A048064B2A950E4B640DD0000E79
:101AA8004B6E8AB003D0216A212A01D0216A8A505C
:101AB8002118FE0B21188A6E0001BF510001C011C8
:101AC800D8B422D04D04D8A402D08B8A8B9C020EA5
:101AD8004D18D8A402D08B928B84030E4D18D8A42D
:101AE80002D08B9A8B8C040E4D18D8A402D08B820E
:101AF8008B940001BF07D8A0C007030E4D6403D024
:101B0800010E4D6E01D04D2A0001C1510001C211D4
:101B1800D8B422D0040E4D18D8A402D08B9A8B8C3E
:101B2800030E4D18D8A402D08B928B84020E4D1848
:101B3800D8A402D08B8A8B9C4D04D8A402D08B8267
:101B48008B940001C107D8A0C207020E4D6003D0D4
:101B5800040E4D6E01D04D060001C3510001C411A1
:101B6800D8B422D04E04D8A402D089888D92020E0F
:101B78004E18D8A402D08B908D84030E4E18D8A48A
:101B880002D089988D82040E4E18D8A402D08B807A
:101B98008D940001C307D8A0C407030E4E6403D078
:101BA800010E4E6E01D04E2A0001C5510001C6112A
:101BB800D8B422D0040E4E18D8A402D089988D82A9
:101BC800030E4E18D8A402D08B908D84020E4E18A6
:101BD800D8A402D089888D924E04D8A402D08B80D4
:101BE8008D940001C507D8A0C607020E4E6003D029
:101BF800040E4E6E01D04E062FC0F5FF2EC0F8FF22
:101C08002DC0F7FF2CC0F6FF2BC0F4FF2AC0F3FF4E
:101C180029C0DAFF28C0D9FF27C0E2FF26C0E1FFAC
:101C280025C0EAFF24C0E9FF23C0FBFF22C0FAFF5A
:101C38004F921100010E03EC13F0C3CF8EF0C4CF06
:101C48008FF0020E03EC13F0C3CF92F0C4CF93F0E1
:101C5800030E03EC13F0C3CF90F0C4CF91F0040E41
:101C680003EC13F0C3CF94F0C4CF95F0050E03EC4A
:101C780013F0C3CF96F0C4CF97F0800E33EC13F077
:101C8800EF0E3D6EFF0E3E6E8EC03FF08FC040F0EF
:101C980092C041F093C042F090C043F091C044F02C
:101CA80002EC05F0C00E33EC13F0010E3D6EFF0E92
:101CB8003E6E94C03FF095C040F096C041F097C08A
:101CC80042F002EC05F000018E5100018F11D8B4EA
:101CD8000DD00001D12B020E0001C26F000EC16FA2
:101CE800020E0001C46F000EC36F12000001925172
:101CF80000018E11456E0001935100018F11466E4F
:101D08000001905145120001915146120001945171
:101D180045120001955146120001965145120001E5
:101D28009751461245504610D8A40DD00001D22B29
:101D3800020E0001C06F000EBF6F020E0001C66FD9
:101D4800000EC56F12000001925100019311D8B422
:101D58000FD00001905100019111D8B409D00001B1
:101D6800D051020F0001D06F010E0001D36F120095
:101D7800000195510DE1C90E0001945DD8B008D05D
:101D88000001975105E1C90E0001965DD8A00DD05C
:101D9800020E0001C26F000EC16F020E0001C46F77
:101DA800000EC36F0001CF2B1200000195510DE109
:101DB800510E0001945DD8B008D00001975105E19B
:101DC800510E0001965DD8A00DD00001D22B020E55
:101DD8000001C06F000EBF6F020E0001C66F000E3B
:101DE800C56F12000001905100019211456E00016B
:101DF800915100019311466E45504610D8B435D024
:101E08000001D02B0001945100019511D8B411D0D4
:101E18000001965100019711D8B40BD0020E0001B1
:101E2800C26F000EC16F020E0001C46F000EC36FB7
:101E380012000001925100019311D8B40BD0020E88
:101E48000001C26F000EC16F020E0001C66F000EC6
:101E5800C56F1200020E0001C46F000EC36F020EA0
:101E68000001C06F000EBF6F1200020E0001C06FAC
:101E7800000EBF6F020E0001C66F000EC56F000195
:101E8800D22B12001F6E2A0E1E18D8A453D0020E91
:101E98000001DC19D8A446D0010E0001DC6FD58EF4
:101EA800CD80010E0001DB6F5BEC13F0000E036EBA
:101EB800D00E026E4AEC13F0000E036E000E026E96
:101EC8004AEC13F057EC13F05BEC13F0000E036EC2
:101ED800D10E026E4AEC13F0000E206E050E20643F
:101EE80001D00ED02050010DB10EF324D96E000E92
:101EF800F420DA6E010EAFEC12F0DF6E202AEED776
:101F0800000EAFEC12F00001B76F57EC13F0800E23
:101F18003FEC13F0560E0D6EFF0E0E6ED4EC06F06D
:101F28008A8012000001DC51D8A41200020E0001C0
:101F3800DC6F12000001DC05D8A407D0230E1E18A0
:101F4800D8A4120054EC0BF012000001DC51D8B4F4
:101F580012001D501E18D8A40CD0020E0001DC1966
:101F6800D8A404D00E0E0001DC6F12000001DC07BB
:101F780012001F501E18D8A412000E0E0001DC1902
:101F8800D8A404D0020E0001DC6F12000001DC2B83
:101F98001200000E366E34AE06D0336C341ED8B044
:101FA800342A010E366E32AE06D0316C321ED8B0ED
:101FB800322A010E361A000E386E000E376E335074
:101FC8003410D8B41CD0010E356E04D0D8903336F6
:101FD8003436352A34AEFAD7D890373638363350B7
:101FE800315C34503258D8A005D03350315E34506B
:101FF800325A3780D89034323332352EEDD73650B6
:10200800D8B404D0376C381ED8B0382A37C031F06D
:1020180038C032F01200000E066E04AE06D0036C13
:10202800041ED8B0042A010E066E02AE06D0016C5A
:10203800021ED8B0022A010E061A000E086E000E03
:10204800076E03500410D8B41CD0010E056E04D0DE
:10205800D89003360436052A04AEFAD7D890073646
:1020680008360350015C04500258D8A005D003502C
:10207800015E0450025A0780D89004320332052EBC
:10208800EDD70650D8B404D0076C081ED8B0082A7B
:1020980007C001F008C002F01200000E396E000EF1
:1020A8003A6E000E3B6E000E3C6E355036103710FF
:1020B8003810D8B42AD0010E3D6E06D0D8903536E7
:1020C8003636373638363D2A38AEF8D7D8903936CE
:1020D8003A363B363C363550315C365032583750FC
:1020E800335838503458D8A009D03550315E36505E
:1020F800325A3750335A3850345A3980D890383297
:102108003732363235323D2EE1D739C031F03AC058
:1021180032F03BC033F03CC034F01200000E366E93
:1021280032AE06D0316C321ED8B0322A010E366E6D
:1021380034AE04D0336C341ED8B0342A3350341043
:10214800D8B418D0010E356E04D0D8903336343652
:10215800352A34AEFAD73350315C34503258D8A0CF
:1021680004D03350315E3450325AD890343233323E
:10217800352EF1D73650D8B404D0316C321ED8B0D1
:10218800322A31C031F032C032F01200000E066E31
:1021980002AE06D0016C021ED8B0022A010E066EED
:1021A80004AE04D0036C041ED8B0042A03500410F3
:1021B800D8B418D0010E056E04D0D8900336043672
:1021C800052A04AEFAD70350015C04500258D8A07F
:1021D80004D00350015E0450025AD89004320332EE
:1021E800052EF1D70650D8B404D0016C021ED8B021
:1021F800022A01C001F002C002F01200000EC76EF0
:10220800280EC66E000EC56E800E316E960E326EAA
:10221800980E336E000E346E3EC042F03FC043F05D
:1022280040C044F041C045F0020ED89042364336D3
:1022380044364536E82EF9D742C035F043C036F06B
:1022480044C037F045C038F051EC10F03104C86E86
:10225800948694881200000E366E000E356E335048
:102268003410D8B41CD0010E376E04D0D890333651
:102278003436372A34AEFAD7D89035363636335016
:10228800315C34503258D8A005D03350315E3450C8
:10229800325A3580D89034323332372EEDD735C0A4
:1022A80031F036C032F01200000E066E000E056ED8
:1022B80003500410D8B41CD0010E076E04D0D89077
:1022C80003360436072A04AEFAD7D8900536063600
:1022D8000350015C04500258D8A005D00350015E99
:1022E8000450025A0580D89004320332072EEDD7E5
:1022F80005C001F006C002F01200326E3250F00B39
:10230800316E8C500F0B8C6E31508C108C6E8C96FD
:10231800190EE82EFED78C86190EE82EFED7323815
:10232800F00B326E3250F00B316E8C500F0B8C6EFE
:1023380031508C108C6E8C96190EE82EFED78C8638
:10234800190EE82EFED71200026E0250F00B016E35
:102358008C500F0B8C6E01508C108C6E8C96190E55
:10236800E82EFED78C86190EE82EFED70238F00B21
:10237800026E0250F00B016E8C500F0B8C6E0150E8
:102388008C108C6E8C96190EE82EFED78C86190E42
:10239800E82EFED71200310E346EB20EE82EFED7AC
:1023A800342EFCD700D0330E33EC13F0320E33EC5E
:1023B80013F0280E33EC13F00F0E33EC13F0060E67
:1023C80033EC13F0010E33EC13F0310E346EB20E11
:1023D800E82EFED7342EFCD700D012003A503B101E
:1023E800D8B418D0010E3C6E04D0D8903A363B369B
:1023F8003C2A3BAEFAD73A50385C3B503958D8A003
:1024080004D03A50385E3B50395AD8903B323A3271
:102418003C2EF1D738C038F039C039F012000A50D4
:102428000B10D8B418D0010E0C6E04D0D8900A3610
:102438000B360C2A0BAEFAD70A50085C0B50095819
:10244800D8A004D00A50085E0B50095AD8900B3215
:102458000A320C2EF1D708C008F009C009F01200A2
:10246800BE0EF66E260EF76E000EF86E0900F5CF5A
:10247800DCF000EEB1F02B0EEE6AE806FDE100EEAE
:1024880047F0080EEE6AE806FDE14F904F92000E05
:10249800F86E000109EF00F03250AA6E31C0A9FFB2
:1024A80033C0A8FFA69EA69CA684550EA76EAA0EAA
:1024B800A76EA682A1A8FED7A198A69412003150B3
:1024C8003302F3CF35F0F4CF36F031503402F35005
:1024D800362632503302F350362635C031F036C036
:1024E80032F01200326E0DEC13F0C5860DEC13F0CD
:1024F800C9CF33F00DEC13F03250D8A402D0C58AFE
:1025080001D0C59AC588335012000250AA6E01C086
:10251800A9FF03C0A8FFA69EA69CA684550EA76E79
:10252800AA0EA76EA682A1A8FED7A198A69412000B
:1025380001500302F3CF05F0F4CF06F00150040276
:10254800F350062602500302F350062605C001F098
:1025580006C002F01200026E16EC13F0C58616ECE7
:1025680013F0C9CF03F016EC13F00250D8A402D030
:10257800C58A01D0C59AC58803501200336E000E73
:10258800326E3A0E336005D02F0E336402D0010E3E
:10259800326E32C031F031301200036E000E026E1E
:1025A8003A0E036005D02F0E036402D0010E026EAE
:1025B80002C001F00130120031C047F032C048F0CB
:1025C80047504810D8B412000001DC05D8A4120006
:1025D800F7D73250AA6E31C0A9FFA69EA69CA68046
:1025E800A6B0FED7A85012000250AA6E01C0A9FFDB
:1025F800A69EA69CA680A6B0FED7A8501200316E53
:102608003144E846FC0BC26EC280C282C2A21200EC
:10261800FDD7C7B4FED7C5CF31F01F0E3116D8B4D9
:102628001200F7D7C7B4FED7C5CF01F01F0E0116A9
:10263800D8B41200F7D7080E3124316E000E3220BC
:10264800326E1200080E0124016E000E0220026E86
:102658001200336E8C84335081EC11F01200336E0B
:102668008C94335081EC11F01200036E8C8403506B
:10267800A8EC11F01200036E8C940350A8EC11F032
:1026880012000DEC13F032C0C9FF120016EC13F063
:1026980002C0C9FF12000DEC13F0C58412000DEC46
:1026A80013F0C580120016EC13F0C584120016EC66
:0726B80013F0C580120002BF
:10FD9E00003132334134353642373839432A302335
:10FDAE00440001000A006400E8031027010010005F
:10FDBE0000010010253032643A25303264202020B4
:10FDCE00202020202020202020202020002530321E
:10FDDE00782F253032782F253032782020202020A1
:10FDEE0020202000253032783A253032783A2530DE
:10FDFE003278202020202020202000444154453AF3
:10FE0E0020253032782F253032782F253032782049
:10FE1E00200054494D453A20253032783A2530326B
:10FE2E00783A2530327820200041413A253032642C
:10FE3E0020433A253032642039563A253032640058
:10FE4E004241545445524945533A2025303264209C
:10FE5E002020202000583A253032642054494D4548
:10FE6E003A256473202020200042415454455249C3
:10FE7E0045533A2025303264202020003031323371
:10FE8E003435363738396162636465660020202068
:10FE9E002020202020202020202020202000232071
:10FEAE004F462043202020202020202020200023E9
:10FEBE00204F4620414120202020202020202000BD
:10FECE0023204F462039562020202020202020207D
:10FEDE00002534642025326420202020202020207C
:10FEEE0020004C4153542052554E3A2020202020C1
:10FEFE00202000253034642025303464202020203A
:10FF0E0020202000544F54414C2023204F462020C7
:10FF1E002020202000544F20434F4E54494E55452B
:10FF2E0020202020200023204F4620445241494EBD
:10FF3E0045442020202000444F4E4521205052455C
:10FF4E005353202A2020200052554E4E494E473AF8
:10FF5E002030303A3030202000544F54414C205243
:10FF6E00554E2054494D453A2000203C544F4747AA
:10FF7E004C4520204C4F47533E20005045524D419A
:10FF8E004E454E54204C4F4720413A005045524D5D
:10FF9E00414E454E54204C4F4720423A0050455258
:10FFAE004D414E454E54204C4F4720433A0050454C
:10FFBE00524D414E454E54204C4F4720443A003C42
:10FFCE0020544F47474C4520204C4F4753203E006E
:10FFDE005052455353202A20544F205354415254CB
:10FFEE0000253034642025303464202530346400FC
:01FFFE000002
:020000040020DA
:08000000FFFFFFFFFFFFFFFF00
:020000040030CA
:0E000000FF021F1EFF8381FF0FC00FE00F40A5
:00000001FF
