:0400000007EF00F016
:100008004F82CEED07F043EF0EF02F0E926EF20EF8
:10001800936E000E946E000E956E010E966E000E95
:10002800896E000E8A6E000E8B6E000E8C6E000EAE
:100038008D6E000EC26E090EC16EB10EC06EF28ECC
:10004800F28CF086F090F28AF2949D809E90070ED2
:10005800D56ED90ED76EDA0ED66E800ECD6EEC0E3A
:10006800CF6E770ECE6EDEEC0DF0F19E100E3E6E6A
:10007800270E3F6E000E406E000E416E11EC0DF023
:10008800F28E50D0800EF8EC0EF0DE0E3D6EFF0EB4
:100098003E6E76EC04F0C00EF8EC0EF0CD0E3D6E20
:1000A800FF0E3E6E76EC04F0000E0001C56F310EB7
:1000B8000001C56501D011D0020E0001CC19D8A4E9
:1000C8000CD0210E0001C36F760EE82EFED7C32F89
:1000D800FCD700F00001C52BEAD7800EF8EC0EF033
:1000E800C00EF8EC0EF0BC0E3D6EFF0E3E6E76ECC8
:1000F80004F0000E0001C66F310E0001C66501D084
:1001080011D0020E0001CC19D8A40CD0210E000188
:10011800C36F760EE82EFED7C32FFCD700F0000180
:10012800C62BEAD7020E0001CC19D8A451D2AAD7FF
:10013800000ED6EC0EF0800EF8EC0EF0C00EF8ECC7
:100148000EF0230E3D6EFF0E3E6EC3CF3FF0C4CFC0
:1001580040F000019F51A1C0C3F00001C46B000131
:10016800C327000EC42300019E510001C327000EBF
:10017800C4230001A0510001C325416E0001000EF7
:100188000001C421426E76EC04F00001AA51D8B4F3
:1001980073D0070E326ED00E316EC9EC0EF0000E21
:1001A8000001AA6F8C90000E496E000E0001CA6F04
:1001B80016D00001CA2B8C82110E0001C36F3A0EB3
:1001C800E82EFED7C32FFCD700F08C92110E000149
:1001D800C36F3A0EE82EFED7C32FFCD700F0140EDB
:1001E8000001CA6104D00001CC05D8B4E2D7000EE2
:1001F8000001CA6F14D00001CA2B8C82070E0001BF
:10020800C36F7D0EE82EFED7C32FFCD78C92070E46
:100218000001C36F7D0EE82EFED7C32FFCD7B20EA8
:100228000001CA6104D00001CC05D8B4E4D7000E9F
:100238000001CA6F16D00001CA2B8C82110E000172
:10024800C36F3A0EE82EFED7C32FFCD700F08C926E
:10025800110E0001C36F3A0EE82EFED7C32FFCD74C
:1002680000F0020E0001CA6104D00001CC05D8B428
:10027800E2D7000E0001CA6FC45004E1380EC35C17
:10028800D8A002D0010E01D0000E0001C36FC450E7
:1002980006E1160EC35CD8B002D0010E01D0000EE4
:1002A8000001C311E8A08ED1000E326EFA0E316E35
:1002B800C9EC0EF0010E4C6E8B8E010E326EF40EF0
:1002C800316EC9EC0EF01FEC09F08B9E0001A251B3
:1002D800D8B405D0020E0001916F000E906F000196
:1002E8008E5100018F11D8B402D0010E4D6E00015D
:1002F800905100019111D8B402D0040E4D6E000146
:10030800925100019311D8B402D0010E4E6E000133
:10031800945100019511D8B402D0040E4E6E8EC0CF
:1003280098F08FC099F090C096F091C097F092C065
:100338009CF093C09DF094C09AF095C09BF08B827E
:100348008B948B808D940001925100018E110001D5
:10035800C36F0001935100018F110001C46F0001A8
:1003680090510001C313000191510001C413000111
:1003780094510001C313000195510001C4130001F9
:10038800C3510001C411D8B404D00001CC05D8B4BD
:10039800DAD70001A251D8B40BD0020E0001936F36
:1003A800000E926F010E4E6E92C09CF093C09DF0AD
:1003B8000001925100019311D8B404D00001CC057A
:1003C800D8B4F6D7010E326EF40E316EC9EC0EF0C9
:1003D80000019F51A0C0C3F00001C46B0001C327F6
:1003E800000EC42300019E510001C327000EC42340
:1003F8000001A1510001C327000EC4230001C4BF9E
:1004080009D00001C45104E10F0E0001C35DD8B04A
:1004180047EC0AF08B828B948B808D9496C08EF07B
:1004280097C08FF098C090F099C091F09AC092F060
:100438009BC093F09CC094F09DC095F0000E000105
:10044800CB6F16D00001CB2B8C82110E0001C36F2D
:100458003A0EE82EFED7C32FFCD700F08C92110E6F
:100468000001C36F3A0EE82EFED7C32FFCD700F069
:10047800140E0001CB6104D00001CC05D8B4E2D73A
:10048800000E0001CB6F14D00001CB2B8C82070E1D
:100498000001C36F7D0EE82EFED7C32FFCD78C92C8
:1004A800070E0001C36F7D0EE82EFED7C32FFCD7C1
:1004B800B20E0001CB6104D00001CC05D8B4E4D75A
:1004C800000E0001CB6F16D00001CB2B8C82110ED1
:1004D8000001C36F3A0EE82EFED7C32FFCD700F0F9
:1004E8008C92110E0001C36F3A0EE82EFED7C32F6F
:1004F800FCD700F0020E0001CB6104D00001CC054E
:10050800D8B4E2D7000E0001CB6F00019251000170
:100518008E110001C36F0001935100018F1100017A
:10052800C46F000190510001C313000191510001F3
:10053800C413000194510001C31300019551000137
:10054800C4130001C3510001C411D8B404D0000180
:10055800CC05D8B4DAD78C928C90000E0001916F3C
:10056800000E906F000E0001956F000E946F000E44
:1005780000018F6F000E8E6F000E0001936F000E4A
:10058800926F000E0001996F000E986F000E000127
:10059800976F000E966F000E00019D6F000E9C6F06
:1005A800000E00019B6F000E9A6F8B928B948B9CB0
:1005B8008B9A8B908D948D928998000E0001A26F72
:1005C800000E4C6E000E326EFA0E316EC9EC0EF053
:1005D8000001CC05D8A413D0ABD5800EF8EC0EF0F2
:1005E800890E3D6EFF0E3E6E76EC04F0C00EF8EC00
:1005F8000EF0670E3D6EFF0E3E6E76EC04F00001C5
:10060800CC51D8A419D0E9D7800EF8EC0EF0AB0E77
:100618003D6EFF0E3E6E76EC04F0C00EF8EC0EF068
:10062800420E3D6EFE0E3E6EA3C03FF0406AA9C06A
:1006380041F0426A76EC04F0030E0001CC19D8A40C
:1006480016D0E2D7800EF8EC0EF0560E3D6EFF0E77
:100658003E6E76EC04F0C00EF8EC0EF0CC0E3D6E5B
:10066800FE0E3E6EA6C03FF0406A76EC04F0040E23
:100678000001CC19D8A416D0E5D7800EF8EC0EF0FE
:10068800F00E3D6EFE0E3E6E76EC04F0C00EF8ECF9
:100698000EF0CC0E3D6EFE0E3E6EA7C03FF0406AD7
:1006A80076EC04F0050E0001CC19D8A416D0E5D7D5
:1006B800800EF8EC0EF0120E3D6EFF0E3E6E76ECDC
:1006C80004F0C00EF8EC0EF0B70E3D6EFE0E3E6E56
:1006D800A4C03FF0406A76EC04F0060E0001CC1985
:1006E800D8A416D0E5D7800EF8EC0EF0010E3D6EBA
:1006F800FF0E3E6E76EC04F0C00EF8EC0EF0B70E6E
:100708003D6EFE0E3E6EA5C03FF0406A76EC04F0EA
:10071800070E0001CC19D8A416D0E5D7800EF8EC46
:100728000EF0780E3D6EFF0E3E6E76EC04F0C00EB5
:10073800F8EC0EF0B70E3D6EFE0E3E6EA8C03FF010
:10074800406A76EC04F0080E0001CC19D8A463D0F6
:10075800E5D7800EF8EC0EF0340E3D6EFF0E3E6EBF
:1007680076EC04F0C00EF8EC0EF05B0E3D6EFE0E5B
:100778003E6E86C03FF0406A85C041F0426A84C040
:1007880043F0446A76EC04F0000E0001C76FC70E10
:100798000001C76501D011D0090E0001CC19D8A4F9
:1007A8000CD0210E0001C36F760EE82EFED7C32FA2
:1007B800FCD700F00001C72BEAD7800EF8EC0EF04A
:1007C800C00EF8EC0EF0720E3D6EFE0E3E6E82C04C
:1007D8003FF0406A81C041F0426A80C043F0446AF9
:1007E80076EC04F0000E0001C86FC70E0001C86562
:1007F80001D011D0090E0001CC19D8A40CD0210EBB
:100808000001C36F760EE82EFED7C32FFCD700F089
:100818000001C82BEAD7090E0001CC19D8A45CD076
:1008280098D718EC0FF0000E336ED00E326E0AEC2B
:100838000FF0000E336E000E326E0AEC0FF014EC5F
:100848000FF018EC0FF0000E336ED10E326E0AEC7A
:100858000FF0000E0001C96F050E0001C96501D037
:1008680010D00001C951010D870EF324D96E000E76
:10087800F420DA6E010E72EC0EF0DF6E0001C92B67
:10088800EBD7000E72EC0EF000018D6F14EC0FF038
:10089800800EF8EC0EF0890E3D6EFE0E3E6E8DC099
:1008A8003FF0406A8CC041F0426A8BC043F0446A12
:1008B80076EC04F0C00EF8EC0EF0A00E3D6EFE0EC5
:1008C8003E6E89C03FF0406A88C041F0426A87C0E6
:1008D80043F0446A76EC04F00A0E0001CC19D8A45F
:1008E80021D49FD73F0E0001B06F000E0001B16FF9
:1008F800BDD1250E0001B819D8B405D00001B851F2
:10090800F2EC0EF0B3D1000E0001B76F000EB66F17
:10091800000E0001B56F04D00001B5853D4A3E2A9E
:100928003DC0F6FF3EC0F7FF0800F550300AD8B4C6
:10093800F3D73DC0F6FF3EC0F7FF0800F550ABEC1B
:100948000EF0D8A042D0000E0001B76F000EB66FAF
:10095800B6C031F0B7C032F0000E346E0A0E336EF6
:100968005FEC0EF031C0B6F032C0B7F0D00E000127
:10097800AB6FFF0E0001AC6F3DC0F6FF3EC0F7FF46
:100988000800F5500001AD6FAE6B0001AB510001DE
:10099800AD270001AC510001AE230001AD510001AB
:1009A800B6270001AE510001B7233D4A3E2A3DC09B
:1009B800F6FF3EC0F7FF0800F550ABEC0EF0D8A0EC
:1009C80004D0C6D70001B58F18D03DC0F6FF3EC091
:1009D800F7FF3D4A3E2A0800F5CFB8F00001B851AC
:1009E800000AD8B41200640AD8B407D00D0AD8B4E3
:1009F80004D0110AD8B4E6D739D10001B5BF19D04F
:100A0800B0C0D9FFB1C0DAFFDECFB3F0DDCFB4F0AC
:100A1800020E0001B027000EB1230001B4AF53D07D
:100A2800030E0001B5130001B36DB41FD8B0B42B89
:100A38004AD0B0C0D9FFB1C0DAFFDECFB3F0DDCF06
:100A4800B4F0020E0001B027000EB1233CD0010E15
:100A58000001B86F050E0001B819D8B43DD00001E7
:100A6800B851020D300EF324F66EFE0EF420F76E28
:100A78000900F5500001B35D0900F5500001B459B3
:100A8800D8A02AD00001B82BE5D7010E0001B86F15
:100A9800040E0001B819D8B41FD00001B851020DD6
:100AA8003A0EF324F66EFE0EF420F76E0900F550A8
:100AB8000001B35D0900F5500001B459D8A00CD06D
:100AC8000001B82BE5D70001B551800B000AD8B456
:100AD800BED7800AD8B4D9D70001B6510001B711E2
:100AE800D8B40BD0B5C0ABF0030E0001AB17D8B427
:100AF80004D00001B607D8A0B707800E0001B8BF20
:100B08007F0E0001AB6F0001B6510001B85D000116
:100B1800B751800A0001AB59D8B00BD00001B851C9
:100B28000001B65F000E0001B8BFFF0E0001B75B01
:100B380005D0000E0001B76F000EB66F0001B5A515
:100B480018D0B5C0ABF0030E0001AB17D8B403D072
:100B58002D0EF2EC0EF00001B6510001B711D8B419
:100B680025D0300EF2EC0EF00001B607D8A0B7077A
:100B7800F2D70001B6510001B711D8B40DD0200E3C
:100B8800F2EC0EF00001B607D8A0B7070001B65185
:100B98000001B711D8A4F3D7B5C0ABF0030E00011C
:100BA800AB17D8B403D02D0EF2EC0EF0B8C0B2F0EB
:100BB80057D00001B251020D300EF324F66EFE0E2E
:100BC800F420F76E0900F5CF33F00A00F5CF34F0C2
:100BD800B3C031F0B4C032F03EEC0DF031C038F0A3
:100BE80032C039F0000E3B6E0A0E3A6E01EC0EF080
:100BF8003850300F0001B86F2FD0B3C031F0B4C0F7
:100C080032F00001B251020D3A0EF324F66EFE0ED8
:100C1800F420F76E0900F5CF33F00A00F5CF34F071
:100C28003EEC0DF031500F0B0001AF6F0001AF51DA
:100C3800010DDF0EF324F66EFE0EF420F76E0800A9
:100C4800F5CFB8F009D00001B551800B000AD8B42F
:100C5800B0D7800AD8B4D1D70001B851F2EC0EF061
:100C68000001B2070001B229D8A4EDD73DC0F6FFB4
:100C78003EC0F7FF3D4A3E2A0800F5CFB8F0000114
:100C8800B851D8B4120035D60F0E146E000E156E7A
:100C980074D1250E1C18D8B404D01C50FEEC0EF0EC
:100CA8006CD1000E1B6E000E1A6E000E196E03D06A
:100CB80019840D4A0E2A0DC0F6FF0EC0F7FF080072
:100CC800F550300AD8B4F4D70DC0F6FF0EC0F7FFC0
:100CD8000800F550BAEC0EF0D8A035D0000E1B6E07
:100CE800000E1A6E1AC001F01BC002F0000E046E4E
:100CF8000A0E036E85EC0EF001C01AF002C01BF05C
:100D0800D00E0F6EFF0E106E0DC0F6FF0EC0F7FF6F
:100D18000800F550116E126A0F5011261050122259
:100D280011501A2612501B220D4A0E2A0DC0F6FF2A
:100D38000EC0F7FF0800F550BAEC0EF0D8A003D0AB
:100D4800D1D7198E17D00DC0F6FF0EC0F7FF0D4A88
:100D58000E2A0800F5CF1CF01C50000AD8B4120067
:100D6800640AD8B407D00D0AD8B404D0110AD8B48C
:100D7800E8D703D119BE15D014C0D9FF15C0DAFFC2
:100D8800DECF17F0DDCF18F0020E1426000E152264
:100D980018AE44D0030E1912176C181ED8B0182AB2
:100DA8003DD014C0D9FF15C0DAFFDECF17F0DDCF74
:100DB80018F0020E1426000E152230D0010E1C6EFB
:100DC800050E1C18D8B432D01C50020D300EF32476
:100DD800F66EFE0EF420F76E0900F550175C090058
:100DE800F5501858D8A022D01C2AEAD7010E1C6E3C
:100DF800040E1C18D8B41AD01C50020D3A0EF32455
:100E0800F66EFE0EF420F76E0900F550175C090027
:100E1800F5501858D8A00AD01C2AEAD71950800BC8
:100E2800000AD8B4CBD7800AD8B4E0D71A501B1020
:100E3800D8B409D019C00FF0030E0F16D8B403D0D8
:100E48001A06D8A01B06800E1CBE7F0E0F6E1A5005
:100E58001C5C1B50800A0F58D8B007D01C501A5E73
:100E6800000E1CBEFF0E1B5A04D0000E1B6E000E97
:100E78001A6E19A414D019C00FF0030E0F16D8B4A7
:100E880003D02D0EFEEC0EF01A501B10D8B41ED055
:100E9800300EFEEC0EF01A06D8A01B06F5D71A5035
:100EA8001B10D8B40AD0200EFEEC0EF01A06D8A0FB
:100EB8001B061A501B10D8A4F6D719C00FF0030E42
:100EC8000F16D8B403D02D0EFEEC0EF01CC016F091
:100ED80050D01650020D300EF324F66EFE0EF4209C
:100EE800F76E0900F5CF03F00A00F5CF04F017C03C
:100EF80001F018C002F067EC0DF001C008F002C064
:100F080009F0000E0B6E0A0E0A6E22EC0EF0085065
:100F1800300F1C6E2BD017C001F018C002F016500D
:100F2800020D3A0EF324F66EFE0EF420F76E090059
:100F3800F5CF03F00A00F5CF04F067EC0DF001508F
:100F48000F0B136E1350010DDF0EF324F66EFE0E19
:100F5800F420F76E0800F5CF1CF008D01950800B6C
:100F6800000AD8B4B6D7800AD8B4D5D71C50FEEC3E
:100F78000EF016061628D8A4F1D70DC0F6FF0EC03D
:100F8800F7FF0D4A0E2A0800F5CF1CF01C50D8B404
:100F980012007FD60600FACF22F0FBCF23F0E9CF6C
:100FA80024F0EACF25F0E1CF26F0E2CF27F0D9CF21
:100FB80028F0DACF29F0F3CF2AF0F4CF2BF0F6CFD0
:100FC8002CF0F7CF2DF0F8CF2EF0F5CF2FF0F0A0C2
:100FD80015D081380F0B0F0B306E360E1D6E30504A
:100FE800010D1F0EF324F66EFE0EF420F76E0800B6
:100FF800F5CF1EF0340ECEEC0AF0F0900001CC05CF
:10100800D8B4F2A438D0F294D90ED76EDA0ED66ED0
:101018004A2A4AC001F0026A000E046E3C0E036EB2
:101028001EEC0CF001500001A36F4AC001F0026AE7
:10103800000E046E3C0E036ED9EC0CF0015000015A
:10104800A96FB30E4A6402D055EC0BF04C50D8A4EB
:1010580010D0C45004E1330EC35CD8A002D0492A92
:1010680002D0000E496E090E496405D055EC0BF00C
:1010780002D0000E496E0001CC05D8B49EA0BDD0A8
:101088009E90EC0ECF6E770ECE6E47504810D8B4B7
:1010980003D04706D8A048064B2A950E4B640DD0BE
:1010A800000E4B6E8AB003D0216A212A01D0216A32
:1010B8008A502118FE0B21188A6E00018E510001FA
:1010C8008F11D8B422D04D04D8A402D08B8A8B9C1F
:1010D800020E4D18D8A402D08B928B84030E4D18A3
:1010E800D8A402D08B9A8B8C040E4D18D8A402D0A9
:1010F8008B828B9400018E07D8A08F07030E4D6456
:1011080003D0010E4D6E01D04D2A0001905100010F
:101118009111D8B422D0040E4D18D8A402D08B9ABD
:101128008B8C030E4D18D8A402D08B928B84020EA0
:101138004D18D8A402D08B8A8B9C4D04D8A402D019
:101148008B828B9400019007D8A09107020E4D6006
:1011580003D0040E4D6E01D04D06000192510001DE
:101168009311D8B422D04E04D8A402D089888D9285
:10117800020E4E18D8A402D08B908D84030E4E1800
:10118800D8A402D089988D82040E4E18D8A402D013
:101198008B808D9400019207D8A09307030E4E64AC
:1011A80003D0010E4E6E01D04E2A00019451000169
:1011B8009511D8B422D0040E4E18D8A402D089981C
:1011C8008D82030E4E18D8A402D08B908D84020E07
:1011D8004E18D8A402D089888D924E04D8A402D083
:1011E8008B808D9400019407D8A09507020E4E605D
:1011F80003D0040E4E6E01D04E062FC0F5FF2EC050
:10120800F8FF2DC0F7FF2CC0F6FF2BC0F4FF2AC053
:10121800F3FF29C0DAFF28C0D9FF27C0E2FF26C0A4
:10122800E1FF25C0EAFF24C0E9FF23C0FBFF22C07D
:10123800FAFF4F921100010ED6EC0EF0C3CFB9F0B1
:10124800C4CFBAF0020ED6EC0EF0C3CFBDF0C4CFB7
:10125800BEF0030ED6EC0EF0C3CFBBF0C4CFBCF08B
:10126800040ED6EC0EF0C3CFBFF0C4CFC0F0050E0D
:10127800D6EC0EF0C3CFC1F0C4CFC2F0800EF8ECAC
:101288000EF0EF0E3D6EFF0E3E6EB9C03FF0BAC0D5
:1012980040F0BDC041F0BEC042F0BBC043F0BCC08E
:1012A80044F076EC04F0C00EF8EC0EF0450E3D6EFE
:1012B800FF0E3E6EBFC03FF0C0C040F0C1C041F05D
:1012C800C2C042F076EC04F00001B9510001BA1135
:1012D800D8B40DD00001A02B020E0001916F000EB2
:1012E800906F020E0001936F000E926F12000001C2
:1012F800BD510001B911456E0001BE510001BA117E
:10130800466E0001BB5145120001BC514612000156
:10131800BF5145120001C05146120001C15145128A
:101328000001C251461245504610D8A40DD0000104
:10133800A12B020E00018F6F000E8E6F020E0001AE
:10134800956F000E946F12000001BD510001BE118F
:10135800D8B40FD00001BB510001BC11D8B409D0DA
:1013680000019F51020F00019F6F010E0001A26F43
:1013780012000001C0510DE1C90E0001BF5DD8B0D7
:1013880008D00001C25105E1C90E0001C15DD8A015
:101398000DD0020E0001916F000E906F020E000139
:1013A800936F000E926F00019E2B12000001C05136
:1013B8000DE1510E0001BF5DD8B008D00001C25147
:1013C80005E1510E0001C15DD8A00DD00001A12B8F
:1013D800020E00018F6F000E8E6F020E0001956FD6
:1013E800000E946F12000001BB510001BD11456E43
:1013F8000001BC510001BE11466E45504610D8B4DC
:1014080035D000019F2B0001BF510001C011D8B495
:1014180011D00001C1510001C211D8B40BD0020E85
:101428000001916F000E906F020E0001936F000E85
:10143800926F12000001BD510001BE11D8B40BD04B
:10144800020E0001916F000E906F020E0001956F61
:10145800000E946F1200020E0001936F000E926F3F
:10146800020E00018F6F000E8E6F1200020E000137
:101478008F6F000E8E6F020E0001956F000E946F35
:101488000001A12B1200D59ECD90D90ED76EDA0E91
:10149800D66EEC0ECF6E770ECE6E9EC0A4F0A0C0B6
:1014A800A7F09FC0A5F0A1C0A8F000019E510001BF
:1014B800A02500019F250001A1250001A66F000EAF
:1014C80000019E6F000E0001A06F000E00019F6FCB
:1014D800000E0001A16F4AC031F0326A000E346E6E
:1014E8003C0E336EDCEC0BF031500001A36F4AC0A8
:1014F80031F0326A000E346E3C0E336EA1EC0CF003
:1015080031500001A96F000E4A6E000E496E000EA0
:101518004C6E000E00018F6F000E8E6F000E0001E2
:10152800916F000E906F000E0001936F000E926F86
:10153800000E0001956F000E946F000E00019B6F66
:10154800000E9A6F000E0001976F000E966F000E46
:1015580000019D6F000E9C6F000E0001996F000E38
:10156800986F000E486E000E476E000E0001A26FC5
:10157800000E4B6E8B928B948B9C8B9A8B908D94D8
:101588008D9289988C908B9E8C928A90000E000187
:10159800CC6F12001F6E2A0E1E18D8A453D0020E4C
:1015A8000001CC19D8A446D0010E0001CC6FD58E0D
:1015B800CD80010E0001AA6F20EC0FF0000E036E23
:1015C800D00E026E0FEC0FF0000E036E000E026ECE
:1015D8000FEC0FF01CEC0FF020EC0FF0000E036E78
:1015E800D10E026E0FEC0FF0000E206E050E206477
:1015F80001D00ED02050010D800EF324D96E000EBC
:10160800F420DA6E010E98EC0EF0DF6E202AEED789
:10161800000E98EC0EF00001866F1CEC0FF0800EA7
:1016280004EC0FF09A0E0D6EFF0E0E6E48EC06F0ED
:101638008A8012000001CC51D8A41200020E0001C9
:10164800CC6F12000001CC05D8A407D0230E1E18B9
:10165800D8A4120055EC0BF012000001CC51D8B4FC
:1016680012001D501E18D8A40CD0020E0001CC196F
:10167800D8A404D00A0E0001CC6F12000001CC07D8
:1016880012001F501E18D8A412000A0E0001CC190F
:10169800D8A404D0020E0001CC6F12000001CC2B9C
:1016A8001200D59ECD90D90ED76EDA0ED66EEC0EFE
:1016B800CF6E770ECE6E9EC0A4F0A0C0A7F09FC0DC
:1016C800A5F0A1C0A8F000019E510001A0250001CD
:1016D8009F250001A1250001A66F000E00019E6F45
:1016E800000E0001A06F000E00019F6F000E0001A8
:1016F800A16F4AC001F0026A000E046E3C0E036E30
:101708001EEC0CF001500001A36F4AC001F0026A00
:10171800000E046E3C0E036ED9EC0CF00150000173
:10172800A96F000E4A6E000E496E000E4C6E000E38
:1017380000018F6F000E8E6F000E0001916F000E7A
:10174800906F000E0001936F000E926F000E000163
:10175800956F000E946F000E00019B6F000E9A6F3C
:10176800000E0001976F000E966F000E00019D6F2E
:10177800000E9C6F000E0001996F000E986F000E0E
:10178800486E000E476E000E0001A26F000E4B6EF1
:101798008B928B948B9C8B9A8B908D948D9289983D
:1017A8008C908B9E8C928A90000E0001CC6F120058
:1017B800000E366E34AE06D0336C341ED8B0342AE0
:1017C800010E366E32AE06D0316C321ED8B0322AD7
:1017D800010E361A000E386E000E376E3350341074
:1017E800D8B41CD0010E356E04D0D89033363436B8
:1017F800352A34AEFAD7D890373638363350315C7C
:1018080034503258D8A005D03350315E3450325A53
:101818003780D89034323332352EEDD73650D8B49D
:1018280004D0376C381ED8B0382A37C031F038C0E9
:1018380032F01200000E066E04AE06D0036C041ED1
:10184800D8B0042A010E066E02AE06D0016C021E44
:10185800D8B0022A010E061A000E086E000E076E96
:1018680003500410D8B41CD0010E056E04D0D890D3
:1018780003360436052A04AEFAD7D8900736083658
:101888000350015C04500258D8A005D00350015EF3
:101898000450025A0780D89004320332052EEDD73F
:1018A8000650D8B404D0076C081ED8B0082A07C060
:1018B80001F008C002F01200000E396E000E3A6EF8
:1018C800000E3B6E000E3C6E355036103710381047
:1018D800D8B42AD0010E3D6E06D0D89035363636AB
:1018E800373638363D2A38AEF8D7D89039363A36B2
:1018F8003B363C363550315C3650325837503358C9
:1019080038503458D8A009D03550315E3650325A44
:101918003750335A3850345A3980D89038323732A1
:10192800363235323D2EE1D739C031F03AC032F087
:101938003BC033F03CC034F01200000E366E32AEBD
:1019480006D0316C321ED8B0322A010E366E34AE53
:1019580004D0336C341ED8B0342A33503410D8B481
:1019680018D0010E356E04D0D89033363436352A67
:1019780034AEFAD73350315C34503258D8A004D042
:101988003350315E3450325AD89034323332352E97
:10199800F1D73650D8B404D0316C321ED8B0322AC0
:1019A80031C031F032C032F01200000E066E02AEC5
:1019B80006D0016C021ED8B0022A010E066E04AED3
:1019C80004D0036C041ED8B0042A03500410D8B401
:1019D80018D0010E056E04D0D89003360436052AB7
:1019E80004AEFAD70350015C04500258D8A004D0C2
:1019F8000350015E0450025AD89004320332052E77
:101A0800F1D70650D8B404D0016C021ED8B0022A0F
:101A180001C001F002C002F01200000EC76E280ECD
:101A2800C66E000EC56E800E316E960E326E980E22
:101A3800336E000E346E3EC042F03FC043F040C0EB
:101A480044F041C045F0020ED89042364336443641
:101A58004536E82EF9D742C035F043C036F044C0C9
:101A680037F045C038F060EC0CF03104C86E94864D
:101A780094881200000E366E000E356E3350341006
:101A8800D8B41CD0010E376E04D0D8903336343613
:101A9800372A34AEFAD7D890353636363350315CDB
:101AA80034503258D8A005D03350315E3450325AB1
:101AB8003580D89034323332372EEDD735C031F0F7
:101AC80036C032F01200000E066E000E056E03508E
:101AD8000410D8B41CD0010E076E04D0D890033679
:101AE8000436072A04AEFAD7D890053606360350CE
:101AF800015C04500258D8A005D00350015E045080
:101B0800025A0580D89004320332072EEDD705C05B
:101B180001F006C002F01200326E3250F00B316E46
:101B28008C500F0B8C6E31508C108C6E8C96190E5D
:101B3800E82EFED78C86190EE82EFED73238F00B29
:101B4800326E3250F00B316E8C500F0B8C6E315060
:101B58008C108C6E8C96190EE82EFED78C86190E7A
:101B6800E82EFED71200026E0250F00B016E8C5068
:101B78000F0B8C6E01508C108C6E8C96190EE82E03
:101B8800FED78C86190EE82EFED70238F00B026EAF
:101B98000250F00B016E8C500F0B8C6E01508C10A4
:101BA8008C6E8C96190EE82EFED78C86190EE82EB0
:101BB800FED71200310E346EB20EE82EFED7342E48
:101BC800FCD700D0330EF8EC0EF0320EF8EC0EF025
:101BD800280EF8EC0EF00F0EF8EC0EF0060EF8ECEE
:101BE8000EF0010EF8EC0EF0310E346EB20EE82E47
:101BF800FED7342EFCD700D012003A503B10D8B490
:101C080018D0010E3C6E04D0D8903A363B363C2AA8
:101C18003BAEFAD73A50385C3B503958D8A004D07C
:101C28003A50385E3B50395AD8903B323A323C2EC3
:101C3800F1D738C038F039C039F012000A500B100B
:101C4800D8B418D0010E0C6E04D0D8900A360B36D2
:101C58000C2A0BAEFAD70A50085C0B500958D8A0CA
:101C680004D00A50085E0B50095AD8900B320A3239
:101C78000C2EF1D708C008F009C009F01200480E70
:101C8800F66E1E0EF76E000EF86E0900F5CFCCF05A
:101C980000EE80F02B0EEE6AE806FDE100EE47F05C
:101CA800080EEE6AE806FDE14F904F92000EF86EBE
:101CB800000109EF00F031503302F3CF35F0F4CFD3
:101CC80036F031503402F350362632503302F35096
:101CD800362635C031F036C032F01200326EE0ECF4
:101CE8000EF0C586E0EC0EF0C9CF33F0E0EC0EF054
:101CF8003250D8A402D0C58A01D0C59AC5883350BD
:101D0800120001500302F3CF05F0F4CF06F00150A2
:101D18000402F350062602500302F350062605C0BB
:101D280001F006C002F01200026EE9EC0EF0C58662
:101D3800E9EC0EF0C9CF03F0E9EC0EF00250D8A49C
:101D480002D0C58A01D0C59AC58803501200336EE7
:101D5800000E326E3A0E336005D02F0E336402D077
:101D6800010E326E32C031F031301200036E000EB7
:101D7800026E3A0E036005D02F0E036402D0010EE6
:101D8800026E02C001F00130120031C047F032C0CB
:101D980048F047504810D8B412000001CC05D8A428
:101DA8001200F7D7316E3144E846FC0BC26EC28090
:101DB800C282C2A21200FDD7C7B4FED7C5CF31F088
:101DC8001F0E3116D8B41200F7D7C7B4FED7C5CF47
:101DD80001F01F0E0116D8B41200F7D7336E8C84A9
:101DE800335090EC0DF01200336E8C94335090EC1D
:101DF8000DF01200036E8C840350B7EC0DF0120046
:101E0800036E8C940350B7EC0DF01200E0EC0EF06A
:101E180032C0C9FF1200E9EC0EF002C0C9FF12007F
:101E2800E0EC0EF0C5841200E0EC0EF0C580120064
:101E3800E9EC0EF0C5841200E9EC0EF0C580120042
:011E48000297
:10FE1E00003132334134353642373839432A3023B4
:10FE2E00440001000A006400E803102701001000DE
:10FE3E0000010010253032643A2530326420202033
:10FE4E00202020202020202020202020002530329D
:10FE5E00782F253032782F25303278202020202020
:10FE6E0020202000253032783A253032783A25305D
:10FE7E003278202020202020202000444154453A72
:10FE8E0020253032782F253032782F2530327820C9
:10FE9E00200054494D453A20253032783A253032EB
:10FEAE00783A253032782020004241545445524948
:10FEBE0045533A2025303264202020202000424134
:10FECE00545445524945533A20253032642020205F
:10FEDE000030313233343536373839616263646518
:10FEEE00660023204F462043202020202020202063
:10FEFE0020200023204F462041412020202020207A
:10FF0E002020200023204F4620395620202020205C
:10FF1E00202020200025346420253264202020203B
:10FF2E002020202020004C4153542052554E3A2080
:10FF3E0020202020202000253034642025303464F9
:10FF4E002020202020202000544F54414C202320DC
:10FF5E004F4620202020202000544F20434F4E5447
:10FF6E00494E554520202020200023204F46204476
:10FF7E005241494E45442020202000444F4E4521F9
:10FF8E00205052455353202A2020200052554E4EC9
:10FF9E00494E473A2030303A3030202000544F54EA
:10FFAE00414C2052554E2054494D453A2000203C9C
:10FFBE00544F47474C4520204C4F47533E20003C62
:10FFCE0020544F47474C4520204C4F4753203E006E
:10FFDE005052455353202A20544F205354415254CB
:10FFEE0000253034642025303464202530346400FC
:01FFFE000002
:020000040020DA
:08000000FFFFFFFFFFFFFFFF00
:020000040030CA
:0E000000FF021F1EFF8381FF0FC00FE00F40A5
:00000001FF
