:0400000053EF00F0CA
:0600080059829CED03F09B
:100018005980D8CF14F0E8CF15F0E0CF16F0FACF1A
:1000280017F0FBCF18F0E9CF19F0EACF1AF0E1CFBB
:100038001BF0E2CF1CF0D9CF1DF0DACF1EF0F3CFC2
:100048001FF0F4CF20F0F6CF21F0F7CF22F0F8CF51
:1000580023F0F5CF24F024C0F5FF23C0F8FF22C019
:10006800F7FF21C0F6FF20C0F4FF1FC0F3FF1EC03A
:10007800DAFF1DC0D9FF1CC0E2FF1BC0E1FF1AC098
:10008800EAFF19C0E9FF18C0FBFF17C0FAFF16C046
:10009800E0FF15C0E8FF14C0D8FF5990100052EFD8
:1000A80005F0330E0001816F000E0001826FAFD1A1
:1000B800250E00018919D8B405D000018951A6EC94
:1000C80005F0A5D1000E0001886F000E876F000EA5
:1000D8000001866F04D000018685314A322A31C07A
:1000E800F6FF32C0F7FF0800F550300AD8B4F3D74E
:1000F80031C0F6FF32C0F7FF0800F5508EEC05F06E
:10010800D8A039D0000E0001886F000E876F87C015
:1001180025F088C026F0000E286E0A0E276E68ECBF
:1001280005F025C087F026C088F0D00E396EFF0E86
:100138003A6E31C0F6FF32C0F7FF0800F5503B6E4B
:100148003C6A39503B263A503C223B5000018727F5
:100158003C5000018823314A322A31C0F6FF32C0B0
:10016800F7FF0800F5508EEC05F0D8A004D0CFD7E3
:100178000001868F18D031C0F6FF32C0F7FF314A30
:10018800322A0800F5CF89F000018951000AD8B455
:100198001200640AD8B407D00D0AD8B404D0110AE2
:1001A800D8B4E6D734D1000186BF19D081C0D9FFB1
:1001B80082C0DAFFDECF84F0DDCF85F0020E0001C9
:1001C8008127000E8223000185AF53D0030E000162
:1001D80086130001846D851FD8B0852B4AD081C055
:1001E800D9FF82C0DAFFDECF84F0DDCF85F0020EC2
:1001F80000018127000E82233CD0010E0001896F87
:10020800050E00018919D8B43DD000018951020DAD
:100218008C0EF324F66EFE0EF420F76E0900F550EE
:100228000001845D0900F55000018559D8A02AD045
:100238000001892BE5D7010E0001896F040E00012A
:100248008919D8B41FD000018951020D960EF324E4
:10025800F66EFE0EF420F76E0900F5500001845D7D
:100268000900F55000018559D8A00CD00001892B50
:10027800E5D700018651800B000AD8B4BED7800AA2
:10028800D8B4D9D70001875100018811D8B40AD051
:1002980086C039F0030E3916D8B404D00001870798
:1002A800D8A08807800E000189BF7F0E396E000133
:1002B80087510001895D00018851800A3958D8B0FA
:1002C8000BD0000189510001875F000E000189BF32
:1002D800FF0E0001885B05D0000E0001886F000E3C
:1002E800876F000186A517D086C039F0030E39162E
:1002F800D8B403D02D0EA6EC05F0000187510001FB
:100308008811D8B424D0300EA6EC05F00001870778
:10031800D8A08807F2D70001875100018811D8B406
:100328000DD0200EA6EC05F000018707D8A088079D
:100338000001875100018811D8A4F3D786C039F08D
:10034800030E3916D8B403D02D0EA6EC05F089C0DB
:1003580083F057D000018351020D8C0EF324F66E02
:10036800FE0EF420F76E0900F5CF27F00A00F5CF4E
:1003780028F084C025F085C026F0A3EC04F025C041
:100388002CF026C02DF0000E2F6E0A0E2E6E16ECE5
:1003980005F02C50300F0001896F2FD084C025F054
:1003A80085C026F000018351020D960EF324F66EE7
:1003B800FE0EF420F76E0900F5CF27F00A00F5CFFE
:1003C80028F0A3EC04F025500F0B0001806F00010A
:1003D8008051010D220EF324F66EFF0EF420F76E05
:1003E8000800F5CF89F009D000018651800B000A7A
:1003F800D8B4B0D7800AD8B4D1D700018951A6ECB7
:1004080005F00001830700018329D8A4EDD731C086
:10041800F6FF32C0F7FF314A322A0800F5CF89F0DB
:1004280000018951D8B4120043D6000E946E000E14
:10043800956E9368000E8A6E000E8B6E000EC26E6B
:10044800C168F28EF086F090F296F28AF294470E26
:10045800D56EF3EC04F0100E326E270E336E000EDC
:10046800346E000E356E76EC04F0F28E48D0F29EB3
:10047800800EACEC05F0DD0E316EFF0E326E55ECE1
:1004880000F0C00EACEC05F0EE0E316EFF0E326ED1
:1004980055EC00F0F28E000E3F6E310E3F6401D035
:1004A8000ED0020E5818D8A40AD0210E3D6E760E32
:1004B800E82EFED73D2EFCD700D03F2AEED7800E7F
:1004C800ACEC05F0C00EACEC05F0BB0E316EFF0EC7
:1004D800326E55EC00F0000E3F6E310E3F6401D0D5
:1004E8000ED0020E5818D8A40AD0210E3D6E760EF2
:1004F800E82EFED73D2EFCD700D03F2AEED7020EBD
:100508005818D8A413D0B3D7800EACEC05F0440E1D
:10051800316EFF0E326E55EC00F0C00EACEC05F0FB
:10052800330E316EFF0E326E55EC00F05804D8A42D
:1005380013D0EAD7800EACEC05F0990E316EFF0EA1
:10054800326E55EC00F0C00EACEC05F0660E316E64
:10055800FF0E326E55EC00F05850D8A41BD0EAD7E5
:10056800F29E800EACEC05F0AA0E316EFF0E326ED4
:1005780055EC00F0C00EACEC05F09E0E316EFE0E90
:10058800326E52C033F0346A57C035F0366A55ECD3
:1005980000F0F28E030E5818D8A416D0E1D7800EBA
:1005A800ACEC05F0CC0E316EFF0E326E55EC00F05F
:1005B800C00EACEC05F00F0E316EFF0E326E55C05A
:1005C80033F0346A55EC00F0040E5818D8A418D04B
:1005D800E6D7F29E800EACEC05F0550E316EFF0E9C
:1005E800326E55EC00F0C00EACEC05F00F0E316E1B
:1005F800FF0E326E56C033F0346A55EC00F0F28EBE
:10060800050E5818D8A418D0E4D7F29E800EACEC8A
:1006180005F0880E316EFF0E326E55EC00F0C00EFC
:10062800ACEC05F0E50E316EFE0E326E53C033F0C1
:10063800346A55EC00F0F28E060E5818D8A418D07B
:10064800E4D7F29E800EACEC05F0770E316EFF0E0B
:10065800326E55EC00F0C00EACEC05F0FA0E316EBF
:10066800FE0E326E54C033F0346A55EC00F0F28E50
:10067800070E5818D8A457D0E4D7BBEC05F0000EE5
:10068800276ED00E266EB2EC05F0000E276E000E17
:10069800266EB2EC05F0B7EC05F0BBEC05F0000EE9
:1006A800276ED10E266EB2EC05F0000E3E6E050EDA
:1006B8003E6401D00ED03E50010D400EF324D96E99
:1006C800000EF420DA6E010E7BEC05F0DF6E3E2A98
:1006D800EED7000E7BEC05F0466EB7EC05F0800E09
:1006E800ACEC05F0B70E316EFE0E326E46C033F03C
:1006F800346A45C035F0366A44C037F0386A55EC7C
:1007080000F0C00EACEC05F0CE0E316EFE0E326E6F
:1007180042C033F0346A41C035F0366A40C037F021
:10072800386A55EC00F0080E5818D8A4E8D6A5D7B2
:100738000600FACF04F0FBCF05F0E9CF06F0EACFC8
:1007480007F0E1CF08F0E2CF09F0D9CF0AF0DACF0D
:100758000BF0F3CF0CF0F4CF0DF0F6CF0EF0F7CF8F
:100768000FF0F8CF10F0F5CF11F0F0A039D0580401
:10077800D8B436D081380F0B0F0B136E1350010D00
:100788007B0EF324F66EFE0EF420F76E0800F5508B
:100798002A0AD8A411D0020E5818D8A407D0010EDE
:1007A800586ED58E8B5002098B6E19D05850D8A42C
:1007B80016D0020E586E13D05850D8B410D0360E3A
:1007C800016E1350010D7B0EF324F66EFE0EF4201D
:1007D800F76E0800F5CF02F0340E37EC05F0F09014
:1007E8005804D8B4F2A41FD0F2AA1DD0F294000E77
:1007F800D76E000ED66E494A4A2AD20E495C1A0EA6
:100808004A58D8A010D0000E4A6E000E496E000E4D
:10081800586ED59E000E126E8B50D8B402D0010EC1
:10082800126E12C08BFF11C0F5FF10C0F8FF0FC089
:10083800F7FF0EC0F6FF0DC0F4FF0CC0F3FF0BC0AE
:10084800DAFF0AC0D9FF09C0E2FF08C0E1FF07C00C
:10085800EAFF06C0E9FF05C0FBFF04C0FAFF599292
:100868001100000E2D6E000E2E6E000E2F6E000E63
:10087800306E29502A102B102C10D8B42AD0010E13
:10088800316E06D0D89029362A362B362C36312AA6
:100898002CAEF8D7D8902D362E362F363036295034
:1008A800255C2A5026582B5027582C502858D8A059
:1008B80009D02950255E2A50265A2B50275A2C50E9
:1008C800285A2D80D8902C322B322A322932312EB8
:1008D800E1D72DC025F02EC026F02FC027F030C05C
:1008E80028F01200000EC76E280EC66E000EC56EE8
:1008F800800E256E960E266E980E276E000E286EB8
:1009080032C036F033C037F034C038F035C039F073
:10091800020ED8903636373638363936E82EF9D7BB
:1009280036C029F037C02AF038C02BF039C02CF077
:1009380035EC04F02504C86E948694881200000EE5
:100948002B6E000E2A6E27502810D8B41CD0010E2A
:10095800296E04D0D89027362836292A28AEFAD707
:10096800D8902A362B362750255C28502658D8A0F0
:1009780005D02750255E2850265A2A80D89028323C
:100988002732292EEDD72AC025F02BC026F01200D9
:10099800266E2650F00B256E8C500F0B8C6E255052
:1009A8008C108C6E8C96190EE82EFED78C86190E3C
:1009B800E82EFED72638F00B266E2650F00B256E53
:1009C8008C500F0B8C6E25508C108C6E8C96190EDB
:1009D800E82EFED78C86190EE82EFED71200310EAF
:1009E800286EB20EE82EFED7282EFCD700D0330E84
:1009F800ACEC05F0320EACEC05F0280EACEC05F0D2
:100A08000F0EACEC05F0060EACEC05F0010EACECEC
:100A180005F0310E286EB20EE82EFED7282EFCD730
:100A280000D012002E502F10D8B418D0010E306EFE
:100A380004D0D8902E362F36302A2FAEFAD72E5023
:100A48002C5C2F502D58D8A004D02E502C5E2F503F
:100A58002D5AD8902F322E32302EF1D72CC02CF0B0
:100A68002DC02DF01200036E01500218D8A409D031
:100A7800020E5818D8A403D0080E586E1200580653
:100A8800120003500218D8A41200080E5818D8A44F
:100A980003D0020E586E1200582A12007E0EF66E0F
:100AA8000B0EF76E000EF86E0900F5CF58F000EE49
:100AB80040F0180EEE6AE806FDE159905992000ED2
:100AC800F86E000119EF02F025502702F3CF29F044
:100AD800F4CF2AF025502802F3502A262650270260
:100AE800F3502A2629C025F02AC026F01200266EC7
:100AF8009DEC05F0C5869DEC05F0C9CF27F09DEC6F
:100B080005F02650D8A402D0C58A01D0C59AC58858
:100B180027501200276E000E266E3A0E276005D069
:100B28002F0E276402D0010E266E26C025F0253030
:100B38001200C7B4FED7C5CF25F01F0E2516D8B4AE
:100B48001200F7D7276E8C842750CCEC04F01200E3
:100B5800276E8C942750CCEC04F012009DEC05F025
:100B680026C0C9FF12009DEC05F0C58412009DEC5B
:070B780005F0C58012000228
:10FE7A00003132334134353642373839432A302358
:10FE8A00440001000A006400E80310270100100082
:10FE9A0000010010253032783A25303278202020AF
:10FEAA0020202020202020202020202000444154EF
:10FEBA00453A20253032782F253032782F253032B6
:10FECA007820200054494D453A20253032783A2589
:10FEDA003032783A25303278202000424154544555
:10FEEA00524945533A2025303264202020202000F0
:10FEFA004241545445524945533A202530327820DC
:10FF0A0020202020004241545445524945533A206A
:10FF1A0025303264202020003031323334353637F0
:10FF2A003839616263646566002020202020202021
:10FF3A002020202020202020200052554E4E494EBD
:10FF4A00472E2E2E202020202020004E554D42459F
:10FF5A0052204F462043202020202000544F204387
:10FF6A004F4E54494E55452020202020004E554DD5
:10FF7A00424552204F4620414120202020004E5524
:10FF8A004D424552204F4620395620202020004419
:10FF9A004F4E4521205052455353202A20202000FD
:10FFAA00544F54414C2052554E2054494D453A2005
:10FFBA0000203C3420202044415441202020363E59
:10FFCA002000544F54414C204E554D424552204F2B
:10FFDA0046200053544152543A202020505245534F
:10FFEA0053202A003C203420202044415441202020
:06FFFA002036203E00004D
:020000040020DA
:08000000FFFFFFFFFFFFFFFF00
:020000040030CA
:0E000000FF021F1EFF8381FF0FC00FE00F40A5
:00000001FF
