:0400000053EF00F0CA
:060008005B82EBED03F04A
:100018005B80D8CF14F0E8CF15F0E0CF16F0FACF18
:1000280017F0FBCF18F0E9CF19F0EACF1AF0E1CFBB
:100038001BF0E2CF1CF0D9CF1DF0DACF1EF0F3CFC2
:100048001FF0F4CF20F0F6CF21F0F7CF22F0F8CF51
:1000580023F0F5CF24F024C0F5FF23C0F8FF22C019
:10006800F7FF21C0F6FF20C0F4FF1FC0F3FF1EC03A
:10007800DAFF1DC0D9FF1CC0E2FF1BC0E1FF1AC098
:10008800EAFF19C0E9FF18C0FBFF17C0FAFF16C046
:10009800E0FF15C0E8FF14C0D8FF5B901000B6EF72
:1000A80005F0330E0001856F000E0001866FBDD18B
:1000B800250E00018D19D8B405D000018D510DEC25
:1000C80006F0B3D1000E00018C6F000E8B6F000E8E
:1000D80000018A6F04D000018A85314A322A31C072
:1000E800F6FF32C0F7FF0800F550300AD8B4F3D74E
:1000F80031C0F6FF32C0F7FF0800F550F5EC05F007
:10010800D8A042D0000E00018C6F000E8B6F8BC000
:1001180025F08CC026F0000E286E0A0E276ECFEC54
:1001280005F025C08BF026C08CF0D00E0001806F42
:10013800FF0E0001816F31C0F6FF32C0F7FF0800E3
:10014800F5500001826F836B000180510001822706
:1001580000018151000183230001825100018B2796
:100168000001835100018C23314A322A31C0F6FF45
:1001780032C0F7FF0800F550F5EC05F0D8A004D020
:10018800C6D700018A8F18D031C0F6FF32C0F7FFFA
:10019800314A322A0800F5CF8DF000018D51000A4E
:1001A800D8B41200640AD8B407D00D0AD8B404D061
:1001B800110AD8B4E6D739D100018ABF19D085C051
:1001C800D9FF86C0DAFFDECF88F0DDCF89F0020ED6
:1001D80000018527000E8623000189AF53D0030E46
:1001E80000018A130001886D891FD8B0892B4AD075
:1001F80085C0D9FF86C0DAFFDECF88F0DDCF89F071
:10020800020E00018527000E86233CD0010E000156
:100218008D6F050E00018D19D8B43DD000018D51A8
:10022800020D900EF324F66EFE0EF420F76E090010
:10023800F5500001885D0900F55000018959D8A0E2
:100248002AD000018D2BE5D7010E00018D6F040E19
:1002580000018D19D8B41FD000018D51020D9A0EDE
:10026800F324F66EFE0EF420F76E0900F550000137
:10027800885D0900F55000018959D8A00CD000010B
:100288008D2BE5D700018A51800B000AD8B4BED760
:10029800800AD8B4D9D700018B5100018C11D8B489
:1002A8000BD08AC080F0030E00018017D8B404D0A8
:1002B80000018B07D8A08C07800E00018DBF7F0E30
:1002C8000001806F00018B5100018D5D00018C5190
:1002D800800A00018059D8B00BD000018D5100016F
:1002E8008B5F000E00018DBFFF0E00018C5B05D0F7
:1002F800000E00018C6F000E8B6F00018AA518D0CC
:100308008AC080F0030E00018017D8B403D02D0EE8
:100318000DEC06F000018B5100018C11D8B425D0EA
:10032800300E0DEC06F000018B07D8A08C07F2D731
:1003380000018B5100018C11D8B40DD0200E0DECAA
:1003480006F000018B07D8A08C0700018B51000133
:100358008C11D8A4F3D78AC080F0030E000180174F
:10036800D8B403D02D0E0DEC06F08DC087F057D011
:1003780000018751020D900EF324F66EFE0EF42054
:10038800F76E0900F5CF27F00A00F5CF28F088C0EE
:1003980025F089C026F0FEEC04F025C02CF026C01C
:1003A8002DF0000E2F6E0A0E2E6E95EC05F02C50D7
:1003B800300F00018D6F2FD088C025F089C026F03E
:1003C80000018751020D9A0EF324F66EFE0EF420FA
:1003D800F76E0900F5CF27F00A00F5CF28F0FEECFC
:1003E80004F025500F0B0001846F00018451010DAA
:1003F800110EF324F66EFF0EF420F76E0800F5CF09
:100408008DF009D000018A51800B000AD8B4B0D70A
:10041800800AD8B4D1D700018D510DEC06F0000147
:10042800870700018729D8A4EDD731C0F6FF32C06D
:10043800F7FF314A322A0800F5CF8DF000018D51BF
:10044800D8B4120035D69268000E946E000E956EE0
:100458009368000E896E000E8A6E000E8B6E000E79
:10046800C26EC1680B0EC16E000EB56EB496C08E1A
:10047800F28EF086F090F296F28AF294470ED56EDC
:1004880072EC05F0100E326E270E336E000E346ECD
:10049800000E356ED0EC04F0F28E52D0F29E800E33
:1004A80013EC06F0DD0E316EFF0E326E55EC00F0E7
:1004B800C00E13EC06F0EE0E316EFF0E326E55ECE8
:1004C80000F0F28E000E0001906F310E0001906571
:1004D80001D011D0020E59185A10D8A40CD0210EF0
:1004E80000018E6F760EE82EFED78E2FFCD700F017
:1004F8000001902BEAD7800E13EC06F0C00E13EC27
:1005080006F0CC0E316EFF0E326E55EC00F0000E88
:100518000001906F310E0001906501D011D0020EDC
:1005280059185A10D8A40CD0210E00018E6F760EDF
:10053800E82EFED78E2FFCD700F00001902BEAD7CB
:10054800020E59185A10D8A413D0A8D7800E13EC4D
:1005580006F0660E316EFF0E326E55EC00F0C00EDE
:1005680013EC06F0220E316EFF0E326E55EC00F0E1
:1005780059045A10D8A413D0E9D7800E13EC06F00A
:10058800AA0E316EFF0E326E55EC00F0C00E13EC61
:1005980006F0880E316EFF0E326E55EC00F05950A1
:1005A8005A10D8A41DD0E9D7F29E800E13EC06F09D
:1005B800BB0E316EFF0E326E55EC00F0C00E13EC20
:1005C80006F0A20E316EFE0E326E42C033F043C00A
:1005D80034F04AC035F04BC036F055EC00F0F28EDE
:1005E800030E59185A10D8A418D0DED7F29E800EE0
:1005F80013EC06F0770E316EFF0E326E55EC00F0FC
:10060800C00E13EC06F0FE0E316EFE0E326E56C0B2
:1006180033F0346A55EC00F0F28E040E59185A1073
:10062800D8A418D0E3D7F29E800E13EC06F0330E50
:10063800316EFF0E326E55EC00F0C00E13EC06F072
:10064800FE0E316EFE0E326E57C033F0346A55EC32
:1006580000F0F28E050E59185A10D8A418D0E3D716
:10066800F29E800E13EC06F0550E316EFF0E326EC0
:1006780055EC00F0C00E13EC06F0E90E316EFE0EDC
:10068800326E54C033F0346A55EC00F0F28E060E28
:1006980059185A10D8A418D0E3D7F29E800E13EC3C
:1006A80006F0440E316EFF0E326E55EC00F0C00EAF
:1006B80013EC06F0E90E316EFE0E326E55C033F0C3
:1006C800346A55EC00F0F28E070E59185A10D8A467
:1006D80018D0E3D7F29E800E13EC06F0990E316E17
:1006E800FF0E326E55EC00F0C00E13EC06F0E90E6A
:1006F800316EFE0E326E58C033F0346A55EC00F09D
:10070800F28E080E59185A10D8A45BD0E3D722EC01
:1007180006F0000E276ED00E266E19EC06F0000EBD
:10072800276E000E266E19EC06F01EEC06F022EC81
:1007380006F0000E276ED10E266E19EC06F0000E9C
:1007480000018F6F050E00018F6501D010D00001E8
:100758008F51010D390EF324D96E000EF420DA6E94
:10076800010EE2EC05F0DF6E00018F2BEBD7000ED7
:10077800E2EC05F03F6E1EEC06F0800E13EC06F07E
:10078800BB0E316EFE0E326E3FC033F0346A3EC08F
:1007980035F0366A3DC037F0386A55EC00F0C00EC7
:1007A80013EC06F0D20E316EFE0E326E3BC033F003
:1007B800346A3AC035F0366A39C037F0386A55ECD1
:1007C80000F0090E59185A10D8A4BAD6A0D70600B6
:1007D800FACF04F0FBCF05F0E9CF06F0EACF07F037
:1007E800E1CF08F0E2CF09F0D9CF0AF0DACF0BF069
:1007F800F3CF0CF0F4CF0DF0F6CF0EF0F7CF0FF0EB
:10080800F8CF10F0F5CF11F0F0A041D059045A10EC
:10081800D8B43DD081380F0B0F0B136E1350010D58
:100828007F0EF324F66EFE0EF420F76E0800F550E6
:100838002A0AD8A417D0020E59185A10D8A409D0D9
:10084800000E5A6E010E596ED58E8B5002098B6EB2
:100858001DD059505A10D8A419D0000E5A6E020E45
:10086800596E14D059505A10D8B410D0360E016EA3
:100878001350010D7F0EF324F66EFE0EF420F76E72
:100888000800F5CF02F0340E4EEC05F0F090590454
:100898005A10D8B4F2A421D0F2AA1FD0F294000EB4
:1008A800D76E000ED66E444A452AD20E445C1A0E04
:1008B8004558D8A012D0000E456E000E446E000EAA
:1008C8005A6E000E596ED59E000E126E8B50D8B41B
:1008D80002D0010E126E12C08BFF11C0F5FF10C0BE
:1008E800F8FF0FC0F7FF0EC0F6FF0DC0F4FF0CC0F5
:1008F800F3FF0BC0DAFF0AC0D9FF09C0E2FF08C046
:10090800E1FF07C0EAFF06C0E9FF05C0FBFF04C01E
:10091800FAFF5B921100000E2D6E000E2E6E000E77
:100928002F6E000E306E29502A102B102C10D8B4C0
:100938002AD0010E316E06D0D89029362A362B36A9
:100948002C36312A2CAEF8D7D8902D362E362F36A5
:1009580030362950255C2A5026582B5027582C50C1
:100968002858D8A009D02950255E2A50265A2B503D
:10097800275A2C50285A2D80D8902C322B322A32C4
:100988002932312EE1D72DC025F02EC026F02FC0F8
:1009980027F030C028F01200000EC76E280EC66E71
:1009A800000EC56E800E256E960E266E980E276E6A
:1009B800000E286E32C080F033C081F034C082F05F
:1009C80035C083F0020ED890000180378137823716
:1009D8008337E82EF8D780C029F081C02AF082C07A
:1009E8002BF083C02CF08FEC04F02504C86E94869D
:1009F80094881200000E2B6E000E2A6E27502810C5
:100A0800D8B41CD0010E296E04D0D89027362836C9
:100A1800292A28AEFAD7D8902A362B362750255CB3
:100A280028502658D8A005D02750255E2850265A89
:100A38002A80D89028322732292EEDD72AC025F0CF
:100A48002BC026F01200266E2650F00B256E8C5017
:100A58000F0B8C6E25508C108C6E8C96190EE82E10
:100A6800FED78C86190EE82EFED72638F00B266E98
:100A78002650F00B256E8C500F0B8C6E25508C1069
:100A88008C6E8C96190EE82EFED78C86190EE82EE1
:100A9800FED71200036E01500218D8A40ED0020E21
:100AA80059185A10D8A405D0000E5A6E090E596E5E
:100AB80012005906D8A05A06120003500218D8A4EA
:100AC8001200090E59185A10D8A405D0000E5A6EF3
:100AD800020E596E1200594A5A2A1200310E286E17
:100AE800B20EE82EFED7282EFCD700D0330E13EC1A
:100AF80006F0320E13EC06F0280E13EC06F00F0E7B
:100B080013EC06F0060E13EC06F0010E13EC06F0DB
:100B1800310E286EB20EE82EFED7282EFCD700D054
:100B280012002E502F10D8B418D0010E306E04D0F9
:100B3800D8902E362F36302A2FAEFAD72E502C5C6E
:100B48002F502D58D8A004D02E502C5E2F502D5A3F
:100B5800D8902F322E32302EF1D72CC02CF02DC049
:100B68002DF012004C0EF66E0C0EF76E000EF86E9D
:100B78000900F5CF59F00900F5CF5AF000EE39F029
:100B8800200EEE6AE806FDE15B905B92000EF86EBF
:100B9800000127EF02F025502702F3CF29F0F4CF08
:100BA8002AF025502802F3502A2626502702F3500F
:100BB8002A2629C025F02AC026F01200266E04EC49
:100BC80006F0C58604EC06F0C9CF27F004EC06F061
:100BD8002650D8A402D0C58A01D0C59AC588275006
:100BE8001200276E000E266E3A0E276005D02F0ED3
:100BF800276402D0010E266E26C025F0253012008B
:100C0800C7B4FED7C5CF25F01F0E2516D8B41200DD
:100C1800F7D7276E8C84275027EC05F01200276E33
:100C28008C94275027EC05F0120004EC06F026C03F
:100C3800C9FF120004EC06F0C584120004EC06F0AB
:060C4800C580120002004D
:10FE7E00003132334134353642373839432A302354
:10FE8E00440001000A006400E8031027010010007E
:10FE9E0000010010253032783A25303278202020AB
:10FEAE0020202020202020202020202000444154EB
:10FEBE00453A20253032782F253032782F253032B2
:10FECE007820200054494D453A20253032783A2585
:10FEDE003032783A25303278202000424154544551
:10FEEE00524945533A2025303264202020202000EC
:10FEFE004241545445524945533A202530326420EC
:10FF0E002020003031323334353637383961626370
:10FF1E006465660020202020202020202020202024
:10FF2E00202020200023204F462043202020202068
:10FF3E0020202020200023204F4620414120202039
:10FF4E002020202020200023204F4620395620201C
:10FF5E00202020202020200052554E4E494E472E64
:10FF6E002E2E20202020202000544F54414C2023A0
:10FF7E00204F4620202020202000544F20434F4E5B
:10FF8E0054494E554520202020200023204F462046
:10FF9E00445241494E45442020202000444F4E45B6
:10FFAE0021205052455353202A20202000544F54D4
:10FFBE00414C2052554E2054494D453A2000203C8C
:10FFCE003420202044415441202020363E2000532E
:10FFDE00544152543A2020205052455353202A0067
:10FFEE003C20342020204441544120202036203E05
:02FFFE00000001
:020000040020DA
:08000000FFFFFFFFFFFFFFFF00
:020000040030CA
:0E000000FF021F1EFF8381FF0FC00FE00F40A5
:00000001FF
