:0400000007EF00F016
:100008004B82CEED04F055EF0FF02F0E926EF20EEC
:10001800936E000E946E000E956E010E966E000E95
:10002800896E000E8A6E000E8B6E000E8C6E000EAE
:100038008D6E000EC26E090EC16EB10EC06EF28ECC
:10004800F28CF086F090F28AF2949D809E90070ED2
:10005800D56ED90ED76EDA0ED66E800ECD6EE20E44
:10006800CF6EB30ECE6E11EC0FF0100E0001856F3F
:10007800270E866F000E876F000E886F1FEC0EF03C
:10008800F28E56D0800E0AEC10F0ED0E0001816F52
:10009800FF0E0001826F0DEC07F0C00E0AEC10F0A5
:1000A800DC0E0001816FFF0E0001826F0DEC07F07E
:1000B800000E0001A56F310E0001A56501D011D019
:1000C800020E0001D119D8A40CD0210E0001976F9F
:1000D800760EE82EFED7972FFCD700F00001A52B4F
:1000E800EAD7800E0AEC10F0C00E0AEC10F0CB0E26
:1000F8000001816FFF0E0001826F0DEC07F0000E0A
:100108000001A66F310E0001A66501D011D0020EC4
:100118000001D119D8A40CD0210E0001976F760EDA
:10012800E82EFED7972FFCD700F00001A62BEAD7C0
:10013800020E0001D119D8A43CD2A4D7800E0AEC33
:1001480010F0C00E0AEC10F0430E0001816FFF0E94
:100158000001826FC3CF83F0C4CF84F00001C15186
:10016800C3C097F00001986B00019727000E9823F1
:100178000001C05100019727000E98230001C251C9
:10018800000197250001856F0001000E00019821EC
:100198000001866F0DEC07F00001CB51D8B4DCD01C
:1001A800050E366E350E356EDBEC0FF0000E0001D5
:1001B800CB6F8C90000E00019C6F000E9B6FA40EFD
:1001C80000019B5D010E00019C59D8B01AD08CB279
:1001D80004D00001976B972B02D00001976B0001A8
:1001E80097478C5000019719FD0B97198C6E000EDC
:1001F800366E020E356EDBEC0FF000019B4B9C2B2C
:10020800DED78C80000E00019E6F000E9D6F0001EE
:100218009E5122E1280E00019D5DD8B01DD08CB200
:1002280004D00001976B972B02D00001976B000157
:1002380097478C5000019719FD0B97198C6E000E8B
:10024800366E020E356EDBEC0FF000019D4B9E2BD7
:1002580000019E5101E1DED78C90000E0001A06FD5
:10026800000E9F6F0001A05122E1280E00019F5D42
:10027800D8B01DD08CB204D00001976B972B02D058
:100288000001976B000197478C5000019719FD0BEF
:1002980097198C6E000E366E020E356EDBEC0FF081
:1002A80000019F4BA02B0001A05101E1DED78C80FB
:1002B800000E0001A26F000EA16F0001A25122E101
:1002C800280E0001A15DD8B01DD08CB204D0000169
:1002D800976B972B02D00001976B000197478C50C2
:1002E80000019719FD0B97198C6E000E366E020EE1
:1002F800356EDBEC0FF00001A14BA22B0001A251DF
:1003080001E1DED78C90000E0001A46F000EA36FF0
:100318000001A4511FE1140E0001A35DD8B01AD04A
:100328008CB204D00001976B972B02D00001976B19
:10033800000197478C5000019719FD0B97198C6E97
:10034800000E366E020E356EDBEC0FF00001A34B8B
:10035800A42BDED7000E446E000EE8EC0FF0C4505C
:1003680004E1510EC35CD8A002D0010E01D0000EEA
:100378000001976FC45006E1320EC35CD8B002D0BA
:10038800010E01D0000E00019711E8A00CD1000E5B
:10039800366EA70E356EDBEC0FF0010E486E8B8EB5
:1003A800000E366EA70E356EDBEC0FF069EC0AF026
:1003B8008B9E0001B8510001B911D8B404D0010EC8
:1003C800496EB8C0CEF00001BA510001BB11D8B4D3
:1003D80004D0040E496EBAC0CDF00001BC51000132
:1003E800BD11D8B404D0010E4A6EBCC0D0F00001D3
:1003F800BE510001BF11D8B404D0040E4A6EBEC06D
:10040800CFF08B828B948B808D940001BC510001BE
:10041800B8110001976F0001BD510001B911000129
:10042800986F0001BA51000197130001BB510001F8
:1004380098130001BE51000197130001BF5100013C
:1004480098130001975100019811D8B404D0000105
:10045800D105D8B4DAD7010E366E4D0E356EDBEC09
:100468000FF08B828B948B808D94CDC0B8F00001F7
:10047800B96BCEC0BAF00001BB6BCFC0BCF00001B5
:10048800BD6BD0C0BEF00001BF6B010E0001CC6F88
:100498008C900001BC510001B8110001976F000158
:1004A800BD510001B9110001986F0001BA51000156
:1004B80097130001BB51000198130001BE510001C0
:1004C80097130001BF51000198130001CC51D8B413
:1004D80002D0010E01D0000E0001996F9A6B000145
:1004E8009751000199130001985100019A130001D6
:1004F800995100019A11D8B404D00001D105D8B49B
:10050800C8D78C928C90000E0001BB6F000EBA6F9A
:10051800000E0001BF6F000EBE6F000E0001B96F24
:10052800000EB86F000E0001BD6F000EBC6F000E0C
:100538000001CE6F000E0001CD6F000E0001D06FDC
:10054800000E0001CF6F8B928B948B9A8B9C8B90B3
:100558008D948D9289980001C151C2C097F0000115
:10056800986B00019727000E98230001C0510001E5
:100578009727000E98230001C35100019727000E0A
:100588009823000198BF0DD00001985105E10F0E86
:100598000001975DD8A005D0000E0001D16FE0ECF6
:1005A8000BF0000E486E000E366EA70E356EDBECB3
:1005B8000FF00001D105D8A417D0C0D5800E0AECE1
:1005C80010F0980E0001816FFF0E0001826F0DEC94
:1005D80007F0C00E0AEC10F0760E0001816FFF0ED6
:1005E8000001826F0DEC07F00001D151D8A41FD093
:1005F800E5D7800E0AEC10F0BA0E0001816FFF0EED
:100608000001826F0DEC07F0C00E0AEC10F02A0E04
:100618000001816FFE0E0001826FC4C083F00001EB
:10062800846BCAC085F00001866B0DEC07F0030EE1
:100638000001D119D8A41BD0DCD7800E0AEC10F029
:10064800650E0001816FFF0E0001826F0DEC07F04F
:10065800C00E0AEC10F0CA0E0001816FFE0E0001F8
:10066800826FC7C083F00001846B0DEC07F0040EA5
:100678000001D119D8A41BD0E0D7800E0AEC10F0E5
:10068800FF0E0001816FFE0E0001826F0DEC07F076
:10069800C00E0AEC10F0CA0E0001816FFE0E0001B8
:1006A800826FC8C083F00001846B0DEC07F0050E63
:1006B8000001D119D8A41BD0E0D7800E0AEC10F0A5
:1006C800320E0001816FFF0E0001826F0DEC07F002
:1006D800C00E0AEC10F0B50E0001816FFE0E00018D
:1006E800826FC5C083F00001846B0DEC07F0060E25
:1006F8000001D119D8A41BD0E0D7800E0AEC10F065
:10070800100E0001816FFF0E0001826F0DEC07F0E3
:10071800C00E0AEC10F0B50E0001816FFE0E00014C
:10072800826FC6C083F00001846B0DEC07F0070EE2
:100738000001D119D8A41BD0E0D7800E0AEC10F024
:10074800870E0001816FFF0E0001826F0DEC07F02C
:10075800C00E0AEC10F0B50E0001816FFE0E00010C
:10076800826FC9C083F00001846B0DEC07F0080E9E
:100778000001D119D8A46FD0E0D7800E0AEC10F090
:10078800540E0001816FFF0E0001826F0DEC07F01F
:10079800C00E0AEC10F0430E0001816FFE0E00013E
:1007A800826FB0C083F00001846BAFC085F0000198
:1007B800866BAEC087F00001886B0DEC07F0000E69
:1007C8000001A76FC70E0001A76501D011D0090E5F
:1007D8000001D119D8A40CD0210E0001976F760E14
:1007E800E82EFED7972FFCD700F00001A72BEAD7F9
:1007F800800E0AEC10F0C00E0AEC10F05A0E000140
:10080800816FFE0E0001826FACC083F00001846B23
:10081800ABC085F00001866BAAC087F00001886B29
:100828000DEC07F0000E0001A86FC70E0001A865C7
:1008380001D011D0090E0001D119D8A40CD0210E75
:100848000001976F760EE82EFED7972FFCD700F0A1
:100858000001A82BEAD7090E0001D119D8A466D047
:100868008CD72AEC10F0000E376ED00E366E1CECCA
:1008780010F0000E376E000E366E1CEC10F026ECF1
:1008880010F02AEC10F0000E376ED10E366E1CEC0C
:1008980010F0000E0001A96F050E0001A96501D036
:1008A80010D00001A951010DB10EF324D96E000E2C
:1008B800F420DA6E010E84EC0FF0DF6E0001A92B34
:1008C800EBD7000E84EC0FF00001B76F26EC10F0A8
:1008D800800E0AEC10F0710E0001816FFE0E00010F
:1008E800826FB7C083F00001846BB6C085F0000149
:1008F800866BB5C087F00001886B0DEC07F0C00E61
:100908000AEC10F0880E0001816FFE0E0001826F64
:10091800B3C083F00001846BB2C085F00001866B20
:10092800B1C087F00001886B0DEC07F00A0E0001DA
:10093800D119D8A428D095D7800E0AEC10F0210E32
:100948000001816FFF0E0001826F0DEC07F0C00EF1
:100958000AEC10F0EE0E0001816FFE0E0001826FAE
:100968000DEC07F01A0E0001986F5E0E0001976FEC
:100978006E0EE82EFED7972FFCD7982FFAD700F0E7
:10098800020E0001D16F0B0E0001D119D8A49CEF03
:1009980000F0D2D70600FACF26F0FBCF27F0E9CF38
:1009A80028F0EACF29F0E1CF2AF0E2CF2BF0D9CF17
:1009B8002CF0DACF2DF0F3CF2EF0F4CF2FF0F6CFC6
:1009C80030F0F7CF31F0F8CF32F0F5CF33F0F0A0B8
:1009D80015D081380F0B0F0B346E360E216E345044
:1009E800010D070EF324F66EFE0EF420F76E0800D4
:1009F800F5CF22F0340E56EC0BF0F0900001D10543
:100A0800D8B4F2A44DD0F294D90ED76EDA0ED66EC1
:100A1800462A46C001F0026A000E046E3C0E036EC0
:100A28006DEC0DF001500001C46F46C001F0026A80
:100A3800000E046E3C0E036EE7EC0DF00150000151
:100A4800CA6F800E16EC10F09F0E0D6EFE0E0E6E25
:100A5800C4C00FF0106ACAC011F0126AE3EC08F0C3
:100A6800B30E466405D0000E0001D16F62EC0CF0A5
:100A78004850D8A413D0C45004E1330EC35CD8A0A6
:100A880002D0442A02D0000E446E090E446408D0F5
:100A9800000E0001D16F62EC0CF002D0000E446E23
:100AA8000001D105D8B49EA096D19E90E20ECF6EDB
:100AB800B30ECE6E40504110D8B403D04006D8A033
:100AC8004106472A840E47640DD0000E476E8AB04F
:100AD80003D0256A252A01D0256A8A502518FE0BDD
:100AE80025188A6E0001CC51D8B4D5D00001CC05A8
:100AF800D8A416D0424A432A8CB203D0256A252AA4
:100B080001D0256A25468C502518FD0B25188C6EBA
:100B18007C0E425C010E4358D8A0BDD0020E12D004
:100B2800020E0001CC19D8A410D0424A432A4350DF
:100B380004E1640E425CD8A0AED0000E436E000EF5
:100B4800426E030E0001CC6FA6D0030E0001CC1933
:100B5800D8A41CD0424A432A8CB203D0256A252A3D
:100B680001D0256A25468C502518FD0B25188C6E5A
:100B7800435004E1280E425CD8A08DD0000E436E8D
:100B8800000E426E040E41D08C8085D0040E000108
:100B9800CC19D8A41CD0424A432A8CB203D0256A67
:100BA800252A01D0256A25468C502518FD0B2518C5
:100BB8008C6E435004E1280E425CD8A06CD0000E25
:100BC800436E000E426E050E41D08C9064D0050E27
:100BD8000001CC19D8A41CD0424A432A8CB203D0B5
:100BE800256A252A01D0256A25468C502518FD0B33
:100BF80025188C6E435004E1280E425CD8A04BD0D7
:100C0800000E436E000E426E060E0001CC6FBCD77C
:100C1800060E0001CC19D8A41CD0424A432A8CB233
:100C280003D0256A252A01D0256A25468C50251827
:100C3800FD0B25188C6E435004E1280E425CD8A0A9
:100C48002AD0000E436E000E426E070E0001CC6FD4
:100C5800BCD7070E0001CC19D8A41DD0424A432A9C
:100C68008CB203D0256A252A01D0256A25468C50E6
:100C78002518FD0B25188C6E435004E1140E425CB8
:100C8800D8A009D0000E436E000E426E000E00017F
:100C9800CC6F8C908C920001B8510001B911D8B476
:100CA80022D04904D8A402D08B8C8B9A020E491802
:100CB800D8A402D08B928B84030E4918D8A402D0F2
:100CC8008B9C8B8A040E4918D8A402D08B828B94F3
:100CD8000001B807D8A0B907030E496403D0010E74
:100CE800496E01D0492A0001BA510001BB11D8B49C
:100CF80022D0040E4918D8A402D08B9C8B8A030EEC
:100D08004918D8A402D08B928B84020E4918D8A413
:100D180002D08B8C8B9A4904D8A402D08B828B94F6
:100D28000001BA07D8A0BB07020E496003D0040E21
:100D3800496E01D049060001BC510001BD11D8B46B
:100D480022D04A04D8A402D089888D92020E4A186B
:100D5800D8A402D08B908D84030E4A18D8A402D050
:100D680089988D82040E4A18D8A402D08B808D945D
:100D78000001BC07D8A0BD07030E4A6403D0010ECA
:100D88004A6E01D04A2A0001BE510001BF11D8B4F1
:100D980022D0040E4A18D8A402D089988D82030E56
:100DA8004A18D8A402D08B908D84020E4A18D8A471
:100DB80002D089888D924A04D8A402D08B808D9461
:100DC8000001BE07D8A0BF07020E4A6003D0040E78
:100DD8004A6E01D04A0633C0F5FF32C0F8FF31C071
:100DE800F7FF30C0F6FF2FC0F4FF2EC0F3FF2DC071
:100DF800DAFF2CC0D9FF2BC0E2FF2AC0E1FF29C0CF
:100E0800EAFF28C0E9FF27C0FBFF26C0FAFF4B9284
:100E18001100830E00018E6F000E00018F6FC0D18C
:100E2800250E00019619D8B405D00001965104EC9E
:100E380010F0B6D1000E0001956F000E946F000EF1
:100E48000001936F05D0000193850001814B822B2F
:100E580081C0F6FF82C0F7FF0800F550300AD8B409
:100E6800F2D781C0F6FF82C0F7FF0800F550BDEC4D
:100E78000FF0D8A043D0000E0001956F000E946FBC
:100E880094C035F095C036F0000E386E0A0E376EF5
:100E980071EC0FF035C094F036C095F0D00E00011B
:100EA800896FFF0E00018A6F81C0F6FF82C0F7FFCD
:100EB8000800F55000018B6F8C6B0001895100010F
:100EC8008B2700018A5100018C2300018B510001FE
:100ED800942700018C51000195230001814B822B3E
:100EE80081C0F6FF82C0F7FF0800F550BDEC0FF097
:100EF800D8A004D0C5D70001938F19D081C0F6FFC0
:100F080082C0F7FF0001814B822B0800F5CF96F0D5
:100F180000019651000AD8B41200640AD8B407D068
:100F28000D0AD8B404D0110AD8B4E5D739D10001D4
:100F380093BF19D08EC0D9FF8FC0DAFFDECF91F0F2
:100F4800DDCF92F0020E00018E27000E8F230001E4
:100F580092AF53D0030E000193130001916D921FBD
:100F6800D8B0922B4AD08EC0D9FF8FC0DAFFDECF1F
:100F780091F0DDCF92F0020E00018E27000E8F2334
:100F88003CD0010E0001966F050E00019619D8B4E9
:100F98003DD000019651020D180EF324F66EFE0E98
:100FA800F420F76E0900F5500001915D0900F55035
:100FB80000019259D8A02AD00001962BE5D7010E3E
:100FC8000001966F040E00019619D8B41FD00001D5
:100FD8009651020D220EF324F66EFE0EF420F76EE3
:100FE8000900F5500001915D0900F5500001925982
:100FF800D8A00CD00001962BE5D700019351800BA7
:10100800000AD8B4BED7800AD8B4D9D70001945101
:1010180000019511D8B40BD093C089F0030E0001DC
:101028008917D8B404D000019407D8A09507800E7A
:10103800000196BF7F0E0001896F000194510001E5
:10104800965D00019551800A00018959D8B00BD0EE
:10105800000196510001945F000E000196BFFF0E3B
:101068000001955B05D0000E0001956F000E946F8E
:10107800000193A518D093C089F0030E00018917C9
:10108800D8B403D02D0E04EC10F0000194510001E7
:101098009511D8B425D0300E04EC10F00001940757
:1010A800D8A09507F2D70001945100019511D8B442
:1010B8000DD0200E04EC10F000019407D8A095077D
:1010C8000001945100019511D8A4F3D793C089F079
:1010D800030E00018917D8B403D02D0E04EC10F0CC
:1010E80096C090F057D000019051020D180EF324CD
:1010F800F66EFE0EF420F76E0900F5CF37F00A0001
:10110800F5CF38F091C035F092C036F04DEC0EF0C6
:1011180035C03CF036C03DF0000E3F6E0A0E3E6E04
:10112800EDEC0EF03C50300F0001966F2FD091C0BF
:1011380035F092C036F000019051020D220EF324D2
:10114800F66EFE0EF420F76E0900F5CF37F00A00B0
:10115800F5CF38F04DEC0EF035500F0B00018D6FC8
:1011680000018D51010DDD0EF324F66EFE0EF42004
:10117800F76E0800F5CF96F009D000019351800B67
:10118800000AD8B4B0D7800AD8B4D1D70001965194
:1011980004EC10F00001900700019029D8A4EDD7C5
:1011A80081C0F6FF82C0F7FF0001814B822B080047
:1011B800F5CF96F000019651D8B4120031D60F0E33
:1011C800186E000E196E74D1250E2018D8B404D0EC
:1011D800205010EC10F06CD1000E1F6E000E1E6E29
:1011E800000E1D6E03D01D840D4A0E2A0DC0F6FF99
:1011F8000EC0F7FF0800F550300AD8B4F4D70DC078
:10120800F6FF0EC0F7FF0800F550CCEC0FF0D8A0A1
:1012180035D0000E1F6E000E1E6E1EC001F01FC0DE
:1012280002F0000E046E0A0E036E97EC0FF001C078
:101238001EF002C01FF0D00E136EFF0E146E0DC00C
:10124800F6FF0EC0F7FF0800F550156E166A13502A
:1012580015261450162215501E2616501F220D4A08
:101268000E2A0DC0F6FF0EC0F7FF0800F550CCECB3
:101278000FF0D8A003D0D1D71D8E17D00DC0F6FF20
:101288000EC0F7FF0D4A0E2A0800F5CF20F02050B7
:10129800000AD8B41200640AD8B407D00D0AD8B42A
:1012A80004D0110AD8B4E8D703D11DBE15D018C090
:1012B800D9FF19C0DAFFDECF1BF0DDCF1CF0020E1C
:1012C8001826000E19221CAE44D0030E1D121B6CEA
:1012D8001C1ED8B01C2A3DD018C0D9FF19C0DAFF8F
:1012E800DECF1BF0DDCF1CF0020E1826000E1922EF
:1012F80030D0010E206E050E2018D8B432D0205000
:10130800020D180EF324F66EFE0EF420F76E090097
:10131800F5501B5C0900F5501C58D8A022D0202A93
:10132800EAD7010E206E040E2018D8B41AD0205027
:10133800020D220EF324F66EFE0EF420F76E09005D
:10134800F5501B5C0900F5501C58D8A00AD0202A7B
:10135800EAD71D50800B000AD8B4CBD7800AD8B47E
:10136800E0D71E501F10D8B409D01DC013F0030ECB
:101378001316D8B403D01E06D8A01F06800E20BEB0
:101388007F0E136E1E50205C1F50800A1358D8B071
:1013980007D020501E5E000E20BEFF0E1F5A04D03C
:1013A800000E1F6E000E1E6E1DA414D01DC013F07B
:1013B800030E1316D8B403D02D0E10EC10F01E50E7
:1013C8001F10D8B41ED0300E10EC10F01E06D8A096
:1013D8001F06F5D71E501F10D8B40AD0200E10ECE7
:1013E80010F01E06D8A01F061E501F10D8A4F6D74E
:1013F8001DC013F0030E1316D8B403D02D0E10EC35
:1014080010F020C01AF050D01A50020D180EF32414
:10141800F66EFE0EF420F76E0900F5CF03F00A0011
:10142800F5CF04F01BC001F01CC002F076EC0EF002
:1014380001C008F002C009F0000E0B6E0A0E0A6E19
:1014480034EC0FF00850300F206E2BD01BC001F089
:101458001CC002F01A50020D220EF324F66EFE0E86
:10146800F420F76E0900F5CF03F00A00F5CF04F079
:1014780076EC0EF001500F0B176E1750010DDD0EB4
:10148800F324F66EFE0EF420F76E0800F5CF20F078
:1014980008D01D50800B000AD8B4B6D7800AD8B43B
:1014A800D5D7205010EC10F01A061A28D8A4F1D776
:1014B8000DC0F6FF0EC0F7FF0D4A0E2A0800F5CF43
:1014C80020F02050D8B412007FD6010EE8EC0FF0BF
:1014D800C45004E1360EC35CD8A00DD00001C22B65
:1014E800020E0001BB6F000EBA6F020E0001BD6F45
:1014F800000EBC6F1200C45004E1050EC35CD8A0F6
:101508000DD00001C32B020E0001B96F000EB86F99
:10151800020E0001BF6F000EBE6F1200020EE8EC53
:101528000FF0C45004E1360EC35CD8A00DD0000102
:10153800C12B020E0001BB6F000EBA6F020E000134
:10154800BD6F000EBC6F1200C45004E1050EC35CF1
:10155800D8A00DD00001C32B020E0001B96F000EF8
:10156800B86F020E0001BF6F000EBE6F1200030EAF
:10157800E8EC0FF0C45004E1360EC35CD8A00DD0DF
:101588000001C12B020E0001BB6F000EBA6F020EE4
:101598000001BD6F000EBC6F1200C45004E1050EBF
:1015A800C35CD8A00DD00001C32B020E0001B96F97
:1015B800000EB86F020E0001BF6F000EBE6F120062
:1015C800040EE8EC0FF0C20EC35C020EC458D8A09B
:1015D80008D00001C12B020E0001BB6F000EBA6FCC
:1015E8000DD0C45004E1050EC35CD8A007D000019B
:1015F800C32B020E0001B96F000EB86F050EE8ECA0
:101608000FF0C20EC35C020EC458D8A008D0000167
:10161800C12B020E0001BD6F000EBC6F0DD0C4506F
:1016280004E1050EC35CD8A007D00001C32B020E4D
:101638000001BF6F000EBE6F0001BA510001BB115F
:10164800D8B409D00001BC510001BD11D8B403D0F1
:10165800010E456E12000001BA510001B811366E34
:101668000001BB510001B911376E0001BC5136129F
:101678000001BD5137120001BE5136120001BF51A1
:10168800371236503710D8A412000001C32B020EAF
:101698000001BF6F000EBE6F020E0001B96F000E91
:1016A800B86F1200236E2A0E2218D8A453D0020E47
:1016B8000001D119D8A446D0010E0001D16FD58EF2
:1016C800CD80010E0001CB6F32EC10F0000E036EDE
:1016D800D00E026E21EC10F0000E036E000E026EAA
:1016E80021EC10F02EEC10F032EC10F0000E036E2E
:1016F800D10E026E21EC10F0000E246E050E24644B
:1017080001D00ED02450010DAA0EF324D96E000E7C
:10171800F420DA6E010EAAEC0FF0DF6E242AEED761
:10172800000EAAEC0FF00001B06F2EEC10F0800E46
:1017380016EC10F0A90E0D6EFF0E0E6EE3EC08F01D
:101748008A8012000001D151D8A41200020E0001B3
:10175800D16F12000001D105D8A40AD0230E221897
:10176800D8A412000B0E0001D16F62EC0CF012002D
:101778000001D151D8B4120021502218D8A40CD09D
:10178800020E0001D119D8A404D00A0E0001D16FAD
:1017980012000001D107120023502218D8A4120009
:1017A8000A0E0001D119D8A404D0020E0001D16F8D
:1017B80012000001D12B1200D59ECD90D90ED76E04
:1017C800DA0ED66EE20ECF6EB30ECE6EC0C0C5F086
:1017D800C2C0C8F0C1C0C6F0C3C0C9F00001C05142
:1017E8000001C2250001C1250001C3250001C76F02
:1017F800000E0001C06F000E0001C26F000E000154
:10180800C16F000E0001C36F46C035F0366A000E86
:10181800386E3C0E376E2BEC0DF035500001C46F5E
:1018280046C035F0366A000E386E3C0E376EAFECA7
:101838000DF035500001CA6F000E466E000E446E62
:10184800000E0001CC6F000E436E000E426E000EBB
:10185800486E000E0001B96F000EB86F000E00014F
:10186800BB6F000EBA6F000E0001BD6F000EBC6F9B
:10187800000E0001BF6F000EBE6F000E0001CF6F9B
:10188800000E0001CD6F000E0001D06F000E0001A8
:10189800CE6F000E416E000E406E000E456E000EBB
:1018A800476E8B928B948B9A8B9C8B908D948D9298
:1018B80089988C908B9E8C928A901200D59ECD90A0
:1018C800D90ED76EDA0ED66EE20ECF6EB30ECE6E8E
:1018D800C0C0C5F0C2C0C8F0C1C0C6F0C3C0C9F01E
:1018E8000001C0510001C2250001C1250001C32526
:1018F8000001C76F000E0001C06F000E0001C26F2B
:10190800000E0001C16F000E0001C36F46C001F058
:10191800026A000E046E3C0E036E6DEC0DF0015071
:101928000001C46F46C001F0026A000E046E3C0E4E
:10193800036EE7EC0DF001500001CA6F000E466E11
:10194800000E446E000E0001CC6F000E436E000EB8
:10195800426E000E486E000E0001B96F000EB86F9F
:10196800000E0001BB6F000EBA6F000E0001BD6FC4
:10197800000EBC6F000E0001BF6F000EBE6F000EA0
:101988000001CF6F000E0001CD6F000E0001D06F77
:10199800000E0001CE6F000E416E000E406E000E6C
:1019A800456E000E476E8B928B948B9A8B9C8B9016
:1019B8008D948D9289988C908B9E8C928A9012002F
:1019C800000E0001806F000E816F000E826F000E06
:1019D800836F39503A103B103C10D8B42FD0010E09
:1019E8000001846F07D0D89039363A363B363C36FA
:1019F8000001842B3CAEF7D70001D890803781379F
:101A0800823783373950355C3A5036583B5037580F
:101A18003C503858D8A00AD03950355E3A50365A1A
:101A28003B50375A3C50385A00018081D8903C329C
:101A38003B323A3239320001842FDED780C035F08C
:101A480081C036F082C037F083C038F01200000E33
:101A58003A6E38AE06D0376C381ED8B0382A010E28
:101A68003A6E36AE06D0356C361ED8B0362A010E20
:101A78003A1A000E3C6E000E3B6E37503810D8B440
:101A88001CD0010E396E04D0D89037363836392A32
:101A980038AEFAD7D8903B363C363750355C38509C
:101AA8003658D8A005D03750355E3850365A3B8066
:101AB800D89038323732392EEDD73A50D8B404D0CE
:101AC8003B6C3C1ED8B03C2A3BC035F03CC036F0DD
:101AD8001200000E066E04AE06D0036C041ED8B0C9
:101AE800042A010E066E02AE06D0016C021ED8B0A2
:101AF800022A010E061A000E086E000E076E035029
:101B08000410D8B41CD0010E056E04D0D89003364A
:101B18000436052A04AEFAD7D8900736083603509B
:101B2800015C04500258D8A005D00350015E04504F
:101B3800025A0780D89004320332052EEDD706509A
:101B4800D8B404D0076C081ED8B0082A07C001F022
:101B580008C002F01200000E3A6E36AE06D0356CA0
:101B6800361ED8B0362A010E3A6E38AE04D0376C1D
:101B7800381ED8B0382A37503810D8B418D0010ECB
:101B8800396E04D0D89037363836392A38AEFAD775
:101B98003750355C38503658D8A004D03750355EA9
:101BA8003850365AD89038323732392EF1D73A5021
:101BB800D8B404D0356C361ED8B0362A35C035F0C6
:101BC80036C036F01200000E066E02AE06D0016C6A
:101BD800021ED8B0022A010E066E04AE04D0036CB1
:101BE800041ED8B0042A03500410D8B418D0010E2B
:101BF800056E04D0D89003360436052A04AEFAD709
:101C08000350015C04500258D8A004D00350015E70
:101C18000450025AD89004320332052EF1D70650E8
:101C2800D8B404D0016C021ED8B0022A01C001F059
:101C380002C002F01200000EC76E280EC66E000E1B
:101C4800C56E800E356E960E366E980E376E000E87
:101C5800386E85C089F086C08AF087C08BF088C04E
:101C68008CF0020ED890000189378A378B378C3771
:101C7800E82EF8D789C039F08AC03AF08BC03BF01B
:101C88008CC03CF0E4EC0CF03504C86E9486948863
:101C98001200000E3A6E000E396E37503810D8B464
:101CA8001CD0010E3B6E04D0D890373638363B2A0C
:101CB80038AEFAD7D89039363A363750355C38507E
:101CC8003658D8A005D03750355E3850365A398046
:101CD800D890383237323B2EEDD739C035F03AC07C
:101CE80036F01200000E066E000E056E035004104A
:101CF800D8B41CD0010E076E04D0D8900336043631
:101D0800072A04AEFAD7D890053606360350015C88
:101D180004500258D8A005D00350015E0450025A5E
:101D28000580D89004320332072EEDD705C001F0A4
:101D380006C002F01200366E3650F00B356E8C502D
:101D48000F0B8C6E35508C108C6E8C96190EE82EFD
:101D5800FED78C86190EE82EFED73638F00B366E75
:101D68003650F00B356E8C500F0B8C6E35508C1036
:101D78008C6E8C96190EE82EFED78C86190EE82EDE
:101D8800FED71200026E0250F00B016E8C500F0B42
:101D98008C6E01508C108C6E8C96190EE82EFED726
:101DA8008C86190EE82EFED70238F00B026E025010
:101DB800F00B016E8C500F0B8C6E01508C108C6EDA
:101DC8008C96190EE82EFED78C86190EE82EFED7B3
:101DD80012003E503F10D8B41BD0010E0001806F96
:101DE80005D0D8903E363F360001802B3FAEF9D75C
:101DF8003E503C5C3F503D58D8A004D03E503C5E1D
:101E08003F503D5AD8903F323E320001802FF0D7E4
:101E18003CC03CF03DC03DF01200310E386EB20EB1
:101E2800E82EFED7382EFCD700D0330E0AEC10F07F
:101E3800320E0AEC10F0280E0AEC10F00F0E0AEC25
:101E480010F0060E0AEC10F0010E0AEC10F0310E3C
:101E5800386EB20EE82EFED7382EFCD700D012000E
:101E68000A500B10D8B418D0010E0C6E04D0D890BC
:101E78000A360B360C2A0BAEFAD70A50085C0B5000
:101E88000958D8A004D00A50085E0B50095AD890B7
:101E98000B320A320C2EF1D708C008F009C009F03D
:101EA80012006C0EF66E200EF76E000EF86E09002A
:101EB800F5CFD1F000EEAAF0270EEE6AE806FDE1B4
:101EC80000EE40F00B0EEE6AE806FDE14B904B92F7
:101ED800000EF86E000109EF00F035503702F3CF1D
:101EE80039F0F4CF3AF035503802F3503A263650EC
:101EF8003702F3503A2639C035F03AC036F01200AE
:101F0800366EF2EC0FF0C586F2EC0FF0C9CF37F061
:101F1800F2EC0FF03650D8A402D0C58A01D0C59A89
:101F2800C5883750120001500302F3CF05F0F4CFF3
:101F380006F001500402F350062602500302F35043
:101F4800062605C001F006C002F01200026EFBEC86
:101F58000FF0C586FBEC0FF0C9CF03F0FBEC0FF0D8
:101F68000250D8A402D0C58A01D0C59AC5880350AA
:101F78001200376E000E366E3A0E376005D02F0EFF
:101F8800376402D0010E366E36C035F03530120097
:101F9800036E000E026E3A0E036005D02F0E036426
:101FA80002D0010E026E02C001F00130120035C0ED
:101FB80040F036C041F040504110D8B41200000142
:101FC800D105D8A41200F7D7356E3544E846FC0B86
:101FD800C26EC280C282C2A21200FDD7C7B4FED7A9
:101FE800C5CF35F01F0E3516D8B41200F7D7C7B4D1
:101FF800FED7C5CF01F01F0E0116D8B41200F7D7CF
:10200800376E8C8437509FEC0EF01200376E8C942C
:1020180037509FEC0EF01200036E8C840350C6EC10
:102028000EF01200036E8C940350C6EC0EF01200F2
:10203800F2EC0FF036C0C9FF1200FBEC0FF002C043
:10204800C9FF1200F2EC0FF0C5841200F2EC0FF099
:10205800C5801200FBEC0FF0C5841200FBEC0FF0FA
:05206800C5801200021A
:10FE0600003132334134353642373839432A3023CC
:10FE1600440001000A006400E803102701001000F6
:10FE260000010010253032643A253032642020204B
:10FE360020202020202020202020202000253032B5
:10FE4600782F253032782F25303278202020202038
:10FE560020202000253032783A253032783A253075
:10FE66003278202020202020202000444154453A8A
:10FE760020253032782F253032782F2530327820E1
:10FE8600200054494D453A20253032783A25303203
:10FE9600783A2530327820200052554E4E494E474A
:10FEA6003A20253032643A25303264202020004240
:10FEB60041545445524945533A2025303264202056
:10FEC600202020004241545445524945533A2025AA
:10FED6003032642020200030313233343536373822
:10FEE600396162636465660020202020202020207E
:10FEF60020202020202020200023204F46204320A1
:10FF06002020202020202020200023204F46204192
:10FF1600412020202020202020200053544F5050E4
:10FF260045442020202020202020200023204F464A
:10FF3600203956202020202020202020002534642F
:10FF460020253264202020202020202020004C4123
:10FF560053542052554E3A20202020202020005471
:10FF66004F54414C2023204F4620202020202000A3
:10FF7600544F20434F4E54494E55452020202020B3
:10FF86000023204F4620445241494E45442020201C
:10FF96002000444F4E4521205052455353202A20DD
:10FFA60020200052554E4E494E473A2030303A30C6
:10FFB60030202000544F54414C2052554E20544975
:10FFC6004D453A2000203C544F47474C4520204C95
:10FFD6004F47533E20003C20544F47474C45202076
:10FFE6004C4F4753203E005052455353202A20542D
:09FFF6004F205354415254000005
:020000040020DA
:08000000FFFFFFFFFFFFFFFF00
:020000040030CA
:0E000000FF021F1EFF8381FF0FC00FE00F40A5
:00000001FF
