:0400000007EF00F016
:100008004B824AED04F089EF0EF0030E926EF20E69
:10001800936E000E946E000E956E000E966E000E96
:10002800896E000E8A6E000E8B6E000E8C6E000EAE
:100038008D6E000EC26E0E0EC16EB10EC06EF28EC7
:10004800F28CF086F090F28AF2949D809E90070ED2
:10005800D56ED90ED76EDA0ED66E800ECD6EE20E44
:10006800CF6EB30ECE6E24EC0EF0100E0001806F32
:10007800270E816F000E826F000E836F56EC0DF015
:10008800F28E56D0800E22EC0FF0DD0E0001806F4C
:10009800FF0E0001816F8FEC06F0C00E22EC0FF00E
:1000A800EE0E0001806FFF0E0001816F8FEC06F0ED
:1000B800000E0001A46F310E0001A46501D011D01B
:1000C800020E0001C719D8A40CD0210E0001966FAA
:1000D800760EE82EFED7962FFCD700F00001A42B51
:1000E800EAD7800E22EC0FF0C00E22EC0FF0CC0EF7
:1000F8000001806FFF0E0001816F8FEC06F0000E8B
:100108000001A56F310E0001A56501D011D0020EC6
:100118000001C719D8A40CD0210E0001966F760EE5
:10012800E82EFED7962FFCD700F00001A52BEAD7C2
:10013800020E0001C719D8A42DD2A4D7800E22EC34
:100148000FF0C00E22EC0FF0440E0001806FFF0E7E
:100158000001816FC3CF82F0C4CF83F00001B75193
:10016800B9C096F00001976B00019627000E9723FF
:100178000001B65100019627000E97230001B851DF
:10018800000196250001846F0001000E00019721EF
:100198000001856F8FEC06F00001C151D8B4E1D0A1
:1001A800050E356E350E346EFCEC0EF0000E0001B7
:1001B800C16F8B92000E00019B6F000E9A6FA40E08
:1001C80000019A5D010E00019B59D8B01BD08BB479
:1001D80004D00001966B962B02D00001966B0001AB
:1001E800964796478B5000019619FB0B96198B6E14
:1001F800000E356E020E346EFCEC0EF000019A4BC8
:100208009B2BDDD78B82000E00019D6F000E9C6F2B
:1002180000019D5123E1280E00019C5DD8B01ED03D
:100228008BB404D00001966B962B02D00001966B1C
:100238000001964796478B5000019619FB0B9619BB
:100248008B6E000E356E020E346EFCEC0EF0000163
:100258009C4B9D2B00019D5101E1DDD78B92000E37
:1002680000019F6F000E9E6F00019F5123E1280E31
:1002780000019E5DD8B01ED08BB404D00001966BEF
:10028800962B02D00001966B0001964796478B503B
:1002980000019619FB0B96198B6E000E356E020E37
:1002A800346EFCEC0EF000019E4B9F2B00019F5119
:1002B80001E1DDD78B82000E0001A16F000EA06F57
:1002C8000001A15123E1280E0001A05DD8B01ED085
:1002D8008BB404D00001966B962B02D00001966B6C
:1002E8000001964796478B5000019619FB0B96190B
:1002F8008B6E000E356E020E346EFCEC0EF00001B3
:10030800A04BA12B0001A15101E1DDD78B92000E7A
:100318000001A36F000EA26F0001A35120E1140E8B
:100328000001A25DD8B01BD08BB404D00001966B3D
:10033800962B02D00001966B0001964796478B508A
:1003480000019619FB0B96198B6E000E356E020E86
:10035800346EFCEC0EF00001A24BA32BDDD7000E8F
:10036800456E000E09EC0FF0C45004E1510EC35C59
:10037800D8A002D0010E01D0000E0001966FC45023
:1003880006E1320EC35CD8B002D0010E01D0000ED7
:1003980000019611E8A0F8D0000E356EA70E346E55
:1003A800FCEC0EF0010E486E8B8E000E356EA70E1B
:1003B800346EFCEC0EF0EBEC09F08B9E0001AE51B4
:1003C8000001AF11D8B404D0010E496EAEC0C4F01C
:1003D8000001B0510001B111D8B404D0040E496E27
:1003E800B0C0C3F00001B2510001B311D8B404D0B9
:1003F800010E4A6EB2C0C6F00001B4510001B51139
:10040800D8B404D0040E4A6EB4C0C5F08984899665
:100418008A808A940001B2510001AE110001966FE2
:100428000001B3510001AF110001976F0001B051F5
:10043800000196130001B151000197130001B45156
:10044800000196130001B551000197130001965160
:1004580000019711D8B404D00001C705D8B4DAD781
:10046800010E356E4D0E346EFCEC0EF089848996C3
:100478008A808A94C3C0AEF00001AF6BC4C0B0F0EC
:100488000001B16BC5C0B2F00001B36BC6C0B4F0D7
:100498000001B56B010E0001C26F8B920001B251D1
:1004A8000001AE110001966F0001B3510001AF11B8
:1004B8000001976F0001B051000196130001B1517E
:1004C800000197130001B451000196130001B551C2
:1004D800000197130001C251D8B402D0010E01D017
:1004E800000E0001986F996B000196510001981356
:1004F80000019751000199130001985100019911C9
:10050800D8B404D00001C705D8B4C8D78B948B924F
:10051800000E0001C46F000E0001C36F000E000141
:10052800C66F000E0001C56F899489968998899ACB
:100538008A908A948B9C8D940001B751B8C096F02C
:100548000001976B00019627000E97230001B65112
:1005580000019627000E97230001B9510001962744
:10056800000E9723000197BF0DD00001975105E1B8
:100578000F0E0001965DD8A005D0000E0001C76FD0
:10058800C0EC0AF0000E486E000E356EA70E346EF1
:10059800FCEC0EF00001C705D8A417D0CFD5800E0B
:1005A80022EC0FF0880E0001806FFF0E0001816FB2
:1005B8008FEC06F0C00E22EC0FF0660E0001806F83
:1005C800FF0E0001816F8FEC06F00001C751D8A41F
:1005D8001FD0E5D7800E22EC0FF0BB0E0001806F14
:1005E800FF0E0001816F8FEC06F0C00E22EC0FF0B9
:1005F8006A0E0001806FFE0E0001816FBAC082F0A2
:100608000001836BC0C084F00001856B8FEC06F09D
:10061800030E0001C719D8A41BD0DCD7800E22EC2A
:100628000FF0550E0001806FFF0E0001816F8FECF7
:1006380006F0C00E22EC0FF0DC0E0001806FFE0EFB
:100648000001816FBDC082F00001836B8FEC06F062
:10065800040E0001C719D8A41BD0E0D7800E22ECE5
:100668000FF0110E0001806FFF0E0001816F8FECFB
:1006780006F0C00E22EC0FF0DC0E0001806FFE0EBB
:100688000001816FBEC082F00001836B8FEC06F021
:10069800050E0001C719D8A41BD0E0D7800E22ECA4
:1006A8000FF0330E0001806FFF0E0001816F8FEC99
:1006B80006F0C00E22EC0FF0C70E0001806FFE0E90
:1006C8000001816FBBC082F00001836B8FEC06F0E4
:1006D800060E0001C719D8A41BD0E0D7800E22EC63
:1006E8000FF0220E0001806FFF0E0001816F8FEC6A
:1006F80006F0C00E22EC0FF0C70E0001806FFE0E50
:100708000001816FBCC082F00001836B8FEC06F0A2
:10071800070E0001C719D8A41BD0E0D7800E22EC21
:100728000FF0770E0001806FFF0E0001816F8FECD4
:1007380006F0C00E22EC0FF0C70E0001806FFE0E0F
:100748000001816FBFC082F00001836B8FEC06F05F
:10075800080E0001C719D8A466D0E0D73DEC0FF009
:10076800000E366ED00E356E34EC0FF0000E366E7D
:10077800000E356E34EC0FF039EC0FF03DEC0FF055
:10078800000E366ED10E356E34EC0FF0000E0001FF
:10079800A66F050E0001A66501D010D00001A65174
:1007A800010DA70EF324D96E000EF420DA6E010EA7
:1007B800B8EC0EF0DF6E0001A62BEBD7000EB8ECFC
:1007C8000EF00001AD6F39EC0FF0800E22EC0FF047
:1007D800830E0001806FFE0E0001816FADC082F0B4
:1007E8000001836BACC084F00001856BABC086F060
:1007F8000001876B8FEC06F0C00E22EC0FF09A0E0A
:100808000001806FFE0E0001816FA9C082F0000117
:10081800836BA8C084F00001856BA7C086F0000137
:10082800876B8FEC06F0090E0001C719D8A428D0F1
:1008380095D7800E22EC0FF0AA0E0001806FFF0EF4
:100848000001816F8FEC06F0C00E22EC0FF0000E55
:100858000001806FFF0E0001816F8FEC06F01A0E09
:100868000001976F5E0E0001966F6E0EE82EFED7A0
:10087800962FFCD7972FFAD700F0020E0001C76F0A
:100888000A0E0001C719D8A453D4D3D70600FACF4B
:1008980025F0FBCF26F0E9CF27F0EACF28F0E1CF0B
:1008A80029F0E2CF2AF0D9CF2BF0DACF2CF0F3CF12
:1008B8002DF0F4CF2EF0F6CF2FF0F7CF30F0F8CFA1
:1008C80031F0F5CF32F0F0A015D081380F0B0F0BB7
:1008D800336E360E216E3350010D470EF324F66E3B
:1008E800FE0EF420F76E0800F5CF22F0340ECAECA5
:1008F8000BF0F0900001C705D8B4F2A44DD0F294E3
:10090800D90ED76EDA0ED66E462A46C001F0026AB4
:10091800000E046E3C0E036E63EC0CF001500001F7
:10092800BA6F46C001F0026A000E046E3C0E036EF8
:100938001EEC0DF001500001C06F800E2EEC0FF080
:10094800B10E0D6EFE0E0E6EBAC00FF0106AC0C06A
:1009580011F0126A65EC08F0B30E466405D0000E7B
:100968000001C76F45EC0BF04850D8A413D0C45011
:1009780004E1330EC35CD8A002D0452A02D0000E91
:10098800456E090E456408D0000E0001C76F45EC9E
:100998000BF002D0000E456E0001C705D8B49EA02A
:1009A8009CD19E90E20ECF6EB30ECE6E4150421097
:1009B800D8B403D04106D8A04206472A840E47641B
:1009C8000DD0000E476E8BB003D0246A242A01D0C4
:1009D800246A8B502418FE0B24188B6E0001C25118
:1009E800D8B4DBD00001C205D8A417D0434A442AA2
:1009F8008BB403D0246A242A01D0246A24462446CE
:100A08008B502418FB0B24188B6E7C0E435C010E54
:100A18004458D8A0C2D0020E12D0020E0001C2194A
:100A2800D8A410D0434A442A445004E1640E435CDD
:100A3800D8A0B3D0000E446E000E436E030E000122
:100A4800C26FABD0030E0001C219D8A41DD0434A0F
:100A5800442A8BB403D0246A242A01D0246A244669
:100A680024468B502418FB0B24188B6E445004E149
:100A7800280E435CD8A091D0000E446E000E436E41
:100A8800040E43D08B8289D0040E0001C219D8A469
:100A98001DD0434A442A8BB403D0246A242A01D0A7
:100AA800246A244624468B502418FB0B24188B6E8A
:100AB800445004E1280E435CD8A06FD0000E446E69
:100AC800000E436E050E43D08B9267D0050E0001D1
:100AD800C219D8A41DD0434A442A8BB403D0246A2F
:100AE800242A01D0246A244624468B502418FB0B60
:100AF80024188B6E445004E1280E435CD8A04DD0D6
:100B0800000E446E000E436E060E0001C26FBAD787
:100B1800060E0001C219D8A41DD0434A442A8BB43A
:100B280003D0246A242A01D0246A244624468B5000
:100B38002418FB0B24188B6E445004E1280E435CE8
:100B4800D8A02BD0000E446E000E436E070E000195
:100B5800C26FBAD7070E0001C219D8A41ED0434AE3
:100B6800442A8BB403D0246A242A01D0246A244658
:100B780024468B502418FB0B24188B6E445004E138
:100B8800140E435CD8A009D0000E446E000E436ECC
:100B9800000E0001C26F8B928B940001AE510001D0
:100BA800AF11D8B422D04904D8A402D0898A899830
:100BB800020E4918D8A402D089948986030E4918D0
:100BC800D8A402D0899A8988040E4918D8A402D0DA
:100BD800898489960001AE07D8A0AF07030E49643F
:100BE80003D0010E496E01D0492A0001B05100011D
:100BF800B111D8B422D0040E4918D8A402D0899AC9
:100C08008988030E4918D8A402D089948986020ECF
:100C18004918D8A402D0898A89984904D8A402D04E
:100C2800898489960001B007D8A0B107020E4960EF
:100C380003D0040E496E01D049060001B2510001EB
:100C4800B311D8B422D04A04D8A402D08D848B9C86
:100C5800020E4A18D8A402D08A908A84030E4A1831
:100C6800D8A402D08D948B8C040E4A18D8A402D034
:100C78008A808A940001B207D8A0B307030E4A6499
:100C880003D0010E4A6E01D04A2A0001B451000176
:100C9800B511D8B422D0040E4A18D8A402D08D9425
:100CA8008B8C030E4A18D8A402D08A908A84020E2C
:100CB8004A18D8A402D08D848B9C4A04D8A402D0A8
:100CC8008A808A940001B407D8A0B507020E4A604A
:100CD80003D0040E4A6E01D04A0632C0F5FF31C077
:100CE800F8FF30C0F7FF2FC0F6FF2EC0F4FF2DC06D
:100CF800F3FF2CC0DAFF2BC0D9FF2AC0E2FF29C0BE
:100D0800E1FF28C0EAFF27C0E9FF26C0FBFF25C096
:100D1800FAFF4B921100820E00018D6F000E000148
:100D28008E6FC0D1250E00019519D8B405D00001E9
:100D380095511CEC0FF0B6D1000E0001946F000E17
:100D4800936F000E0001926F05D00001928500019B
:100D5800804B812B80C0F6FF81C0F7FF0800F5505B
:100D6800300AD8B4F2D780C0F6FF81C0F7FF080078
:100D7800F550DEEC0EF0D8A043D0000E0001946FC1
:100D8800000E936F93C034F094C035F0000E376EA8
:100D98000A0E366EA5EC0EF034C093F035C094F010
:100DA800D00E0001886FFF0E0001896F80C0F6FF2A
:100DB80081C0F7FF0800F55000018A6F8B6B0001B6
:100DC800885100018A270001895100018B23000105
:100DD8008A510001932700018B51000194230001DF
:100DE800804B812B80C0F6FF81C0F7FF0800F550CB
:100DF800DEEC0EF0D8A004D0C5D70001928F19D030
:100E080080C0F6FF81C0F7FF0001804B812B0800EE
:100E1800F5CF95F000019551000AD8B41200640A84
:100E2800D8B407D00D0AD8B404D0110AD8B4E5D77D
:100E380039D1000192BF19D08DC0D9FF8EC0DAFF19
:100E4800DECF90F0DDCF91F0020E00018D27000E6D
:100E58008E23000191AF53D0030E000192130001BD
:100E6800906D911FD8B0912B4AD08DC0D9FF8EC0FC
:100E7800DAFFDECF90F0DDCF91F0020E00018D2772
:100E8800000E8E233CD0010E0001956F050E000167
:100E98009519D8B43DD000019551020D580EF32490
:100EA800F66EFE0EF420F76E0900F5500001905D15
:100EB8000900F55000019159D8A02AD00001952BBE
:100EC800E5D7010E0001956F040E00019519D8B4FD
:100ED8001FD000019551020D620EF324F66EFE0E2E
:100EE800F420F76E0900F5500001905D0900F550F7
:100EF80000019159D8A00CD00001952BE5D700012D
:100F08009251800B000AD8B4BED7800AD8B4D9D77A
:100F18000001935100019411D8B40BD092C088F00D
:100F2800030E00018817D8B404D000019307D8A095
:100F38009407800E000195BF7F0E0001886F0001A5
:100F480093510001955D00019451800A0001885970
:100F5800D8B00BD0000195510001935F000E00013D
:100F680095BFFF0E0001945B05D0000E0001946F41
:100F7800000E936F000192A518D092C088F0030E5E
:100F880000018817D8B403D02D0E1CEC0FF0000117
:100F9800935100019411D8B425D0300E1CEC0FF0F9
:100FA80000019307D8A09407F2D7000193510001DC
:100FB8009411D8B40DD0200E1CEC0FF0000193074B
:100FC800D8A094070001935100019411D8A4F3D735
:100FD80092C088F0030E00018817D8B403D02D0EF4
:100FE8001CEC0FF095C08FF057D000018F51020D07
:100FF800580EF324F66EFE0EF420F76E0900F5CFB6
:1010080036F00A00F5CF37F090C034F091C035F0D3
:1010180084EC0DF034C03BF035C03CF0000E3E6E61
:101028000A0E3D6E47EC0EF03B50300F0001956FF5
:101038002FD090C034F091C035F000018F51020DCF
:10104800620EF324F66EFE0EF420F76E0900F5CF5B
:1010580036F00A00F5CF37F084EC0DF034500F0B62
:1010680000018C6F00018C51010DEF0EF324F66E18
:10107800FE0EF420F76E0800F5CF95F009D00001B8
:101088009251800B000AD8B4B0D7800AD8B4D1D70F
:10109800000195511CEC0FF000018F0700018F290A
:1010A800D8A4EDD780C0F6FF81C0F7FF0001804BC0
:1010B800812B0800F5CF95F000019551D8B41200A6
:1010C80031D60F0E186E000E196E74D1250E201829
:1010D800D8B404D0205028EC0FF06CD1000E1F6E4D
:1010E800000E1E6E000E1D6E03D01D840D4A0E2AC2
:1010F8000DC0F6FF0EC0F7FF0800F550300AD8B44F
:10110800F4D70DC0F6FF0EC0F7FF0800F550EDEC60
:101118000EF0D8A035D0000E1F6E000E1E6E1EC039
:1011280001F01FC002F0000E046E0A0E036ECBEC35
:101138000EF001C01EF002C01FF0D00E136EFF0E9D
:10114800146E0DC0F6FF0EC0F7FF0800F550156EBF
:10115800166A135015261450162215501E261650BE
:101168001F220D4A0E2A0DC0F6FF0EC0F7FF080019
:10117800F550EDEC0EF0D8A003D0D1D71D8E17D0C6
:101188000DC0F6FF0EC0F7FF0D4A0E2A0800F5CF76
:1011980020F02050000AD8B41200640AD8B407D04E
:1011A8000D0AD8B404D0110AD8B4E8D703D11DBEAB
:1011B80015D018C0D9FF19C0DAFFDECF1BF0DDCF7C
:1011C8001CF0020E1826000E19221CAE44D0030E85
:1011D8001D121B6C1C1ED8B01C2A3DD018C0D9FF8C
:1011E80019C0DAFFDECF1BF0DDCF1CF0020E182687
:1011F800000E192230D0010E206E050E2018D8B42A
:1012080032D02050020D580EF324F66EFE0EF42054
:10121800F76E0900F5501B5C0900F5501C58D8A062
:1012280022D0202AEAD7010E206E040E2018D8B446
:101238001AD02050020D620EF324F66EFE0EF42032
:10124800F76E0900F5501B5C0900F5501C58D8A032
:101258000AD0202AEAD71D50800B000AD8B4CBD771
:10126800800AD8B4E0D71E501F10D8B409D01DC0CA
:1012780013F0030E1316D8B403D01E06D8A01F0609
:10128800800E20BE7F0E136E1E50205C1F50800AF9
:101298001358D8B007D020501E5E000E20BEFF0E97
:1012A8001F5A04D0000E1F6E000E1E6E1DA414D00F
:1012B8001DC013F0030E1316D8B403D02D0E28EC5E
:1012C8000FF01E501F10D8B41ED0300E28EC0FF0AF
:1012D8001E06D8A01F06F5D71E501F10D8B40AD076
:1012E800200E28EC0FF01E06D8A01F061E501F1057
:1012F800D8A4F6D71DC013F0030E1316D8B403D024
:101308002D0E28EC0FF020C01AF050D01A50020D04
:10131800580EF324F66EFE0EF420F76E0900F5CF92
:1013280003F00A00F5CF04F01BC001F01CC002F066
:10133800ADEC0DF001C008F002C009F0000E0B6E14
:101348000A0E0A6E68EC0EF00850300F206E2BD093
:101358001BC001F01CC002F01A50020D620EF324EB
:10136800F66EFE0EF420F76E0900F5CF03F00A00C2
:10137800F5CF04F0ADEC0DF001500F0B176E1750C0
:10138800010DEF0EF324F66EFE0EF420F76E080042
:10139800F5CF20F008D01D50800B000AD8B4B6D77E
:1013A800800AD8B4D5D7205028EC0FF01A061A288E
:1013B800D8A4F1D70DC0F6FF0EC0F7FF0D4A0E2ACC
:1013C8000800F5CF20F02050D8B412007FD68D80C9
:1013D800000E356E210E346EFCEC0EF0C20EC35CAE
:1013E800020EC458D8A00ED08D900001B62B020E64
:1013F8000001B16F000EB06F020E0001B36F000E56
:10140800B26F1200C45004E1050EC35CD8A00ED020
:101418008D900001B92B020E0001AF6F000EAE6F68
:10142800020E0001B56F000EB46F12008D908D8210
:10143800000E356E210E346EFCEC0EF0C20EC35C4D
:10144800020EC458D8A00ED08D920001B62B020E01
:101458000001B16F000EB06F020E0001B36F000EF5
:10146800B26F1200C45004E1050EC35CD8A00ED0C0
:101478008D920001B92B020E0001AF6F000EAE6F06
:10148800020E0001B56F000EB46F12008D928B8AA8
:10149800000E356E210E346EFCEC0EF0C45004E1E3
:1014A800360EC35CD8A00ED08B9A0001B82B020E62
:1014B8000001B16F000EB06F020E0001B36F000E95
:1014C800B26F1200C45004E1050EC35CD8A00ED060
:1014D8008B9A0001B92B020E0001AF6F000EAE6FA0
:1014E800020E0001B56F000EB46F12008B9A8C804B
:1014F800000E356E210E346EFCEC0EF0C45004E183
:10150800360EC35CD8A009D08C900001B72B020E10
:101518000001B16F000EB06F0ED0C45004E1050E8B
:10152800C35CD8A008D08C900001B92B020E000132
:10153800AF6F000EAE6F8C908C82000E356E210E50
:10154800346EFCEC0EF0C45004E1360EC35CD8A037
:1015580009D08C920001B72B020E0001B36F000E68
:10156800B26F08D08C920001B92B020E0001B56F42
:10157800000EB46F8C921200D59ECD90D90ED76E06
:10158800DA0ED66EE20ECF6EB30ECE6EB6C0BBF0DC
:10159800B8C0BEF0B7C0BCF0B9C0BFF00001B651CA
:1015A8000001B8250001B7250001B9250001BD6F6C
:1015B800000E0001B66F000E0001B86F000E0001AA
:1015C800B76F000E0001B96F46C034F0356A000EDF
:1015D800376E3C0E366E21EC0CF034500001BA6FB9
:1015E80046C034F0356A000E376E3C0E366EE6ECB7
:1015F8000CF034500001C06F000E466E000E456EB0
:10160800000E0001C26F000E446E000E436E000E05
:10161800486E000E0001AF6F000EAE6F000E0001A5
:10162800B16F000EB06F000E0001B36F000EB26F05
:10163800000E0001B56F000EB46F000E0001C56FFB
:10164800000E0001C36F000E0001C66F000E0001FE
:10165800C46F000E426E000E416E000E476E8D90F4
:101668008D928B9A8C908C92899489968998899A74
:101678008A908A948B9C8D948B928B9E8B948B9062
:101688001200D59ECD90D90ED76EDA0ED66EE20E28
:10169800CF6EB30ECE6EB6C0BBF0B8C0BEF0B7C04A
:1016A800BCF0B9C0BFF00001B6510001B825000177
:1016B800B7250001B9250001BD6F000E0001B66F06
:1016C800000E0001B86F000E0001B76F000E000198
:1016D800B96F46C001F0026A000E046E3C0E036E3C
:1016E80063EC0CF001500001BA6F46C001F0026AC9
:1016F800000E046E3C0E036E1EEC0DF0015000014E
:10170800C06F000E466E000E456E000E0001C26FDF
:10171800000E446E000E436E000E486E000E00016F
:10172800AF6F000EAE6F000E0001B16F000EB06F0C
:10173800000E0001B36F000EB26F000E0001B56F0E
:10174800000EB46F000E0001C56F000E0001C36FDC
:10175800000E0001C66F000E0001C46F000E426E3D
:10176800000E416E000E476E8D908D928B9A8C9074
:101778008C92899489968998899A8A908A948B9C64
:101788008D948B928B9E8B948B901200236E2A0ED5
:101798002218D8A420D0020E0001C719D8A413D04B
:1017A800010E0001C76FD58ECD80010E0001C16FFB
:1017B800800E2EEC0FF0990E0D6EFF0E0E6E65EC7E
:1017C80008F08B8012000001C751D8A41200020E45
:1017D8000001C76F12000001C705D8A40AD0230E64
:1017E8002218D8A412000A0E0001C76F45EC0BF0AE
:1017F80012000001C751D8B4120021502218D8A4F1
:101808000CD0020E0001C719D8A404D0090E00019B
:10181800C76F12000001C707120023502218D8A46E
:101828001200090E0001C719D8A404D0020E000145
:10183800C76F12000001C72B1200000E396E37AEB9
:1018480006D0366C371ED8B0372A010E396E35AE41
:1018580006D0346C351ED8B0352A010E391A000E60
:101868003B6E000E3A6E36503710D8B41CD0010EBD
:10187800386E04D0D89036363736382A37AEFAD78D
:10188800D8903A363B363650345C37503558D8A065
:1018980005D03650345E3750355A3A80D8903732B2
:1018A8003632382EEDD73950D8B404D03A6C3B1EB6
:1018B800D8B03B2A3AC034F03BC035F01200000ED5
:1018C800066E04AE06D0036C041ED8B0042A010EBE
:1018D800066E02AE06D0016C021ED8B0022A010EB6
:1018E800061A000E086E000E076E03500410D8B4D6
:1018F8001CD0010E056E04D0D89003360436052A94
:1019080004AEFAD7D890073608360350015C045065
:101918000258D8A005D00350015E0450025A07802F
:10192800D89004320332052EEDD70650D8B404D02F
:10193800076C081ED8B0082A07C001F008C002F0DA
:101948001200000E3C6E000E3D6E000E3E6E000E44
:101958003F6E385039103A103B10D8B42AD0010ED7
:10196800406E06D0D890383639363A363B36402A5B
:101978003BAEF8D7D8903C363D363E363F363850E9
:10198800345C395035583A5036583B503758D8A0FF
:1019980009D03850345E3950355A3A50365A3B508F
:1019A800375A3C80D8903B323A3239323832402E5E
:1019B800E1D73CC034F03DC035F03EC036F03FC002
:1019C80037F01200000E396E35AE06D0346C351E75
:1019D800D8B0352A010E396E37AE04D0366C371EB2
:1019E800D8B0372A36503710D8B418D0010E386E10
:1019F80004D0D89036363736382A37AEFAD736502C
:101A0800345C37503558D8A004D03650345E37503F
:101A1800355AD89037323632382EF1D73950D8B4B3
:101A280004D0346C351ED8B0352A34C034F035C0F3
:101A380035F01200000E066E02AE06D0016C021ED2
:101A4800D8B0022A010E066E04AE04D0036C041E40
:101A5800D8B0042A03500410D8B418D0010E056E6B
:101A680004D0D89003360436052A04AEFAD70350BA
:101A7800015C04500258D8A004D00350015E045001
:101A8800025AD89004320332052EF1D70650D8B442
:101A980004D0016C021ED8B0022A01C001F002C0B5
:101AA80002F01200000EC76E280EC66E000EC56E3C
:101AB800800E346E960E356E980E366E000E376EAA
:101AC80080C084F081C085F082C086F083C087F032
:101AD800020ED89000018437853786378737E82E7D
:101AE800F8D784C038F085C039F086C03AF087C08E
:101AF8003BF0A5EC0CF03404C86E94869488120070
:101B0800000E396E000E386E36503710D8B41CD01F
:101B1800010E3A6E04D0D890363637363A2A37AEA8
:101B2800FAD7D890383639363650345C375035586D
:101B3800D8A005D03650345E3750355A3880D89002
:101B4800373236323A2EEDD738C034F039C035F056
:101B58001200000E066E000E056E03500410D8B475
:101B68001CD0010E076E04D0D89003360436072A1D
:101B780004AEFAD7D890053606360350015C0450F7
:101B88000258D8A005D00350015E0450025A0580BF
:101B9800D89004320332072EEDD705C001F006C0F5
:101BA80002F01200356E3550F00B346E8C500F0B6E
:101BB8008C6E34508C108C6E8C96190EE82EFED7D5
:101BC8008C86190EE82EFED73538F00B356E355059
:101BD800F00B346E8C500F0B8C6E34508C108C6E56
:101BE8008C96190EE82EFED78C86190EE82EFED795
:101BF8001200026E0250F00B016E8C500F0B8C6EAF
:101C080001508C108C6E8C96190EE82EFED78C869F
:101C1800190EE82EFED70238F00B026E0250F00BB8
:101C2800016E8C500F0B8C6E01508C108C6E8C9644
:101C3800190EE82EFED78C86190EE82EFED7120054
:101C4800310E376EB20EE82EFED7372EFCD700D0F5
:101C5800330E22EC0FF0320E22EC0FF0280E22EC9D
:101C68000FF00F0E22EC0FF0060E22EC0FF0010E13
:101C780022EC0FF0310E376EB20EE82EFED7372E5B
:101C8800FCD700D012003D503E10D8B418D0010E39
:101C98003F6E04D0D8903D363E363F2A3EAEFAD746
:101CA8003D503B5C3E503C58D8A004D03D503B5E74
:101CB8003E503C5AD8903E323D323F2EF1D73BC081
:101CC8003BF03CC03CF012000A500B10D8B418D0BE
:101CD800010E0C6E04D0D8900A360B360C2A0BAEC7
:101CE800FAD70A50085C0B500958D8A004D00A50FB
:101CF800085E0B50095AD8900B320A320C2EF1D7D5
:101D080008C008F009C009F01200820EF66E1E0E17
:101D1800F76E000EF86E0900F5CFC7F000EEA7F0D9
:101D2800200EEE6AE806FDE100EE41F00A0EEE6ACA
:101D3800E806FDE14B904B92000EF86E000109EFAA
:101D480000F034503602F3CF38F0F4CF39F0345085
:101D58003702F350392635503602F350392638C049
:101D680034F039C035F01200356E13EC0FF0C5862B
:101D780013EC0FF0C9CF36F013EC0FF03550D8A4A0
:101D880002D0C58A01D0C59AC588365012000150C4
:101D98000302F3CF05F0F4CF06F001500402F3502C
:101DA800062602500302F350062605C001F006C0BD
:101DB80002F01200366E000E356E3A0E366005D00F
:101DC8002F0E366402D0010E356E35C034F0343033
:101DD8001200036E000E026E3A0E036005D02F0E3D
:101DE800036402D0010E026E02C001F0013012003D
:101DF80034C041F035C042F041504210D8B412000E
:101E08000001C705D8A41200F7D7346E3444E84659
:101E1800FC0BC26EC280C282C2A21200FDD7C7B438
:101E2800FED7C5CF34F01F0E3416D8B41200F7D73A
:101E3800366E8C843650D6EC0DF01200366E8C94CB
:101E48003650D6EC0DF01200036E8C840350FDEC76
:101E58000DF01200036E8C940350FDEC0DF012008F
:101E680013EC0FF035C0C9FF120013EC0FF0C58456
:0B1E7800120013EC0FF0C580120002F6
:10FE4600003132334134353642373839432A30238C
:10FE5600440001000A006400E803102701001000B6
:10FE660000010010253032643A253032642020200B
:10FE76002020202020202020202020200044415423
:10FE8600453A20253032782F253032782F253032EA
:10FE96007820200054494D453A20253032783A25BD
:10FEA6003032783A2530327820200052554E4E496D
:10FEB6004E473A20253032643A25303264202020DD
:10FEC600004241545445524945533A202530326444
:10FED6002020202020004241545445524945533A9F
:10FEE600202530326420202000303132333435363C
:10FEF600373839616263646566002020202020203F
:10FF0600202020202020202020200023204F4620B3
:10FF160043202020202020202020200023204F4680
:10FF26002041412020202020202020200023204F77
:10FF3600462039562020202020202020200025344D
:10FF460064202532642020202020202020200054F8
:10FF56004F54414C2023204F4620202020202000B3
:10FF6600544F20434F4E54494E55452020202020C3
:10FF76000023204F4620445241494E45442020202C
:10FF86002000444F4E4521205052455353202A20ED
:10FF960020200052554E4E494E473A2030303A30D6
:10FFA60030202000454D455247454E435920535475
:10FFB6004F50202000544F54414C2052554E20544F
:10FFC600494D453A2000203C205649455720204CB3
:10FFD6004F4753203E200053544152543A2020208C
:10FFE6005052455353202A003C202056494557205D
:0AFFF600204C4F475320203E00002E
:020000040020DA
:08000000FFFFFFFFFFFFFFFF00
:020000040030CA
:0E000000FF021F1EFF8381FF0FC00FE00F40A5
:00000001FF
