:0400000053EF00F0CA
:06000800578253ED04F0E5
:100018005780D8CF18F0E8CF19F0E0CF1AF0FACF10
:100028001BF0FBCF1CF0E9CF1DF0EACF1EF0E1CFAB
:100038001FF0E2CF20F0D9CF21F0DACF22F0F3CFB2
:1000480023F0F4CF24F0F6CF25F0F7CF26F0F8CF41
:1000580027F0F5CF28F028C0F5FF27C0F8FF26C005
:10006800F7FF25C0F6FF24C0F4FF23C0F3FF22C02A
:10007800DAFF21C0D9FF20C0E2FF1FC0E1FF1EC088
:10008800EAFF1DC0E9FF1CC0FBFF1BC0FAFF1AC036
:10009800E0FF19C0E8FF18C0D8FF57901000F5EF2F
:1000A80006F0C30E926EF20E936E000E946E000E62
:1000B800956E000E966E000E896E000E8A6E000E0A
:1000C8008B6E000E8C6E000E8D6E000EC26E0E0EC4
:1000D800C16EC08EF28EF28CF086F090F28AF294A5
:1000E8009D809E90070ED56ED90ED76EDA0ED66E0D
:1000F800800ECD6EBB0ECF6EA30ECE6E96EC06F0C4
:10010800100E0001806F270E816F000E826F000EA7
:10011800836F18EC06F0F28E56D0F29E800E52ECE9
:1001280007F0DD0E0001806FFF0E0001816F8BEC80
:1001380002F0C00E52EC07F0EE0E0001806FFF0EC9
:100148000001816F8BEC02F0F28E000E0001956FBA
:10015800310E0001956501D010D0020E5618D8A4B2
:100168000CD0210E0001926F760EE82EFED7922F4A
:10017800FCD700F00001952BEBD7800E52EC07F06E
:10018800C00E52EC07F0BB0E0001806FFF0E00019D
:10019800816F8BEC02F0000E0001956F310E0001AB
:1001A800956501D010D0020E5618D8A40CD0210E97
:1001B8000001926F760EE82EFED7922FFCD700F042
:1001C8000001952BEBD7020E5618D8A422D0A5D73C
:1001D800800E52EC07F0440E0001806FFF0E000104
:1001E800816F8BEC02F0C00E52EC07F0CC0E0001D0
:1001F800806FFF0E0001816F8BEC02F05550D8B470
:1002080008D089848996010E536ECD805550D8A4A4
:10021800FDD75604D8A417D0DBD7800E52EC07F0D0
:10022800880E0001806FFF0E0001816F8BEC02F0D9
:10023800C00E52EC07F0660E0001806FFF0E000141
:10024800816F8BEC02F05650D8A421D0E6D7F29EED
:10025800800E52EC07F0AA0E0001806FFF0E00011D
:10026800816F8BEC02F0C00E52EC07F0800E00019B
:10027800806FFE0E0001816F47C082F00001836B22
:1002880051C084F00001856B8BEC02F0F28E030EF6
:100298005618D8A41DD0DBD7F29E800E52EC07F07A
:1002A800550E0001806FFF0E0001816F8BEC02F08C
:1002B800C00E52EC07F0DC0E0001806FFE0E00014C
:1002C800816F4AC082F00001836B8BEC02F0F28EE2
:1002D800040E5618D8A41DD0DFD7F29E800E52EC1B
:1002E80007F0110E0001806FFF0E0001816F8BEC8B
:1002F80002F0C00E52EC07F0DC0E0001806FFE0E1B
:100308000001816F4BC082F00001836B8BEC02F01F
:10031800F28E050E5618D8A41DD0DFD7F29E800E97
:1003280052EC07F0330E0001806FFF0E0001816F61
:100338008BEC02F0C00E52EC07F0C70E0001806F84
:10034800FE0E0001816F48C082F00001836B8BECC8
:1003580002F0F28E060E5618D8A41DD0DFD7F29EF2
:10036800800E52EC07F0220E0001806FFF0E000194
:10037800816F8BEC02F0C00E52EC07F0C70E000143
:10038800806FFE0E0001816F49C082F00001836B0F
:100398008BEC02F0F28E070E5618D8A41DD0DFD7CA
:1003A800F29E800E52EC07F0770E0001806FFF0E70
:1003B8000001816F8BEC02F0C00E52EC07F0C70E03
:1003C8000001806FFE0E0001816F4CC082F00001B9
:1003D800836B8BEC02F0F28E080E5618D8A465D009
:1003E800DFD761EC07F0000E2B6ED00E2A6E58ECAA
:1003F80007F0000E2B6E000E2A6E58EC07F05DEC2D
:1004080007F061EC07F0000E2B6ED10E2A6E58EC47
:1004180007F0000E0001946F050E0001946501D0ED
:1004280010D000019451010D390EF324D96E000E3D
:10043800F420DA6E010E21EC07F0DF6E0001942B38
:10044800EBD7000E21EC07F03F6E5DEC07F0800E55
:1004580052EC07F0990E0001806FFE0E0001816FCB
:100468003FC082F00001836B3EC084F00001856BC1
:100478003DC086F00001876B8BEC02F0C00E52EC99
:1004880007F0B00E0001806FFE0E0001816F3BC0C7
:1004980082F00001836B3AC084F00001856B39C09B
:1004A80086F00001876B8BEC02F0090E5618D8A471
:1004B80029D097D7F29E800E52EC07F0990E0001D2
:1004C800806FFF0E0001816F8BEC02F0C00E52ECC2
:1004D80007F0000E0001806FFF0E0001816F8BECAA
:1004E80002F01A0E0001936F5E0E0001926F6E0EFD
:1004F800E82EFED7922FFCD7932FFAD700F0020EE2
:10050800566EF28E0A0E5618D8A45DD6D3D7820E30
:100518000001896F000E00018A6FB2D1250E00011B
:100528009119D8B405D0000191514CEC07F0A8D12D
:10053800000E0001906F000E8F6F000E00018E6F8D
:1005480005D000018E850001804B812B80C0F6FF0D
:1005580081C0F7FF0800F550300AD8B4F2D780C040
:10056800F6FF81C0F7FF0800F55034EC07F0D8A07B
:100578003AD0000E0001906F000E8F6F8FC029F0E7
:1005880090C02AF0000E2C6E0A0E2B6E0EEC07F0AF
:1005980029C08FF02AC090F0D00E356EFF0E366E4F
:1005A80080C0F6FF81C0F7FF0800F550376E386A43
:1005B8003550372636503822375000018F273850AB
:1005C800000190230001804B812B80C0F6FF81C081
:1005D800F7FF0800F55034EC07F0D8A004D0CED7C8
:1005E80000018E8F19D080C0F6FF81C0F7FF00018F
:1005F800804B812B0800F5CF91F000019151000A42
:10060800D8B41200640AD8B407D00D0AD8B404D0FC
:10061800110AD8B4E5D734D100018EBF19D089C0EA
:10062800D9FF8AC0DAFFDECF8CF0DDCF8DF0020E65
:1006380000018927000E8A2300018DAF53D0030ED5
:1006480000018E1300018C6D8D1FD8B08D2B4AD000
:1006580089C0D9FF8AC0DAFFDECF8CF0DDCF8DF0FC
:10066800020E00018927000E8A233CD0010E0001EA
:10067800916F050E00019119D8B43DD00001915138
:10068800020D6E0EF324F66EFE0EF420F76E0900CE
:10069800F55000018C5D0900F55000018D59D8A076
:1006A8002AD00001912BE5D7010E0001916F040EAD
:1006B80000019119D8B41FD000019151020D780E94
:1006C800F324F66EFE0EF420F76E0900F5500001D3
:1006D8008C5D0900F55000018D59D8A00CD000019F
:1006E800912BE5D700018E51800B000AD8B4BED7F4
:1006F800800AD8B4D9D700018F5100019011D8B41D
:100708000AD08EC035F0030E3516D8B404D00001D7
:100718008F07D8A09007800E000191BF7F0E356E1D
:1007280000018F510001915D00019051800A3558F8
:10073800D8B00BD00001915100018F5F000E00016D
:1007480091BFFF0E0001905B05D0000E0001906F75
:10075800000E8F6F00018EA517D08EC035F0030EE6
:100768003516D8B403D02D0E4CEC07F000018F518C
:1007780000019011D8B424D0300E4CEC07F00001E1
:100788008F07D8A09007F2D700018F510001901170
:10079800D8B40DD0200E4CEC07F000018F07D8A07C
:1007A800900700018F5100019011D8A4F3D78EC093
:1007B80035F0030E3516D8B403D02D0E4CEC07F0E7
:1007C80091C08BF057D000018B51020D6E0EF324AF
:1007D800F66EFE0EF420F76E0900F5CF2BF00A0036
:1007E800F5CF2CF08CC029F08DC02AF046EC06F02D
:1007F80029C030F02AC031F0000E336E0A0E326E76
:10080800B9EC06F03050300F0001916F2FD08CC03A
:1008180029F08DC02AF000018B51020D780EF324C7
:10082800F66EFE0EF420F76E0900F5CF2BF00A00E5
:10083800F5CF2CF046EC06F029500F0B0001886F1D
:1008480000018851010DEF0EF324F66EFE0EF42020
:10085800F76E0800F5CF91F009D000018E51800B9A
:10086800000AD8B4B0D7800AD8B4D1D700019151C2
:100878004CEC07F000018B0700018B29D8A4EDD7B9
:1008880080C0F6FF81C0F7FF0001804B812B080074
:10089800F5CF91F000019151D8B412003FD606006F
:1008A800FACF09F0FBCF0AF0E9CF0BF0EACF0CF052
:1008B800E1CF0DF0E2CF0EF0D9CF0FF0DACF10F084
:1008C800F3CF11F0F4CF12F0F6CF13F0F7CF14F006
:1008D800F8CF15F0F5CF16F0F0A049D081380F0BFE
:1008E8000F0B176E1750010D5D0EF324F66EFE0EFA
:1008F800F420F76E0800F5502A0AD8A40FD0020E8B
:100908005618D8A405D0010E566ED58ECD902ED08F
:100918005650D8A42BD0020E566E28D05604D8A410
:1009280012D01750010D5D0EF324F66EFE0EF42062
:10093800F76E0800F550230AD8A418D00A0E566E90
:10094800E3EC05F013D05650D8B410D0360E016E33
:100958001750010D5D0EF324F66EFE0EF420F76EAF
:100968000800F5CF02F0340EDAEC06F0F0905604E9
:10097800D8B4F2A418D0F294D90ED76EDA0ED66E87
:100988004D2AB30E4D6404D0000E566EE3EC05F00C
:100998008BA002D08B9007D0522A030E526403D04A
:1009A800000E526E8B805604D8B49EA02FD09E9015
:1009B800BB0ECF6EA30ECE6E5550D8B427D05304BD
:1009C800D8A402D0898A8998020E5318D8A402D0D4
:1009D80089948986030E5318D8A402D0899A8988E5
:1009E800040E5318D8A402D089848996552AC70EB4
:1009F800556405D0000E556ECD90000E04D0030E40
:100A0800536403D0010E536E01D0532A16C0F5FF6C
:100A180015C0F8FF14C0F7FF13C0F6FF12C0F4FFAB
:100A280011C0F3FF10C0DAFF0FC0D9FF0EC0E2FFFC
:100A38000DC0E1FF0CC0EAFF0BC0E9FF0AC0FBFFD5
:100A480009C0FAFF57921100000E066E04AE06D0D8
:100A5800036C041ED8B0042A010E066E02AE06D03E
:100A6800016C021ED8B0022A010E061A000E086E8A
:100A7800000E076E03500410D8B41CD0010E056E8A
:100A880004D0D89003360436052A04AEFAD7D89095
:100A9800073608360350015C04500258D8A005D028
:100AA8000350015E0450025A0780D8900432033282
:100AB800052EEDD70650D8B404D0076C081ED8B060
:100AC800082A07C001F008C002F01200000E316EBB
:100AD800000E326E000E336E000E346E2D502E1046
:100AE8002F103010D8B42AD0010E356E06D0D89009
:100AF8002D362E362F363036352A30AEF8D7D890E8
:100B080031363236333634362D50295C2E502A5839
:100B18002F502B5830502C58D8A009D02D50295E72
:100B28002E502A5A2F502B5A30502C5A3180D89098
:100B380030322F322E322D32352EE1D731C029F006
:100B480032C02AF033C02BF034C02CF01200000E53
:100B5800066E02AE06D0016C021ED8B0022A010E43
:100B6800066E04AE04D0036C041ED8B0042A0350E9
:100B78000410D8B418D0010E056E04D0D8900336EE
:100B88000436052A04AEFAD70350015C0450025813
:100B9800D8A004D00350015E0450025AD890043201
:100BA8000332052EF1D70650D8B404D0016C021ECA
:100BB800D8B0022A01C001F002C002F01200D59E8E
:100BC800CD90D90ED76EDA0ED66EBB0ECF6EA30EB1
:100BD800CE6E4DC001F0026A000E046E3C0E036E2C
:100BE80028EC05F00150476E4DC001F0026A000E76
:100BF800046E3C0E036EABEC05F00150516E000E16
:100C08004D6E000E526E000E416E000E406E8994BD
:100C180089968998899A8A908A948A96899C8B92CF
:100C2800899E8B948B901200000EC76E280EC66E9C
:100C3800000EC56E800E296E960E2A6E980E2B6ECB
:100C4800000E2C6E80C084F081C085F082C086F0D2
:100C580083C087F0020ED890000184378537863725
:100C68008737E82EF8D784C02DF085C02EF086C0CF
:100C78002FF087C030F06AEC05F02904C86E94861E
:100C880094881200000E2F6E000E2E6E2B502C1022
:100C9800D8B41CD0010E2D6E04D0D8902B362C362B
:100CA8002D2A2CAEFAD7D8902E362F362B50295C09
:100CB8002C502A58D8A005D02B50295E2C502A5ADF
:100CC8002E80D8902C322B322D2EEDD72EC029F025
:100CD8002FC02AF012002A6E2A50F00B296E8C5071
:100CE8000F0B8C6E29508C108C6E8C96190EE82E7A
:100CF800FED78C86190EE82EFED72A38F00B2A6EFE
:100D08002A50F00B296E8C500F0B8C6E29508C10CA
:100D18008C6E8C96190EE82EFED78C86190EE82E4E
:100D2800FED71200310E2C6EB20EE82EFED72C2EF6
:100D3800FCD700D0330E52EC07F0320E52EC07F01D
:100D4800280E52EC07F00F0E52EC07F0060E52EC8C
:100D580007F0010E52EC07F0310E2C6EB20EE82EA1
:100D6800FED72C2EFCD700D0120032503310D8B446
:100D780018D0010E346E04D0D89032363336342A67
:100D880033AEFAD73250305C33503158D8A004D043
:100D98003250305E3350315AD89033323232342E9A
:100DA800F1D730C030F031C031F01200036E01507D
:100DB8000218D8A409D0020E5618D8A403D0090ED8
:100DC800566E12005606120003500218D8A41200DC
:100DD800090E5618D8A403D0020E566E1200562AD1
:100DE8001200CA0EF66E0E0EF76E000EF86E0900AF
:100DF800F5CF55F00900F5CF56F000EE39F01C0E8E
:100E0800EE6AE806FDE157905792000EF86E000171
:100E180055EF00F029502B02F3CF2DF0F4CF2EF030
:100E280029502C02F3502E262A502B02F3502E263E
:100E38002DC029F02EC02AF012002A6E43EC07F0CC
:100E4800C58643EC07F0C9CF2BF043EC07F02A50D6
:100E5800D8A402D0C58A01D0C59AC5882B501200E3
:100E68002B6E000E2A6E3A0E2B6005D02F0E2B64C7
:100E780002D0010E2A6E2AC029F029301200C7B408
:100E8800FED7C5CF29F01F0E2916D8B41200F7D700
:100E98002B6E8C842B506FEC06F012002B6E8C940A
:100EA8002B506FEC06F0120043EC07F02AC0C9FF84
:100EB800120043EC07F0C584120043EC07F0C5802C
:040EC8001200010211
:10FE5C00003132334134353642373839432A302376
:10FE6C00440001000A006400E803102701001000A0
:10FE7C0000010010253032643A25303264202020F5
:10FE8C00202020202020202020202020004441540D
:10FE9C00453A20253032782F253032782F253032D4
:10FEAC007820200054494D453A20253032783A25A7
:10FEBC003032783A25303278202000424154544573
:10FECC00524945533A20253032642020202020000E
:10FEDC004241545445524945533A2025303264200E
:10FEEC002020003031323334353637383961626393
:10FEFC006465660020202020202020202020202047
:10FF0C00202020200023204F46204320202020208A
:10FF1C0020202020200023204F462041412020205B
:10FF2C002020202020200023204F4620395620203E
:10FF3C00202020202020200052554E4E494E472E86
:10FF4C002E2E20202020202000544F54414C2023C2
:10FF5C00204F4620202020202000544F20434F4E7D
:10FF6C0054494E554520202020200023204F462068
:10FF7C00445241494E45442020202000444F4E45D8
:10FF8C0021205052455353202A20202000454D4516
:10FF9C005247454E43592053544F50202000544F44
:10FFAC0054414C2052554E2054494D453A20002086
:10FFBC003C3420202044415441202020363E200057
:10FFCC005052455353202320544F2053544F50200C
:10FFDC000053544152543A20202050524553532040
:10FFEC002A003C203420202044415441202020363B
:04FFFC00203E0000A3
:020000040020DA
:08000000FFFFFFFFFFFFFFFF00
:020000040030CA
:0E000000FF021F1EFF8381FF0FC00FE00F40A5
:00000001FF
