:0400000007EF00F016
:10000800478206ED03F091EF04F0210E2C6E000EEE
:100018002D6E74D1250E3418D8B404D03450E5ECC4
:1000280004F06CD1000E336E000E326E000E316E8D
:1000380003D031841F4A202A1FC0F6FF20C0F7FFD3
:100048000800F550300AD8B4F4D71FC0F6FF20C016
:10005800F7FF0800F550CDEC04F0D8A035D0000E1D
:10006800336E000E326E32C013F033C014F0000E3F
:10007800166E0A0E156EA7EC04F013C032F014C009
:1000880033F0D00E276EFF0E286E1FC0F6FF20C07B
:10009800F7FF0800F550296E2A6A275029262850AC
:1000A8002A22295032262A5033221F4A202A1FC0CA
:1000B800F6FF20C0F7FF0800F550CDEC04F0D8A0FB
:1000C80003D0D1D7318E17D01FC0F6FF20C0F7FF5D
:1000D8001F4A202A0800F5CF34F03450000AD8B45B
:1000E8001200640AD8B407D00D0AD8B404D0110A93
:1000F800D8B4E8D703D131BE15D02CC0D9FF2DC054
:10010800DAFFDECF2FF0DDCF30F0020E2C26000E06
:100118002D2230AE44D0030E31122F6C301ED8B0D1
:10012800302A3DD02CC0D9FF2DC0DAFFDECF2FF00A
:10013800DDCF30F0020E2C26000E2D2230D0010E1D
:10014800346E050E3418D8B432D03450020D9A0EDD
:10015800F324F66EFE0EF420F76E0900F5502F5CBE
:100168000900F5503058D8A022D0342AEAD7010E19
:10017800346E040E3418D8B41AD03450020DA40EBC
:10018800F324F66EFE0EF420F76E0900F5502F5C8E
:100198000900F5503058D8A00AD0342AEAD731508F
:1001A800800B000AD8B4CBD7800AD8B4E0D7325035
:1001B8003310D8B409D031C027F0030E2716D8B4AD
:1001C80003D03206D8A03306800E34BE7F0E276EC9
:1001D8003250345C3350800A2758D8B007D0345096
:1001E800325E000E34BEFF0E335A04D0000E336E5A
:1001F800000E326E31A414D031C027F0030E27163A
:10020800D8B403D02D0EE5EC04F032503310D8B436
:100218001ED0300EE5EC04F03206D8A03306F5D730
:1002280032503310D8B40AD0200EE5EC04F0320670
:10023800D8A0330632503310D8A4F6D731C027F0EF
:10024800030E2716D8B403D02D0EE5EC04F034C005
:100258002EF050D02E50020D9A0EF324F66EFE0E9C
:10026800F420F76E0900F5CF15F00A00F5CF16F067
:100278002FC013F030C014F0E2EC03F013C01AF0F2
:1002880014C01BF0000E1D6E0A0E1C6E55EC04F017
:100298001A50300F346E2BD02FC013F030C014F02A
:1002A8002E50020DA40EF324F66EFE0EF420F76E07
:1002B8000900F5CF15F00A00F5CF16F0E2EC03F0CF
:1002C80013500F0B2B6E2B50010D430EF324F66EBB
:1002D800FF0EF420F76E0800F5CF34F008D0315047
:1002E800800B000AD8B4B6D7800AD8B4D5D7345012
:1002F800E5EC04F02E062E28D8A4F1D71FC0F6FF8F
:1003080020C0F7FF1F4A202A0800F5CF34F03450E8
:10031800D8B412007FD6000E946E000E956E9368C6
:10032800000E8A6E000E8B6E000EC26EC168F086DB
:1003380032EC04F0100E206E270E216E000E226E95
:10034800000E236EB5EC03F013D0F29E800EEBEC9A
:1003580004F0DC0E1F6EFF0E206E09EC00F0C00EDC
:10036800EBEC04F0ED0E1F6EFF0E206E09EC00F0B2
:10037800F28E020E4618D8A435D0E7D7F29E800E2A
:10038800EBEC04F0540E1F6EFF0E206E09EC00F02B
:10039800000E3D6E090E3D6401D021D0800EEBECBD
:1003A80004F0C00EEBEC04F01D0E1F6EFF0E206E65
:1003B8003DC021F0226A09EC00F0000E3C6E630E8D
:1003C8003C6401D00AD0210E356E760EE82EFED799
:1003D800352EFCD700D03C2AF2D73D2ADBD7F28E47
:1003E800000E466E4604D8A415D0C8D7F29E800EDB
:1003F800EBEC04F0A90E1F6EFF0E206E09EC00F066
:10040800C00EEBEC04F0760E1F6EFF0E206E09ECAA
:1004180000F0F28E4650D8A41FD0E8D7F29E010E05
:10042800366E010E376E800EEBEC04F0BA0E1F6EBE
:10043800FF0E206E09EC00F0C00EEBEC04F0AC0EE1
:100448001F6EFE0E206E36C021F0226A37C023F0E0
:10045800246A09EC00F0F28E030E4618D8A418D0CE
:10046800DDD7060E386E800EEBEC04F0CB0E1F6E57
:10047800FF0E206E09EC00F0C00EEBEC04F0300E1D
:100488001F6EFF0E206E38C021F0226A09EC00F0C2
:10049800040E4618D8A41AD0E4D7F29E030E396E7B
:1004A800800EEBEC04F0650E1F6EFF0E206E09EC5B
:1004B80000F0C00EEBEC04F0300E1F6EFF0E206E45
:1004C80039C021F0226A09EC00F0F28E050E4618B8
:1004D800D8A41AD0E2D7F29E0A0E3A6E800EEBEC40
:1004E80004F0980E1F6EFF0E206E09EC00F0C00E8F
:1004F800EBEC04F0F30E1F6EFE0E206E3AC021F0F6
:10050800226A09EC00F0F28E060E4618D8A41AD01A
:10051800E2D7F29E020E3B6E800EEBEC04F0870EE3
:100528001F6EFF0E206E09EC00F0C00EEBEC04F01D
:10053800080E1F6EFF0E206E3BC021F0226A09ECE8
:1005480000F0F28E070E4618D8A457D0E2D7FAEC7E
:1005580004F0000E156ED00E146EF1EC04F0000ECF
:10056800156E000E146EF1EC04F0F6EC04F0FAECE3
:1005780004F0000E156ED10E146EF1EC04F0000EAE
:100588003E6E050E3E6401D00ED03E50010D3F0E6A
:10059800F324D96E000EF420DA6E010EBAEC04F0E2
:1005A800DF6E3E2AEED7000EBAEC04F0456EF6EC8C
:1005B80004F0800EEBEC04F0C50E1F6EFE0E206EEC
:1005C80045C021F0226A44C023F0246A43C025F0C4
:1005D800266A09EC00F0C00EEBEC04F0DC0E1F6E8E
:1005E800FE0E206E41C021F0226A40C023F0246A2A
:1005F8003FC025F0266A09EC00F0080E4618D8A47A
:10060800B8D6A5D70600FACF04F0FBCF05F0E9CF9E
:1006180006F0EACF07F0E1CF08F0E2CF09F0D9CF32
:100628000AF0DACF0BF0F3CF0CF0F4CF0DF0F6CFE1
:100638000EF0F7CF0FF0F8CF10F0F5CF11F0F0A0D3
:1006480031D081380F0B0F0B126E1250010D890E2D
:10065800F324F66EFE0EF420F76E0800F5502A0A11
:10066800D8A40CD0020E4618D8A402D0010E04D08B
:100678004650D8A416D0020E466E13D04650D8B4B1
:1006880010D0360E016E1250010D890EF324F66E4D
:10069800FE0EF420F76E0800F5CF02F0340E76EC6B
:1006A80004F0F09011C0F5FF10C0F8FF0FC0F7FF7D
:1006B8000EC0F6FF0DC0F4FF0CC0F3FF0BC0DAFF4D
:1006C8000AC0D9FF09C0E2FF08C0E1FF07C0EAFF7E
:1006D80006C0E9FF05C0FBFF04C0FAFF47921100FE
:1006E800000E1B6E000E1C6E000E1D6E000E1E6EA0
:1006F8001750181019101A10D8B42AD0010E1F6EEE
:1007080006D0D8901736183619361A361F2A1AAE58
:10071800F8D7D8901B361C361D361E361750135C7A
:1007280018501458195015581A501658D8A009D0EE
:100738001750135E1850145A1950155A1A50165A51
:100748001B80D8901A321932183217321F2EE1D76F
:100758001BC013F01CC014F01DC015F01EC016F00D
:100768001200000EC76E280EC66E000EC56E800EF3
:10077800136E960E146E980E156E000E166E20C02F
:1007880024F021C025F022C026F023C027F0020E55
:10079800D8902436253626362736E82EF9D724C0B1
:1007A80017F025C018F026C019F027C01AF074EC0D
:1007B80003F01304C86E948694881200000E186E15
:1007C800000E176E15501610D8B41CD0010E196EF5
:1007D80004D0D89015361636192A16AEFAD7D890FE
:1007E800173618361550135C16501458D8A005D073
:1007F8001550135E1650145A1780D89016321532B9
:10080800192EEDD717C013F018C014F01200146E8B
:100818001450F00B136E8C500F0B8C6E13508C1001
:100828008C6E8C96190EE82EFED78C86190EE82E43
:10083800FED71438F00B146E1450F00B136E8C5056
:100848000F0B8C6E13508C108C6E8C96190EE82E34
:10085800FED78C86190EE82EFED71200310E166EC2
:10086800B20EE82EFED7162EFCD700D0330EEBECD6
:1008780004F0320EEBEC04F0280EEBEC04F00F0E53
:10088800EBEC04F0060EEBEC04F0010EEBEC04F0DC
:10089800310E166EB20EE82EFED7162EFCD700D0FB
:1008A80012001C501D10D8B418D0010E1E6E04D0B2
:1008B800D8901C361D361E2A1DAEFAD71C501A5C5D
:1008C8001D501B58D8A004D01C501A5E1D501B5A2E
:1008D800D8901D321C321E2EF1D71AC01AF01BC038
:1008E8001BF01200036E01500218D8A409D0020EA2
:1008F8004618D8A403D0080E466E12004606120009
:1009080003500218D8A41200080E4618D8A403D021
:10091800020E466E1200462A1200FC0EF66E090EF2
:10092800F76E000EF86E0900F5CF46F000EE3FF0C6
:10093800070EEE6AE806FDE147904792000EF86E52
:1009480000018FEF01F013501502F3CF17F0F4CF29
:1009580018F013501602F350182614501502F350CD
:10096800182617C013F018C014F01200146EDCEC2F
:1009780004F0C586DCEC04F0C9CF15F0DCEC04F01B
:100988001450D8A402D0C58A01D0C59AC58815507C
:100998001200156E000E146E3A0E156005D02F0E5B
:1009A800156402D0010E146E14C013F01330120037
:1009B800C7B4FED7C5CF13F01F0E1316D8B4120054
:1009C800F7D7156E8C8415500BEC04F01200156ED9
:1009D8008C9415500BEC04F01200DCEC04F014C0FD
:1009E800C9FF1200DCEC04F0C5841200DCEC04F052
:0509F800C580120002A1
:10FE8800003132334134353642373839432A30234A
:10FE9800440001000A006400E80310270100100074
:10FEA80000010010253032783A25303278202020A1
:10FEB80020202020202020202020202000444154E1
:10FEC800453A20253032782F253032782F253032A8
:10FED8007820200054494D453A20253032783A257B
:10FEE8003032783A25303278202000424154544547
:10FEF800524945533A2025303264202020202000E2
:10FF08004241545445524945533A202530327820CD
:10FF1800202020200025303264202020202020208E
:10FF28002020202020202000424154544552494599
:10FF3800533A2025303264202020003031323334C7
:10FF480035363738396162636465660052554E4EFE
:10FF5800494E472E2E2E202020202020004E554D81
:10FF6800424552204F462043202020202000544F55
:10FF780020434F4E54494E55452020202020004E06
:10FF8800554D424552204F46204141202020200017
:10FF98004E554D424552204F4620395620202020AC
:10FFA80000444F4E4521205052455353202A2020CB
:10FFB8002000544F54414C2052554E2054494D4531
:10FFC8003A2000544F54414C204E554D4245522042
:10FFD8004F46200053544152543A20202050524555
:10FFE8005353202A004F5054494F4E533A2020343F
:07FFF800204F5220360000EB
:020000040020DA
:08000000FFFFFFFFFFFFFFFF00
:020000040030CA
:0E000000FF021F1EFF8381FF0FC00FE00F40A5
:00000001FF
