:0400000007EF00F016
:100008004C82F8ED03F040EF0DF0030E926EF20E05
:10001800936E000E946E000E956E000E966E000E96
:10002800896E000E8A6E000E8B6E000E8C6E000EAE
:100038008D6E000EC26E0E0EC16EB10EC06EF28EC7
:10004800F28CF086F090F28AF2949D809E90070ED2
:10005800D56ED90ED76EDA0ED66E800ECD6EE20E44
:10006800CF6EB30ECE6E65EC0DF0100E0001A16FD1
:10007800270EA26F000EA36F000EA46F72EC0CF097
:10008800F28E56D0800E3AEC0EF0DD0E0001A16F14
:10009800FF0E0001A26FEBEC05F0C00E3AEC0EF07B
:1000A800EE0E0001A16FFF0E0001A26FEBEC05F050
:1000B800000E0001B96F310E0001B96501D011D0F1
:1000C800020E0001BE19D8A40CD0210E0001B36F96
:1000D800760EE82EFED7B32FFCD700F00001B92B1F
:1000E800EAD7800E3AEC0EF0C00E3AEC0EF0CC0EC9
:1000F8000001A16FFF0E0001A26FEBEC05F0000EEE
:100108000001BA6F310E0001BA6501D011D0020E9C
:100118000001BE19D8A40CD0210E0001B36F760ED1
:10012800E82EFED7B32FFCD700F00001BA2BEAD790
:10013800020E0001BE19D8A4DBD1A4D7000E21EC11
:100148000EF0800E3AEC0EF0C00E3AEC0EF0440EB3
:100158000001A16FFF0E0001A26FC3CFA3F0C4CFAF
:10016800A4F00001905192C0B3F00001B46B0001FB
:10017800B327000EB42300018F510001B327000EEE
:10018800B423000191510001B3250001A56F0001BE
:10019800000E0001B4210001A66FEBEC05F0000190
:1001A8009A51D8B497D0330E0001B46FBB0E00013A
:1001B800B36FDF0EE82EFED7B32FFCD7B42FFAD7D4
:1001C80000D0000E00019A6F8B92000E0001B86FEC
:1001D800000EB76FA40E0001B75D010E0001B859FB
:1001E800D8B022D00001BE05D8A41ED08BB404D04C
:1001F8000001B36BB32B02D00001B36B0001B3470E
:10020800B3478B500001B319FB0BB3198B6E0A0E61
:100218000001B36FBC0EE82EFED7B32FFCD700F059
:100228000001B74BB82BD6D78B82000E0001BB6FED
:10023800270E0001BB6501D021D00001BE05D8A45E
:100248001DD08BB404D00001B36BB32B02D00001D6
:10025800B36B0001B347B3478B500001B319FB0BD5
:10026800B3198B6E0A0E0001B36FBC0EE82EFED7D1
:10027800B32FFCD700F00001BB2BDAD78B92000E0E
:100288000001BC6F130E0001BC6501D021D0000134
:10029800BE05D8A41DD08BB404D00001B36BB32B1A
:1002A80002D00001B36B0001B347B3478B50000184
:1002B800B319FB0BB3198B6E0A0E0001B36FBC0E9A
:1002C800E82EFED7B32FFCD700F00001BC2BDAD7FD
:1002D800000E466EC45003E1320EC35CD8B0FAD0AB
:1002E800010E486E898E39EC09F0899E000187510C
:1002F80000018811D8B406D0010E496E010E000124
:100308009D6FCD800001895100018A11D8B406D0B3
:10031800040E496E010E00019C6FCD8000018B51C7
:1003280000018C11D8B406D0010E4A6E010E0001EE
:100338009F6FCD8000018D5100018E11D8B406D079
:10034800040E4A6E010E00019E6FCD808984899645
:100358008A808A9400018B51000187110001B36FD4
:1003680000018C51000188110001B46F000189510E
:100378000001B31300018A510001B41300018D512B
:100388000001B31300018E510001B4130001B351F1
:100398000001B411D8B404D00001BE05D8B4DAD72E
:1003A800020E0001A06F0001A051D8B404D00001D2
:1003B800BE05D8B4F8D7898489968A808A949CC067
:1003C80087F00001886B9DC089F000018A6B9EC090
:1003D8008BF000018C6B9FC08DF000018E6B010EBD
:1003E80000019B6F8B9200018B5100018711000166
:1003F800B36F00018C51000188110001B46F000136
:1004080089510001B31300018A510001B41300019E
:100418008D510001B31300018E510001B413000186
:100428009B51D8B402D0010E01D0000E0001B56F67
:10043800B66B0001B3510001B5130001B4510001BE
:10044800B6130001B5510001B611D8B404D00001AB
:10045800BE05D8B4C8D7CD908B948B92000E0001FE
:100468009D6F000E00019C6F000E00019F6F000E33
:1004780000019E6F899489968998899A8A908A94AE
:100488008B9C899C0001905191C0B3F00001B46B22
:100498000001B327000EB42300018F510001B327D8
:1004A800000EB423000192510001B327000EB423BB
:1004B8000001B4BF0DD00001B45105E10F0E0001D9
:1004C800B35DD8A005D0000E0001BE6FF0EC09F0B6
:1004D800000E486E070E0001B46F580E0001B36F8E
:1004E800590EE82EFED7B32FFCD7B42FFAD700D079
:1004F8000001BE05D8A417D021D6800E3AEC0EF024
:10050800880E0001A16FFF0E0001A26FEBEC05F051
:10051800C00E3AEC0EF0660E0001A16FFF0E00014E
:10052800A26FEBEC05F00001BE51D8A41FD0E5D7AF
:10053800800E3AEC0EF0BB0E0001A16FFF0E000119
:10054800A26FEBEC05F0C00E3AEC0EF06A0E00015B
:10055800A16FFE0E0001A26F93C0A3F00001A46B6F
:1005680099C0A5F00001A66BEBEC05F0030E0001A5
:10057800BE19D8A41BD0DCD7800E3AEC0EF0550E6D
:100588000001A16FFF0E0001A26FEBEC05F0C00E99
:100598003AEC0EF0DC0E0001A16FFE0E0001A26F16
:1005A80096C0A3F00001A46BEBEC05F0040E00016B
:1005B800BE19D8A41BD0E0D7800E3AEC0EF0110E6D
:1005C8000001A16FFF0E0001A26FEBEC05F0C00E59
:1005D8003AEC0EF0DC0E0001A16FFE0E0001A26FD6
:1005E80097C0A3F00001A46BEBEC05F0050E000129
:1005F800BE19D8A41BD0E0D7800E3AEC0EF0330E0B
:100608000001A16FFF0E0001A26FEBEC05F0C00E18
:100618003AEC0EF0C70E0001A16FFE0E0001A26FAA
:1006280094C0A3F00001A46BEBEC05F0060E0001EA
:10063800BE19D8A41BD0E0D7800E3AEC0EF0220EDB
:100648000001A16FFF0E0001A26FEBEC05F0C00ED8
:100658003AEC0EF0C70E0001A16FFE0E0001A26F6A
:1006680095C0A3F00001A46BEBEC05F0070E0001A8
:10067800BE19D8A41BD0E0D7800E3AEC0EF0770E46
:100688000001A16FFF0E0001A26FEBEC05F0C00E98
:100698003AEC0EF0C70E0001A16FFE0E0001A26F2A
:1006A80098C0A3F00001A46BEBEC05F0080E000164
:1006B800BE19D8A466D0E0D755EC0EF0000E366E01
:1006C800D00E356E4CEC0EF0000E366E000E356E08
:1006D8004CEC0EF051EC0EF055EC0EF0000E366EB0
:1006E800D10E356E4CEC0EF0000E0001BD6F050EFC
:1006F8000001BD6501D010D00001BD51010D800E73
:10070800F324D96E000EF420DA6E010EDDEC0DF044
:10071800DF6E0001BD2BEBD7000EDDEC0DF0000104
:10072800866F51EC0EF0800E3AEC0EF0830E00014D
:10073800A16FFE0E0001A26F86C0A3F00001A46B9A
:1007480085C0A5F00001A66B84C0A7F00001A86BC6
:10075800EBEC05F0C00E3AEC0EF09A0E0001A16F1A
:10076800FE0E0001A26F82C0A3F00001A46B81C03D
:10077800A5F00001A66B80C0A7F00001A86BEBEC08
:1007880005F0090E0001BE19D8A428D095D7800E0F
:100798003AEC0EF0AA0E0001A16FFF0E0001A26F45
:1007A800EBEC05F0C00E3AEC0EF0000E0001A16F64
:1007B800FF0E0001A26FEBEC05F01A0E0001B46FFA
:1007C8005E0E0001B36F6E0EE82EFED7B32FFCD776
:1007D800B42FFAD700F0020E0001BE6F0A0E000116
:1007E800BE19D8A4A5D4D3D70600FACF25F0FBCFDD
:1007F80026F0E9CF27F0EACF28F0E1CF29F0E2CFC1
:100808002AF0D9CF2BF0DACF2CF0F3CF2DF0F4CF9C
:100818002EF0F6CF2FF0F7CF30F0F8CF31F0F5CF3C
:1008280032F0F0A015D081380F0B0F0B336E360E57
:10083800216E3350010D470EF324F66EFE0EF420A0
:10084800F76E0800F5CF22F0340EE4EC0AF0F090D1
:100858000001BE05D8B4F2A45ED0F294D90ED76ECA
:10086800DA0ED66E472A47C001F0026A000E046EFF
:100878003C0E036E7FEC0BF001500001936F47C0F4
:1008880001F0026A000E046E3C0E036E3AEC0CF0A6
:1008980001500001996F800E46EC0EF0B10E0D6EFE
:1008A800FE0E0E6E93C00FF0106A99C011F0126A16
:1008B800B3EC07F00001A051D8B402D00001A007A2
:1008C800B30E476405D0000E0001BE6F6AEC0AF053
:1008D8008BA002D08B9007D04B2A010E4B6403D01B
:1008E800000E4B6E8B804850D8A413D0C45004E13E
:1008F800330EC35CD8A002D0462A02D0000E466E42
:10090800090E466408D0000E0001BE6F6AEC0AF0BA
:1009180002D0000E466E0001BE05D8B49EA039D1A3
:100928009E90E20ECF6EB30ECE6E00019B51D8B4EE
:1009380068D000019B05D8A41ED0444A452A8BB430
:1009480003D0246A242A01D0246A244624468B50E2
:100958002418FB0B24188B6EA40E445C010E45581A
:10096800D8A04FD0000E456E000E446E020E000156
:100978009B6F8B8246D0020E00019B19D8A41ED013
:10098800444A452A8BB403D0246A242A01D0246A15
:10099800244624468B502418FB0B24188B6E455094
:1009A80004E1280E445CD8A02CD0000E456E000E41
:1009B800446E030E00019B6F8B9223D0030E00013F
:1009C8009B19D8A41ED0444A452A8BB403D0246A64
:1009D800242A01D0246A244624468B502418FB0B71
:1009E80024188B6E455004E1140E445CD8A009D03D
:1009F800000E456E000E446E000E00019B6F8B8248
:100A08008B940001875100018811D8B42CD0490477
:100A1800D8A402D0898A8998020E4918D8A402D08D
:100A280089948986030E4918D8A402D0899A89889E
:100A3800040E4918D8A402D0898489960001874BEE
:100A4800882B020E0001885DD8A006D0000E000198
:100A5800886F000E876F07D0030E496403D0010E1C
:100A6800496E01D0492A0001895100018A11D8B480
:100A78002CD0040E4918D8A402D0899A8988030E6C
:100A88004918D8A402D089948986020E4918D8A496
:100A980002D0898A89984904D8A402D08984899681
:100AA8000001894B8A2B020E00018A5DD8A006D06E
:100AB800000E00018A6F000E896F07D0020E496090
:100AC80003D0040E496E01D0490600018B51000184
:100AD8008C11D8B42CD04A04D8A402D0898C8B9C11
:100AE800020E4A18D8A402D08A908A84030E4A18A3
:100AF800D8A402D0899C8B8C040E4A18D8A402D0A2
:100B08008A808A9400018B4B8C2B020E00018C5D2D
:100B1800D8A006D0000E00018C6F000E8B6F07D096
:100B2800030E4A6403D0010E4A6E01D04A2A00011E
:100B38008D5100018E11D8B42CD0040E4A18D8A4B7
:100B480002D0899C8B8C030E4A18D8A402D08A90B4
:100B58008A84020E4A18D8A402D0898C8B9C4A0435
:100B6800D8A402D08A808A9400018D4B8E2B020E65
:100B780000018E5DD8A006D0000E00018E6F000E19
:100B88008D6F07D0020E4A6003D0040E4A6E01D062
:100B98004A0632C0F5FF31C0F8FF30C0F7FF2FC05A
:100BA800F6FF2EC0F4FF2DC0F3FF2CC0DAFF2BC0D8
:100BB800D9FF2AC0E2FF29C0E1FF28C0EAFF27C009
:100BC800E9FF26C0FBFF25C0FAFF4C921100A30ED7
:100BD8000001AA6F000E0001AB6FB2D1250E000113
:100BE800B219D8B405D00001B25134EC0EF0A8D136
:100BF800000E0001B16F000EB06F000E0001AF6F64
:100C080005D00001AF850001A14BA22BA1C0F6FFC2
:100C1800A2C0F7FF0800F550300AD8B4F2D7A1C037
:100C2800F6FFA2C0F7FF0800F55003EC0EF0D8A0BD
:100C38003AD0000E0001B16F000EB06FB0C034F0B2
:100C4800B1C035F0000E376E0A0E366ECAEC0DF0E4
:100C580034C0B0F035C0B1F0D00E406EFF0E416E1A
:100C6800A1C0F6FFA2C0F7FF0800F550426E436A24
:100C7800405042264150432242500001B027435081
:100C88000001B1230001A14BA22BA1C0F6FFA2C015
:100C9800F7FF0800F55003EC0EF0D8A004D0CED72B
:100CA8000001AF8F19D0A1C0F6FFA2C0F7FF000165
:100CB800A14BA22B0800F5CFB2F00001B251000AF7
:100CC800D8B41200640AD8B407D00D0AD8B404D036
:100CD800110AD8B4E5D734D10001AFBF19D0AAC0E2
:100CE800D9FFABC0DAFFDECFADF0DDCFAEF0020E3C
:100CF8000001AA27000EAB230001AEAF53D0030EAC
:100D08000001AF130001AD6DAE1FD8B0AE2B4AD0B5
:100D1800AAC0D9FFABC0DAFFDECFADF0DDCFAEF0B1
:100D2800020E0001AA27000EAB233CD0010E0001E1
:100D3800B26F050E0001B219D8B43DD00001B2510E
:100D4800020D580EF324F66EFE0EF420F76E09001D
:100D5800F5500001AD5D0900F5500001AE59D8A06D
:100D68002AD00001B22BE5D7010E0001B26F040EA4
:100D78000001B219D8B41FD00001B251020D620EA1
:100D8800F324F66EFE0EF420F76E0900F55000010C
:100D9800AD5D0900F5500001AE59D8A00CD0000196
:100DA800B22BE5D70001AF51800B000AD8B4BED7EB
:100DB800800AD8B4D9D70001B0510001B111D8B414
:100DC8000AD0AFC040F0030E4016D8B404D00001DA
:100DD800B007D8A0B107800E0001B2BF7F0E406EE9
:100DE8000001B0510001B25D0001B151800A4058C4
:100DF800D8B00BD00001B2510001B05F000E000165
:100E0800B2BFFF0E0001B15B05D0000E0001B16F4B
:100E1800000EB06F0001AFA517D0AFC040F0030EB1
:100E28004016D8B403D02D0E34EC0EF00001B051AA
:100E38000001B111D8B424D0300E34EC0EF000010A
:100E4800B007D8A0B107F2D70001B0510001B11125
:100E5800D8B40DD0200E34EC0EF00001B007D8A0A5
:100E6800B1070001B0510001B111D8A4F3D7AFC048
:100E780040F0030E4016D8B403D02D0E34EC0EF01B
:100E8800B2C0ACF057D00001AC51020D580EF3249B
:100E9800F66EFE0EF420F76E0900F5CF36F00A0064
:100EA800F5CF37F0ADC034F0AEC035F0A0EC0CF0A3
:100EB80034C03BF035C03CF0000E3E6E0A0E3D6E6D
:100EC80088EC0DF03B50300F0001B26F2FD0ADC051
:100ED80034F0AEC035F00001AC51020D620EF324BF
:100EE800F66EFE0EF420F76E0900F5CF36F00A0014
:100EF800F5CF37F0A0EC0CF034500F0B0001A96FC0
:100F08000001A951010DEF0EF324F66EFE0EF42038
:100F1800F76E0800F5CFB2F009D00001AF51800B91
:100F2800000AD8B4B0D7800AD8B4D1D70001B251DA
:100F380034EC0EF00001AC070001AC29D8A4EDD7C1
:100F4800A1C0F6FFA2C0F7FF0001A14BA22B080029
:100F5800F5CFB2F00001B251D8B412003FD60F0E4F
:100F6800186E000E196E74D1250E2018D8B404D04E
:100F7800205040EC0EF06CD1000E1F6E000E1E6E5D
:100F8800000E1D6E03D01D840D4A0E2A0DC0F6FFFB
:100F98000EC0F7FF0800F550300AD8B4F4D70DC0DA
:100FA800F6FF0EC0F7FF0800F55012EC0EF0D8A0BF
:100FB80035D0000E1F6E000E1E6E1EC001F01FC041
:100FC80002F0000E046E0A0E036EF0EC0DF001C084
:100FD8001EF002C01FF0D00E136EFF0E146E0DC06F
:100FE800F6FF0EC0F7FF0800F550156E166A13508D
:100FF80015261450162215501E2616501F220D4A6B
:101008000E2A0DC0F6FF0EC0F7FF0800F55012ECCF
:101018000EF0D8A003D0D1D71D8E17D00DC0F6FF83
:101028000EC0F7FF0D4A0E2A0800F5CF20F0205019
:10103800000AD8B41200640AD8B407D00D0AD8B48C
:1010480004D0110AD8B4E8D703D11DBE15D018C0F2
:10105800D9FF19C0DAFFDECF1BF0DDCF1CF0020E7E
:101068001826000E19221CAE44D0030E1D121B6C4C
:101078001C1ED8B01C2A3DD018C0D9FF19C0DAFFF1
:10108800DECF1BF0DDCF1CF0020E1826000E192251
:1010980030D0010E206E050E2018D8B432D0205062
:1010A800020D580EF324F66EFE0EF420F76E0900BA
:1010B800F5501B5C0900F5501C58D8A022D0202AF6
:1010C800EAD7010E206E040E2018D8B41AD020508A
:1010D800020D620EF324F66EFE0EF420F76E090080
:1010E800F5501B5C0900F5501C58D8A00AD0202ADE
:1010F800EAD71D50800B000AD8B4CBD7800AD8B4E1
:10110800E0D71E501F10D8B409D01DC013F0030E2D
:101118001316D8B403D01E06D8A01F06800E20BE12
:101128007F0E136E1E50205C1F50800A1358D8B0D3
:1011380007D020501E5E000E20BEFF0E1F5A04D09E
:10114800000E1F6E000E1E6E1DA414D01DC013F0DD
:10115800030E1316D8B403D02D0E40EC0EF01E501B
:101168001F10D8B41ED0300E40EC0EF01E06D8A0CA
:101178001F06F5D71E501F10D8B40AD0200E40EC19
:101188000EF01E06D8A01F061E501F10D8A4F6D7B2
:101198001DC013F0030E1316D8B403D02D0E40EC67
:1011A8000EF020C01AF050D01A50020D580EF32439
:1011B800F66EFE0EF420F76E0900F5CF03F00A0074
:1011C800F5CF04F01BC001F01CC002F0C9EC0CF014
:1011D80001C008F002C009F0000E0B6E0A0E0A6E7C
:1011E800A9EC0DF00850300F206E2BD01BC001F079
:1011F8001CC002F01A50020D620EF324F66EFE0EA9
:10120800F420F76E0900F5CF03F00A00F5CF04F0DB
:10121800C9EC0CF001500F0B176E1750010DEF0EB3
:10122800F324F66EFE0EF420F76E0800F5CF20F0DA
:1012380008D01D50800B000AD8B4B6D7800AD8B49D
:10124800D5D7205040EC0EF01A061A28D8A4F1D7AA
:101258000DC0F6FF0EC0F7FF0D4A0E2A0800F5CFA5
:1012680020F02050D8B412007FD68D80C20EC35C07
:10127800020EC458D8A00ED08D9000018F2B000EFE
:1012880000018A6F010E896F000E00018C6F010E3C
:101298008B6F1200C45004E1050EC35CD8A00ED0B9
:1012A8008D900001922B000E0001886F010E876F50
:1012B800000E00018E6F010E8D6F12008D908D82D1
:1012C800C20EC35C020EC458D8A00ED08D92000185
:1012D8008F2B000E00018A6F010E896F000E00012E
:1012E8008C6F010E8B6F1200C45004E1050EC35CB5
:1012F800D8A00ED08D920001922B000E0001886FAD
:10130800010E876F000E00018E6F010E8D6F1200A7
:101318008D928B8AC45004E1360EC35CD8A00ED0DF
:101328008B9A0001912B000E00018A6F010E896FC4
:10133800000E00018C6F010E8B6F1200C45004E187
:10134800050EC35CD8A00ED08B9A0001922B000E1C
:101358000001886F010E876F000E00018E6F010E6D
:101368008D6F12008B9A8C80C45004E1360EC35CDA
:10137800D8A009D08C900001902B000E00018A6F34
:10138800010E896F0ED0C45004E1050EC35CD8A0CD
:1013980008D08C900001922B000E0001886F010E7E
:1013A800876F8C908C82C45004E1360EC35CD8A041
:1013B80009D08C920001902B000E00018C6F010E59
:1013C8008B6F08D08C920001922B000E00018E6F5B
:1013D800010E8D6F8C921200D59ECD90D90ED76ECE
:1013E800DA0ED66EE20ECF6EB30ECE6E8FC094F0CC
:1013F80091C097F090C095F092C098F0000E00014F
:101408008F6F000E0001916F000E0001906F000EAB
:101418000001926F47C034F0356A000E376E3C0EFB
:10142800366E3DEC0BF034500001936F47C034F03A
:10143800356A000E376E3C0E366E02EC0CF03450F6
:101448000001996F000E476E000E4B6E000E466E3F
:10145800000E0001A06F000E00019B6F000E456E8C
:10146800000E446E000E486E000E0001886F000EDC
:10147800876F000E00018A6F000E896F000E000151
:101488008C6F000E8B6F000E00018E6F000E8D6F3B
:10149800000E00019E6F000E00019C6F000E0001FF
:1014A8009F6F000E00019D6F8D908D928B9A8C908E
:1014B8008C92899489968998899A8A908A948B9C27
:1014C800899C8B92899E8B948B901200D59ECD908F
:1014D800D90ED76EDA0ED66EE20ECF6EB30ECE6E82
:1014E8008FC094F091C097F090C095F092C098F09A
:1014F800000E00018F6F000E0001916F000E0001B9
:10150800906F000E0001926F47C001F0026A000E52
:10151800046E3C0E036E7FEC0BF001500001936FDC
:1015280047C001F0026A000E046E3C0E036E3AECEE
:101538000CF001500001996F000E476E000E4B6EC3
:10154800000E466E000E0001A06F000E00019B6F9A
:10155800000E456E000E446E000E486E000E00012F
:10156800886F000E876F000E00018A6F000E896F6A
:10157800000E00018C6F000E8B6F000E00018E6F45
:10158800000E8D6F000E00019E6F000E00019C6F13
:10159800000E00019F6F000E00019D6F8D908D92CF
:1015A8008B9A8C908C92899489968998899A8A903A
:1015B8008A948B9C899C8B92899E8B948B90120029
:1015C800236E2A0E2218D8A420D0020E0001BE19BC
:1015D800D8A413D0010E0001BE6FD58ECD90010E98
:1015E80000019A6F800E46EC0EF0990E0D6EFF0EFC
:1015F8000E6EB3EC07F08B8012000001BE51D8A428
:101608001200020E0001BE6F12000001BE05D8A430
:101618000CD0230E2218D8A412000A0E0001BE6FA7
:10162800000192076AEC0AF012000001BE51D8B41A
:10163800120021502218D8A40CD0020E0001BE19A5
:10164800D8A404D0090E0001BE6F12000001BE0725
:10165800120023502218D8A41200090E0001BE1946
:10166800D8A404D0020E0001BE6F12000001BE2BE8
:101678001200000E396E37AE06D0366C371ED8B061
:10168800372A010E396E35AE06D0346C351ED8B007
:10169800352A010E391A000E3B6E000E3A6E36508E
:1016A8003710D8B41CD0010E386E04D0D890363616
:1016B8003736382A37AEFAD7D8903A363B363650CE
:1016C800345C37503558D8A005D03650345E375082
:1016D800355A3A80D89037323632382EEDD73950CD
:1016E800D8B404D03A6C3B1ED8B03B2A3AC034F088
:1016F8003BC035F01200000E066E04AE06D0036C37
:10170800041ED8B0042A010E066E02AE06D0016C83
:10171800021ED8B0022A010E061A000E086E000E2C
:10172800076E03500410D8B41CD0010E056E04D007
:10173800D89003360436052A04AEFAD7D89007366F
:1017480008360350015C04500258D8A005D0035055
:10175800015E0450025A0780D89004320332052EE5
:10176800EDD70650D8B404D0076C081ED8B0082AA4
:1017780007C001F008C002F01200000E3C6E000E17
:101788003D6E000E3E6E000E3F6E385039103A1016
:101798003B10D8B42AD0010E406E06D0D890383607
:1017A80039363A363B36402A3BAEF8D7D8903C36E5
:1017B8003D363E363F363850345C395035583A500D
:1017C80036583B503758D8A009D03850345E395075
:1017D800355A3A50365A3B50375A3C80D8903B32AB
:1017E8003A3239323832402EE1D73CC034F03DC06D
:1017F80035F03EC036F03FC037F01200000E396EAB
:1018080035AE06D0346C351ED8B0352A010E396E87
:1018180037AE04D0366C371ED8B0372A365037105A
:10182800D8B418D0010E386E04D0D8903636373672
:10183800382A37AEFAD73650345C37503558D8A0E6
:1018480004D03650345E3750355AD8903732363255
:10185800382EF1D73950D8B404D0346C351ED8B0EE
:10186800352A34C034F035C035F01200000E066E4B
:1018780002AE06D0016C021ED8B0022A010E066E16
:1018880004AE04D0036C041ED8B0042A035004101C
:10189800D8B418D0010E056E04D0D890033604369B
:1018A800052A04AEFAD70350015C04500258D8A0A8
:1018B80004D00350015E0450025AD8900432033217
:1018C800052EF1D70650D8B404D0016C021ED8B04A
:1018D800022A01C001F002C002F01200000EC76E19
:1018E800280EC66E000EC56E800E346E960E356ECE
:1018F800980E366E000E376EA1C0A5F0A2C0A6F0F5
:10190800A3C0A7F0A4C0A8F0020ED8900001A53784
:10191800A637A737A837E82EF8D7A5C038F0A6C04D
:1019280039F0A7C03AF0A8C03BF0C1EC0BF0340482
:10193800C86E948694881200000E396E000E386EB8
:1019480036503710D8B41CD0010E3A6E04D0D89057
:10195800363637363A2A37AEFAD7D8903836393647
:101968003650345C37503558D8A005D03650345EE0
:101978003750355A3880D890373236323A2EEDD72C
:1019880038C034F039C035F01200000E066E000E73
:10199800056E03500410D8B41CD0010E076E04D095
:1019A800D89003360436072A04AEFAD7D8900536FD
:1019B80006360350015C04500258D8A005D00350E5
:1019C800015E0450025A0580D89004320332072E73
:1019D800EDD705C001F006C002F01200356E355093
:1019E800F00B346E8C500F0B8C6E34508C108C6E48
:1019F8008C96190EE82EFED78C86190EE82EFED787
:101A08003538F00B356E3550F00B346E8C500F0BAB
:101A18008C6E34508C108C6E8C96190EE82EFED776
:101A28008C86190EE82EFED71200026E0250F00BBB
:101A3800016E8C500F0B8C6E01508C108C6E8C9636
:101A4800190EE82EFED78C86190EE82EFED702381E
:101A5800F00B026E0250F00B016E8C500F0B8C6E67
:101A680001508C108C6E8C96190EE82EFED78C8641
:101A7800190EE82EFED71200B30EF66E1C0EF76E86
:101A8800000EF86E0900F5CFBEF0B20EF66E1C0E11
:101A9800F76E000EF86E0900F5CF4BF000EE80F0FF
:101AA800210EEE6AE806FDE100EE44F0070EEE6A4C
:101AB800E806FDE14C904C92000EF86E000109EF2B
:101AC80000F0310E376EB20EE82EFED7372EFCD757
:101AD80000D0330E3AEC0EF0320E3AEC0EF0280E2F
:101AE8003AEC0EF00F0E3AEC0EF0060E3AEC0EF051
:101AF800010E3AEC0EF0310E376EB20EE82EFED71C
:101B0800372EFCD700D012003D503E10D8B418D064
:101B1800010E3F6E04D0D8903D363E363F2A3EAE89
:101B2800FAD73D503B5C3E503C58D8A004D03D50BD
:101B38003B5E3E503C5AD8903E323D323F2EF1D764
:101B48003BC03BF03CC03CF012000A500B10D8B42C
:101B580018D0010E0C6E04D0D8900A360B360C2A19
:101B68000BAEFAD70A50085C0B500958D8A004D01D
:101B78000A50085E0B50095AD8900B320A320C2EC4
:101B8800F1D708C008F009C009F012003450360235
:101B9800F3CF38F0F4CF39F034503702F350392608
:101BA80035503602F350392638C034F039C035F094
:101BB8001200356E2BEC0EF0C5862BEC0EF0C9CF5B
:101BC80036F02BEC0EF03550D8A402D0C58A01D0DF
:101BD800C59AC5883650120001500302F3CF05F0AC
:101BE800F4CF06F001500402F35006260250030217
:101BF800F350062605C001F006C002F01200366E4A
:101C0800000E356E3A0E366005D02F0E366402D0BF
:101C1800010E356E35C034F034301200036E000EFC
:101C2800026E3A0E036005D02F0E036402D0010E37
:101C3800026E02C001F001301200346E3444E846EE
:101C4800FC0BC26EC280C282C2A21200FDD7C7B40A
:101C5800FED7C5CF34F01F0E3416D8B41200F7D70C
:101C6800366E8C843650F2EC0CF01200366E8C9482
:101C78003650F2EC0CF01200036E8C84035019EC11
:101C88000DF01200036E8C94035019EC0DF0120045
:101C98002BEC0EF035C0C9FF12002BEC0EF0C584FA
:0C1CA80012002BEC0EF0C58012000202AE
:10FE4600003132334134353642373839432A30238C
:10FE5600440001000A006400E803102701001000B6
:10FE660000010010253032643A253032642020200B
:10FE76002020202020202020202020200044415423
:10FE8600453A20253032782F253032782F253032EA
:10FE96007820200054494D453A20253032783A25BD
:10FEA6003032783A2530327820200052554E4E496D
:10FEB6004E473A20253032643A25303264202020DD
:10FEC600004241545445524945533A202530326444
:10FED6002020202020004241545445524945533A9F
:10FEE600202530326420202000303132333435363C
:10FEF600373839616263646566002020202020203F
:10FF0600202020202020202020200023204F4620B3
:10FF160043202020202020202020200023204F4680
:10FF26002041412020202020202020200023204F77
:10FF3600462039562020202020202020200025344D
:10FF460064202532642020202020202020200054F8
:10FF56004F54414C2023204F4620202020202000B3
:10FF6600544F20434F4E54494E55452020202020C3
:10FF76000023204F4620445241494E45442020202C
:10FF86002000444F4E4521205052455353202A20ED
:10FF960020200052554E4E494E473A2030303A30D6
:10FFA60030202000454D455247454E435920535475
:10FFB6004F50202000544F54414C2052554E20544F
:10FFC600494D453A2000203C3420202044415441EC
:10FFD600202020363E200053544152543A202020FF
:10FFE6005052455353202A003C20342020204441BF
:0AFFF600544120202036203E000078
:020000040020DA
:08000000FFFFFFFFFFFFFFFF00
:020000040030CA
:0E000000FF021F1EFF8381FF0FC00FE00F40A5
:00000001FF
