:0400000007EF00F016
:100008004C820FED04F07BEF0EF0030E926EF20EB1
:10001800936E000E946E000E956E000E966E000E96
:10002800896E000E8A6E000E8B6E000E8C6E000EAE
:100038008D6E000EC26E0E0EC16EB10EC06EF28EC7
:10004800F28CF086F090F28AF2949D809E90070ED2
:10005800D56ED90ED76EDA0ED66E800ECD6EE20E44
:10006800CF6EB30ECE6E16EC0EF0100E3C6E270E51
:100078003D6E000E3E6E000E3F6E48EC0DF0F28EA7
:1000880056D0800E14EC0FF0DC0E0001806FFF0ECE
:100098000001816F85EC06F0C00E14EC0FF0ED0E38
:1000A8000001806FFF0E0001816F85EC06F0000EE5
:1000B8000001A46F310E0001A46501D011D0020E19
:1000C8000001C719D8A40CD0210E0001966F760E36
:1000D800E82EFED7962FFCD700F00001A42BEAD714
:1000E800800E14EC0FF0C00E14EC0FF0CB0E0001D4
:1000F800806FFF0E0001816F85EC06F0000E000195
:10010800A56F310E0001A56501D011D0020E0001C6
:10011800C719D8A40CD0210E0001966F760EE82ED0
:10012800FED7962FFCD700F00001A52BEAD7020EC8
:100138000001C719D8A4F3D1A4D70001C151D8B47C
:10014800E1D0050E356E350E346EEEEC0EF0000E75
:100158000001C16F8B92000E00019B6F000E9A6F19
:10016800A40E00019A5D010E00019B59D8B01BD066
:100178008BB404D00001966B962B02D00001966BCD
:100188000001964796478B5000019619FB0B96196C
:100198008B6E000E356E020E346EEEEC0EF0000122
:1001A8009A4B9B2BDDD78B82000E00019D6F000EB2
:1001B8009C6F00019D5123E1280E00019C5DD8B081
:1001C8001ED08BB404D00001966B962B02D0000190
:1001D800966B0001964796478B5000019619FB0BCA
:1001E80096198B6E000E356E020E346EEEEC0EF024
:1001F80000019C4B9D2B00019D5101E1DDD78B92A5
:10020800000E00019F6F000E9E6F00019F5123E1B9
:10021800280E00019E5DD8B01ED08BB404D000011A
:10022800966B962B02D00001966B00019647964775
:100238008B5000019619FB0B96198B6E000E356ECC
:10024800020E346EEEEC0EF000019E4B9F2B000167
:100258009F5101E1DDD78B82000E0001A16F000ED6
:10026800A06F0001A15123E1280E0001A05DD8B0C4
:100278001ED08BB404D00001966B962B02D00001DF
:10028800966B0001964796478B5000019619FB0B19
:1002980096198B6E000E356E020E346EEEEC0EF073
:1002A8000001A04BA12B0001A15101E1DDD78B92E8
:1002B800000E0001A36F000EA26F0001A35120E100
:1002C800140E0001A25DD8B01BD08BB404D000017D
:1002D800966B962B02D00001966B000196479647C5
:1002E8008B5000019619FB0B96198B6E000E356E1C
:1002F800020E346EEEEC0EF00001A24BA32BDDD7FC
:10030800000E466E000EFBEC0EF0C45003E1320EF8
:10031800C35CD8B0F6D0010E486E8B8E000E356ED9
:100328001E0E346EEEEC0EF0E1EC09F08B9E00012F
:10033800AE510001AF11D8B405D0010E496E010EBF
:100348000001C46F0001B0510001B111D8B405D04B
:10035800040E496E010E0001C36F0001B251000185
:10036800B311D8B405D0010E4A6E010E0001C66F54
:100378000001B4510001B511D8B405D0040E4A6E7D
:10038800010E0001C56F898489968A808A940001CC
:10039800B2510001AE110001966F0001B351000186
:1003A800AF110001976F0001B051000196130001D1
:1003B800B151000197130001B451000196130001D7
:1003C800B551000197130001965100019711D8B457
:1003D80004D00001C705D8B4DAD7010E356E4D0E2A
:1003E800346EEEEC0EF0898489968A808A94C3C0B4
:1003F800AEF00001AF6BC4C0B0F00001B16BC5C076
:10040800B2F00001B36BC6C0B4F00001B56B010EC9
:100418000001C26F8B920001B2510001AE110001C0
:10042800966F0001B3510001AF110001976F0001F1
:10043800B051000196130001B1510001971300015A
:10044800B451000196130001B55100019713000142
:10045800C251D8B402D0010E01D0000E0001986F2D
:10046800996B000196510001981300019751000102
:1004780099130001985100019911D8B404D00001D2
:10048800C705D8B4C8D78B948B92000E0001C46FEF
:10049800000E0001C36F000E0001C66F000E0001C0
:1004A800C56F899489968998899A8A908A948B9C31
:1004B8008D940001B751B8C096F00001976B000108
:1004C8009627000E97230001B65100019627000ECB
:1004D80097230001B95100019627000E97230001C8
:1004E80097BF0DD00001975105E10F0E0001965DF1
:1004F800D8A005D0000E0001C76FB6EC0AF0000EB8
:10050800486E070E0001976F580E0001966F590E3E
:10051800E82EFED7962FFCD7972FFAD700D00001E8
:10052800C705D8A417D009D6800E14EC0FF0870E93
:100538000001806FFF0E0001816F85EC06F0C00E90
:1005480014EC0FF0650E0001806FFF0E0001816F43
:1005580085EC06F00001C751D8A41FD0E5D7800E5E
:1005680014EC0FF0BA0E0001806FFF0E0001816FCE
:1005780085EC06F0C00E14EC0FF07A0E0001806FC7
:10058800FE0E0001816FBAC082F00001836BC0C00B
:1005980084F00001856B85EC06F0030E0001C71995
:1005A800D8A41BD0DCD7800E14EC0FF0540E000139
:1005B800806FFF0E0001816F85EC06F0C00E14EC11
:1005C8000FF0EC0E0001806FFE0E0001816FBDC0C0
:1005D80082F00001836B85EC06F0040E0001C71958
:1005E800D8A41BD0E0D7800E14EC0FF0210E000128
:1005F800806FFF0E0001816F85EC06F0C00E14ECD1
:100608000FF0EC0E0001806FFE0E0001816FBEC07E
:1006180082F00001836B85EC06F0050E0001C71916
:10062800D8A41BD0E0D7800E14EC0FF0430E0001C5
:10063800806FFF0E0001816F85EC06F0C00E14EC90
:100648000FF0D70E0001806FFE0E0001816FBBC056
:1006580082F00001836B85EC06F0060E0001C719D5
:10066800D8A41BD0E0D7800E14EC0FF0320E000196
:10067800806FFF0E0001816F85EC06F0C00E14EC50
:100688000FF0D70E0001806FFE0E0001816FBCC015
:1006980082F00001836B85EC06F0070E0001C71994
:1006A800D8A41BD0E0D7800E14EC0FF0760E000112
:1006B800806FFF0E0001816F85EC06F0C00E14EC10
:1006C8000FF0D70E0001806FFE0E0001816FBFC0D2
:1006D80082F00001836B85EC06F0080E0001C71953
:1006E800D8A466D0E0D72FEC0FF0000E366ED00EEF
:1006F800356E26EC0FF0000E366E000E356E26ECC9
:100708000FF02BEC0FF02FEC0FF0000E366ED10E21
:10071800356E26EC0FF0000E0001A66F050E0001E5
:10072800A66501D010D00001A651010DA70EF32433
:10073800D96E000EF420DA6E010EAAEC0EF0DF6E10
:100748000001A62BEBD7000EAAEC0EF00001AD6F4E
:100758002BEC0FF0800E14EC0FF0930E0001806F5D
:10076800FE0E0001816FADC082F00001836BACC04A
:1007780084F00001856BABC086F00001876B85ECC7
:1007880006F0C00E14EC0FF0AA0E0001806FFE0EEA
:100798000001816FA9C082F00001836BA8C084F0BA
:1007A8000001856BA7C086F00001876B85EC06F019
:1007B800090E0001C719D8A428D095D7800E14ECCB
:1007C8000FF0A90E0001806FFF0E0001816F85EC0C
:1007D80006F0C00E14EC0FF0100E0001806FFF0E33
:1007E8000001816F85EC06F01A0E0001976F5E0E0E
:1007F8000001966F6E0EE82EFED7962FFCD7972F26
:10080800FAD700F0020E0001C76F0A0E0001C719DF
:10081800D8A48DD4D3D70600FACF25F0FBCF26F085
:10082800E9CF27F0EACF28F0E1CF29F0E2CF2AF08C
:10083800D9CF2BF0DACF2CF0F3CF2DF0F4CF2EF068
:10084800F6CF2FF0F7CF30F0F8CF31F0F5CF32F008
:10085800F0A015D081380F0B0F0B336E360E216EBA
:100868003350010D570EF324F66EFE0EF420F76E8A
:100878000800F5CF22F0340EB4EC0BF0F090000134
:10088800C705D8B4F2A450D0F294D90ED76EDA0EB8
:10089800D66E472A47C001F0026A000E046E3C0E6D
:1008A800036E96EC0CF001500001BA6F47C001F0DE
:1008B800026A000E046E3C0E036E10EC0DF001503F
:1008C8000001C06F800E20EC0FF0C10E0D6EFE0E01
:1008D8000E6EBAC00FF0106AC0C011F0126A5BEC5D
:1008E80008F04B50D8A44B06B30E476405D0000E51
:1008F8000001C76F35EC0BF04850D8A413D0C45092
:1009080004E1330EC35CD8A002D0462A02D0000E00
:10091800466E090E466408D0000E0001C76F35EC1C
:100928000BF002D0000E466E0001C705D8B49EA099
:10093800CAD19E90E20ECF6EB30ECE6E40504110DB
:10094800D8B403D04006D8A04106424A432A4350AF
:1009580004E1850E425CD8A00FD0000E436E000E55
:10096800426E8BB003D0246A242A01D0246A8B50AB
:100978002418FE0B24188B6E0001C251D8B4DBD0AA
:100988000001C205D8A417D0444A452A8BB403D025
:10099800246A242A01D0246A244624468B50241829
:1009A800FB0B24188B6E7C0E445C010E4558D8A0B6
:1009B800C2D0020E12D0020E0001C219D8A410D063
:1009C800444A452A455004E1640E445CD8A0B3D09B
:1009D800000E456E000E446E030E0001C26FABD0D0
:1009E800030E0001C219D8A41DD0444A452A8BB46D
:1009F80003D0246A242A01D0246A244624468B5032
:100A08002418FB0B24188B6E455004E1280E445C17
:100A1800D8A091D0000E456E000E446E040E43D04F
:100A28008B8289D0040E0001C219D8A41DD0444A73
:100A3800452A8BB403D0246A242A01D0246A244688
:100A480024468B502418FB0B24188B6E455004E168
:100A5800280E445CD8A06FD0000E456E000E446E80
:100A6800050E43D08B9267D0050E0001C219D8A499
:100A78001DD0444A452A8BB403D0246A242A01D0C5
:100A8800246A244624468B502418FB0B24188B6EAA
:100A9800455004E1280E445CD8A04DD0000E456EA8
:100AA800000E446E060E0001C26FBAD7060E000192
:100AB800C219D8A41DD0444A452A8BB403D0246A4D
:100AC800242A01D0246A244624468B502418FB0B80
:100AD80024188B6E455004E1280E445CD8A02BD016
:100AE800000E456E000E446E070E0001C26FBAD7A5
:100AF800070E0001C219D8A41ED0444A452A8BB457
:100B080003D0246A242A01D0246A244624468B5020
:100B18002418FB0B24188B6E455004E1140E445C1A
:100B2800D8A009D0000E456E000E446E000E0001DC
:100B3800C26F8B928B940001AE510001AF11D8B4F3
:100B48002CD04904D8A402D0898A8998020E491861
:100B5800D8A402D089948986030E4918D8A402D053
:100B6800899A8988040E4918D8A402D0898489965C
:100B78000001AE4BAF2B020E0001AF5DD8A006D02E
:100B8800000E0001AF6F000EAE6F07D0030E496470
:100B980003D0010E496E01D0492A0001B05100016D
:100BA800B111D8B42CD0040E4918D8A402D0899A0F
:100BB8008988030E4918D8A402D089948986020E20
:100BC8004918D8A402D0898A89984904D8A402D09F
:100BD800898489960001B04BB12B020E0001B15DEA
:100BE800D8A006D0000E0001B16F000EB06F07D07C
:100BF800020E496003D0040E496E01D04906000177
:100C0800B2510001B311D8B42CD04A04D8A402D0F0
:100C18008D848B9C020E4A18D8A402D08A908A84AC
:100C2800030E4A18D8A402D08D948B8C040E4A184F
:100C3800D8A402D08A808A940001B24BB32B020E4A
:100C48000001B35DD8A006D0000E0001B36F000EFE
:100C5800B26F07D0030E4A6403D0010E4A6E01D06A
:100C68004A2A0001B4510001B511D8B42CD0040EA1
:100C78004A18D8A402D08D948B8C030E4A18D8A495
:100C880002D08A908A84020E4A18D8A402D08D8491
:100C98008B9C4A04D8A402D08A808A940001B44B61
:100CA800B52B020E0001B55DD8A006D0000E0001DC
:100CB800B56F000EB46F07D0020E4A6003D0040E61
:100CC8004A6E01D04A0632C0F5FF31C0F8FF30C085
:100CD800F7FF2FC0F6FF2EC0F4FF2DC0F3FF2CC086
:100CE800DAFF2BC0D9FF2AC0E2FF29C0E1FF28C0E4
:100CF800EAFF27C0E9FF26C0FBFF25C0FAFF4C9298
:100D08001100820E00018D6F000E00018E6FC0D1A0
:100D1800250E00019519D8B405D0000195510EECA7
:100D28000FF0B6D1000E0001946F000E936F000E05
:100D38000001926F05D0000192850001804B812B44
:100D480080C0F6FF81C0F7FF0800F550300AD8B41C
:100D5800F2D780C0F6FF81C0F7FF0800F550D0EC4D
:100D68000EF0D8A043D0000E0001946F000E936FD0
:100D780093C034F094C035F0000E376E0A0E366E0C
:100D880097EC0EF034C093F035C094F0D00E00010B
:100D9800886FFF0E0001896F80C0F6FF81C0F7FFE2
:100DA8000800F55000018A6F8B6B00018851000123
:100DB8008A270001895100018B2300018A51000113
:100DC800932700018B51000194230001804B812B54
:100DD80080C0F6FF81C0F7FF0800F550D0EC0EF098
:100DE800D8A004D0C5D70001928F19D080C0F6FFD3
:100DF80081C0F7FF0001804B812B0800F5CF95F0EB
:100E080000019551000AD8B41200640AD8B407D07A
:100E18000D0AD8B404D0110AD8B4E5D739D10001E5
:100E280092BF19D08DC0D9FF8EC0DAFFDECF90F007
:100E3800DDCF91F0020E00018D27000E8E230001F8
:100E480091AF53D0030E000192130001906D911FD2
:100E5800D8B0912B4AD08DC0D9FF8EC0DAFFDECF33
:100E680090F0DDCF91F0020E00018D27000E8E2349
:100E78003CD0010E0001956F050E00019519D8B4FC
:100E88003DD000019551020D680EF324F66EFE0E5A
:100E9800F420F76E0900F5500001905D0900F55047
:100EA80000019159D8A02AD00001952BE5D7010E51
:100EB8000001956F040E00019519D8B41FD00001E8
:100EC8009551020D720EF324F66EFE0EF420F76EA5
:100ED8000900F5500001905D0900F5500001915995
:100EE800D8A00CD00001952BE5D700019251800BBA
:100EF800000AD8B4BED7800AD8B4D9D70001935114
:100F080000019411D8B40BD092C088F0030E0001F0
:100F18008817D8B404D000019307D8A09407800E8E
:100F2800000195BF7F0E0001886F000193510001F9
:100F3800955D00019451800A00018859D8B00BD002
:100F4800000195510001935F000E000195BFFF0E4F
:100F58000001945B05D0000E0001946F000E936FA2
:100F6800000192A518D092C088F0030E00018817DE
:100F7800D8B403D02D0E0EEC0FF0000193510001F0
:100F88009411D8B425D0300E0EEC0FF00001930761
:100F9800D8A09407F2D70001935100019411D8B456
:100FA8000DD0200E0EEC0FF000019307D8A0940787
:100FB8000001935100019411D8A4F3D792C088F08E
:100FC800030E00018817D8B403D02D0E0EEC0FF0D5
:100FD80095C08FF057D000018F51020D680EF32491
:100FE800F66EFE0EF420F76E0900F5CF36F00A0013
:100FF800F5CF37F090C034F091C035F076EC0DF0B5
:1010080034C03BF035C03CF0000E3E6E0A0E3D6E1B
:1010180039EC0EF03B50300F0001956F2FD090C087
:1010280034F091C035F000018F51020D720EF32497
:10103800F66EFE0EF420F76E0900F5CF36F00A00C2
:10104800F5CF37F076EC0DF034500F0B00018C6FB4
:1010580000018C51010DFF0EF324F66EFE0EF420F4
:10106800F76E0800F5CF95F009D000019251800B7A
:10107800000AD8B4B0D7800AD8B4D1D700019551A6
:101088000EEC0FF000018F0700018F29D8A4EDD7CF
:1010980080C0F6FF81C0F7FF0001804B812B08005C
:1010A800F5CF95F000019551D8B4120031D60F0E46
:1010B800186E000E196E74D1250E2018D8B404D0FD
:1010C80020501AEC0FF06CD1000E1F6E000E1E6E31
:1010D800000E1D6E03D01D840D4A0E2A0DC0F6FFAA
:1010E8000EC0F7FF0800F550300AD8B4F4D70DC089
:1010F800F6FF0EC0F7FF0800F550DFEC0EF0D8A0A1
:1011080035D0000E1F6E000E1E6E1EC001F01FC0EF
:1011180002F0000E046E0A0E036EBDEC0EF001C064
:101128001EF002C01FF0D00E136EFF0E146E0DC01D
:10113800F6FF0EC0F7FF0800F550156E166A13503B
:1011480015261450162215501E2616501F220D4A19
:101158000E2A0DC0F6FF0EC0F7FF0800F550DFECB1
:101168000EF0D8A003D0D1D71D8E17D00DC0F6FF32
:101178000EC0F7FF0D4A0E2A0800F5CF20F02050C8
:10118800000AD8B41200640AD8B407D00D0AD8B43B
:1011980004D0110AD8B4E8D703D11DBE15D018C0A1
:1011A800D9FF19C0DAFFDECF1BF0DDCF1CF0020E2D
:1011B8001826000E19221CAE44D0030E1D121B6CFB
:1011C8001C1ED8B01C2A3DD018C0D9FF19C0DAFFA0
:1011D800DECF1BF0DDCF1CF0020E1826000E192200
:1011E80030D0010E206E050E2018D8B432D0205011
:1011F800020D680EF324F66EFE0EF420F76E090059
:10120800F5501B5C0900F5501C58D8A022D0202AA4
:10121800EAD7010E206E040E2018D8B41AD0205038
:10122800020D720EF324F66EFE0EF420F76E09001E
:10123800F5501B5C0900F5501C58D8A00AD0202A8C
:10124800EAD71D50800B000AD8B4CBD7800AD8B48F
:10125800E0D71E501F10D8B409D01DC013F0030EDC
:101268001316D8B403D01E06D8A01F06800E20BEC1
:101278007F0E136E1E50205C1F50800A1358D8B082
:1012880007D020501E5E000E20BEFF0E1F5A04D04D
:10129800000E1F6E000E1E6E1DA414D01DC013F08C
:1012A800030E1316D8B403D02D0E1AEC0FF01E50EF
:1012B8001F10D8B41ED0300E1AEC0FF01E06D8A09E
:1012C8001F06F5D71E501F10D8B40AD0200E1AECEE
:1012D8000FF01E06D8A01F061E501F10D8A4F6D760
:1012E8001DC013F0030E1316D8B403D02D0E1AEC3C
:1012F8000FF020C01AF050D01A50020D680EF324D7
:10130800F66EFE0EF420F76E0900F5CF03F00A0022
:10131800F5CF04F01BC001F01CC002F09FEC0DF0EB
:1013280001C008F002C009F0000E0B6E0A0E0A6E2A
:101338005AEC0EF00850300F206E2BD01BC001F075
:101348001CC002F01A50020D720EF324F66EFE0E47
:10135800F420F76E0900F5CF03F00A00F5CF04F08A
:101368009FEC0DF001500F0B176E1750010DFF0E7B
:10137800F324F66EFE0EF420F76E0800F5CF20F089
:1013880008D01D50800B000AD8B4B6D7800AD8B44C
:10139800D5D720501AEC0FF01A061A28D8A4F1D77E
:1013A8000DC0F6FF0EC0F7FF0D4A0E2A0800F5CF54
:1013B80020F02050D8B412007FD68D80000E356EF4
:1013C800210E346EEEEC0EF0C20EC35C020EC45851
:1013D800D8A00ED08D900001B62B000E0001B16F81
:1013E800010EB06F000E0001B36F010EB26F120054
:1013F800C45004E1050EC35CD8A00ED08D90000146
:10140800B92B000E0001AF6F010EAE6F000E000188
:10141800B56F010EB46F12008D908D82000E356E7F
:10142800210E346EEEEC0EF0C20EC35C020EC458F0
:10143800D8A00ED08D920001B62B000E0001B16F1E
:10144800010EB06F000E0001B36F010EB26F1200F3
:10145800C45004E1050EC35CD8A00ED08D920001E3
:10146800B92B000E0001AF6F010EAE6F000E000128
:10147800B56F010EB46F12008D928B8A000E356E17
:10148800210E346EEEEC0EF0C45004E1360EC35C4F
:10149800D8A00ED08B9A0001B82B000E0001B16FB6
:1014A800010EB06F000E0001B36F010EB26F120093
:1014B800C45004E1050EC35CD8A00ED08B9A00017D
:1014C800B92B000E0001AF6F010EAE6F000E0001C8
:1014D800B56F010EB46F12008B9A8C80000E356EBA
:1014E800210E346EEEEC0EF0C45004E1360EC35CEF
:1014F800D8A009D08C900001B72B000E0001B16F65
:10150800010EB06F0ED0C45004E1050EC35CD8A024
:1015180008D08C900001B92B000E0001AF6F010EAE
:10152800AE6F8C908C82000E356E210E346EEEEC10
:101538000EF0C45004E1360EC35CD8A009D08C92DA
:101548000001B72B000E0001B36F010EB26F08D077
:101558008C920001B92B000E0001B56F010EB46F1B
:101568008C921200D59ECD90D90ED76EDA0ED66E1B
:10157800E20ECF6EB30ECE6EB6C0BBF0B8C0BEF0F2
:10158800B7C0BCF0B9C0BFF0000E0001B66F000EC6
:101598000001B86F000E0001B76F000E0001B96FAF
:1015A80047C034F0356A000E376E3C0E366E54EC88
:1015B8000CF034500001BA6F47C034F0356A000EA1
:1015C800376E3C0E366ED8EC0CF034500001C06F0C
:1015D800000E476E000E466E000E4B6E000E0001A8
:1015E800C26F000E456E000E446E000E486E000E6F
:1015F8000001AF6F000EAE6F000E0001B16F000E5C
:10160800B06F000E0001B36F000EB26F000E000144
:10161800B56F000EB46F000E0001C56F000E00011B
:10162800C36F000E0001C66F000E0001C46F000EEC
:10163800416E000E406E000E436E000E426E8D909D
:101648008D928B9A8C908C92899489968998899A94
:101658008A908A948B9C8D948B928B9E8B948B9082
:101668001200D59ECD90D90ED76EDA0ED66EE20E48
:10167800CF6EB30ECE6EB6C0BBF0B8C0BEF0B7C06A
:10168800BCF0B9C0BFF0000E0001B66F000E00013B
:10169800B86F000E0001B76F000E0001B96F47C0A8
:1016A80001F0026A000E046E3C0E036E96EC0CF01C
:1016B80001500001BA6F47C001F0026A000E046EC3
:1016C8003C0E036E10EC0DF001500001C06F000ECF
:1016D800476E000E466E000E4B6E000E0001C26F84
:1016E800000E456E000E446E000E486E000E00019E
:1016F800AF6F000EAE6F000E0001B16F000EB06F3D
:10170800000E0001B36F000EB26F000E0001B56F3E
:10171800000EB46F000E0001C56F000E0001C36F0C
:10172800000E0001C66F000E0001C46F000E416E6E
:10173800000E406E000E436E000E426E8D908D922C
:101748008B9A8C908C92899489968998899A8A9098
:101758008A948B9C8D948B928B9E8B948B90120089
:10176800236E2A0E2218D8A420D0020E0001C71911
:10177800D8A413D0010E0001C76FD58ECD80010EFD
:101788000001C16F800E20EC0FF0980E0D6EFF0E59
:101798000E6E5BEC08F08B8012000001C751D8A4D4
:1017A8001200020E0001C76F12000001C705D8A47D
:1017B8000CD0230E2218D8A412000A0E0001C76FFD
:1017C8000001B90735EC0BF012000001C751D8B47D
:1017D800120021502218D8A40CD0020E0001C719FB
:1017E800D8A404D0090E0001C76F12000001C70772
:1017F800120023502218D8A41200090E0001C7199C
:10180800D8A404D0020E0001C76F12000001C72B34
:101818001200000E0001806F000E816F000E826FB3
:10182800000E836F385039103A103B10D8B42FD0BF
:10183800010E0001846F07D0D890383639363A3611
:101848003B360001842B3BAEF7D70001D890803798
:101858008137823783373850345C395035583A509D
:1018680036583B503758D8A00AD03850345E3950D3
:10187800355A3A50365A3B50375A00018081D89031
:101888003B323A32393238320001842FDED780C0F9
:1018980034F081C035F082C036F083C037F01200D2
:1018A800000E396E37AE06D0366C371ED8B0372AE0
:1018B800010E396E35AE06D0346C351ED8B0352AD7
:1018C800010E391A000E3B6E000E3A6E3650371074
:1018D800D8B41CD0010E386E04D0D89036363736BE
:1018E800382A37AEFAD7D8903A363B363650345C79
:1018F80037503558D8A005D03650345E3750355A51
:101908003A80D89037323632382EEDD73950D8B49D
:1019180004D03A6C3B1ED8B03B2A3AC034F03BC0E6
:1019280035F01200000E066E04AE06D0036C041EDD
:10193800D8B0042A010E066E02AE06D0016C021E53
:10194800D8B0022A010E061A000E086E000E076EA5
:1019580003500410D8B41CD0010E056E04D0D890E2
:1019680003360436052A04AEFAD7D8900736083667
:101978000350015C04500258D8A005D00350015E02
:101988000450025A0780D89004320332052EEDD74E
:101998000650D8B404D0076C081ED8B0082A07C06F
:1019A80001F008C002F01200000E396E35AE06D004
:1019B800346C351ED8B0352A010E396E37AE04D0D6
:1019C800366C371ED8B0372A36503710D8B418D0EE
:1019D800010E386E04D0D89036363736382A37AEEE
:1019E800FAD73650345C37503558D8A004D0365022
:1019F800345E3750355AD89037323632382EF1D7D0
:101A08003950D8B404D0346C351ED8B0352A34C017
:101A180034F035C035F01200000E066E02AE06D066
:101A2800016C021ED8B0022A010E066E04AE04D064
:101A3800036C041ED8B0042A03500410D8B418D07C
:101A4800010E056E04D0D89003360436052A04AE7C
:101A5800FAD70350015C04500258D8A004D00350B0
:101A6800015E0450025AD89004320332052EF1D791
:101A78000650D8B404D0016C021ED8B0022A01C0A6
:101A880001F002C002F01200000EC76E280EC66EEA
:101A9800000EC56E800E346E960E356E980E366E3C
:101AA800000E376E3CC085F03DC086F03EC087F022
:101AB8003FC088F0020ED8900001853786378737F7
:101AC8008837E82EF8D785C038F086C039F087C047
:101AD8003AF088C03BF00DEC0CF03404C86E9486E4
:101AE80094881200000E396E000E386E365037108A
:101AF800D8B41CD0010E3A6E04D0D890363637369A
:101B08003A2A37AEFAD7D890383639363650345C58
:101B180037503558D8A005D03650345E3750355A2E
:101B28003880D890373236323A2EEDD738C034F074
:101B380039C035F01200000E066E000E056E035017
:101B48000410D8B41CD0010E076E04D0D890033608
:101B58000436072A04AEFAD7D8900536063603505D
:101B6800015C04500258D8A005D00350015E04500F
:101B7800025A0580D89004320332072EEDD705C0EB
:101B880001F006C002F01200356E3550F00B346ECD
:101B98008C500F0B8C6E34508C108C6E8C96190EEA
:101BA800E82EFED78C86190EE82EFED73538F00BB6
:101BB800356E3550F00B346E8C500F0B8C6E3450E4
:101BC8008C108C6E8C96190EE82EFED78C86190E0A
:101BD800E82EFED71200026E0250F00B016E8C50F8
:101BE8000F0B8C6E01508C108C6E8C96190EE82E93
:101BF800FED78C86190EE82EFED70238F00B026E3F
:101C08000250F00B016E8C500F0B8C6E01508C1033
:101C18008C6E8C96190EE82EFED78C86190EE82E3F
:101C2800FED71200310E376EB20EE82EFED7372ED1
:101C3800FCD700D0330E14EC0FF0320E14EC0FF07A
:101C4800280E14EC0FF00F0E14EC0FF0060E14EC27
:101C58000FF0010E14EC0FF0310E376EB20EE82EB5
:101C6800FED7372EFCD700D012003D503E10D8B416
:101C780018D0010E3F6E04D0D8903D363E363F2A2C
:101C88003EAEFAD73D503B5C3E503C58D8A004D0FD
:101C98003D503B5E3E503C5AD8903E323D323F2E3E
:101CA800F1D73BC03BF03CC03CF012000A500B108F
:101CB800D8B418D0010E0C6E04D0D8900A360B3662
:101CC8000C2A0BAEFAD70A50085C0B500958D8A05A
:101CD80004D00A50085E0B50095AD8900B320A32C9
:101CE8000C2EF1D708C008F009C009F01200660EE2
:101CF800F66E1E0EF76E000EF86E0900F5CFC7F0EF
:101D080000EEA7F0200EEE6AE806FDE100EE40F0D6
:101D18000C0EEE6AE806FDE14C904C92000EF86E4F
:101D2800000109EF00F034503602F3CF38F0F4CF59
:101D380039F034503702F350392635503602F35013
:101D4800392638C034F039C035F01200356E05EC4C
:101D58000FF0C58605EC0FF0C9CF36F005EC0FF093
:101D68003550D8A402D0C58A01D0C59AC588365046
:101D7800120001500302F3CF05F0F4CF06F0015032
:101D88000402F350062602500302F350062605C04B
:101D980001F006C002F01200366E000E356E3A0EE3
:101DA800366005D02F0E366402D0010E356E35C070
:101DB80034F034301200036E000E026E3A0E0360E7
:101DC80005D02F0E036402D0010E026E02C001F08E
:101DD8000130120034C040F035C041F0405041108D
:101DE800D8B412000001C705D8A41200F7D7346E82
:101DF8003444E846FC0BC26EC280C282C2A2120002
:101E0800FDD7C7B4FED7C5CF34F01F0E3416D8B4EB
:101E18001200F7D7366E8C843650C8EC0DF01200DD
:101E2800366E8C943650C8EC0DF01200036E8C841C
:101E38000350EFEC0DF01200036E8C940350EFEC9E
:101E48000DF0120005EC0FF035C0C9FF120005ECCB
:0F1E58000FF0C584120005EC0FF0C580120002D8
:10FE5600003132334134353642373839432A30237C
:10FE6600440001000A006400E803102701001000A6
:10FE760000010010253032643A25303264202020FB
:10FE86002020202020202020202020200044415413
:10FE9600453A20253032782F253032782F253032DA
:10FEA6007820200054494D453A20253032783A25AD
:10FEB6003032783A2530327820200052554E4E495D
:10FEC6004E473A20253032643A25303264202020CD
:10FED600004241545445524945533A202530326434
:10FEE6002020202020004241545445524945533A8F
:10FEF600202530326420202000303132333435362C
:10FF0600373839616263646566002020202020202E
:10FF1600202020202020202020200023204F4620A3
:10FF260043202020202020202020200023204F4670
:10FF36002041412020202020202020200023204F67
:10FF46004620395620202020202020202000544FF3
:10FF560054414C2023204F462020202020200054AE
:10FF66004F20434F4E54494E554520202020200017
:10FF760023204F4620445241494E4544202020200C
:10FF860000444F4E4521205052455353202A2020ED
:10FF9600200052554E4E494E473A2030303A3030C6
:10FFA600202000454D455247454E43592053544F56
:10FFB60050202000544F54414C2052554E20544955
:10FFC6004D453A2000203C205649455720204C4FAD
:10FFD6004753203E200053544152543A202020508B
:10FFE60052455353202A003C20205649455720208D
:09FFF6004C4F475320203E00004F
:020000040020DA
:08000000FFFFFFFFFFFFFFFF00
:020000040030CA
:0E000000FF021F1EFF8381FF0FC00FE00F40A5
:00000001FF
