:0400000007EF00F016
:100008004F8205ED13F0CEEF17F0000E0101216FBE
:10001800000E206F0101215120E11F0E0101205D1A
:10002800D8B01BD089EC1AF0000E336E100E326E69
:1000380077EC1AF03E0E01012025F66EFD0E212107
:10004800F76E0800F550326E336A77EC1AF085ECDB
:100058001AF00101204B212BDDD720EE34F011EEF0
:1000680000F0120EDBCFE3FFE806FCE2CAC08DF019
:1000780000018D3B0F0E8D170F0E00018D1700012B
:100088008D510A0DCAC08EF00F0E00018E170001A7
:100098008E51F3240001846F000EF4200001856F57
:1000A8001FEC19F084C08BF085C08CF081EC1AF03D
:1000B8000101006FCAC08DF000018D3B0F0E8D1736
:1000C8000F0E00018D1700018D510A0DCAC08EF068
:1000D8000F0E00018E1700018E51F3240001896F65
:1000E800000EF42000018A6FD3EC19F089C08BF060
:1000F8008AC08CF081EC1AF00101016FC9C08DF043
:1001080000018D3B0F0E8D170F0E00018D1700019A
:100118008D510A0DC9C08EF00F0E00018E17000117
:100128008E51F3240001846F000EF4200001856FC6
:100138001FEC19F084C08BF085C08CF081EC1AF0AC
:100148000101036FC9C08DF000018D3B0F0E8D17A3
:100158000F0E00018D1700018D510A0DC9C08EF0D8
:100168000F0E00018E1700018E51F3240001896FD4
:10017800000EF42000018A6FD3EC19F089C08BF0CF
:100188008AC08CF081EC1AF00101046FC8C08DF0B0
:1001980000018D3B0F0E8D170F0E00018D1700010A
:1001A8008D510A0DC8C08EF00F0E00018E17000188
:1001B8008E51F3240001846F000EF4200001856F36
:1001C8001FEC19F084C08BF085C08CF081EC1AF01C
:1001D8000101066FC8C08DF000018D3B0F0E8D1711
:1001E8000F0E00018D1700018D510A0DC8C08EF049
:1001F8000F0E00018E1700018E51F3240001896F44
:10020800000EF42000018A6FD3EC19F089C08BF03E
:100218008AC08CF081EC1AF00101076FC6C08DF01E
:1002280000018D3B0F0E8D170F0E00018D17000179
:100238008D510A0DC6C08EF00F0E00018E170001F9
:100248008E51F3240001846F000EF4200001856FA5
:100258001FEC19F084C08BF085C08CF081EC1AF08B
:100268000101096FC6C08DF000018D3B0F0E8D177F
:100278000F0E00018D1700018D510A0DC6C08EF0BA
:100288000F0E00018E1700018E51F3240001896FB3
:10029800000EF42000018A6FD3EC19F089C08BF0AE
:1002A8008AC08CF081EC1AF001010A6FC5C08DF08C
:1002B80000018D3B0F0E8D170F0E00018D170001E9
:1002C8008D510A0DC5C08EF00F0E00018E1700016A
:1002D8008E51F3240001846F000EF4200001856F15
:1002E8001FEC19F084C08BF085C08CF081EC1AF0FB
:1002F80001010C6FC5C08DF000018D3B0F0E8D17ED
:100308000F0E00018D1700018D510A0DC5C08EF02A
:100318000F0E00018E1700018E51F3240001896F22
:10032800000EF42000018A6FD3EC19F089C08BF01D
:100338008AC08CF081EC1AF001010D6FC4C08DF0F9
:1003480000018D3B0F0E8D170F0E00018D17000158
:100358008D510A0DC4C08EF00F0E00018E170001DA
:100368008E51F3240001846F000EF4200001856F84
:100378001FEC19F084C08BF085C08CF081EC1AF06A
:1003880001010F6FC4C08DF000018D3B0F0E8D175A
:100398000F0E00018D1700018D510A0DC4C08EF09B
:1003A8000F0E00018E1700018E51F3240001896F92
:1003B800000EF42000018A6FD3EC19F089C08BF08D
:1003C8008AC08CF081EC1AF00101106F000E010157
:1003D800236F000E226F0101235124E1130E010146
:1003E800225DD8B01FD089EC1AF0000E336E100EC3
:1003F800326E77EC1AF0000E01012225D96E010E3B
:1004080001012321DA6EDF5000018D6F00018D514B
:10041800326E336A77EC1AF085EC1AF00101224B40
:10042800232BD9D789EC1AF0000E336E100E326EDA
:1004380077EC1AF0000E336E0A0E326E77EC1AF073
:1004480085EC1AF0000E0101256F000E246F0101E2
:10045800255123E11F0E0101245DD8B01ED089EC7F
:100468001AF0000E336E100E326E77EC1AF0FE0E94
:1004780001012425F66EFC0E2521F76E0800F550C3
:10048800326E336A77EC1AF085EC1AF00101244BCE
:10049800252B0101255101E1DDD7F2C016F1F3C08A
:1004A80017F1E9C084F00001856B1FEC19F084C0D6
:1004B8008BF085C08CF081EC1AF00101166FE9C051
:1004C80089F000018A6BD3EC19F089C08BF08AC0DF
:1004D8008CF081EC1AF00101176F000E0101276FF3
:1004E800000E266F0101275124E1020E0101265D4D
:1004F800D8B01FD089EC1AF0000E336E100E326E91
:1005080077EC1AF0160E01012625D96E010E0101AD
:100518002721DA6EDF5000018D6F00018D51326E98
:10052800336A77EC1AF085EC1AF00101264B272B79
:10053800D9D789EC1AF0000E336E100E326E77ECB4
:100548001AF0000E336E0A0E326E77EC1AF085EC54
:100558001AF0000E0101296F000E286F01012951C0
:1005680023E11E0E0101285DD8B01ED089EC1AF0D7
:10057800000E336E100E326E77EC1AF05E0E01012B
:100588002825F66EFD0E2921F76E0800F550326E0B
:10059800336A77EC1AF085EC1AF00101284B292B05
:1005A8000101295101E1DDD7F4C018F1F5C019F1B5
:1005B800EBC084F00001856B1FEC19F084C08BF050
:1005C80085C08CF081EC1AF00101186FEBC089F03E
:1005D80000018A6BD3EC19F089C08BF08AC08CF0CB
:1005E80081EC1AF00101196F000E01012B6F000E4A
:1005F8002A6F01012B5124E1020E01012A5DD8B0B6
:100608001FD089EC1AF0000E336E100E326E77ECA4
:100618001AF0180E01012A25D96E010E01012B21AD
:10062800DA6EDF5000018D6F00018D51326E336A32
:1006380077EC1AF085EC1AF001012A4B2B2BD9D74D
:1006480089EC1AF0000E336E100E326E77EC1AF049
:10065800000E336E0A0E326E77EC1AF085EC1AF043
:10066800000E01012D6F000E2C6F01012D5123E1A9
:100678001F0E01012C5DD8B01ED089EC1AF0000EB7
:10068800336E100E326E77EC1AF01E0E01012C2517
:10069800F66EFD0E2D21F76E0800F550326E336AA6
:1006A80077EC1AF085EC1AF001012C4B2D2B010187
:1006B8002D5101E1DDD7F6C01AF1F7C01BF1E8C0F2
:1006C80084F00001856B1FEC19F084C08BF085C0A5
:1006D8008CF081EC1AF001011A6FE8C089F0000172
:1006E8008A6BD3EC19F089C08BF08AC08CF081EC4E
:1006F8001AF001011B6F000E01012F6F000E2E6F03
:1007080001012F5124E1020E01012E5DD8B01FD046
:1007180089EC1AF0000E336E100E326E77EC1AF078
:100728001A0E01012E25D96E010E01012F21DA6E54
:10073800DF5000018D6F00018D51326E336A77EC06
:100748001AF085EC1AF001012E4B2F2BD9D789EC22
:100758001AF0000E336E100E326E77EC1AF0000E9F
:10076800336E0A0E326E77EC1AF085EC1AF0000E32
:100778000101316F000E306F0101315123E1240E68
:100788000101305DD8B01ED089EC1AF0000E336E2E
:10079800100E326E77EC1AF0950E01013025F66EC8
:1007A800FC0E3121F76E0800F550326E336A77EC93
:1007B8001AF085EC1AF00101304B312B010131514F
:1007C80001E1DDD7F8C01CF1F9C01DF1ECC084F0DF
:1007D8000001856B1FEC19F084C08BF085C08CF08C
:1007E80081EC1AF001011C6FECC089F000018A6BE2
:1007F800D3EC19F089C08BF08AC08CF081EC1AF028
:1008080001011D6F000E0101336F000E326F0101EF
:10081800335124E1020E0101325DD8B01FD089ECBA
:100828001AF0000E336E100E326E77EC1AF01C0EB2
:1008380001013225D96E010E01013321DA6EDF5034
:1008480000018D6F00018D51326E336A77EC1AF01A
:1008580085EC1AF00101324B332BD9D789EC1AF009
:10086800000E336E100E326E77EC1AF0000E336EF7
:100878000A0E326E77EC1AF085EC1AF0000E0101C0
:10088800356F000E346F0101355123E1220E01014D
:10089800345DD8B01ED089EC1AF0000E336E100EFD
:1008A800326E77EC1AF0BA0E01013425F66EFC0EA2
:1008B8003521F76E0800F550326E336A77EC1AF07E
:1008C80085EC1AF00101344B352B0101355101E15A
:1008D800DDD7FAC01EF1FBC01FF1EAC084F00001A9
:1008E800856B1FEC19F084C08BF085C08CF081EC0F
:1008F8001AF001011E6FEAC089F000018A6BD3EC7F
:1009080019F089C08BF08AC08CF081EC1AF00101D3
:100918001F6F000E0101376F000E366F010137514E
:1009280024E1020E0101365DD8B01FD089EC1AF01F
:10093800000E336E100E326E77EC1AF01E0E0101A7
:100948003625D96E010E01013721DA6EDF5000011C
:100958008D6F00018D51326E336A77EC1AF085EC99
:100968001AF00101364B372BD9D789EC1AF0000E53
:10097800336E100E326E77EC1AF0000E336E0A0EDC
:10098800326E77EC1AF085EC1AF0000E0101396F1F
:10099800000E386F0101395123E1200E0101385D45
:1009A800D8B01ED089EC1AF0000E336E100E326EDD
:1009B80077EC1AF0DD0E01013825F66EFC0E3921B0
:1009C800F76E0800F550326E336A77EC1AF085EC52
:1009D8001AF00101384B392B0101395101E1DDD7FA
:1009E800EFC013F1F0C014F1F1C015F10001E751A7
:1009F8003C0D0001ED51F3240001846F0001000E4D
:100A0800F4200001856F3DEC19F084C08BF085C09F
:100A18008CF081EC1AF00101136F0001E7513C0DD5
:100A28000001ED51F3240001846F0001000EF42051
:100A38000001856F1FEC19F084C08BF085C08CF025
:100A480081EC1AF00101146F0001E7513C0D00011F
:100A5800ED51F3240001896F0001000EF42000011C
:100A68008A6FD3EC19F089C08BF08AC08CF081ECC6
:100A78001AF00101156F000E01013B6F000E3A6F6D
:100A880001013B5124E1030E01013A5DD8B01FD0AA
:100A980089EC1AF0000E336E100E326E77EC1AF0F5
:100AA800130E01013A25D96E010E01013B21DA6EC0
:100AB800DF5000018D6F00018D51326E336A77EC83
:100AC8001AF085EC1AF001013A4B3B2BD9D789EC87
:100AD8001AF0000E336E100E326E77EC1AF0000E1C
:100AE800336E0A0E326E77EC1AF085EC1AF089EC48
:100AF8001AF0000E336E100E326E77EC1AF0000EFC
:100B0800336E0A0E326E77EC1AF085EC1AF012008A
:100B18002F0E926EF20E936E000E946E000E956E6E
:100B2800010E966E000E896E000E8A6E000E8B6E98
:100B3800000E8C6E000E8D6E000EC26E090EC16E18
:100B4800B10EC06E000EB56EB496F28EF28CF086C1
:100B5800F090F28AF2949D809E90070ED56ED90E81
:100B6800D76EDA0ED66E800ECD6EEC0ECF6E770E87
:100B7800CE6ED9EC18F0F19E100E00018D6F270E85
:100B88008E6F000E8F6F000E906F32EC18F0F28EA1
:100B980056D0800E65EC1AF0DE0E0001896FFF0E4C
:100BA80000018A6F09EC0BF0C00E65EC1AF0CD0E4F
:100BB8000001896FFF0E00018A6F09EC0BF0000E2F
:100BC8000001BD6F310E0001BD6501D011D0020ECC
:100BD8000001FC19D8A40CD0210E0001BA6F760EC2
:100BE800E82EFED7BA2FFCD700F00001BD2BEAD7BC
:100BF800800E65EC1AF0C00E65EC1AF0670E000165
:100C0800896FFF0E00018A6F09EC0BF0000E0001DE
:100C1800BE6F310E0001BE6501D011D0020E000179
:100C2800FC19D8A40CD0210E0001BA6F760EE82E5C
:100C3800FED7BA2FFCD700F00001BE2BEAD7020E70
:100C48000001FC19D8A455D2A4D7000E24EC1AF040
:100C5800800E65EC1AF0C00E65EC1AF0BD0E0001AE
:100C6800896FFE0E00018A6FC3CF8BF0C4CF8CF062
:100C78000001E351E5C0BAF00001BB6B0001BA27DF
:100C8800000EBB230001E2510001BA27000EBB236E
:100C98000001E4510001BA2500018D6F0001000E2A
:100CA8000001BB2100018E6F09EC0BF00001EE5131
:100CB800D8B473D0070E326ED00E316E01EC1AF034
:100CC800000E0001EE6F8C90000E496E000E0001C0
:100CD800C26F16D00001C22B8C82110E0001BA6FB0
:100CE8003A0EE82EFED7BA2FFCD700F08C92110EE0
:100CF8000001BA6F3A0EE82EFED7BA2FFCD700F0E3
:100D0800140E0001C26104D00001FC05D8B4E2D77A
:100D1800000E0001C26F14D00001C22B8C82070E96
:100D28000001BA6F7D0EE82EFED7BA2FFCD78C9241
:100D3800070E0001BA6F7D0EE82EFED7BA2FFCD73A
:100D4800B20E0001C26104D00001FC05D8B4E4D79A
:100D5800000E0001C26F16D00001C22B8C82110E4A
:100D68000001BA6F3A0EE82EFED7BA2FFCD700F072
:100D78008C92110E0001BA6F3A0EE82EFED7BA2FE8
:100D8800FCD700F0020E0001C26104D00001FC058E
:100D9800D8B4E2D7000E0001C26FC45004E1380E87
:100DA800C35CD8A002D0010E01D0000E0001BA6FBA
:100DB800C45006E1160EC35CD8B002D0010E01D0B3
:100DC800000E0001BA11E8A08ED1000E326EFA0EA4
:100DD800316E01EC1AF0010E4C6E8B8E010E326EE4
:100DE800F40E316E01EC1AF056EC14F08B9E0001F3
:100DF800E651D8B405D0020E0001D56F000ED46FAD
:100E08000001D2510001D311D8B402D0010E4D6EA9
:100E18000001D4510001D511D8B402D0040E4D6E92
:100E28000001D6510001D711D8B402D0010E4E6E80
:100E38000001D8510001D911D8B402D0040E4E6E69
:100E4800D2C0DCF0D3C0DDF0D4C0DAF0D5C0DBF01E
:100E5800D6C0E0F0D7C0E1F0D8C0DEF0D9C0DFF0EE
:100E68008B828B948B808D940001D6510001D21116
:100E78000001BA6F0001D7510001D3110001BB6F07
:100E88000001D4510001BA130001D5510001BB1370
:100E98000001D8510001BA130001D9510001BB1358
:100EA8000001BA510001BB11D8B404D00001FC05FF
:100EB800D8B4DAD70001E651D8B40BD0020E00013D
:100EC800D76F000ED66F010E4E6ED6C0E0F0D7C0B9
:100ED800E1F00001D6510001D711D8B404D00001C7
:100EE800FC05D8B4F6D7010E326EF40E316E01EC63
:100EF8001AF00001E351E4C0BAF00001BB6B000135
:100F0800BA27000EBB230001E2510001BA27000EE8
:100F1800BB230001E5510001BA27000EBB230001E5
:100F2800BBBF09D00001BB5104E10F0E0001BA5D3F
:100F3800D8B007EC10F08B828B948B808D94DAC03C
:100F4800D2F0DBC0D3F0DCC0D4F0DDC0D5F0DEC019
:100F5800D6F0DFC0D7F0E0C0D8F0E1C0D9F0000E7D
:100F68000001C36F16D00001C32B8C82110E000143
:100F7800BA6F3A0EE82EFED7BA2FFCD700F08C9243
:100F8800110E0001BA6F3A0EE82EFED7BA2FFCD721
:100F980000F0140E0001C36104D00001FC05D8B4B0
:100FA800E2D7000E0001C36F14D00001C32B8C825E
:100FB800070E0001BA6F7D0EE82EFED7BA2FFCD7B8
:100FC8008C92070E0001BA6F7D0EE82EFED7BA2F5D
:100FD800FCD7B20E0001C36104D00001FC05D8B4EF
:100FE800E4D7000E0001C36F16D00001C32B8C821A
:100FF800110E0001BA6F3A0EE82EFED7BA2FFCD7B1
:1010080000F08C92110E0001BA6F3A0EE82EFED74E
:10101800BA2FFCD700F0020E0001C36104D0000112
:10102800FC05D8B4E2D7000E0001C36F0001D65109
:101038000001D2110001BA6F0001D7510001D3118C
:101048000001BB6F0001D4510001BA130001D55152
:101058000001BB130001D8510001BA130001D95196
:101068000001BB130001BA510001BB11D8B404D070
:101078000001FC05D8B4DAD78C928C90000E0001E0
:10108800D56F000ED46F000E0001D96F000ED86F17
:10109800000E0001D36F000ED26F000E0001D76F53
:1010A800000ED66F000E0001DD6F000EDC6F000E23
:1010B8000001DB6F000EDA6F000E0001E16F000E19
:1010C800E06F000E0001DF6F000EDE6F8B928B94D5
:1010D8008B9C8B9A8B908D948D928998000E000131
:1010E800E66F000E4C6E000E326EFA0E316E01EC99
:1010F8001AF00001FC05D8A417D0A7D5800E65EC1E
:101108001AF0340E0001896FFF0E00018A6F09EC96
:101118000BF0C00E65EC1AF0120E0001896FFF0E7D
:1011280000018A6F09EC0BF00001FC51D8A41FD014
:10113800E5D7800E65EC1AF0560E0001896FFF0E98
:1011480000018A6F09EC0BF0C00E65EC1AF0A00ED6
:101158000001896FFD0E00018A6FE7C08BF0000166
:101168008C6BEDC08DF000018E6B09EC0BF0030E5B
:101178000001FC19D8A41BD0DCD7800E65EC1AF04E
:10118800F00E0001896FFE0E00018A6F09EC0BF06A
:10119800C00E65EC1AF0550E0001896FFE0E0001B5
:1011A8008A6FEAC08BF000018C6B09EC0BF0040E1F
:1011B8000001FC19D8A41BD0E0D7800E65EC1AF00A
:1011C8008A0E0001896FFE0E00018A6F09EC0BF090
:1011D800C00E65EC1AF0550E0001896FFE0E000175
:1011E8008A6FEBC08BF000018C6B09EC0BF0050EDD
:1011F8000001FC19D8A41BD0E0D7800E65EC1AF0CA
:10120800AC0E0001896FFE0E00018A6F09EC0BF02D
:10121800C00E65EC1AF02C0E0001896FFE0E00015D
:101228008A6FE8C08BF000018C6B09EC0BF0060E9E
:101238000001FC19D8A41BD0E0D7800E65EC1AF089
:101248009B0E0001896FFE0E00018A6F09EC0BF0FE
:10125800C00E65EC1AF02C0E0001896FFE0E00011D
:101268008A6FE9C08BF000018C6B09EC0BF0070E5C
:101278000001FC19D8A41BD0E0D7800E65EC1AF049
:10128800230E0001896FFF0E00018A6F09EC0BF035
:10129800C00E65EC1AF02C0E0001896FFE0E0001DD
:1012A8008A6FECC08BF000018C6B09EC0BF0080E18
:1012B8000001FC19D8A46FD0E0D7800E65EC1AF0B5
:1012C800CE0E0001896FFE0E00018A6F09EC0BF04B
:1012D800C00E65EC1AF0B90E0001896FFD0E000111
:1012E8008A6FCAC08BF000018C6BC9C08DF00001F9
:1012F8008E6BC8C08FF00001906B09EC0BF0000EEC
:101308000001BF6FC70E0001BF6501D011D0090EE3
:101318000001FC19D8A40CD0210E0001BA6F760E7A
:10132800E82EFED7BA2FFCD700F00001BF2BEAD772
:10133800800E65EC1AF0C00E65EC1AF0D00E0001B4
:10134800896FFD0E00018A6FC6C08BF000018C6B9F
:10135800C5C08DF000018E6BC4C08FF00001906B8A
:1013680009EC0BF0000E0001C06FC70E0001C0654C
:1013780001D011D0090E0001FC19D8A40CD0210EFF
:101388000001BA6F760EE82EFED7BA2FFCD700F010
:101398000001C02BEAD7090E0001FC19D8A421D0FE
:1013A8008CD7800E65EC1AF0890E0001896FFF0E4C
:1013B80000018A6F09EC0BF0C00E65EC1AF0790E8B
:1013C8000001896FFE0E00018A6F09EC0BF0000E18
:1013D8000001A06F010E9F6F0A0E0001A16FE3ECE0
:1013E8000CF00A0E0001FC19D8A421D0DAD7800E1F
:1013F80065EC1AF09A0E0001896FFF0E00018A6FE2
:1014080009EC0BF0C00E65EC1AF0790E0001896F3B
:10141800FE0E00018A6F09EC0BF0000E0001A06FB0
:10142800610E9F6F0B0E0001A16FE3EC0CF00B0E29
:101438000001FC19D8A421D0DAD7800E65EC1AF087
:10144800AB0E0001896FFF0E00018A6F09EC0BF0EB
:10145800C00E65EC1AF0790E0001896FFE0E0001CE
:101468008A6F09EC0BF0000E0001A06FC10E9F6F90
:101478000C0E0001A16FE3EC0CF00C0E0001FC193E
:10148800D8A421D0DAD7800E65EC1AF0BC0E000182
:10149800896FFF0E00018A6F09EC0BF0C00E65EC36
:1014A8001AF0790E0001896FFE0E00018A6F09ECAF
:1014B8000BF0010E0001A06F210E9F6F0D0E0001B1
:1014C800A16FE3EC0CF00D0E0001FC19D8A42BD091
:1014D800DAD7800E65EC1AF0010E0001896FFF0E55
:1014E80000018A6F09EC0BF0C00E65EC1AF0780E5B
:1014F8000001896FFF0E00018A6F09EC0BF081383B
:101508000F0B0F0B0001BC6F0001BC51010D7D0ECC
:10151800F324F66EFD0EF420F76E0800F5502A0A43
:10152800D8B409EC00F00E0E0001FC19D8A466D05E
:10153800D0D789EC1AF0000E336ED00E326E77ECED
:101548001AF0000E336E000E326E77EC1AF085EC4E
:101558001AF089EC1AF0000E336ED10E326E77EC69
:101568001AF0000E0001C16F050E0001C16501D01F
:1015780010D00001C151010DCB0EF324D96E000E1D
:10158800F420DA6E010E87EC19F0DF6E0001C12B32
:10159800EBD7000E87EC19F00001D16F85EC1AF03B
:1015A800800E65EC1AF0E70E0001896FFD0E000150
:1015B8008A6FD1C08BF000018C6BD0C08DF0000118
:1015C8008E6BCFC08FF00001906B09EC0BF0C00E52
:1015D80065EC1AF0FE0E0001896FFD0E00018A6F9E
:1015E800CDC08BF000018C6BCCC08DF000018E6BF0
:1015F800CBC08FF00001906B09EC0BF00F0E0001CF
:10160800FC19D8A423EF06F094D78B0E0001966F2F
:10161800000E0001976FC4D1250E00019E19D8B4A1
:1016280005D000019E515FEC1AF0BAD1000E0001FE
:101638009D6F000E9C6F000E00019B6F05D000018E
:101648009B850001894B8A2B89C0F6FF8AC0F7FF6A
:101658000800F550300AD8B4F2D789C0F6FF8AC01E
:10166800F7FF0800F550E3EC19F0D8A044D0000EBD
:1016780000019D6F000E9C6F9CC080F09DC081F0A2
:10168800000E0001836F0A0E826F5BEC19F080C0B8
:101698009CF081C09DF0D00E0001916FFF0E0001FB
:1016A800926F89C0F6FF8AC0F7FF0800F550000165
:1016B800936F946B0001915100019327000192519F
:1016C800000194230001935100019C2700019451CB
:1016D80000019D230001894B8A2B89C0F6FF8AC02F
:1016E800F7FF0800F550E3EC19F0D8A004D0C4D7F0
:1016F80000019B8F19D089C0F6FF8AC0F7FF00014F
:10170800894B8A2B0800F5CF9EF000019E51000AF4
:10171800D8B41200640AD8B407D00D0AD8B404D0DB
:10172800110AD8B4E5D73CD100019BBF19D096C0A7
:10173800D9FF97C0DAFFDECF99F0DDCF9AF0020E1D
:1017480000019627000E972300019AAF53D0030E8D
:1017580000019B130001996D9A1FD8B09A2B4AD0AB
:1017680096C0D9FF97C0DAFFDECF99F0DDCF9AF0A7
:10177800020E00019627000E97233CD0010E0001AF
:101788009E6F050E00019E19D8B43DD000019E51F0
:10179800020D8E0EF324F66EFD0EF420F76E09008E
:1017A800F5500001995D0900F55000019A59D8A03B
:1017B8002AD000019E2BE5D7010E00019E6F040E72
:1017C80000019E19D8B41FD000019E51020D980E39
:1017D800F324F66EFD0EF420F76E0900F5500001B3
:1017E800995D0900F55000019A59D8A00CD0000164
:1017F8009E2BE5D700019B51800B000AD8B4BED7B9
:10180800800AD8B4D9D700019C5100019D11D8B4E1
:101818000BD09BC091F0030E00019117D8B404D0EF
:1018280000019C07D8A09D07800E00019EBF7F0E77
:101838000001916F00019C5100019E5D00019D51C6
:10184800800A00019159D8B00BD000019E510001C7
:101858009C5F000E00019EBFFF0E00019D5B05D03E
:10186800000E00019D6F000E9C6F00019BA518D013
:101878009BC091F0030E00019117D8B403D02D0E30
:101888005FEC1AF000019C5100019D11D8B425D0DD
:10189800300E5FEC1AF000019C07D8A09D07F2D724
:1018A80000019C5100019D11D8B40DD0200E5FECB1
:1018B8001AF000019C07D8A09D0700019C51000167
:1018C8009D11D8A4F3D79BC091F0030E0001911786
:1018D800D8B403D02D0E5FEC1AF09EC098F05AD001
:1018E80000019851020D8E0EF324F66EFD0EF420C1
:1018F800F76E0900F5CF82F00A00F5CF83F099C0A2
:1019080080F09AC081F098EC17F080C084F081C014
:1019180085F0000E0001876F0A0E866F01EC18F043
:1019280000018451300F00019E6F30D099C080F0C3
:101938009AC081F000019851020D980EF324F66EBA
:10194800FD0EF420F76E0900F5CF82F00A00F5CFFE
:1019580083F098EC17F0000180510F0B0001956F90
:1019680000019551010D680EF324F66EFE0EF42069
:10197800F76E0800F5CF9EF009D000019B51800B4F
:10198800000AD8B4ADD7800AD8B4D0D700019E5188
:101998005FEC1AF00001980700019829D8A4EDD748
:1019A80089C0F6FF8AC0F7FF0001894B8A2B08001F
:1019B800F5CF9EF000019E51D8B412002DD6000E2E
:1019C8000001B56FC70E0001B56501D012D0000146
:1019D800A1510001FC19D8A40CD0210E0001A26F5E
:1019E800760EE82EFED7A22FFCD700F00001B52B0B
:1019F800E9D79FC0B8F0A0C0B9F0B8C031F0B9C0FD
:101A080032F00EEC1AF00001AF6FB8C031F0B9C077
:101A180032F051EC1AF031C0B8F032C0B9F0B8C0A9
:101A280031F0B9C032F00EEC1AF00001B06FB8C056
:101A380031F0B9C032F051EC1AF031C0B8F032C010
:101A4800B9F0B8C031F0B9C032F00EEC1AF00001AC
:101A5800B16FB8C031F0B9C032F051EC1AF031C0F2
:101A6800B8F032C0B9F0B8C031F0B9C032F00EECFD
:101A78001AF00001B26FB8C031F0B9C032F051ECC1
:101A88001AF031C0B8F032C0B9F0B8C031F0B9C0FE
:101A980032F00EEC1AF00001B36FB8C031F0B9C0E3
:101AA80032F051EC1AF031C0B8F032C0B9F0B8C019
:101AB80031F0B9C032F00EEC1AF00001B46FB8C0C2
:101AC80031F0B9C032F051EC1AF031C0B8F032C080
:101AD800B9F0B8C031F0B9C032F00EEC1AF000011C
:101AE800A26F0001A2510001A56FA66BB8C031F02A
:101AF800B9C032F051EC1AF031C0B8F032C0B9F0C8
:101B0800B8C031F0B9C032F00EEC1AF00001A26F83
:101B18000001A2510001A76FA86BB8C031F0B9C08D
:101B280032F051EC1AF031C0B8F032C0B9F0B8C098
:101B380031F0B9C032F00EEC1AF00001A26F0001CA
:101B4800A2510001A96FAA6BB8C031F0B9C032F038
:101B580051EC1AF031C0B8F032C0B9F0B8C031F069
:101B6800B9C032F00EEC1AF00001A26F0001A251C8
:101B78000001AB6FAC6BB8C031F0B9C032F051ECBA
:101B88001AF031C0B8F032C0B9F0B8C031F0B9C0FD
:101B980032F00EEC1AF00001A26F0001A251000110
:101BA800A36FA46BB8C031F0B9C032F051EC1AF091
:101BB80031C0B8F032C0B9F0B8C031F0B9C032F0B5
:101BC8000EEC1AF00001A26F0001A2510001AD6FE6
:101BD800AE6B8CD0800E65EC1AF0B90E0001896FDF
:101BE800FD0E00018A6FAFC08BF000018C6BB0C096
:101BF8008DF000018E6BB1C08FF00001906B09EC85
:101C08000BF0C00E65EC1AF0D00E0001896FFD0EC6
:101C180000018A6FB2C08BF000018C6BB3C08DF0ED
:101C280000018E6BB4C08FF00001906B09EC0BF0D3
:101C3800000E0001B66FC70E0001B66501D012D0C4
:101C48000001A1510001FC19D8A40CD0210E0001FB
:101C5800A26F760EE82EFED7A22FFCD700F0000167
:101C6800B62BE9D7800E65EC1AF0150E0001896FC6
:101C7800FE0E00018A6FA5C08BF0A6C08CF0A7C02D
:101C88008DF0A8C08EF0A9C08FF0AAC090F009EC22
:101C98000BF0C00E65EC1AF0410E0001896FFE0EC4
:101CA80000018A6FABC08BF0ACC08CF0ADC08DF07A
:101CB800AEC08EF009EC0BF0000E0001B76FC70E36
:101CC8000001B76501D012D00001A1510001FC1933
:101CD800D8A40CD0210E0001A26F760EE82EFED7F4
:101CE800A22FFCD700F00001B72BE9D70001A151C2
:101CF8000001FC19D8A412006DD70F0E146E000E47
:101D0800156E74D1250E1C18D8B404D01C506BEC79
:101D18001AF06CD1000E1B6E000E1A6E000E196EB2
:101D280003D019840D4A0E2A0DC0F6FF0EC0F7FF26
:101D38000800F550300AD8B4F4D70DC0F6FF0EC02D
:101D4800F7FF0800F550F2EC19F0D8A035D0000ED6
:101D58001B6E000E1A6E1AC001F01BC002F0000EB6
:101D6800046E0A0E036EADEC19F001C01AF002C041
:101D78001BF0D00E0F6EFF0E106E0DC0F6FF0EC0DA
:101D8800F7FF0800F550116E126A0F501126105017
:101D9800122211501A2612501B220D4A0E2A0DC06B
:101DA800F6FF0EC0F7FF0800F550F2EC19F0D8A0C6
:101DB80003D0D1D7198E17D00DC0F6FF0EC0F7FF8C
:101DC8000D4A0E2A0800F5CF1CF01C50000AD8B4A2
:101DD8001200640AD8B407D00D0AD8B404D0110A86
:101DE800D8B4E8D703D119BE15D014C0D9FF15C08F
:101DF800DAFFDECF17F0DDCF18F0020E1426000E42
:101E0800152218AE44D0030E1912176C181ED8B03C
:101E1800182A3DD014C0D9FF15C0DAFFDECF17F05D
:101E2800DDCF18F0020E1426000E152230D0010E58
:101E38001C6E050E1C18D8B432D01C50020D8E0E24
:101E4800F324F66EFD0EF420F76E0900F550175CCA
:101E58000900F5501858D8A022D01C2AEAD7010E3C
:101E68001C6E040E1C18D8B41AD01C50020D980E03
:101E7800F324F66EFD0EF420F76E0900F550175C9A
:101E88000900F5501858D8A00AD01C2AEAD71950CA
:101E9800800B000AD8B4CBD7800AD8B4E0D71A5040
:101EA8001B10D8B409D019C00FF0030E0F16D8B400
:101EB80003D01A06D8A01B06800E1CBE7F0E0F6E1C
:101EC8001A501C5C1B50800A0F58D8B007D01C5001
:101ED8001A5E000E1CBEFF0E1B5A04D0000E1B6EAD
:101EE800000E1A6E19A414D019C00FF0030E0F16A5
:101EF800D8B403D02D0E6BEC1AF01A501B10D8B4BE
:101F08001ED0300E6BEC1AF01A06D8A01B06F5D7B7
:101F18001A501B10D8B40AD0200E6BEC1AF01A060F
:101F2800D8A01B061A501B10D8A4F6D719C00FF05A
:101F3800030E0F16D8B403D02D0E6BEC1AF01CC08C
:101F480016F050D01650020D8E0EF324F66EFD0ECC
:101F5800F420F76E0900F5CF03F00A00F5CF04F07E
:101F680017C001F018C002F062EC18F001C008F0C8
:101F780002C009F0000E0B6E0A0E0A6EFEEC18F095
:101F88000850300F1C6E2BD017C001F018C002F09B
:101F98001650020D980EF324F66EFD0EF420F76E1F
:101FA8000900F5CF03F00A00F5CF04F062EC18F051
:101FB80001500F0B136E1350010D680EF324F66ECB
:101FC800FE0EF420F76E0800F5CF1CF008D019506B
:101FD800800B000AD8B4B6D7800AD8B4D5D71C501D
:101FE8006BEC1AF016061628D8A4F1D70DC0F6FF28
:101FF8000EC0F7FF0D4A0E2A0800F5CF1CF01C5042
:10200800D8B412007FD6D59ECD90D90ED76EDA0EF1
:10201800D66EEC0ECF6E770ECE6EE2C0E8F0E4C05E
:10202800EBF0E3C0E9F0E5C0ECF00001E25100019B
:10203800E4250001E3250001E5250001EA6F000E13
:10204800326E000E316E0EEC1AF00001886F00013E
:102058008851600D010EF3240001896F000EF420F1
:1020680000018A6F89C031F08AC032F0CAC033F0EB
:1020780074EC19F089C031F08AC032F051EC1AF0D2
:1020880031C089F032C08AF089C031F08AC032F09C
:10209800C9C033F074EC19F089C031F08AC032F04D
:1020A80051EC1AF031C089F032C08AF089C031F0A1
:1020B8008AC032F0C8C033F074EC19F089C031F02E
:1020C8008AC032F051EC1AF031C089F032C08AF07F
:1020D80089C031F08AC032F0C6C033F074EC19F010
:1020E80089C031F08AC032F051EC1AF031C089F061
:1020F80032C08AF089C031F08AC032F0C5C033F0EE
:1021080074EC19F089C031F08AC032F051EC1AF041
:1021180031C089F032C08AF089C031F08AC032F00B
:10212800C4C033F074EC19F089C031F08AC032F0C1
:1021380051EC1AF031C089F032C08AF089C031F010
:102148008AC032F0E3C033F074EC19F089C031F082
:102158008AC032F051EC1AF031C089F032C08AF0EE
:1021680089C031F08AC032F0E4C033F074EC19F061
:1021780089C031F08AC032F051EC1AF031C089F0D0
:1021880032C08AF089C031F08AC032F0E2C033F040
:1021980074EC19F089C031F08AC032F051EC1AF0B1
:1021A80031C089F032C08AF089C031F08AC032F07B
:1021B800E5C033F074EC19F089C031F08AC032F010
:1021C80051EC1AF031C089F032C08AF089C031F080
:1021D8008AC032F0EAC033F074EC19F089C031F0EB
:1021E8008AC032F051EC1AF031C089F032C08AF05E
:1021F80089C031F08AC032F04AC033F074EC19F06B
:102208000001882B030E0001886509D0000E326E8C
:10221800000E316E000E336E74EC19F008D0000E0B
:10222800326E000E316E88C033F074EC19F0000E77
:102238000001E26F000E0001E46F000E0001E36F81
:10224800000E0001E56F4AC080F00001816B000EAE
:102258000001836F3C0E826F17EC16F0000180516D
:102268000001E76F4AC080F00001816B000E000199
:10227800836F3C0E826FD4EC16F000018051000190
:10228800ED6F000E4A6E000E496E000E4C6E000E89
:102298000001D36F000ED26F000E0001D56F000E43
:1022A800D46F000E0001D76F000ED66F000E00012C
:1022B800D96F000ED86F000E0001DF6F000EDE6FC1
:1022C800000E0001DB6F000EDA6F000E0001E16FF7
:1022D800000EE06F000E0001DD6F000EDC6F000ED7
:1022E800486E000E476E000E0001E66F000E4B6E42
:1022F8008B928B948B9C8B9A8B908D948D928998D2
:102308008C908B9E8C928A90000E0001FC6F1200BC
:10231800D59ECD90D90ED76EDA0ED66EEC0ECF6E56
:10232800770ECE6EE2C0E8F0E4C0EBF0E3C0E9F06F
:10233800E5C0ECF00001E2510001E4250001E325CD
:102348000001E5250001EA6F000E026E000E016E25
:1023580019EC1AF0096E0950600D010EF3240A6E8B
:10236800000EF4200B6E0AC001F00BC002F0CAC0C8
:1023780003F09AEC19F00AC001F00BC002F058EC17
:102388001AF001C00AF002C00BF00AC001F00BC03D
:1023980002F0C9C003F09AEC19F00AC001F00BC0B2
:1023A80002F058EC1AF001C00AF002C00BF00AC0A3
:1023B80001F00BC002F0C8C003F09AEC19F00AC093
:1023C80001F00BC002F058EC1AF001C00AF002C08C
:1023D8000BF00AC001F00BC002F0C6C003F09AEC83
:1023E80019F00AC001F00BC002F058EC1AF001C055
:1023F8000AF002C00BF00AC001F00BC002F0C5C021
:1024080003F09AEC19F00AC001F00BC002F058EC86
:102418001AF001C00AF002C00BF00AC001F00BC0AC
:1024280002F0C4C003F09AEC19F00AC001F00BC026
:1024380002F058EC1AF001C00AF002C00BF00AC012
:1024480001F00BC002F0E3C003F09AEC19F00AC0E7
:1024580001F00BC002F058EC1AF001C00AF002C0FB
:102468000BF00AC001F00BC002F0E4C003F09AECD4
:1024780019F00AC001F00BC002F058EC1AF001C0C4
:102488000AF002C00BF00AC001F00BC002F0E2C073
:1024980003F09AEC19F00AC001F00BC002F058ECF6
:1024A8001AF001C00AF002C00BF00AC001F00BC01C
:1024B80002F0E5C003F09AEC19F00AC001F00BC075
:1024C80002F058EC1AF001C00AF002C00BF00AC082
:1024D80001F00BC002F0EAC003F09AEC19F00AC050
:1024E80001F00BC002F058EC1AF001C00AF002C06B
:1024F8000BF00AC001F00BC002F04AC003F09AECDE
:1025080019F0092A030E096409D0000E026E000EA4
:10251800016E000E036E9AEC19F008D0000E026EE0
:10252800000E016E09C003F09AEC19F0000E0001CC
:10253800E26F000E0001E46F000E0001E36F000E71
:102548000001E56F4AC001F0026A000E046E3C0EFD
:10255800036E1EEC17F001500001E76F4AC001F04E
:10256800026A000E046E3C0E036E60EC17F0015018
:102578000001ED6F000E4A6E000E496E000E4C6EA3
:10258800000E0001D36F000ED26F000E0001D56F50
:10259800000ED46F000E0001D76F000ED66F000E2C
:1025A8000001D96F000ED86F000E0001DF6F000E1A
:1025B800DE6F000E0001DB6F000EDA6F000E000107
:1025C800E16F000EE06F000E0001DD6F000EDC6FA2
:1025D800000E486E000E476E000E0001E66F000EFA
:1025E8004B6E8B928B948B9C8B9A8B908D948D9247
:1025F80089988C908B9E8C928A90000E0001FC6FBB
:1026080012000600FACF22F0FBCF23F0E9CF24F026
:10261800EACF25F0E1CF26F0E2CF27F0D9CF28F096
:10262800DACF29F0F3CF2AF0F4CF2BF0F6CF2CF045
:10263800F7CF2DF0F8CF2EF0F5CF2FF0F0A015D072
:1026480081380F0B0F0B306E360E1D6E3050010D9A
:102658007D0EF324F66EFD0EF420F76E0800F5CF1C
:102668001EF0340E90EC15F0F0900001FC05D8B483
:10267800F2A438D0F294D90ED76EDA0ED66E4A2A62
:102688004AC001F0026A000E046E3C0E036E1EEC96
:1026980017F001500001E76F4AC001F0026A000E0E
:1026A800046E3C0E036E60EC17F001500001ED6FF4
:1026B800B30E4A6402D08CEC11F04C50D8A410D060
:1026C800C45004E1330EC35CD8A002D0492A02D01A
:1026D800000E496E090E496405D08CEC11F002D049
:1026E800000E496E0001FC05D8B49EA0BDD09E9096
:1026F800EC0ECF6E770ECE6E47504810D8B403D08C
:102708004706D8A048064B2A950E4B640DD0000EFC
:102718004B6E8AB003D0216A212A01D0216A8A50DF
:102728002118FE0B21188A6E0001D2510001D31125
:10273800D8B422D04D04D8A402D08B8A8B9C020E28
:102748004D18D8A402D08B928B84030E4D18D8A4B0
:1027580002D08B9A8B8C040E4D18D8A402D08B8291
:102768008B940001D207D8A0D307030E4D6403D081
:10277800010E4D6E01D04D2A0001D4510001D51132
:10278800D8B422D0040E4D18D8A402D08B9A8B8CC2
:10279800030E4D18D8A402D08B928B84020E4D18CC
:1027A800D8A402D08B8A8B9C4D04D8A402D08B82EB
:1027B8008B940001D407D8A0D507020E4D6003D032
:1027C800040E4D6E01D04D060001D6510001D711FF
:1027D800D8B422D04E04D8A402D089888D92020E93
:1027E8004E18D8A402D08B908D84030E4E18D8A40E
:1027F80002D089988D82040E4E18D8A402D08B80FE
:102808008D940001D607D8A0D707030E4E6403D0D5
:10281800010E4E6E01D04E2A0001D8510001D91187
:10282800D8B422D0040E4E18D8A402D089988D822C
:10283800030E4E18D8A402D08B908D84020E4E1829
:10284800D8A402D089888D924E04D8A402D08B8057
:102858008D940001D807D8A0D907020E4E6003D086
:10286800040E4E6E01D04E062FC0F5FF2EC0F8FFA5
:102878002DC0F7FF2CC0F6FF2BC0F4FF2AC0F3FFD2
:1028880029C0DAFF28C0D9FF27C0E2FF26C0E1FF30
:1028980025C0EAFF24C0E9FF23C0FBFF22C0FAFFDE
:1028A8004F921100010E24EC1AF0C3CFA1F0C4CF4F
:1028B800A2F0020E24EC1AF0C3CFA5F0C4CFA6F004
:1028C800030E24EC1AF0C3CFA3F0C4CFA4F0040E77
:1028D80024EC1AF0C3CFA7F0C4CFA8F0050E24EC5F
:1028E8001AF0C3CFA9F0C4CFAAF0800E65EC1AF095
:1028F800EF0E0001896FFF0E00018A6FA1C08BF0F7
:10290800A2C08CF0A5C08DF0A6C08EF0A3C08FF039
:10291800A4C090F009EC0BF0C00E65EC1AF0DF0EC5
:102928000001896FFE0E00018A6FA7C08BF0A8C056
:102938008CF0A9C08DF0AAC08EF009EC0BF0000154
:10294800A1510001A211D8B40DD00001E42B020E50
:102958000001D56F000ED46F020E0001D76F000E74
:10296800D66F12000001A5510001A11100019F6F4F
:102978000001A6510001A2110001A06F0001A3519E
:1029880000019F130001A4510001A0130001A751E9
:1029980000019F130001A8510001A0130001A951D3
:1029A80000019F130001AA510001A01300019F51CB
:1029B8000001A011D8A40DD00001E52B020E0001E2
:1029C800D36F000ED26F020E0001D96F000ED86FC0
:1029D80012000001A5510001A611D8B40FD00001C2
:1029E800A3510001A411D8B409D00001E351020F8A
:1029F8000001E36F010E0001E66F12000001A8510B
:102A08000DE1C90E0001A75DD8B008D00001AA5198
:102A180005E1C90E0001A95DD8A00DD0020E000184
:102A2800D56F000ED46F020E0001D76F000ED66F5F
:102A38000001E22B12000001A8510DE1510E000126
:102A4800A75DD8B008D00001AA5105E1510E0001D8
:102A5800A95DD8A00DD00001E52B020E0001D36FAF
:102A6800000ED26F020E0001D96F000ED86F12004F
:102A78000001A3510001A51100019F6F0001A4519D
:102A88000001A6110001A06F00019F510001A011D3
:102A9800D8B435D00001E32B0001A7510001A811DB
:102AA800D8B411D00001A9510001AA11D8B40BD093
:102AB800020E0001D56F000ED46F020E0001D76F11
:102AC800000ED66F12000001A5510001A611D8B45E
:102AD8000BD0020E0001D56F000ED46F020E00015C
:102AE800D96F000ED86F1200020E0001D76F000ECA
:102AF800D66F020E0001D36F000ED26F1200020EC5
:102B08000001D36F000ED26F020E0001D96F000EC4
:102B1800D86F0001E52B12001F6E2A0E1E18D8A4CC
:102B280053D0020E0001FC19D8A446D0010E0001B2
:102B3800FC6FD58ECD80010E0001EE6F91EC1AF07E
:102B4800000E036ED00E026E7CEC1AF0000E036EBF
:102B5800000E026E7CEC1AF08DEC1AF091EC1AF073
:102B6800000E036ED10E026E7CEC1AF0000E206E81
:102B7800050E206401D00ED02050010DC40EF324A0
:102B8800D96E000EF420DA6E010EC0EC19F0DF6E7B
:102B9800202AEED7000EC0EC19F00001CA6F8DECA8
:102BA8001AF0800E71EC1AF0450E0D6EFF0E0E6EC7
:102BB80081EC0EF08A8012000001FC51D8A41200AA
:102BC800020E0001FC6F12000001FC05D8A407D01A
:102BD800230E1E18D8A412008CEC11F0120000016C
:102BE800FC51D8B412001D501E18D8A40CD0020EE7
:102BF8000001FC19D8A404D00F0E0001FC6F1200CC
:102C08000001FC0712001F501E18D8A412000F0E56
:102C18000001FC19D8A404D0020E0001FC6F1200B8
:102C28000001FC2B1200000E0001856F000183AF2C
:102C380008D00001826D831FD8B0832B010E0001DC
:102C4800856F000181AF08D00001806D811FD8B069
:102C5800812B010E0001851B000E0001876F000EFD
:102C6800866F0001825100018311D8B42CD0010E67
:102C78000001846F06D00001D890823783370001A5
:102C8800842B000183AFF7D70001D89086378737A8
:102C9800000182510001805D0001835100018159CA
:102CA800D8A00AD0000182510001805F0001835141
:102CB8000001815B000186810001D8908333823353
:102CC8000001842FE1D7000185510001D8B405D057
:102CD8000001866D871FD8B0872B86C080F087C01B
:102CE80081F01200000E0001886F000E896F000E3F
:102CF8008A6F000E8B6F000184510001851100015D
:102D0800861100018711D8B442D0010E00018C6FE2
:102D180008D00001D8908437853786378737000177
:102D28008C2B000187AFF5D70001D89088378937F9
:102D38008A378B37000184510001805D000185517D
:102D48000001815900018651000182590001875113
:102D580000018359D8A012D0000184510001805F7E
:102D6800000185510001815B000186510001825BF1
:102D7800000187510001835B000188810001D89020
:102D8800873386338533843300018C2FCDD788C0B1
:102D980080F089C081F08AC082F08BC083F0120075
:102DA800000E326E000181AF07D00001806D811FD7
:102DB800D8B0812B010E326E000183AF05D000011F
:102DC800826D831FD8B0832B0001825100018311CB
:102DD800D8B423D0010E316E05D00001D8908237C7
:102DE8008337312A000183AFF8D7000182510001EF
:102DF800805D0001835100018159D8A008D00001ED
:102E080082510001805F000183510001815B000154
:102E1800D89083338233312EE8D73250D8B405D0D6
:102E28000001806D811FD8B0812B80C080F081C0E7
:102E380081F01200000E066E04AE06D0036C041E6C
:102E4800D8B0042A010E066E02AE06D0016C021E2E
:102E5800D8B0022A010E061A000E086E000E076E80
:102E680003500410D8B41CD0010E056E04D0D890BD
:102E780003360436052A04AEFAD7D8900736083642
:102E88000350015C04500258D8A005D00350015EDD
:102E98000450025A0780D89004320332052EEDD729
:102EA8000650D8B404D0076C081ED8B0082A07C04A
:102EB80001F008C002F01200000E066E02AE06D045
:102EC800016C021ED8B0022A010E066E04AE04D0B0
:102ED800036C041ED8B0042A03500410D8B418D0C8
:102EE800010E056E04D0D89003360436052A04AEC8
:102EF800FAD70350015C04500258D8A004D00350FC
:102F0800015E0450025AD89004320332052EF1D7DC
:102F18000650D8B404D0016C021ED8B0022A01C0F1
:102F280001F002C002F01200000E336E000E326E85
:102F38000001825100018311D8B427D0010E316EEF
:102F480005D00001D89082378337312A000183AF3A
:102F5800F8D7D89032363336000182510001805DAF
:102F68000001835100018159D8A009D00001825184
:102F78000001805F000183510001815B3280000104
:102F8800D89083338233312EE4D732C080F033C0F7
:102F980081F01200940EF66E340EF76E000EF86E85
:102FA80000EEEFF010EE0EF00900F5CFEEFFE55061
:102FB800E150FAE15C0EF66E340EF76E000EF86E14
:102FC80000EE34F010EE13F00900F5CFEEFFE550F7
:102FD800E150FAE100EEC4F02B0EEE6AE806FDE1DE
:102FE80000EE47F0080EEE6AE806FDE14F904F92BA
:102FF800000EF86E00018CEF05F00001865100010B
:103008008711D8B426D0010E0001886F06D00001C0
:10301800D890863787370001882B000187AFF7D70C
:10302800000186510001845D000187510001855926
:10303800D8A008D0000186510001845F00018751A3
:103048000001855B0001D890873386330001882F03
:10305800E7D784C084F085C085F01200000EC76EE3
:10306800280EC66E000EC56E800E0001806F960E8B
:10307800816F980E826F000E836F8DC091F08EC0A5
:1030880092F08FC093F090C094F0020ED890000197
:103098009137923793379437E82EF8D791C084F058
:1030A80092C085F093C086F094C087F076EC16F055
:1030B80000018005C86E948694881200000E066E82
:1030C800000E056E03500410D8B41CD0010E076E14
:1030D80004D0D89003360436072A04AEFAD7D8901D
:1030E800053606360350015C04500258D8A005D0B6
:1030F8000350015E0450025A0580D890043203320E
:10310800072EEDD705C001F006C002F01200326E9E
:103118003250F00B316E8C500F0B8C6E31508C107E
:103128008C6E8C96190EE82EFED78C86190EE82E1A
:10313800FED73238F00B326E3250F00B316E8C50B5
:103148000F0B8C6E31508C108C6E8C96190EE82EED
:10315800FED78C86190EE82EFED71200026E02509A
:10316800F00B016E8C500F0B8C6E01508C108C6E16
:103178008C96190EE82EFED78C86190EE82EFED7EF
:103188000238F00B026E0250F00B016E8C500F0BE0
:103198008C6E01508C108C6E8C96190EE82EFED712
:1031A8008C86190EE82EFED71200310E0001806FB2
:1031B800B20EE82EFED7802FFCD700F0330E65EC58
:1031C8001AF0320E65EC1AF0280E65EC1AF00F0EA4
:1031D80065EC1AF0060E65EC1AF0010E65EC1AF0B3
:1031E800310E0001806FB20EE82EFED7802FFCD77B
:1031F80000F012000A500B10D8B418D0010E0C6E53
:1032080004D0D8900A360B360C2A0BAEFAD70A50DF
:10321800085C0B500958D8A004D00A50085E0B501F
:10322800095AD8900B320A320C2EF1D708C008F090
:1032380009C009F012000001855105E10A0E0001DC
:10324800845DD8A010D084C080F085C081F0000EC5
:103258000001836F0A0E826F98EC17F080C084F02B
:1032680081C085F01200000E0001856F000E846F8A
:1032780012000001855105E1640E0001845DD8A0AB
:1032880010D084C080F085C081F0000E0001836FEB
:10329800640E826F98EC17F080C084F081C085F0CE
:1032A8001200000E0001856F000E846F12000001ED
:1032B800805100018203F3CF31F0F4CF32F00001E6
:1032C800805100018303F35032260001815100012F
:1032D8008203F350322631C080F032C081F01200F0
:1032E8003250AA6E31C0A9FF33C0A8FFA69EA69C83
:1032F800A684550EA76EAA0EA76EA682A1A8FED711
:10330800A198A6941200326E38EC1AF0C58638ECF3
:103318001AF0C9CF33F038EC1AF03250D8A402D0E2
:10332800C58A01D0C59AC588335012000250AA6ECA
:1033380001C0A9FF03C0A8FFA69EA69CA684550E9F
:10334800A76EAA0EA76EA682A1A8FED7A198A694DA
:10335800120001500302F3CF05F0F4CF06F001503C
:103368000402F350062602500302F350062605C055
:1033780001F006C002F01200026E41EC1AF0C58698
:1033880041EC1AF0C9CF03F041EC1AF00250D8A46E
:1033980002D0C58A01D0C59AC5880350120089C0D9
:1033A80084F08AC085F0000E0001876F0A0E866FD0
:1033B80001EC18F084C089F085C08AF01200336EE1
:1033C800000E326E3A0E336005D02F0E336402D0F1
:1033D800010E326E32C031F031301200036E000E31
:1033E800026E3A0E036005D02F0E036402D0010E60
:1033F800026E02C001F00130120031C047F032C045
:1034080048F047504810D8B412000001FC05D8A471
:103418001200F7D73250AA6E31C0A9FFA69EA69C0B
:10342800A680A6B0FED7A85012000250AA6E01C00E
:10343800A9FFA69EA69CA680A6B0FED7A8501200FB
:10344800316E3144E846FC0BC26EC280C282C2A211
:103458001200FDD720202F20202F20202020203AC6
:0734680020203A20200000A3
:10347000C7B4FED7C5CF31F01F0E3116D8B4120035
:10348000F7D7C7B4FED7C5CF01F01F0E0116D8B4C9
:103490001200F7D7202020202020202020202020CC
:1034A0002002080E3124316E000E3220326E1200DE
:1034B000080E0124016E000E0220026E1200336E0F
:1034C0008C8433508BEC18F01200336E8C94335094
:1034D0008BEC18F01200036E8C840350B2EC18F0E1
:1034E0001200036E8C940350B2EC18F0120038EC0A
:1034F0001AF032C0C9FF120041EC1AF002C0C9FF35
:10350000120000018B51300F120038EC1AF0C58404
:10351000120038EC1AF0C580120041EC1AF0C58494
:0A352000120041EC1AF0C580120001
:10FC9400004E756D626572206F6620647261696ED4
:10FCA40065642062617474657269657320736F7230
:10FCB4007465643A2000546F74616C206E756D62D3
:10FCC4006572206F66206261747465726965732061
:10FCD400736F727465643A20005365636F6E647366
:10FCE4002074686520736F7274696E67206C617329
:10FCF40074656420666F723A20004E756D62657299
:10FD0400206F662041412062617474657269657375
:10FD140020736F727465643A20004E756D6265726B
:10FD2400206F662039562062617474657269657348
:10FD340020736F727465643A200054696D652061A4
:10FD44006E642064617465206F66206C6173742036
:10FD5400736F7274696E673A20004E756D626572D6
:10FD6400206F662043206261747465726965732034
:10FD7400736F727465643A2000313233413435361E
:10FD840042373839432A3023440001000A00640012
:10FD9400E803102701001000000100102530326430
:10FDA4003A253032642020202020202020202020CA
:10FDB4002020202000253032782F253032782F253E
:10FDC4003032782020202020202020002530327856
:10FDD4003A253032783A25303278202020202020ED
:10FDE400202000444154453A20253032782F2530D4
:10FDF40032782F2530327820200054494D453A205E
:10FE0400253032783A253032783A2530327820203D
:10FE14000041413A2530326420433A25303264208F
:10FE240039563A25303264004241545445524945CA
:10FE3400533A2025303264202020202000583A25CF
:10FE44003032642054494D453A25647320202020E3
:10FE5400004241545445524945533A2025303264B6
:10FE6400202020003031323334353637383961625E
:10FE7400636465660020202020202020202020208C
:10FE840020202020200023204F4620432020202013
:10FE94002020202020200023204F462041412020E4
:10FEA400202020202020200023204F4620395620C7
:10FEB40020202020202020200025346420253264A6
:10FEC400202020202020202020004C415354205268
:10FED400554E3A2020202020202000253034642054
:10FEE400253034642020202020202000544F544109
:10FEF4004C2023204F462020202020200050524513
:10FF04005353202A20544F20202020202000544FD7
:10FF140020434F4E54494E55452020202020002395
:10FF2400204F4620445241494E4544202020200081
:10FF3400444F4E4521205052455353202A2020201F
:10FF44000052554E4E494E473A2030303A30302018
:10FF54002000544F54414C2052554E2054494D4595
:10FF64003A2000203C544F47474C4520204C4F47F3
:10FF7400533E200053454E44204441544120544FA5
:10FF840020504320005045524D414E454E54204C84
:10FF94004F4720413A005045524D414E454E542062
:10FFA4004C4F4720423A005045524D414E454E5425
:10FFB400204C4F4720433A005045524D414E454E48
:10FFC40054204C4F4720443A003C20544F47474C60
:10FFD4004520204C4F4753203E0050524553532058
:10FFE4002A20544F20535441525400253034642065
:0BFFF400253034642025303464000008
:020000040020DA
:08000000FFFFFFFFFFFFFFFF00
:020000040030CA
:0E000000FF021F1EFF8381FF0FC00FE00F40A5
:00000001FF
