:0400000007EF00F016
:1000080063820CED04F054EF09F0030E926EF20EC9
:10001800936E000E946E000E956E000E966E000E96
:10002800896E000E8A6E000E8B6E000E8C6E000EAE
:100038008D6E000EC26E0E0EC16EB10EC06EF28EC7
:10004800F28CF086F090F28AF2949D809E90070ED2
:10005800D56ED90ED76EDA0ED66E800ECD6EBB0E6B
:10006800CF6EA30ECE6EF5EC08F0100E266E270E9E
:10007800276E000E286E000E296E78EC08F0F28EBE
:1000880048D0F29E800ECCEC09F0DC0E256EFF0EF7
:10009800266E86EC02F0C00ECCEC09F0ED0E256E53
:1000A800FF0E266E86EC02F0F28E000E3D6E310ECB
:1000B8003D6401D00ED0020E6218D8A40AD0210ED9
:1000C8003B6E760EE82EFED73B2EFCD700D03D2A9D
:1000D800EED7800ECCEC09F0C00ECCEC09F0CB0EBC
:1000E800256EFF0E266E86EC02F0000E3E6E310E77
:1000F8003E6401D00ED0020E6218D8A40AD0210E98
:100108003B6E760EE82EFED73B2EFCD700D03E2A5B
:10011800EED7020E6218D8A4AED0B3D7800ECCECBE
:1001280009F0540E256EFF0E266E86EC02F0C00E06
:10013800CCEC09F0ED0E256EFE0E266E4CC027F0B5
:10014800286A86EC02F0000EF8EC06F01D501E102E
:10015800D8A491D0C350C4CF3BF03C6A3BC03CF01C
:100168003B6A3B26000E3C223CBE06D03C5003E1D5
:10017800C80E3B5CD8B07FD0898E86EC05F0899E8E
:100188005D50D8B402D08B82CD805550D8B407D0FA
:1001980089848996010E5B6E010E5F6ECD80565084
:1001A800D8B407D089848996040E5B6E010E5E6E02
:1001B800CD805750D8B407D08A808A94010E5C6EDF
:1001C800010E616ECD805850D8B407D08A808A94C9
:1001D800040E5C6E010E606ECD805D505510571098
:1001E800561058100009D8B403D06204D8B4F5D713
:1001F800000E486E010E476E47504810D8B403D021
:100208006204D8B4F9D75EC055F05FC056F060C03C
:1002180057F061C058F05D505510571056105810DF
:100228000009D8B403D06204D8B4F5D7CD908B9424
:10023800899489968998899A8A908A948A96899CB9
:100248004A504BC03BF03C6A3B26000E3C224950CA
:100258003B26000E3C224C503B26000E3C223CBE66
:100268000AD03C5004E10F0E3B5CD8A004D0000E2D
:10027800626E4CEC06F06204D8A413D04FD7800EFF
:10028800CCEC09F0980E256EFF0E266E86EC02F077
:10029800C00ECCEC09F0760E256EFF0E266E86ECAD
:1002A80002F06250D8A41BD0EAD7F29E800ECCECA4
:1002B80009F0BA0E256EFF0E266E86EC02F0C00E0F
:1002C800CCEC09F07E0E256EFE0E266E4EC027F091
:1002D800286A59C029F02A6A86EC02F0F28E030EC9
:1002E8006218D8A418D0E1D7F29E800ECCEC09F0A1
:1002F800650E256EFF0E266E86EC02F0C00ECCEC65
:1003080009F0DA0E256EFE0E266E51C027F0286A17
:1003180086EC02F0F28E040E6218D8A418D0E4D746
:10032800F29E800ECCEC09F0210E256EFF0E266E93
:1003380086EC02F0C00ECCEC09F0DA0E256EFE0E4B
:10034800266E52C027F0286A86EC02F0F28E050E5F
:100358006218D8A418D0E4D7F29E800ECCEC09F02D
:10036800430E256EFF0E266E86EC02F0C00ECCEC16
:1003780009F0C50E256EFE0E266E4FC027F0286ABE
:1003880086EC02F0F28E060E6218D8A418D0E4D7D4
:10039800F29E800ECCEC09F0320E256EFF0E266E12
:1003A80086EC02F0C00ECCEC09F0C50E256EFE0EF0
:1003B800266E50C027F0286A86EC02F0F28E070EEF
:1003C8006218D8A418D0E4D7F29E800ECCEC09F0BD
:1003D800870E256EFF0E266E86EC02F0C00ECCEC62
:1003E80009F0C50E256EFE0E266E53C027F0286A4A
:1003F80086EC02F0F28E080E6218D8A457D0E4D723
:10040800DBEC09F0000E1B6ED00E1A6ED2EC09F070
:10041800000E1B6E000E1A6ED2EC09F0D7EC09F034
:10042800DBEC09F0000E1B6ED10E1A6ED2EC09F04F
:10043800000E3F6E050E3F6401D00ED03F50010DF7
:10044800400EF324D96E000EF420DA6E010E91EC02
:1004580009F0DF6E3F2AEED7000E91EC09F0466EE8
:10046800D7EC09F0800ECCEC09F0970E256EFE0E45
:10047800266E46C027F0286A45C029F02A6A44C07B
:100488002BF02C6A86EC02F0C00ECCEC09F0AE0E14
:10049800256EFE0E266E42C027F0286A41C029F05C
:1004A8002A6A40C02BF02C6A86EC02F0090E62180A
:1004B800D8A423D0A5D7F29E800ECCEC09F0A90EC3
:1004C800256EFF0E266E86EC02F0C00ECCEC09F00D
:1004D800100E256EFF0E266E86EC02F01A0E3C6E8C
:1004E8005E0E3B6E6E0EE82EFED73B2EFCD73C2EE2
:1004F800FAD700D0020E626EF28E0A0E6218D8A4E5
:1005080008D6D9D7270E326E000E336E74D1250E59
:100518003A18D8B404D03A50C6EC09F06CD1000EA1
:10052800396E000E386E000E376E03D03784254AB8
:10053800262A25C0F6FF26C0F7FF0800F550300A26
:10054800D8B4F4D725C0F6FF26C0F7FF0800F55049
:10055800A4EC09F0D8A035D0000E396E000E386E24
:1005680038C019F039C01AF0000E1C6E0A0E1B6E46
:100578007EEC09F019C038F01AC039F0D00E2D6E93
:10058800FF0E2E6E25C0F6FF26C0F7FF0800F550B7
:100598002F6E306A2D502F262E5030222F5038269D
:1005A80030503922254A262A25C0F6FF26C0F7FFF3
:1005B8000800F550A4EC09F0D8A003D0D1D7378EA5
:1005C80017D025C0F6FF26C0F7FF254A262A0800BF
:1005D800F5CF3AF03A50000AD8B41200640AD8B4F9
:1005E80007D00D0AD8B404D0110AD8B4E8D703D17B
:1005F80037BE15D032C0D9FF33C0DAFFDECF35F0B1
:10060800DDCF36F0020E3226000E332236AE44D04D
:10061800030E3712356C361ED8B0362A3DD032C09C
:10062800D9FF33C0DAFFDECF35F0DDCF36F0020E6A
:100638003226000E332230D0010E3A6E050E3A18DB
:10064800D8B432D03A50020D6C0EF324F66EFE0E7A
:10065800F420F76E0900F550355C0900F55036585E
:10066800D8A022D03A2AEAD7010E3A6E040E3A18D8
:10067800D8B41AD03A50020D760EF324F66EFE0E58
:10068800F420F76E0900F550355C0900F55036582E
:10069800D8A00AD03A2AEAD73750800B000AD8B433
:1006A800CBD7800AD8B4E0D738503910D8B409D09D
:1006B80037C02DF0030E2D16D8B403D03806D8A0B5
:1006C8003906800E3ABE7F0E2D6E38503A5C39508E
:1006D800800A2D58D8B007D03A50385E000E3ABE7E
:1006E800FF0E395A04D0000E396E000E386E37A44A
:1006F80014D037C02DF0030E2D16D8B403D02D0E0C
:10070800C6EC09F038503910D8B41ED0300EC6ECFB
:1007180009F03806D8A03906F5D738503910D8B4BA
:100728000AD0200EC6EC09F03806D8A03906385091
:100738003910D8A4F6D737C02DF0030E2D16D8B42B
:1007480003D02D0EC6EC09F03AC034F050D0345026
:10075800020D6C0EF324F66EFE0EF420F76E0900FF
:10076800F5CF1BF00A00F5CF1CF035C019F036C0E4
:100778001AF0A5EC08F019C020F01AC021F0000EFC
:10078800236E0A0E226E18EC09F02050300F3A6ED4
:100798002BD035C019F036C01AF03450020D760E41
:1007A800F324F66EFE0EF420F76E0900F5CF1BF069
:1007B8000A00F5CF1CF0A5EC08F019500F0B316EAC
:1007C8003150010DFF0EF324F66EFE0EF420F76E85
:1007D8000800F5CF3AF008D03750800B000AD8B49B
:1007E800B6D7800AD8B4D5D73A50C6EC09F0340643
:1007F8003428D8A4F1D725C0F6FF26C0F7FF254A2C
:10080800262A0800F5CF3AF03A50D8B412007FD61D
:100818000600FACF0AF0FBCF0BF0E9CF0CF0EACFD5
:100828000DF0E1CF0EF0E2CF0FF0D9CF10F0DACF14
:1008380011F0F3CF12F0F4CF13F0F6CF14F0F7CF96
:1008480015F0F8CF16F0F5CF17F0F0A049D08138A1
:100858000F0B0F0B186E1850010D5B0EF324F66E7C
:10086800FE0EF420F76E0800F5502A0AD8A40FD01F
:10087800020E6218D8A405D0010E626ED58ECD90F6
:100888002ED06250D8A42BD0020E626E28D06204FB
:10089800D8A412D01850010D5B0EF324F66EFE0E8C
:1008A800F420F76E0800F550230AD8A418D00A0ED1
:1008B800626EA2EC06F013D06250D8B410D0360E97
:1008C800016E1850010D5B0EF324F66EFE0EF42037
:1008D800F76E0800F5CF02F0340E39EC09F0F0900D
:1008E8006204D8B4F2A418D0F294D90ED76EDA0EF6
:1008F800D66E542AB30E546404D0000E626EA2EC75
:1009080006F08BA002D08B9007D05A2A030E5A64A7
:1009180003D0000E5A6E8B806204D8B49EA0D4D047
:100928009E90BB0ECF6EA30ECE6E5D50D8B418D07D
:100938005D2A840E5D6407D08BB202D0000E02D00F
:100948008B92010E5D6E8BB403D0096A092A01D01F
:10095800096A094609468B500918FB0B09188B6E62
:1009680047504810D8B40CD0474A482A1E0E475C56
:10097800010E4858D8A004D0000E486E000E476EED
:100988005550D8B426D05B04D8A402D0898A899857
:10099800020E5B18D8A402D089948986030E5B18CE
:1009A800D8A402D0899A8988040E5B18D8A402D0EA
:1009B80089848996552AC70E556404D0000E556E51
:1009C800000E04D0030E5B6403D0010E5B6E01D0F1
:1009D8005B2A5650D8B426D0040E5B18D8A402D08F
:1009E800899A8988030E5B18D8A402D089948986CD
:1009F800020E5B18D8A402D0898A89985B04D8A40F
:100A080002D089848996562AC70E566404D0000EEF
:100A1800566E000E04D0020E5B6003D0040E5B6EAF
:100A280001D05B065750D8B426D05C04D8A402D0B5
:100A3800898C8A96020E5C18D8A402D08A908A847F
:100A4800030E5C18D8A402D0899C8A86040E5C1810
:100A5800D8A402D08A808A94572AC70E576404D033
:100A6800000E576E000E04D0030E5C6403D0010E16
:100A78005C6E01D05C2A5850D8B426D0040E5C189D
:100A8800D8A402D0899C8A86030E5C18D8A402D008
:100A98008A908A84020E5C18D8A402D0898C8A961F
:100AA8005C04D8A402D08A808A94582AC70E586455
:100AB80004D0000E586E000E04D0020E5C6003D005
:100AC800040E5C6E01D05C0617C0F5FF16C0F8FF77
:100AD80015C0F7FF14C0F6FF13C0F4FF12C0F3FFF0
:100AE80011C0DAFF10C0D9FF0FC0E2FF0EC0E1FF4E
:100AF8000DC0EAFF0CC0E9FF0BC0FBFF0AC0FAFFFC
:100B080063921100010E5D6E8D82010EF8EC06F005
:100B18001D501E10D8A420D0C350C4CF27F0286A77
:100B280027C028F0276A2726000E282228BE0DD0C5
:100B38000F0E275C030E2858D8A007D08D92492A9B
:100B4800010E566E010E576E12008D924C2A010E40
:100B5800556E010E586E12008D928B8A010EF8ECBC
:100B680006F01D501E10D8A420D0C350C4CF27F0C3
:100B7800286A27C028F0276A2726000E282228BEC0
:100B88000DD00F0E275C030E2858D8A007D08B9ADB
:100B9800492A010E566E010E576E12008B9A4C2A86
:100BA800010E556E010E586E12008B9A8D80010E43
:100BB800F8EC06F01D501E10D8A420D0C350C4CFA6
:100BC80027F0286A27C028F0276A2726000E28223F
:100BD80028BE0DD0050E275C010E2858D8A007D0D6
:100BE8008D904B2A010E566E010E576E12008D9095
:100BF8004C2A010E556E010E586E12008D908C8095
:100C0800010EF8EC06F01D501E10D8A41BD0C350DE
:100C1800C4CF27F0286A27C028F0276A2726000EA5
:100C2800282228BE0BD0050E275C010E2858D8A014
:100C380005D08C904A2A010E566E04D08C904C2A0E
:100C4800010E556E8C908C82010EF8EC06F01D504A
:100C58001E10D8A41BD0C350C4CF27F0286A27C0C1
:100C680028F0276A2726000E282228BE0BD0050E5A
:100C7800275C010E2858D8A005D08C924A2A010E6C
:100C8800576E04D08C924C2A010E586E8C9212002A
:100C9800D59ECD90D90ED76EDA0ED66EBB0ECF6E1E
:100CA800A30ECE6E49C04FF04BC052F04AC050F070
:100CB8004CC053F0000E496E000E4B6E000E4A6E8B
:100CC800000E4C6E54C019F01A6A000E1C6E3C0ED1
:100CD8001B6E43EC07F019504E6E54C019F01A6A97
:100CE800000E1C6E3C0E1B6E08EC08F01950596E75
:100CF800000E546E000E5A6E000E4D6E000E486EB9
:100D0800000E476E000E5D6E000E556E000E566E9C
:100D1800000E576E000E586E8D908D928B9A8C90A7
:100D28008C92899489968998899A8A908A948A96C5
:100D3800899C8B92899E8B948B901200D59ECD9026
:100D4800D90ED76EDA0ED66EBB0ECF6EA30ECE6E50
:100D580049C04FF04BC052F04AC050F04CC053F05D
:100D6800000E496E000E4B6E000E4A6E000E4C6E61
:100D780054C001F0026A000E046E3C0E036E85EC4E
:100D880007F001504E6E54C001F0026A000E046E66
:100D98003C0E036E40EC08F00150596E000E546E84
:100DA800000E5A6E000E4D6E000E486E000E476E15
:100DB800000E5D6E000E556E000E566E000E576EDC
:100DC800000E586E8D908D928B9A8C908C9289948F
:100DD80089968998899A8A908A948A96899C8B920E
:100DE800899E8B948B901200256E2550B3EC09F0E8
:100DF800C450206E1F6AC3501F24236E000E20208B
:100E0800246E000E266E310E266401D033D0040EF7
:100E18001F6E3E0EE82EFED71F2EFCD72550B3ECD2
:100E280009F023C01FF024C020F01F1E201E1F4AF7
:100E3800202AC350C4CF21F0226A21C022F0216A9F
:100E48002126000E22221F502124196E2050222014
:100E58001A6E6AEC09F01ABE0BD01A5004E1150E8E
:100E6800195CD8A005D0000E1E6E010E1D6E120072
:100E7800262AC9D7000E1E6E000E1D6E1200000E27
:100E88001E6E1CAE06D01B6C1C1ED8B01C2A010E90
:100E98001E6E1AAE06D0196C1A1ED8B01A2A010E88
:100EA8001E1A000E206E000E1F6E1B501C10D8B4A8
:100EB8001CD0010E1D6E04D0D8901B361C361D2A7E
:100EC8001CAEFAD7D8901F3620361B50195C1C5020
:100ED8001A58D8A005D01B50195E1C501A5A1F80EA
:100EE800D8901C321B321D2EEDD71E50D8B404D01A
:100EF8001F6C201ED8B0202A1FC019F020C01AF07D
:100F08001200000E066E04AE06D0036C041ED8B0A4
:100F1800042A010E066E02AE06D0016C021ED8B07D
:100F2800022A010E061A000E086E000E076E035004
:100F38000410D8B41CD0010E056E04D0D890033626
:100F48000436052A04AEFAD7D89007360836035077
:100F5800015C04500258D8A005D00350015E04502B
:100F6800025A0780D89004320332052EEDD7065076
:100F7800D8B404D0076C081ED8B0082A07C001F0FE
:100F880008C002F01200000E216E000E226E000E44
:100F9800236E000E246E1D501E101F102010D8B492
:100FA8002AD0010E256E06D0D8901D361E361F3663
:100FB8002036252A20AEF8D7D89021362236233677
:100FC80024361D50195C1E501A581F501B582050AB
:100FD8001C58D8A009D01D50195E1E501A5A1F500F
:100FE8001B5A20501C5A2180D89020321F321E32A2
:100FF8001D32252EE1D721C019F022C01AF023C0D6
:101008001BF024C01CF01200000E1E6E1AAE06D093
:10101800196C1A1ED8B01A2A010E1E6E1CAE04D006
:101028001B6C1C1ED8B01C2A1B501C10D8B418D01E
:10103800010E1D6E04D0D8901B361C361D2A1CAE1E
:10104800FAD71B50195C1C501A58D8A004D01B5052
:10105800195E1C501A5AD8901C321B321D2EF1D71B
:101068001E50D8B404D0196C1A1ED8B01A2A19C048
:1010780019F01AC01AF01200000E066E02AE06D061
:10108800016C021ED8B0022A010E066E04AE04D00E
:10109800036C041ED8B0042A03500410D8B418D026
:1010A800010E056E04D0D89003360436052A04AE26
:1010B800FAD70350015C04500258D8A004D003505A
:1010C800015E0450025AD89004320332052EF1D73B
:1010D8000650D8B404D0016C021ED8B0022A01C050
:1010E80001F002C002F01200000EC76E280EC66E94
:1010F800000EC56E800E196E960E1A6E980E1B6E37
:10110800000E1C6E26C02AF027C02BF028C02CF039
:1011180029C02DF0020ED8902A362B362C362D36C3
:10112800E82EF9D72AC01DF02BC01EF02CC01FF0E6
:101138002DC020F0C7EC07F01904C86E9486948877
:101148001200000E1E6E000E1D6E1B501C10D8B42F
:101158001CD0010E1F6E04D0D8901B361C361F2AD7
:101168001CAEFAD7D8901D361E361B50195C1C5081
:101178001A58D8A005D01B50195E1C501A5A1D8049
:10118800D8901C321B321F2EEDD71DC019F01EC07F
:101198001AF012001A6E1A50F00B196E8C500F0BC1
:1011A8008C6E19508C108C6E8C96190EE82EFED70A
:1011B8008C86190EE82EFED71A38F00B1A6E1A50C4
:1011C800F00B196E8C500F0B8C6E19508C108C6EA6
:1011D8008C96190EE82EFED78C86190EE82EFED7AF
:1011E8001200310E1C6EB20EE82EFED71C2EFCD754
:1011F80000D0330ECCEC09F0320ECCEC09F0280EFE
:10120800CCEC09F00F0ECCEC09F0060ECCEC09F092
:10121800010ECCEC09F0310E1C6EB20EE82EFED792
:101228001C2EFCD700D0120022502310D8B418D09E
:10123800010E246E04D0D89022362336242A23AEF9
:10124800FAD72250205C23502158D8A004D022502D
:10125800205E2350215AD89023322232242EF1D7EF
:1012680020C020F021C021F01200036E01500218A6
:10127800D8A409D0020E6218D8A403D0090E626E51
:1012880012006206120003500218D8A41200090EB8
:101298006218D8A403D0020E626E1200622A1200ED
:1012A800BE0EF66E130EF76E000EF86E0900F5CF3F
:1012B80062F000EE40F0220EEE6AE806FDE163906F
:1012C8006392000EF86E000109EF00F01AAE0DD01F
:1012D80019C01BF01AC01CF01B1E1C1E1B4A1C2A1E
:1012E8001BC019F01CC01AF0120019C019F01AC05E
:1012F8001AF0120019501B02F3CF1DF0F4CF1EF0A4
:1013080019501C02F3501E261A501B02F3501E26B9
:101318001DC019F01EC01AF012001A6EBDEC09F0BB
:10132800C586BDEC09F0C9CF1BF0BDEC09F01A5019
:10133800D8A402D0C58A01D0C59AC5881B5012000E
:101348001B6E000E1A6E3A0E1B6005D02F0E1B6422
:1013580002D0010E1A6E1AC019F019301200196E57
:101368001944E846FC0BC26EC280C282C2A21200B7
:10137800FDD7C7B4FED7C5CF19F01F0E1916D8B4BC
:101388001200F7D71B6E8C841B50CEEC08F01200AD
:101398001B6E8C941B50CEEC08F01200BDEC09F0CB
:1013A8001AC0C9FF1200BDEC09F0C5841200BDECDB
:0713B80009F0C580120002DC
:10FE5A00003132334134353642373839432A302378
:10FE6A00440001000A006400E803102701001000A2
:10FE7A0000010010253032643A25303264202020F7
:10FE8A00202020202020202020202020004441540F
:10FE9A00453A20253032782F253032782F253032D6
:10FEAA007820200054494D453A20253032783A25A9
:10FEBA003032783A25303278202000424154544575
:10FECA00524945533A202530326420202020200010
:10FEDA004241545445524945533A20253032642010
:10FEEA0020200025326420202020202020202020CD
:10FEFA00202020200030313233343536373839610A
:10FF0A0062636465660020202020202020202020B3
:10FF1A002020202020200023204F4620432020207C
:10FF2A00202020202020200023204F46204141204D
:10FF3A0020202020202020200023204F4620395630
:10FF4A002020202020202020200052554E4E494EAD
:10FF5A00472E2E2E20202020202000544F54414C82
:10FF6A002023204F4620202020202000544F2043C9
:10FF7A004F4E54494E554520202020200023204F23
:10FF8A004620445241494E45442020202000444FF7
:10FF9A004E4521205052455353202A202020004507
:10FFAA004D455247454E43592053544F5020200047
:10FFBA00544F54414C2052554E2054494D453A20F5
:10FFCA0000203C3420202044415441202020363E49
:10FFDA00200053544152543A202020505245535342
:10FFEA00202A003C20342020204441544120202053
:05FFFA0036203E00006E
:020000040020DA
:08000000FFFFFFFFFFFFFFFF00
:020000040030CA
:0E000000FF021F1EFF8381FF0FC00FE00F40A5
:00000001FF
