:040000000BEF7AF098
:10F366000200CDEC79F0C5801200CDEC79F0C584B1
:10F376001200CDEC79F002C0C9FF1200036E8C9426
:10F3860003508DEC7AF01200036E8C8403508DECE2
:10F396007AF01200C7B4FED7C5CF01F01F0E0116D2
:10F3A600D8B41200F7D7036E000E026E3A0E036051
:10F3B60005D02F0E036402D0010E026E02C001F0CA
:10F3C60001301200026ECDEC79F0C586CDEC79F0F5
:10F3D600C9CF03F0CDEC79F00250D8A402D0C58A8B
:10F3E60001D0C59AC5880350120001500302F3CF1D
:10F3F60005F0F4CF06F001500402F3500626025041
:10F406000302F350062605C001F006C002F0120002
:10F41600660EF66EF30EF76E000EF86E0900F5CF67
:10F4260043F00900F5CF44F000EE3CF0070EEE6A1B
:10F43600E806FDE1000EF86E000128EF7DF00A50A7
:10F446000B10D8B418D0010E0C6E04D0D8900A3622
:10F456000B360C2A0BAEFAD70A50085C0B5009582B
:10F46600D8A004D00A50085E0B50095AD8900B3227
:10F476000A320C2EF1D708C008F009C009F01200B4
:10F48600036E01500218D8A40ED0020E4318441081
:10F49600D8A405D0000E446E080E436E1200430633
:10F4A600D8A04406120003500218D8A41200080E71
:10F4B60043184410D8A405D0000E446E020E436EC5
:10F4C6001200434A442A1200310E046EB20EE82E90
:10F4D600FED7042EFCD700D0330EC1EC79F0330EE4
:10F4E600C1EC79F0320EC1EC79F0280EC1EC79F05E
:10F4F6000F0EC1EC79F0060EC1EC79F0010EC1ECED
:10F5060079F0310E046EB20EE82EFED7042EFCD72B
:10F5160000D01200026E0250F00B016E8C500F0BE1
:10F526008C6E01508C108C6E8C96190EE82EFED7C0
:10F536008C86190EE82EFED70238F00B026E0250AA
:10F54600F00B016E8C500F0B8C6E01508C108C6E74
:10F556008C96190EE82EFED78C86190EE82EFED74D
:10F566001200000E066E000E056E03500410D8B48D
:10F576001CD0010E076E04D0D89003360436072A35
:10F5860004AEFAD7D890053606360350015C04500F
:10F596000258D8A005D00350015E0450025A0580D7
:10F5A600D89004320332072EEDD705C001F006C00D
:10F5B60002F01200000EC76E280EC66E000EC56E53
:10F5C600800E016E960E026E980E036E000E046E8D
:10F5D6000EC012F00FC013F010C014F011C015F0D9
:10F5E600020ED8901236133614361536E82EF9D791
:10F5F60012C005F013C006F014C007F015C008F0DD
:10F606000AEC7BF00104C86E948694881200000E02
:10F61600096E000E0A6E000E0B6E000E0C6E055083
:10F62600061007100810D8B42AD0010E0D6E06D0A9
:10F63600D89005360636073608360D2A08AEF8D7AE
:10F64600D89009360A360B360C360550015C065042
:10F6560002580750035808500458D8A009D005503E
:10F66600015E0650025A0750035A0850045A098090
:10F67600D89008320732063205320D2EE1D709C07E
:10F6860001F00AC002F00BC003F00CC004F0120037
:10F69600B4EC79F0000E036ED00E026EBCEC79F07D
:10F6A600000E036E000E026EBCEC79F0B8EC79F039
:10F6B600B4EC79F0000E036ED10E026EBCEC79F05C
:10F6C600000E236E050E236401D00ED02350010DCB
:10F6D6003C0EF324D96E000EF420DA6E010EE5EC32
:10F6E60079F0DF6E232AEED7000EE5EC79F0426E54
:10F6F600B8EC79F0800EC1EC79F0C70E0D6EFE0EF7
:10F706000E6E42C00FF0106A41C011F0126A40C07E
:10F7160013F0146AA2EC7BF0C00EC1EC79F0DE0E99
:10F726000D6EFE0E0E6E3EC00FF0106A3DC011F05B
:10F73600126A3CC013F0146AA2EC7BF012000F0EA2
:10F746001A6E000E1B6E74D1250E2218D8B404D082
:10F756002250C7EC79F06CD1000E216E000E206E9F
:10F76600000E1F6E03D01F840D4A0E2A0DC0F6FF31
:10F776000EC0F7FF0800F550300AD8B4F4D70DC014
:10F78600F6FF0EC0F7FF0800F550D6EC79F0D8A0CA
:10F7960035D0000E216E000E206E20C001F021C073
:10F7A60002F0000E046E0A0E036EF8EC79F001C04A
:10F7B60020F002C021F0D00E156EFF0E166E0DC0A1
:10F7C600F6FF0EC0F7FF0800F550176E186A1550C1
:10F7D60017261650182217502026185021220D4A97
:10F7E6000E2A0DC0F6FF0EC0F7FF0800F550D6EC46
:10F7F60079F0D8A003D0D1D71F8E17D00DC0F6FF51
:10F806000EC0F7FF0D4A0E2A0800F5CF22F022504F
:10F81600000AD8B41200640AD8B407D00D0AD8B4C6
:10F8260004D0110AD8B4E8D703D11FBE15D01AC028
:10F83600D9FF1BC0DAFFDECF1DF0DDCF1EF0020EB2
:10F846001A26000E1B221EAE44D0030E1F121D6C7C
:10F856001E1ED8B01E2A3DD01AC0D9FF1BC0DAFF23
:10F86600DECF1DF0DDCF1EF0020E1A26000E1B2283
:10F8760030D0010E226E050E2218D8B432D0225096
:10F88600020D9C0EF324F66EFE0EF420F76E0900B0
:10F89600F5501D5C0900F5501E58D8A022D0222A2A
:10F8A600EAD7010E226E040E2218D8B41AD02250BE
:10F8B600020DA60EF324F66EFE0EF420F76E090076
:10F8C600F5501D5C0900F5501E58D8A00AD0222A12
:10F8D600EAD71F50800B000AD8B4CBD7800AD8B419
:10F8E600E0D720502110D8B409D01FC015F0030E60
:10F8F6001516D8B403D02006D8A02106800E22BE45
:10F906007F0E156E2050225C2150800A1558D8B003
:10F9160007D02250205E000E22BEFF0E215A04D0D0
:10F92600000E216E000E206E1FA414D01FC015F00D
:10F93600030E1516D8B403D02D0EC7EC79F020505F
:10F946002110D8B41ED0300EC7EC79F02006D8A00E
:10F956002106F5D720502110D8B40AD0200EC7ECC6
:10F9660079F02006D8A0210620502110D8A4F6D779
:10F976001FC015F0030E1516D8B403D02D0EC7EC14
:10F9860079F022C01CF050D01C50020D9C0EF324BE
:10F99600F66EFE0EF420F76E0900F5CF03F00A00AE
:10F9A600F5CF04F01DC001F01EC002F0B4EC7AF0F1
:10F9B60001C008F002C009F0000E0B6E0A0E0A6EB6
:10F9C60022EC7AF00850300F226E2BD01DC001F0C9
:10F9D6001EC002F01C50020DA60EF324F66EFE0E9B
:10F9E600F420F76E0900F5CF03F00A00F5CF04F016
:10F9F600B4EC7AF001500F0B196E1950010D320E4E
:10FA0600F324F66EFF0EF420F76E0800F5CF22F011
:10FA160008D01F50800B000AD8B4B6D7800AD8B4D5
:10FA2600D5D72250C7EC79F01C061C28D8A4F1D7EC
:10FA36000DC0F6FF0EC0F7FF0D4A0E2A0800F5CFDF
:10FA460022F02250D8B412007FD6000E946E000E1B
:10FA5600956E9368000E8A6E000E8B6E000EC26E57
:10FA6600C16867EC7AF0100E0E6E270E0F6E000E50
:10FA7600106E000E116EDDEC7AF0F29E3CD0800E18
:10FA8600C1EC79F0DC0E0D6EFF0E0E6EA2EC7BF073
:10FA9600C00EC1EC79F0ED0E0D6EFF0E0E6EA2ECEF
:10FAA6007BF081A2FED781380F0B0F0B386E81B227
:10FAB600FED73850010D8B0EF324F66EFE0EF420A1
:10FAC600F76E0800F5502A0AD8A405D0000E446E39
:10FAD600010E436E10D0360E016E3850010D8B0E9E
:10FAE600F324F66EFE0EF420F76E0800F5CF02F052
:10FAF600340E43EC7AF0020E43184410D8A447D0D3
:10FB0600BED7800EC1EC79F0540E0D6EFF0E0E6E50
:10FB1600A2EC7BF0C00EC1EC79F0430E0D6EFF0E29
:10FB26000E6EA2EC7BF0000E396E630E396401D0C6
:10FB36000AD0210E246E760EE82EFED7242EFCD790
:10FB460000D0392AF2D7000E3A6E630E3A6401D01D
:10FB56000AD0210E246E760EE82EFED7242EFCD770
:10FB660000D03A2AF2D7000E3B6E630E3B6401D0FA
:10FB76000AD0210E246E760EE82EFED7242EFCD750
:10FB860000D03B2AF2D7000E446E000E436E4304AB
:10FB96004410D8A42CD0B5D7800EC1EC79F0A90EAC
:10FBA6000D6EFF0E0E6EA2EC7BF0C00EC1EC79F06E
:10FBB600760E0D6EFF0E0E6EA2EC7BF081A2FED7C6
:10FBC60081380F0B0F0B316E81B2FED73150010D0C
:10FBD6008B0EF324F66EFE0EF420F76E0800F55039
:10FBE6002A0AD8A404D0000E446E020E436E435077
:10FBF6004410D8A43BD0D0D7000E266E010E256E39
:10FC0600000E286E010E276E800EC1EC79F0BA0E3A
:10FC16000D6EFF0E0E6EA2EC7BF0C00EC1EC79F0FD
:10FC2600AE0E0D6EFE0E0E6E25C00FF026C010F045
:10FC360027C011F028C012F0A2EC7BF081A2FED7FB
:10FC460081380F0B0F0B326E81B2FED7360E016E66
:10FC56003250010D8B0EF324F66EFE0EF420F76E75
:10FC66000800F5CF02F0340E43EC7AF0030E431889
:10FC76004410D8A433D0C0D7000E2A6E060E296EC3
:10FC8600800EC1EC79F0CB0E0D6EFF0E0E6EA2EC5F
:10FC96007BF0C00EC1EC79F01F0E0D6EFF0E0E6EDE
:10FCA60029C00FF02AC010F0A2EC7BF081A2FED78B
:10FCB60081380F0B0F0B336E81B2FED7360E016EF5
:10FCC6003350010D8B0EF324F66EFE0EF420F76E04
:10FCD6000800F5CF02F0340E43EC7AF0040E431818
:10FCE6004410D8A433D0C8D7000E2C6E030E2B6E4A
:10FCF600800EC1EC79F0650E0D6EFF0E0E6EA2EC55
:10FD06007BF0C00EC1EC79F01F0E0D6EFF0E0E6E6D
:10FD16002BC00FF02CC010F0A2EC7BF081A2FED716
:10FD260081380F0B0F0B346E81B2FED7360E016E83
:10FD36003450010D8B0EF324F66EFE0EF420F76E92
:10FD46000800F5CF02F0340E43EC7AF0050E4318A6
:10FD56004410D8A433D0C8D7000E2E6E0A0E2D6ECE
:10FD6600800EC1EC79F0980E0D6EFF0E0E6EA2ECB1
:10FD76007BF0C00EC1EC79F0F50E0D6EFE0E0E6E28
:10FD86002DC00FF02EC010F0A2EC7BF081A2FED7A2
:10FD960081380F0B0F0B356E81B2FED7360E016E12
:10FDA6003550010D8B0EF324F66EFE0EF420F76E21
:10FDB6000800F5CF02F0340E43EC7AF0060E431835
:10FDC6004410D8A433D0C8D7000E306E020E2F6E62
:10FDD600800EC1EC79F0870E0D6EFF0E0E6EA2EC52
:10FDE6007BF0C00EC1EC79F00A0E0D6EFF0E0E6EA2
:10FDF6002FC00FF030C010F0A2EC7BF081A2FED72E
:10FE060081380F0B0F0B366E81B2FED7360E016EA0
:10FE16003650010D8B0EF324F66EFE0EF420F76EAF
:10FE26000800F5CF02F0340E43EC7AF0070E4318C3
:10FE36004410D8A421D0C8D74BEC7BF002D04BECB1
:10FE46007BF081A2FCD781380F0B0F0B376E02D0E7
:10FE56004BEC7BF081B2FCD7360E016E3750010DAC
:10FE66008B0EF324F66EFE0EF420F76E0800F5CF27
:10FE760002F0340E43EC7AF0080E43184410D8A46E
:10FE86003AD6DAD70031323341343536423738394B
:10FE9600432A3023440001000A006400E8031027C7
:10FEA6000100100000010010253032783A2530326A
:10FEB60078202020202020202020202020202020E4
:10FEC60000253032782F253032782F2530327820B1
:10FED6002020202020202000253032783A2530327C
:10FEE600783A253032782020202020202020004219
:10FEF60041545445524945533A2025303264202016
:10FF0600202020004241545445524945533A202569
:10FF16003032782020202020004241545445524956
:10FF260045533A20253032782020200030313233B4
:10FF360034353637383961626364656600202020BF
:10FF46002020202020202020202020202000525564
:10FF56004E4E494E472E2E2E202020202020004E89
:10FF6600554D424552204F46204320202020200058
:10FF7600544F20434F4E54494E55452020202020B3
:10FF8600004E554D424552204F46204141202020EB
:10FF960020004E554D424552204F462039562020CE
:10FFA600202000444F4E4521205052455353202ACD
:10FFB60020202000544F54414C2052554E20544985
:10FFC6004D453A2000544F54414C204E554D424524
:10FFD60052204F46200053544152543A202020507C
:10FFE60052455353202A004F5054494F4E533A20FE
:09FFF6002034204F522036000097
:020000040020DA
:08000000FFFFFFFFFFFFFFFF00
:020000040030CA
:0E000000FF021F1EFF8381FF0FC00FE00F40A5
:00000001FF
