:0400000007EF00F016
:10000800568261ED14F036EF19F02F0E926EF20E53
:10001800936E000E946E000E956E010E966E000E95
:10002800896E000E8A6E000E8B6E000E8C6E000EAE
:100038008D6E000EC26E090EC16EB10EC06E000E3E
:10004800B56EB496F28EF28CF086F090F28AF29445
:100058009D809E909D829E92070ED56ED90ED76E7A
:10006800DA0ED66E800ECD6EEC0ECF6E770ECE6E9B
:10007800020ECA6E9B0ECC6E4AEC1AF0F19E100E60
:1000880000018D6F270E8E6F000E8F6F000E906F20
:10009800CAEC19F0F28E56D0800EDFEC1BF0ED0E94
:1000A80000018C6FFF0E00018D6F59EC0CF0C00E33
:1000B800DFEC1BF0DC0E00018C6FFF0E00018D6F72
:1000C80059EC0CF0000E0001C06F310E0001C06544
:1000D80001D011D0020E0001FA19D8A40CD0210EBB
:1000E8000001BD6F760EE82EFED7BD2FFCD700F0BD
:1000F8000001C02BEAD7800EDFEC1BF0C00EDFEC4E
:100108001BF0650E00018C6FFF0E00018D6F59EC1E
:100118000CF0000E0001C16F310E0001C16501D065
:1001280011D0020E0001FA19D8A40CD0210E00013A
:10013800BD6F760EE82EFED7BD2FFCD700F000016C
:10014800C12BEAD7020E0001FA19D8A471D3A4D79B
:10015800800EDFEC1BF0C00EDFEC1BF0870E0001F9
:100168008C6FFF0E00018D6F59EC0CF00001EC5103
:10017800D8B4E9D0070E0001816FD00E806F7FECF4
:100188001BF0000E0001EC6F8C90000E0001E36F75
:10019800000E0001C76F16D00001C72B8C82110E0C
:1001A8000001BD6F3A0EE82EFED7BD2FFCD700F038
:1001B8008C92110E0001BD6F3A0EE82EFED7BD2FAE
:1001C800FCD700F0140E0001C76104D00001FA0545
:1001D800D8B4E2D7000E0001C76F14D00001C72BB6
:1001E8008C82070E0001BD6F7D0EE82EFED7BD2F55
:1001F800FCD78C92070E0001BD6F7D0EE82EFED74E
:10020800BD2FFCD7B20E0001C76104D00001FA056A
:10021800D8B4E4D7000E0001C76F16D00001C72B71
:100228008C82110E0001BD6F3A0EE82EFED7BD2F4D
:10023800FCD700F08C92110E0001BD6F3A0EE82E2B
:10024800FED7BD2FFCD700F0050E0001C76104D012
:100258000001FA05D8B4E2D7000E0001C76F8C8000
:1002680016D00001C72B8C82110E0001BD6F3A0E0B
:10027800E82EFED7BD2FFCD700F08C92110E00019E
:10028800BD6F3A0EE82EFED7BD2FFCD700F0030E47
:100298000001C76104D00001FA05D8B4E2D78C90F8
:1002A800000E0001C76F000E0001816F960E806F6F
:1002B8007FEC1BF08B8E000E0001816F640E806F47
:1002C8007FEC1BF08B9E000E0001D26F780ED16F71
:1002D800000E0001D46F780ED36F0001FA05D8A480
:1002E80012D00001D3510001D1110001BD6F0001EE
:1002F800D4510001D2110001BE6F0001BD510001AF
:10030800BE11D8A4EAD7000E0001D06F780ECF6FC7
:10031800000E0001D66F780ED56F0001FA05D8A43B
:1003280012D00001D5510001CF110001BD6F0001AD
:10033800D6510001D0110001BE6F0001BD5100016E
:10034800BE11D8A4EAD7000E8CEC1BF0C45004E10F
:10035800380EC35CD8A002D0010E01D0000E0001F7
:10036800BD6FC45006E1160EC35CD8B002D0010EB2
:1003780001D0000E0001BD11E8A0E8D1000E000177
:10038800816FFA0E806F7FEC1BF0010E536E8B8E1F
:10039800010E0001816FF40E806F7FEC1BF0DAEC28
:1003A80015F0CFC0D9F0D0C0DAF0D1C0D7F0D2C0A4
:1003B800D8F0D3C0DDF0D4C0DEF0D5C0DBF0D6C0B5
:1003C800DCF08B9E000E0001816F640E806F7FEC65
:1003D8001BF00001E451D8B405D0020E0001D26F21
:1003E800000ED16F0001CF510001D011D8B402D056
:1003F800010E546E0001D1510001D211D8B402D0BF
:10040800040E546E0001D3510001D411D8B402D0A7
:10041800010E556E0001D5510001D611D8B402D095
:10042800040E556E8B828B948B808D940001D35172
:100438000001CF110001BD6F0001D4510001D0119E
:100448000001BE6F0001D1510001BD130001D2515E
:100458000001BE130001D5510001BD130001D651A2
:100468000001BE130001BD510001BE11D8B404D073
:100478000001FA05D8B4DAD70001E451D8B40BD09A
:10048800020E0001D46F000ED36F010E556ED3C05B
:10049800DDF0D4C0DEF00001D3510001D411D8B48E
:1004A80004D00001FA05D8B4F6D7010E0001816F17
:1004B800F40E806F7FEC1BF00001E051E1C0BDF04D
:1004C8000001BE6B0001BD27000EBE230001DF51F5
:1004D8000001BD27000EBE230001E2510001BD2727
:1004E800000EBE230001BEBF09D00001BE5104E1C9
:1004F8000F0E0001BD5DD8B0D1EC0FF08B828B944C
:100508008B808D94D7C0CFF0D8C0D0F0D9C0D1F0AF
:10051800DAC0D2F0DBC0D3F0DCC0D4F0DDC0D5F057
:10052800DEC0D6F0000E0001C56F16D00001C52B45
:100538008C82110E0001BD6F3A0EE82EFED7BD2F3A
:10054800FCD700F08C92110E0001BD6F3A0EE82E18
:10055800FED7BD2FFCD700F0140E0001C56104D0F2
:100568000001FA05D8B4E2D7000E0001C56F14D017
:100578000001C52B8C82070E0001BD6F7D0EE82E91
:10058800FED7BD2FFCD78C92070E0001BD6F7D0EE4
:10059800E82EFED7BD2FFCD7B20E0001C56104D0EE
:1005A8000001FA05D8B4E4D7000E0001C56F16D0D3
:1005B8000001C52B8C82110E0001BD6F3A0EE82E8A
:1005C800FED7BD2FFCD700F08C92110E0001BD6F35
:1005D8003A0EE82EFED7BD2FFCD700F0020E000120
:1005E800C56104D00001FA05D8B4E2D7000E0001B5
:1005F800C56F0001D3510001CF110001BD6F00018B
:10060800D4510001D0110001BE6F0001D151000189
:10061800BD130001D2510001BE130001D5510001E4
:10062800BD130001D6510001BE130001BD510001E8
:10063800BE11D8B404D00001FA05D8B4DAD7000E38
:100648000001816F960E806F7FEC1BF08B8E000E81
:100658000001816F640E806F7FEC1BF08B9E000E93
:100668000001D26F780ED16F000E0001D46F780EA2
:10067800D36F0001FA05D8A412D00001D3510001AC
:10068800D1110001BD6F0001D4510001D211000148
:10069800BE6F0001BD510001BE11D8A4EAD7000EFB
:1006A8000001D06F780ECF6F000E0001D66F780E64
:1006B800D56F0001FA05D8A412D00001D551000168
:1006C800CF110001BD6F0001D6510001D01100010A
:1006D800BE6F0001BD510001BE11D8A4EAD78C92AB
:1006E8008C90000E0001D26F000ED16F000E000139
:1006F800D66F000ED56F000E0001D06F000ECF6FC1
:10070800000E0001D46F000ED36F000E0001DA6FE7
:10071800000ED96F000E0001D86F000ED76F000EC3
:100728000001DE6F000EDD6F000E0001DC6F000EB1
:10073800DB6F8B928B948B9C8B9A8B908D948D9284
:100748008998000E0001E46F000E536E000E000140
:10075800816FFA0E806F7FEC1BF0040E0001E365D9
:1007680067D0000E0001C66F16D00001C62B8C8220
:10077800110E0001BD6F3A0EE82EFED7BD2FFCD733
:1007880000F08C92110E0001BD6F3A0EE82EFED7D4
:10079800BD2FFCD700F0140E0001C66104D0000183
:1007A800FA05D8B4E2D7000E0001C66F14D00001D4
:1007B800C62B8C82070E0001BD6F7D0EE82EFED77A
:1007C800BD2FFCD78C92070E0001BD6F7D0EE82E61
:1007D800FED7BD2FFCD7B20E0001C66104D00001C0
:1007E800FA05D8B4E4D7000E0001C66F16D0000190
:1007F800C62B8C82110E0001BD6F3A0EE82EFED773
:10080800BD2FFCD700F08C92110E0001BD6F3A0E7F
:10081800E82EFED7BD2FFCD700F0020E0001C661FE
:1008280004D00001FA05D8B4E2D7000E0001C66F63
:100838000001FA05D8A417D08BD4800EDFEC1BF08A
:10084800320E00018C6FFF0E00018D6F59EC0CF019
:10085800C00EDFEC1BF0100E00018C6FFF0E0001C4
:100868008D6F59EC0CF00001FA51D8A41FD0E5D7D0
:10087800800EDFEC1BF0540E00018C6FFF0E0001A0
:100888008D6F59EC0CF0C00EDFEC1BF0AA0E0001C6
:100898008C6FFD0E00018D6FE5C08EF000018F6B2F
:1008A800EBC090F00001916B59EC0CF0030E0001C5
:1008B800FA19D8A41BD0DCD7800EDFEC1BF0EE0EA3
:1008C80000018C6FFE0E00018D6F59EC0CF0C00E0C
:1008D800DFEC1BF0750E00018C6FFE0E00018D6FB2
:1008E800E8C08EF000018F6B59EC0CF0040E00018B
:1008F800FA19D8A41BD0E0D7800EDFEC1BF0AA0EA3
:1009080000018C6FFE0E00018D6F59EC0CF0C00ECB
:10091800DFEC1BF0750E00018C6FFE0E00018D6F71
:10092800E9C08EF000018F6B59EC0CF0050E000148
:10093800FA19D8A41BD0E0D7800EDFEC1BF0CC0E40
:1009480000018C6FFE0E00018D6F59EC0CF0C00E8B
:10095800DFEC1BF04C0E00018C6FFE0E00018D6F5A
:10096800E6C08EF000018F6B59EC0CF0060E00010A
:10097800FA19D8A41BD0E0D7800EDFEC1BF0BB0E11
:1009880000018C6FFE0E00018D6F59EC0CF0C00E4B
:10099800DFEC1BF04C0E00018C6FFE0E00018D6F1A
:1009A800E7C08EF000018F6B59EC0CF0070E0001C8
:1009B800FA19D8A41BD0E0D7800EDFEC1BF0210E6B
:1009C80000018C6FFF0E00018D6F59EC0CF0C00E0A
:1009D800DFEC1BF04C0E00018C6FFE0E00018D6FDA
:1009E800EAC08EF000018F6B59EC0CF0080E000184
:1009F800FA19D8A46FD0E0D7800EDFEC1BF0DD0E1B
:100A080000018C6FFE0E00018D6F59EC0CF0C00ECA
:100A1800DFEC1BF0C30E00018C6FFD0E00018D6F23
:100A2800CEC08EF000018F6BCDC090F00001916BAD
:100A3800CCC092F00001936B59EC0CF0000E000151
:100A4800C26FC70E0001C26501D011D0090E0001A6
:100A5800FA19D8A40CD0210E0001BD6F760EE82E2D
:100A6800FED7BD2FFCD700F00001C22BEAD7800EBD
:100A7800DFEC1BF0C00EDFEC1BF0DA0E00018C6F10
:100A8800FD0E00018D6FCAC08EF000018F6BC9C0CA
:100A980090F00001916BC8C092F00001936B59EC83
:100AA8000CF0000E0001C36FC70E0001C36501D032
:100AB80011D0090E0001FA19D8A40CD0210E00019A
:100AC800BD6F760EE82EFED7BD2FFCD700F00001D3
:100AD800C32BEAD7090E0001FA19D8A421D08CD764
:100AE800800EDFEC1BF0980E00018C6FFF0E0001EA
:100AF8008D6F59EC0CF0C00EDFEC1BF0990E000165
:100B08008C6FFE0E00018D6F59EC0CF0000E000189
:100B1800A36F010EA26F0A0E0001A46F33EC0EF052
:100B28000A0E0001FA19D8A421D0DAD7800EDFEC1A
:100B38001BF0A90E00018C6FFF0E00018D6F59ECA0
:100B48000CF0C00EDFEC1BF0990E00018C6FFE0E4E
:100B580000018D6F59EC0CF0000E0001A36F610EBF
:100B6800A26F0B0E0001A46F33EC0EF00B0E000108
:100B7800FA19D8A421D0DAD7800EDFEC1BF0BA0E10
:100B880000018C6FFF0E00018D6F59EC0CF0C00E48
:100B9800DFEC1BF0990E00018C6FFE0E00018D6FCB
:100BA80059EC0CF0000E0001A36FC10EA26F0C0EE1
:100BB8000001A46F33EC0EF00C0E0001FA19D8A452
:100BC80021D0DAD7800EDFEC1BF0CB0E00018C6F42
:100BD800FF0E00018D6F59EC0CF0C00EDFEC1BF01E
:100BE800990E00018C6FFE0E00018D6F59EC0CF010
:100BF800010E0001A36F210EA26F0D0E0001A46F5C
:100C080033EC0EF00D0E0001FA19D8A42BD0DAD768
:100C1800800EDFEC1BF0FF0E00018C6FFE0E000152
:100C28008D6F59EC0CF0C00EDFEC1BF0760E000156
:100C38008C6FFF0E00018D6F59EC0CF081380F0B93
:100C48000F0B0001BF6F0001BF51010D870EF32488
:100C5800F66EFD0EF420F76E0800F5502A0AD8B497
:100C6800AAEC06F00E0E0001FA19D8A468D0D0D765
:100C780013EC1CF0000E0001826FD00E816F01ECA6
:100C88001CF0000E0001826F000E816F01EC1CF059
:100C98000FEC1CF013EC1CF0000E0001826FD10E5B
:100CA800816F01EC1CF0000E0001C46F050E0001FD
:100CB800C46501D010D00001C451010D480EF324C1
:100CC800D96E000EF420DA6E010EE7EC1AF0DF6E32
:100CD8000001C42BEBD7000EE7EC1AF04E6E0FECB8
:100CE8001CF0800EDFEC1BF0F10E00018C6FFD0E86
:100CF80000018D6F4EC08EF000018F6B4DC090F0DB
:100D08000001916B4CC092F00001936B59EC0CF010
:100D1800C00EDFEC1BF0080E00018C6FFE0E000108
:100D28008D6F4AC08EF000018F6B49C090F00001B2
:100D3800916B48C092F00001936B59EC0CF00F0EC8
:100D48000001FA19D8A4A6EF00F092D7000E01010D
:100D5800216F000E206F0101215122E11F0E0101B8
:100D6800205DD8B01DD013EC1CF0000E0001826F7E
:100D7800100E816F01EC1CF0480E01012025F66E63
:100D8800FD0E2121F76E0800F5500001816F826B7E
:100D980001EC1CF00FEC1CF00101204B212BDBD7E0
:100DA80020EE35F011EE00F0120EDBCFE3FFE8067F
:100DB800FCE2CEC090F00001903B0F0E90170F0E92
:100DC80000019017000190510A0DCEC091F00F0E4E
:100DD8000001911700019151F3240001876F000E63
:100DE800F4200001886F90EC1AF087C08EF088C05C
:100DF8008FF00BEC1CF00101006FCEC090F00001E9
:100E0800903B0F0E90170F0E0001901700019051A4
:100E18000A0DCEC091F00F0E0001911700019151FB
:100E2800F32400018C6F000EF42000018D6F60EC3C
:100E38001BF08CC08EF08DC08FF00BEC1CF0010104
:100E4800016FCDC090F00001903B0F0E90170F0E70
:100E580000019017000190510A0DCDC091F00F0EBE
:100E68000001911700019151F3240001876F000ED2
:100E7800F4200001886F90EC1AF087C08EF088C0CB
:100E88008FF00BEC1CF00101036FCDC090F0000156
:100E9800903B0F0E90170F0E000190170001905114
:100EA8000A0DCDC091F00F0E00019117000191516C
:100EB800F32400018C6F000EF42000018D6F60ECAC
:100EC8001BF08CC08EF08DC08FF00BEC1CF0010174
:100ED800046FCCC090F00001903B0F0E90170F0EDE
:100EE80000019017000190510A0DCCC091F00F0E2F
:100EF8000001911700019151F3240001876F000E42
:100F0800F4200001886F90EC1AF087C08EF088C03A
:100F18008FF00BEC1CF00101066FCCC090F00001C3
:100F2800903B0F0E90170F0E000190170001905183
:100F38000A0DCCC091F00F0E0001911700019151DC
:100F4800F32400018C6F000EF42000018D6F60EC1B
:100F58001BF08CC08EF08DC08FF00BEC1CF00101E3
:100F6800076FCAC090F00001903B0F0E90170F0E4C
:100F780000019017000190510A0DCAC091F00F0EA0
:100F88000001911700019151F3240001876F000EB1
:100F9800F4200001886F90EC1AF087C08EF088C0AA
:100FA8008FF00BEC1CF00101096FCAC090F0000132
:100FB800903B0F0E90170F0E0001901700019051F3
:100FC8000A0DCAC091F00F0E00019117000191514E
:100FD800F32400018C6F000EF42000018D6F60EC8B
:100FE8001BF08CC08EF08DC08FF00BEC1CF0010153
:100FF8000A6FC9C090F00001903B0F0E90170F0EBA
:1010080000019017000190510A0DC9C091F00F0E10
:101018000001911700019151F3240001876F000E20
:10102800F4200001886F90EC1AF087C08EF088C019
:101038008FF00BEC1CF001010C6FC9C090F000019F
:10104800903B0F0E90170F0E000190170001905162
:101058000A0DC9C091F00F0E0001911700019151BE
:10106800F32400018C6F000EF42000018D6F60ECFA
:101078001BF08CC08EF08DC08FF00BEC1CF00101C2
:101088000D6FC8C090F00001903B0F0E90170F0E27
:1010980000019017000190510A0DC8C091F00F0E81
:1010A8000001911700019151F3240001876F000E90
:1010B800F4200001886F90EC1AF087C08EF088C089
:1010C8008FF00BEC1CF001010F6FC8C090F000010D
:1010D800903B0F0E90170F0E0001901700019051D2
:1010E8000A0DC8C091F00F0E00019117000191512F
:1010F800F32400018C6F000EF42000018D6F60EC6A
:101108001BF08CC08EF08DC08FF00BEC1CF0010131
:10111800106F000E0101236F000E226F0101235191
:1011280026E1130E0101225DD8B021D013EC1CF08A
:10113800000E0001826F100E816F01EC1CF0000E92
:1011480001012225D96E010E01012321DA6EDF503B
:101158000001906F000190510001816F826B01ECDA
:101168001CF00FEC1CF00101224B232BD7D713ECFA
:101178001CF0000E0001826F100E816F01EC1CF054
:10118800000E0001826F0A0E816F01EC1CF00FEC5B
:101198001CF0000E0101256F000E246F010125517E
:1011A80025E11F0E0101245DD8B020D013EC1CF0FE
:1011B800000E0001826F100E816F01EC1CF0080E0A
:1011C80001012425F66EFD0E2521F76E0800F55065
:1011D8000001816F826B01EC1CF00FEC1CF0010127
:1011E800244B252B0101255101E1DBD7F0C016F175
:1011F800F1C017F1E7C087F00001886B90EC1AF096
:1012080087C08EF088C08FF00BEC1CF00101166FC0
:10121800E7C08CF000018D6B60EC1BF08CC08EF089
:101228008DC08FF00BEC1CF00101176F000E01014F
:10123800276F000E266F0101275126E1020E0101DA
:10124800265DD8B021D013EC1CF0000E0001826F8F
:10125800100E816F01EC1CF0160E01012625D96EC7
:10126800010E01012721DA6EDF500001906F0001A5
:1012780090510001816F826B01EC1CF00FEC1CF0A7
:101288000101264B272BD7D713EC1CF0000E0001C9
:10129800826F100E816F01EC1CF0000E0001826F4E
:1012A8000A0E816F01EC1CF00FEC1CF0000E01011E
:1012B800296F000E286F0101295125E11E0E010139
:1012C800285DD8B020D013EC1CF0000E0001826F0E
:1012D800100E816F01EC1CF0680E01012825F66ED6
:1012E800FD0E2921F76E0800F5500001816F826B11
:1012F80001EC1CF00FEC1CF00101284B292B01011B
:10130800295101E1DBD7F2C018F1F3C019F1E9C0A6
:1013180087F00001886B90EC1AF087C08EF088C0C7
:101328008FF00BEC1CF00101186FE9C08CF0000184
:101338008D6B60EC1BF08CC08EF08DC08FF00BECC9
:101348001CF00101196F000E01012B6F000E2A6FAE
:1013580001012B5126E1020E01012A5DD8B021D0EE
:1013680013EC1CF0000E0001826F100E816F01EC6F
:101378001CF0180E01012A25D96E010E01012B213E
:10138800DA6EDF500001906F000190510001816F0B
:10139800826B01EC1CF00FEC1CF001012A4B2B2B8B
:1013A800D7D713EC1CF0000E0001826F100E816F6E
:1013B80001EC1CF0000E0001826F0A0E816F01EC37
:1013C8001CF00FEC1CF0000E01012D6F000E2C6FAD
:1013D80001012D5125E11F0E01012C5DD8B020D04F
:1013E80013EC1CF0000E0001826F100E816F01ECEF
:1013F8001CF0280E01012C25F66EFD0E2D21F76E2E
:101408000800F5500001816F826B01EC1CF00FECB5
:101418001CF001012C4B2D2B01012D5101E1DBD7D3
:10142800F4C01AF1F5C01BF1E6C087F00001886B23
:1014380090EC1AF087C08EF088C08FF00BEC1CF08F
:1014480001011A6FE6C08CF000018D6B60EC1BF097
:101458008CC08EF08DC08FF00BEC1CF001011B6F5F
:10146800000E01012F6F000E2E6F01012F5126E192
:10147800020E01012E5DD8B021D013EC1CF0000E35
:101488000001826F100E816F01EC1CF01A0E010131
:101498002E25D96E010E01012F21DA6EDF500001D1
:1014A800906F000190510001816F826B01EC1CF07C
:1014B8000FEC1CF001012E4B2F2BD7D713EC1CF08F
:1014C800000E0001826F100E816F01EC1CF0000EFF
:1014D8000001826F0A0E816F01EC1CF00FEC1CF00A
:1014E800000E0101316F000E306F0101315125E10D
:1014F800240E0101305DD8B020D013EC1CF0000E92
:101508000001826F100E816F01EC1CF09F0E01012B
:101518003025F66EFC0E3121F76E0800F5500001FB
:10152800816F826B01EC1CF00FEC1CF00101304B59
:10153800312B0101315101E1DBD7F6C01CF1F7C0B5
:101548001DF1EAC087F00001886B90EC1AF087C0A3
:101558008EF088C08FF00BEC1CF001011C6FEAC004
:101568008CF000018D6B60EC1BF08CC08EF08DC090
:101578008FF00BEC1CF001011D6F000E0101336FA1
:10158800000E326F0101335126E1020E0101325D76
:10159800D8B021D013EC1CF0000E0001826F100EA1
:1015A800816F01EC1CF01C0E01013225D96E010E71
:1015B80001013321DA6EDF500001906F0001905174
:1015C8000001816F826B01EC1CF00FEC1CF0010133
:1015D800324B332BD7D713EC1CF0000E0001826F6F
:1015E800100E816F01EC1CF0000E0001826F0A0ED4
:1015F800816F01EC1CF00FEC1CF0000E0101356F3F
:10160800000E346F0101355125E1220E0101345DD0
:10161800D8B020D013EC1CF0000E0001826F100E21
:10162800816F01EC1CF0C40E01013425F66EFC0E2E
:101638003521F76E0800F5500001816F826B01ECCF
:101648001CF00FEC1CF00101344B352B0101355116
:1016580001E1DBD7F8C01EF1F9C01FF1E8C087F03F
:101668000001886B90EC1AF087C08EF088C08FF06C
:101678000BEC1CF001011E6FE8C08CF000018D6BB3
:1016880060EC1BF08CC08EF08DC08FF00BEC1CF062
:1016980001011F6F000E0101376F000E366F010147
:1016A800375126E1020E0101365DD8B021D013EC86
:1016B8001CF0000E0001826F100E816F01EC1CF00F
:1016C8001E0E01013625D96E010E01013721DA6E91
:1016D800DF500001906F000190510001816F826B13
:1016E80001EC1CF00FEC1CF00101364B372BD7D75F
:1016F80013EC1CF0000E0001826F100E816F01ECDC
:101708001CF0000E0001826F0A0E816F01EC1CF0C4
:101718000FEC1CF0000E0101396F000E386F01014B
:10172800395125E1200E0101385DD8B020D013ECE5
:101738001CF0000E0001826F100E816F01EC1CF08E
:10174800E70E01013825F66EFC0E3921F76E080008
:10175800F5500001816F826B01EC1CF00FEC1CF05E
:101768000101384B392B0101395101E1DBD7EDC0BB
:1017780013F1EEC014F1EFC015F10001E5513C0D75
:101788000001EB51F3240001876F0001000EF420E3
:101798000001886FAEEC1AF087C08EF088C08FF019
:1017A8000BEC1CF00101136F0001E5513C0D000129
:1017B800EB51F3240001876F0001000EF4200001B3
:1017C800886F90EC1AF087C08EF088C08FF00BEC11
:1017D8001CF00101146F0001E5513C0D0001EB51B3
:1017E800F32400018C6F0001000EF42000018D6FBE
:1017F80060EC1BF08CC08EF08DC08FF00BEC1CF0F1
:101808000101156F000E01013B6F000E3A6F0101D7
:101818003B5126E1030E01013A5DD8B021D013EC0B
:101828001CF0000E0001826F100E816F01EC1CF09D
:10183800130E01013A25D96E010E01013B21DA6E22
:10184800DF500001906F000190510001816F826BA1
:1018580001EC1CF00FEC1CF001013A4B3B2BD7D7E5
:1018680013EC1CF0000E0001826F100E816F01EC6A
:101878001CF0000E0001826F0A0E816F01EC1CF053
:101888000FEC1CF013EC1CF0000E0001826F100E20
:10189800816F01EC1CF0000E0001826F0A0E816F4F
:1018A80001EC1CF00FEC1CF012008E0E0001996F79
:1018B800000E00019A6FC4D1250E0001A119D8B4F9
:1018C80005D00001A151D7EC1BF0BAD1000E0001E0
:1018D800A06F000E9F6F000E00019E6F05D00001E3
:1018E8009E8500018C4B8D2B8CC0F6FF8DC0F7FFB9
:1018F8000800F550300AD8B4F2D78CC0F6FF8DC076
:10190800F7FF0800F550FEEC1AF0D8A044D0000EFE
:101918000001A06F000E9F6F9FC080F0A0C081F0F3
:10192800000E0001836F0A0E826FCCEC1AF080C0A3
:101938009FF081C0A0F0D00E0001946FFF0E00014F
:10194800956F8CC0F6FF8DC0F7FF0800F5500001B9
:10195800966F976B000194510001962700019551ED
:10196800000197230001965100019F27000197511C
:101978000001A02300018C4B8D2B8CC0F6FF8DC07D
:10198800F7FF0800F550FEEC1AF0D8A004D0C4D731
:1019980000019E8F19D08CC0F6FF8DC0F7FF0001A3
:1019A8008C4B8D2B0800F5CFA1F00001A151000A46
:1019B800D8B41200640AD8B407D00D0AD8B404D039
:1019C800110AD8B4E5D73CD100019EBF19D099C0FF
:1019D800D9FF9AC0DAFFDECF9CF0DDCF9DF0020E72
:1019E80000019927000E9A2300019DAF53D0030EE2
:1019F80000019E1300019C6D9D1FD8B09D2B4AD0FD
:101A080099C0D9FF9AC0DAFFDECF9CF0DDCF9DF0F8
:101A1800020E00019927000E9A233CD0010E000106
:101A2800A16F050E0001A119D8B43DD00001A15144
:101A3800020D980EF324F66EFD0EF420F76E0900E1
:101A4800F55000019C5D0900F55000019D59D8A092
:101A58002AD00001A12BE5D7010E0001A16F040EC9
:101A68000001A119D8B41FD00001A151020DA20E86
:101A7800F324F66EFD0EF420F76E0900F550000110
:101A88009C5D0900F55000019D59D8A00CD00001BB
:101A9800A12BE5D700019E51800B000AD8B4BED710
:101AA800800AD8B4D9D700019F510001A011D8B439
:101AB8000BD09EC094F0030E00019417D8B404D044
:101AC80000019F07D8A0A007800E0001A1BF7F0ECC
:101AD8000001946F00019F510001A15D0001A05118
:101AE800800A00019459D8B00BD00001A15100011F
:101AF8009F5F000E0001A1BFFF0E0001A05B05D093
:101B0800000E0001A06F000E9F6F00019EA518D067
:101B18009EC094F0030E00019417D8B403D02D0E84
:101B2800D7EC1BF000019F510001A011D8B425D0BB
:101B3800300ED7EC1BF000019F07D8A0A007F2D702
:101B480000019F510001A011D8B40DD0200ED7EC90
:101B58001BF000019F07D8A0A00700019F510001BA
:101B6800A011D8A4F3D79EC094F0030E00019417D7
:101B7800D8B403D02D0ED7EC1BF0A1C09BF05AD0DF
:101B880000019B51020D980EF324F66EFD0EF42011
:101B9800F76E0900F5CF82F00A00F5CF83F09CC0FC
:101BA80080F09DC081F0C2EC18F080C087F081C041
:101BB80088F0000E00018A6F0A0E896F69EC19F02F
:101BC80000018751300F0001A16F30D09CC080F018
:101BD8009DC081F000019B51020DA20EF324F66E08
:101BE800FD0EF420F76E0900F5CF82F00A00F5CF5C
:101BF80083F0C2EC18F0000180510F0B0001986FC0
:101C080000019851010D880EF324F66EFE0EF420A3
:101C1800F76E0800F5CFA1F009D000019E51800BA6
:101C2800000AD8B4ADD7800AD8B4D0D70001A151E2
:101C3800D7EC1BF000019B0700019B29D8A4EDD726
:101C48008CC0F6FF8DC0F7FF00018C4B8D2B080070
:101C5800F5CFA1F00001A151D8B412002DD6000E85
:101C68000001B86FC70E0001B86501D012D000019D
:101C7800A4510001FA19D8A40CD0210E0001A56FB7
:101C8800760EE82EFED7A52FFCD700F00001B82B62
:101C9800E9D7A2C0BBF0A3C0BCF0BBC080F0BCC0F9
:101CA80081F098EC1BF00001B26FBBC080F0BCC0A3
:101CB80081F0A4EC1BF080C0BBF081C0BCF0BBC0BD
:101CC80080F0BCC081F098EC1BF00001B36FBBC082
:101CD80080F0BCC081F0A4EC1BF080C0BBF081C0D8
:101CE800BCF0BBC080F0BCC081F098EC1BF00001D8
:101CF800B46FBBC080F0BCC081F0A4EC1BF080C006
:101D0800BBF081C0BCF0BBC080F0BCC081F098ECD7
:101D18001BF00001B56FBBC080F0BCC081F0A4EC23
:101D28001BF080C0BBF081C0BCF0BBC080F0BCC061
:101D380081F098EC1BF00001B66FBBC080F0BCC00E
:101D480081F0A4EC1BF080C0BBF081C0BCF0BBC02C
:101D580080F0BCC081F098EC1BF00001B76FBBC0ED
:101D680080F0BCC081F0A4EC1BF080C0BBF081C047
:101D7800BCF0BBC080F0BCC081F098EC1BF0000147
:101D8800A56F0001A5510001A86FA96BBBC080F029
:101D9800BCC081F0A4EC1BF080C0BBF081C0BCF0DB
:101DA800BBC080F0BCC081F098EC1BF00001A56FAF
:101DB8000001A5510001AA6FAB6BBBC080F0BCC08D
:101DC80081F0A4EC1BF080C0BBF081C0BCF0BBC0AC
:101DD80080F0BCC081F098EC1BF00001A56F0001F9
:101DE800A5510001AC6FAD6BBBC080F0BCC081F0E9
:101DF800A4EC1BF080C0BBF081C0BCF0BBC080F07D
:101E0800BCC081F098EC1BF00001A56F0001A55142
:101E18000001AE6FAF6BBBC080F0BCC081F0A4EC1A
:101E28001BF080C0BBF081C0BCF0BBC080F0BCC060
:101E380081F098EC1BF00001A56F0001A55100018D
:101E4800A66FA76BBBC080F0BCC081F0A4EC1BF0F0
:101E580080C0BBF081C0BCF0BBC080F0BCC081F0CA
:101E680098EC1BF00001A56F0001A5510001B06FAF
:101E7800B16B8CD0800EDFEC1BF0C30E00018C6FB1
:101E8800FD0E00018D6FB2C08EF000018F6BB3C0E4
:101E980090F00001916BB4C092F00001936B59EC83
:101EA8000CF0C00EDFEC1BF0DA0E00018C6FFD0E9B
:101EB80000018D6FB5C08EF000018F6BB6C090F039
:101EC8000001916BB7C092F00001936B59EC0CF0D4
:101ED800000E0001B96FC70E0001B96501D012D01C
:101EE8000001A4510001FA19D8A40CD0210E000158
:101EF800A56F760EE82EFED7A52FFCD700F00001BF
:101F0800B92BE9D7800EDFEC1BF01F0E00018C6F98
:101F1800FE0E00018D6FA8C08EF0A9C08FF0AAC078
:101F280090F0ABC091F0ACC092F0ADC093F059EC1A
:101F38000CF0C00EDFEC1BF0610E00018C6FFE0E82
:101F480000018D6FAEC08EF0AFC08FF0B0C090F0C2
:101F5800B1C091F059EC0CF0000E0001BA6FC70E39
:101F68000001BA6501D012D00001A4510001FA198C
:101F7800D8A40CD0210E0001A56F760EE82EFED74E
:101F8800A52FFCD700F00001BA2BE9D70001A45116
:101F98000001FA19D8A412006DD7D59ECD90CA9425
:101FA800D90ED76EDA0ED66EEC0ECF6E770ECE6ED9
:101FB8009B0ECC6EDFC0E6F0E1C0E9F0E0C0E7F0D0
:101FC800E2C0EAF00001DF510001E1250001E0254F
:101FD8000001E2250001E86F000E0001816F000E8C
:101FE800806F98EC1BF00001886F00018851600D2C
:101FF800010EF3240001896F000EF42000018A6F9E
:1020080089C080F08AC081F0CEC082F013EC1BF04A
:1020180089C080F08AC081F0A4EC1BF080C089F0F0
:1020280081C08AF089C080F08AC081F0CDC082F07A
:1020380013EC1BF089C080F08AC081F0A4EC1BF07F
:1020480080C089F081C08AF089C080F08AC081F0A0
:10205800CCC082F013EC1BF089C080F08AC081F0FC
:10206800A4EC1BF080C089F081C08AF089C080F0A0
:102078008AC081F0CAC082F013EC1BF089C080F0DE
:102088008AC081F0A4EC1BF080C089F081C08AF07E
:1020980089C080F08AC081F0C9C082F013EC1BF0BF
:1020A80089C080F08AC081F0A4EC1BF080C089F060
:1020B80081C08AF089C080F08AC081F0C8C082F0EF
:1020C80013EC1BF089C080F08AC081F0A4EC1BF0EF
:1020D80080C089F081C08AF089C080F08AC081F010
:1020E800E0C082F013EC1BF089C080F08AC081F058
:1020F800A4EC1BF080C089F081C08AF089C080F010
:102108008AC081F0E1C082F013EC1BF089C080F036
:102118008AC081F0A4EC1BF080C089F081C08AF0ED
:1021280089C080F08AC081F0DFC082F013EC1BF018
:1021380089C080F08AC081F0A4EC1BF080C089F0CF
:1021480081C08AF089C080F08AC081F0E2C082F044
:1021580013EC1BF089C080F08AC081F0A4EC1BF05E
:1021680080C089F081C08AF089C080F08AC081F07F
:10217800E8C082F013EC1BF089C080F08AC081F0BF
:10218800A4EC1BF080C089F081C08AF089C080F07F
:102198008AC081F051C082F013EC1BF00001882B3B
:1021A800030E000188650BD0000E0001816F000E40
:1021B800806F000E0001826F13EC1BF009D0000E37
:1021C8000001816F000E806F88C082F013EC1BF055
:1021D800000E0001DF6F000E0001E16F000E00012C
:1021E800E06F000E0001E26F51C080F00001816BCA
:1021F800000E0001836F3C0E826F72EC17F0000135
:1022080080510001E56F51C080F00001816B000E24
:102218000001836F3C0E826F2FEC18F00001805193
:102228000001EB6F000E516E000E0001E36F000E0F
:10223800536E000E0001D06F000ECF6F000E00012C
:10224800D26F000ED16F000E0001D46F000ED36F55
:10225800000E0001D66F000ED56F000E0001DC6F76
:10226800000EDB6F000E0001D86F000ED76F000E56
:102278000001DE6F000EDD6F000E0001DA6F000E48
:10228800D96F000E506E000E4F6E000E0001E46F05
:10229800000E526E8B928B948B9C8B9A8B908D94A4
:1022A8008D9289988C908B9E8C928A90000E00015A
:1022B800FA6F12000F0E186E000E196E74D1250EEB
:1022C8002018D8B404D02050F5EC1BF06CD1000EC7
:1022D8001F6E000E1E6E000E1D6E03D01D840D4A6B
:1022E8000E2A0DC0F6FF0EC0F7FF0800F550300AA1
:1022F800D8B4F4D70DC0F6FF0EC0F7FF0800F550AC
:1023080070EC1BF0D8A035D0000E1F6E000E1E6EAC
:102318001EC001F01FC002F0000E046E0A0E036E0C
:102328003AEC1BF001C01EF002C01FF0D00E136E75
:10233800FF0E146E0DC0F6FF0EC0F7FF0800F55033
:10234800156E166A135015261450162215501E269F
:1023580016501F220D4A0E2A0DC0F6FF0EC0F7FFB9
:102368000800F55070EC1BF0D8A003D0D1D71D8E13
:1023780017D00DC0F6FF0EC0F7FF0D4A0E2A080051
:10238800F5CF20F02050000AD8B41200640AD8B45F
:1023980007D00D0AD8B404D0110AD8B4E8D703D1AD
:1023A8001DBE15D018C0D9FF19C0DAFFDECF1BF04B
:1023B800DDCF1CF0020E1826000E19221CAE44D0E8
:1023C800030E1D121B6C1C1ED8B01C2A3DD018C051
:1023D800D9FF19C0DAFFDECF1BF0DDCF1CF0020EEB
:1023E8001826000E192230D0010E206E050E201876
:1023F800D8B432D02050020D980EF324F66EFD0E9C
:10240800F420F76E0900F5501B5C0900F5501C58C4
:10241800D8A022D0202AEAD7010E206E040E201858
:10242800D8B41AD02050020DA20EF324F66EFD0E79
:10243800F420F76E0900F5501B5C0900F5501C5894
:10244800D8A00AD0202AEAD71D50800B000AD8B499
:10245800CBD7800AD8B4E0D71E501F10D8B409D003
:102468001DC013F0030E1316D8B403D01E06D8A04F
:102478001F06800E20BE7F0E136E1E50205C1F505C
:10248800800A1358D8B007D020501E5E000E20BE18
:10249800FF0E1F5A04D0000E1F6E000E1E6E1DA4E4
:1024A80014D01DC013F0030E1316D8B403D02D0E8C
:1024B800F5EC1BF01E501F10D8B41ED0300EF5ECF2
:1024C8001BF01E06D8A01F06F5D71E501F10D8B443
:1024D8000AD0200EF5EC1BF01E06D8A01F061E50D1
:1024E8001F10D8A4F6D71DC013F0030E1316D8B4C6
:1024F80003D02D0EF5EC1BF020C01AF050D01A5066
:10250800020D980EF324F66EFD0EF420F76E090006
:10251800F5CF03F00A00F5CF04F01BC001F01CC092
:1025280002F0FAEC19F001C008F002C009F0000E40
:102538000B6E0A0E0A6E6FEC1AF00850300F206E00
:102548002BD01BC001F01CC002F01A50020DA20EC5
:10255800F324F66EFD0EF420F76E0900F5CF03F0B4
:102568000A00F5CF04F0FAEC19F001500F0B176EC2
:102578001750010D880EF324F66EFE0EF420F76E48
:102588000800F5CF20F008D01D50800B000AD8B401
:10259800B6D7800AD8B4D5D72050F5EC1BF01A0668
:1025A8001A28D8A4F1D70DC0F6FF0EC0F7FF0D4AC0
:1025B8000E2A0800F5CF20F02050D8B412007FD69C
:1025C800D59ECD90CA94D90ED76EDA0ED66EEC0E83
:1025D800CF6E770ECE6E9B0ECC6EDFC0E6F0E1C0FC
:1025E800E9F0E0C0E7F0E2C0EAF00001DF510001E5
:1025F800E1250001E0250001E2250001E86F000E59
:10260800026E000E016EAFEC1BF0096E0950600DF2
:10261800010EF3240A6E000EF4200B6E0AC001F0BE
:102628000BC002F0CEC003F027EC1BF00AC001F08B
:102638000BC002F0EEEC1BF001C00AF002C00BF078
:102648000AC001F00BC002F0CDC003F027EC1BF06C
:102658000AC001F00BC002F0EEEC1BF001C00AF05A
:1026680002C00BF00AC001F00BC002F0CCC003F0AE
:1026780027EC1BF00AC001F00BC002F0EEEC1BF0D7
:1026880001C00AF002C00BF00AC001F00BC002F052
:10269800CAC003F027EC1BF00AC001F00BC002F01F
:1026A800EEEC1BF001C00AF002C00BF00AC001F00A
:1026B8000BC002F0C9C003F027EC1BF00AC001F000
:1026C8000BC002F0EEEC1BF001C00AF002C00BF0E8
:1026D8000AC001F00BC002F0C8C003F027EC1BF0E1
:1026E8000AC001F00BC002F0EEEC1BF001C00AF0CA
:1026F80002C00BF00AC001F00BC002F0E0C003F00A
:1027080027EC1BF00AC001F00BC002F0EEEC1BF046
:1027180001C00AF002C00BF00AC001F00BC002F0C1
:10272800E1C003F027EC1BF00AC001F00BC002F077
:10273800EEEC1BF001C00AF002C00BF00AC001F079
:102748000BC002F0DFC003F027EC1BF00AC001F059
:102758000BC002F0EEEC1BF001C00AF002C00BF057
:102768000AC001F00BC002F0E2C003F027EC1BF036
:102778000AC001F00BC002F0EEEC1BF001C00AF039
:1027880002C00BF00AC001F00BC002F0E8C003F071
:1027980027EC1BF00AC001F00BC002F0EEEC1BF0B6
:1027A80001C00AF002C00BF00AC001F00BC002F031
:1027B80051C003F027EC1BF0092A030E096409D065
:1027C800000E026E000E016E000E036E27EC1BF069
:1027D80008D0000E026E000E016E09C003F027EC4F
:1027E8001BF0000E0001DF6F000E0001E16F000E0C
:1027F8000001E06F000E0001E26F51C001F0026AB3
:10280800000E046E3C0E036E80EC18F001500001BF
:10281800E56F51C001F0026A000E046E3C0E036EB3
:10282800FEEC18F001500001EB6F000E516E000E27
:102838000001E36F000E536E000E0001D06F000E12
:10284800CF6F000E0001D26F000ED16F000E000195
:10285800D46F000ED36F000E0001D66F000ED56F37
:10286800000E0001DC6F000EDB6F000E0001D86F58
:10287800000ED76F000E0001DE6F000EDD6F000E38
:102888000001DA6F000ED96F000E506E000E4F6E09
:10289800000E0001E46F000E526E8B928B948B9C9D
:1028A8008B9A8B908D948D9289988C908B9E8C921C
:1028B8008A90000E0001FA6F12000600FACF26F087
:1028C800FBCF27F0E9CF28F0EACF29F0E1CF2AF0B3
:1028D800E2CF2BF0D9CF2CF0DACF2DF0F3CF2EF0BA
:1028E800F4CF2FF0F6CF30F0F7CF31F0F8CF32F049
:1028F800F5CF33F0F0A015D081380F0B0F0B346EE5
:10290800360E216E3450010D870EF324F66EFD0E3F
:10291800F420F76E0800F5CF22F0340EEAEC16F03A
:10292800F0900001FA05D8B4F2A44BD0F294D90E75
:10293800D76EDA0ED66E512A51C001F0026A000E27
:10294800046E3C0E036E80EC18F001500001E56F38
:1029580051C001F0026A000E046E3C0E036EFEECDC
:1029680018F001500001EB6F800EFBEC1BF0360EE7
:102978000D6EFE0E0E6EE5C00FF0106AEBC011F082
:10298800126A5EEC11F0B30E516402D0E4EC12F05E
:102998005350D8A413D0C45004E1330EC35CD8A05C
:1029A80003D00001E32B03D0000E0001E36F090EF2
:1029B8000001E36506D0E4EC12F003D0000E00013C
:1029C800E36F0001FA05D8B49EA0BDD09E90EC0E2E
:1029D800CF6E770ECE6E4F505010D8B403D04F063E
:1029E800D8A05006522A950E52640DD0000E526E91
:1029F8008AB003D0256A252A01D0256A8A5025186D
:102A0800FE0B25188A6E0001CF510001D011D8B4F1
:102A180022D05404D8A402D08B8A8B9C020E54185E
:102A2800D8A402D08B928B84030E5418D8A402D059
:102A38008B9A8B8C040E5418D8A402D08B828B945A
:102A48000001CF07D8A0D007030E546403D0010EAD
:102A5800546E01D0542A0001D1510001D211D8B4CA
:102A680022D0040E5418D8A402D08B9A8B8C030E53
:102A78005418D8A402D08B928B84020E5418D8A470
:102A880002D08B8A8B9C5404D8A402D08B828B945E
:102A98000001D107D8A0D207020E546003D0040E5B
:102AA800546E01D054060001D3510001D411D8B49A
:102AB80022D05504D8A402D089888D92020E5518C8
:102AC800D8A402D08B908D84030E5518D8A402D0B8
:102AD80089988D82040E5518D8A402D08B808D94C5
:102AE8000001D307D8A0D407030E556403D0010E04
:102AF800556E01D0552A0001D5510001D611D8B420
:102B080022D0040E5518D8A402D089988D82030EBD
:102B18005518D8A402D08B908D84020E5518D8A4CD
:102B280002D089888D925504D8A402D08B808D94C8
:102B38000001D507D8A0D607020E556003D0040EB1
:102B4800556E01D055060001FA05D8B49EA210D0E2
:102B58009E929B0ECC6E8AB403D0256A252A01D09A
:102B6800256A254625468A502518FB0B25188A6EA6
:102B780033C0F5FF32C0F8FF31C0F7FF30C0F6FFB1
:102B88002FC0F4FF2EC0F3FF2DC0DAFF2CC0D9FFF1
:102B98002BC0E2FF2AC0E1FF29C0EAFF28C0E9FFF5
:102BA80027C0FBFF26C0FAFF56921100010E8CECDD
:102BB8001BF0C3CF83F0C4CF84F0020E8CEC1BF063
:102BC800C3CF87F0C4CF88F0030E8CEC1BF0C3CFC3
:102BD80085F0C4CF86F0040E8CEC1BF0C3CF89F0CF
:102BE800C4CF8AF0050E8CEC1BF0C3CF8BF0C4CF9A
:102BF8008CF00001835100018411D8B40DD000017C
:102C0800E12B020E0001D26F000ED16F020E0001FF
:102C1800D46F000ED36F1200000187510001831199
:102C28000001816F00018851000184110001826F49
:102C380000018551000181130001865100018213B2
:102C4800000189510001811300018A51000182139A
:102C580000018B510001811300018C510001821386
:102C68000001815100018211D8A40DD00001E22B8E
:102C7800020E0001D06F000ECF6F020E0001D66F5A
:102C8800000ED56F12000001875100018811D8B4D9
:102C98000FD00001855100018611D8B409D0000178
:102CA800E051020F0001E06F010E0001E46F120015
:102CB80000018A510DE1C90E0001895DD8B008D024
:102CC80000018C5105E1C90E00018B5DD8A00DD023
:102CD800020E0001D26F000ED16F020E0001D46FF8
:102CE800000ED36F0001DF2B120000018A510DE1A5
:102CF800510E0001895DD8B008D000018C5105E162
:102D0800510E00018B5DD8A00DD00001E22B020E00
:102D18000001D06F000ECF6F020E0001D66F000EBB
:102D2800D56F120000018551000187110001816FE4
:102D380000018651000188110001826F0001815154
:102D480000018211D8B435D00001E02B000189516F
:102D580000018A11D8B411D000018B5100018C11E7
:102D6800D8B40BD0020E0001D26F000ED16F020E44
:102D78000001D46F000ED36F1200000187510001CB
:102D88008811D8B40BD0020E0001D26F000ED16F9B
:102D9800020E0001D46F000ED36F1200020E000164
:102DA800D66F000ED56F020E0001D06F000ECF6FE8
:102DB8001200020E0001D06F000ECF6F020E00014C
:102DC800D66F000ED56F0001E22B1200236E370E6E
:102DD8002218D8A454D0020E0001FA19D8A447D05A
:102DE800010E0001FA6FD58ECD80CA84010E000154
:102DF800EC6F1BEC1CF0000E036ED00E026E06EC9E
:102E08001CF0000E036E000E026E06EC1CF017ECB0
:102E18001CF01BEC1CF0000E036ED10E026E06ECCB
:102E28001CF0000E246E050E246401D00ED0245030
:102E3800010DC80EF324D96E000EF420DA6E010ECF
:102E48004DEC1BF0DF6E242AEED7000E4DEC1BF084
:102E58000001CE6F17EC1CF0800EFBEC1BF0430E4C
:102E68000D6EFF0E0E6E5EEC11F08A8012000001EE
:102E7800FA51D8A41200020E0001FA6F12000001E4
:102E8800FA05D8A407D0430E2218D8A41200E4ECFF
:102E980012F012000001FA51D8B412002150221881
:102EA800D8A40CD0020E0001FA19D8A404D00F0E31
:102EB8000001FA6F12000001FA07120023502218CD
:102EC800D8A412000F0E0001FA19D8A404D0020EDB
:102ED8000001FA6F12000001FA2B1200000E000127
:102EE800856F000183AF08D00001826D831FD8B0C1
:102EF800832B010E0001856F000181AF08D000010E
:102F0800806D811FD8B0812B010E0001851B000E3A
:102F18000001876F000E866F000182510001831146
:102F2800D8B42CD0010E0001846F06D00001D890CF
:102F3800823783370001842B000183AFF7D7000164
:102F4800D89086378737000182510001805D0001E3
:102F5800835100018159D8A00AD000018251000193
:102F6800805F000183510001815B000186810001BF
:102F7800D890833382330001842FE1D70001855133
:102F88000001D8B405D00001866D871FD8B0872B03
:102F980086C080F087C081F01200000E0001886FA3
:102FA800000E896F000E8A6F000E8B6F000184512E
:102FB800000185110001861100018711D8B442D0A3
:102FC800010E00018C6F08D00001D8908437853736
:102FD8008637873700018C2B000187AFF5D70001B2
:102FE800D890883789378A378B3700018451000198
:102FF800805D000185510001815900018651000161
:1030080082590001875100018359D8A012D00001CC
:1030180084510001805F000185510001815B00013E
:1030280086510001825B000187510001835B00012A
:1030380088810001D8908733863385338433000133
:103048008C2FCDD788C080F089C081F08AC082F0EB
:103058008BC083F01200000E0001856F000181AF64
:1030680008D00001806D811FD8B0812B010E0001AE
:10307800856F000183AF05D00001826D831FD8B032
:10308800832B0001825100018311D8B426D0010E90
:103098000001846F06D00001D89082378337000181
:1030A800842B000183AFF7D7000182510001805DB6
:1030B8000001835100018159D8A008D00001825134
:1030C8000001805F000183510001815B0001D890FD
:1030D800833382330001842FE7D700018551000133
:1030E800D8B405D00001806D811FD8B0812B80C075
:1030F80080F081C081F01200000E066E04AE06D08A
:10310800036C041ED8B0042A010E066E02AE06D067
:10311800016C021ED8B0022A010E061A000E086EB3
:10312800000E076E03500410D8B41CD0010E056EB3
:1031380004D0D89003360436052A04AEFAD7D890BE
:10314800073608360350015C04500258D8A005D051
:103158000350015E0450025A0780D89004320332AB
:10316800052EEDD70650D8B404D0076C081ED8B089
:10317800082A07C001F008C002F01200000E000182
:10318800866F000E856F0001825100018311D8B44B
:103198002CD0010E0001846F06D00001D890823730
:1031A80083370001842B000183AFF7D70001D89043
:1031B80085378637000182510001805D0001835107
:1031C80000018159D8A00AD0000182510001805F16
:1031D800000183510001815B000185810001D890C5
:1031E800833382330001842FE1D785C080F086C005
:1031F80081F01200000E066E02AE06D0016C021EAF
:10320800D8B0022A010E066E04AE04D0036C041E68
:10321800D8B0042A03500410D8B418D0010E056E93
:1032280004D0D89003360436052A04AEFAD70350E2
:10323800015C04500258D8A004D00350015E045029
:10324800025AD89004320332052EF1D70650D8B46A
:1032580004D0016C021ED8B0022A01C001F002C0DD
:1032680002F01200CE0EF66E370EF76E000EF86EF4
:1032780000EEEDF010EE0EF00900F5CFEEFFE55090
:10328800E150FAE1880EF66E370EF76E000EF86E12
:1032980000EE35F010EE13F00900F5CFEEFFE55023
:1032A800E150FAE100EEC8F0250EEE6AE806FDE10D
:1032B80000EE48F00E0EEE6AE806FDE156905692D2
:1032C800000EF86E000109EF00F0000189510001BD
:1032D8008A11D8B426D0010E00018B6F06D00001E8
:1032E800D89089378A3700018B2B00018AAFF7D72E
:1032F800000189510001875D00018A510001885948
:10330800D8A008D0000189510001875F00018A51C7
:103318000001885B0001D8908A33893300018B2F24
:10332800E7D787C087F088C088F012000001816F56
:1033380000018151F00B0001806F8C500F0B8C6ED7
:10334800000180518C108C6E8C96190EE82EFED7D9
:103358008C86190EE82EFED700018139F00B00018A
:10336800816F00018151F00B0001806F8C500F0BB1
:103378008C6E000180518C108C6E8C96190EE82E84
:10338800FED78C86190EE82EFED71200000EC76EE7
:10339800280EC66E000EC56E800E0001806F960E58
:1033A800816F980E826F000E836F8DC091F08EC072
:1033B80092F08FC093F090C094F0020ED890000164
:1033C8009137923793379437E82EF8D791C084F025
:1033D80092C085F093C086F094C087F0D1EC17F0C6
:1033E80000018005C86E948694881200000E066E4F
:1033F800000E056E03500410D8B41CD0010E076EE1
:1034080004D0D89003360436072A04AEFAD7D890E9
:10341800053606360350015C04500258D8A005D082
:103428000350015E0450025A0580D89004320332DA
:10343800072EEDD705C001F006C002F01200026E9B
:103448000250F00B016E8C500F0B8C6E01508C10DB
:103458008C6E8C96190EE82EFED78C86190EE82EE7
:10346800FED70238F00B026E0250F00B016E8C5042
:103478000F0B8C6E01508C108C6E8C96190EE82EEA
:10348800FED78C86190EE82EFED71200310E0001E9
:10349800836FB20EE82EFED7832FFCD700F0330ED1
:1034A800DFEC1BF0320EDFEC1BF0280EDFEC1BF01C
:1034B8000F0EDFEC1BF0060EDFEC1BF0010EDFEC4D
:1034C8001BF0310E0001836FB20EE82EFED7832F5A
:1034D800FCD700F012000A500B10D8B418D0010E17
:1034E8000C6E04D0D8900A360B360C2A0BAEFAD7DD
:1034F8000A50085C0B500958D8A004D00A50085E3E
:103508000B50095AD8900B320A320C2EF1D708C04A
:1035180008F009C009F012000001885105E10A0EFF
:103528000001875DD8A010D087C080F088C081F0E6
:10353800000E0001836F0A0E826FC2EC18F080C083
:1035480087F081C088F01200000E0001886F000E1D
:10355800876F12000001885105E1640E0001875D44
:10356800D8A010D087C080F088C081F0000E00017C
:10357800836F640E826FC2EC18F080C087F081C040
:1035880088F01200000E0001886F000E876F12008D
:103598000001805100018203F3CF84F0F4CF85F05D
:1035A8000001805100018303F350000185270001C9
:1035B800815100018203F3500001852784C080F007
:1035C80085C081F012000001816FBAEC1BF0C5863E
:1035D800BAEC1BF0C9CF82F0BAEC1BF000018151A4
:1035E8000001D8A402D0C58A01D0C59AC5880001B7
:1035F800825112000001826F000E0001816F3A0EA5
:103608000001826107D02F0E0001826503D0010EF0
:103618000001816F81C080F000018031120000013B
:103628008151AA6E80C0A9FF82C0A8FFA69EA69C51
:10363800A684550EA76EAA0EA76EA682A1A8FED7CD
:10364800A198A69412000250AA6E01C0A9FF03C057
:10365800A8FFA69EA69CA684550EA76EAA0EA76EC6
:10366800A682A1A8FED7A198A69412000150030231
:10367800F3CF05F0F4CF06F001500402F35006260C
:1036880002500302F350062605C001F006C002F0FE
:103698001200026ECEEC1BF0C586CEEC1BF0C9CF33
:1036A80003F0CEEC1BF00250D8A402D0C58A01D09A
:1036B800C59AC588035012008CC087F08DC088F069
:1036C800000E00018A6F0A0E896F69EC19F087C035
:1036D8008CF088C08DF01200036E000E026E3A0E58
:1036E800036005D02F0E036402D0010E026E02C0E3
:1036F80001F00130120080C04FF081C050F04F50EF
:103708005010D8B412000001FA05D8A41200F7D757
:103718000001806F00018045E846FC0BC26EC28044
:10372800C282C2A21200FDD700018151AA6E80C0D8
:10373800A9FFA69EA69CA680A6B0FED7A8501200F8
:10374800080E000180250001806F000E0001812114
:103758000001816F12000250AA6E01C0A9FFA69E47
:10376800A69CA680A6B0FED7A8501200C7B4FED764
:10377800C5CF80F01F0E00018017D8B41200F6D70D
:1037880020202F20202F20202020203A20203A20DF
:033798002000000E
:10379C00C7B4FED7C5CF01F01F0E0116D8B4120066
:1037AC00F7D70001826F8C84000182519AEC19F0DA
:1037BC0012000001826F8C94000182519AEC19F076
:1037CC001200202020202020202020202020200239
:1037DC00080E0124016E000E0220026E1200036E10
:1037EC008C84035023EC1AF01200036E8C9403505B
:1037FC0023EC1AF01200BAEC1BF081C0C9FF1200C6
:10380C00CEEC1BF002C0C9FF120000018E51300F2C
:10381C001200BAEC1BF0C5841200BAEC1BF0C58088
:10382C001200CEEC1BF0C5841200CEEC1BF0C58050
:02383C00120078
:10FC9E00004E756D626572206F6620647261696ECA
:10FCAE0065642062617474657269657320736F7226
:10FCBE007465643A2000546F74616C206E756D62C9
:10FCCE006572206F66206261747465726965732057
:10FCDE00736F727465643A20005365636F6E64735C
:10FCEE002074686520736F7274696E67206C61731F
:10FCFE0074656420666F723A20004E756D6265728F
:10FD0E00206F66204141206261747465726965736B
:10FD1E0020736F727465643A20004E756D62657261
:10FD2E00206F66203956206261747465726965733E
:10FD3E0020736F727465643A200054696D6520619A
:10FD4E006E642064617465206F66206C617374202C
:10FD5E00736F7274696E673A20004E756D626572CC
:10FD6E00206F66204320626174746572696573202A
:10FD7E00736F727465643A20003132334134353614
:10FD8E0042373839432A3023440001000A00640008
:10FD9E00E803102701001000000100102530326426
:10FDAE003A253032642020202020202020202020C0
:10FDBE002020202000253032782F253032782F2534
:10FDCE00303278202020202020202000253032784C
:10FDDE003A253032783A25303278202020202020E3
:10FDEE00202000444154453A20253032782F2530CA
:10FDFE0032782F2530327820200054494D453A2054
:10FE0E00253032783A253032783A25303278202033
:10FE1E000041413A2530326420433A253032642085
:10FE2E0039563A253032640052554E4E494E473AB5
:10FE3E0020253032643A25303264202020004241A1
:10FE4E00545445524945533A2025303264202020DF
:10FE5E00202000583A253032642054494D453A2529
:10FE6E00647320202020004241545445524945538A
:10FE7E003A202530326420202000303132333435A0
:10FE8E003637383961626364656600202020202091
:10FE9E0020202020202020202020200023204F461C
:10FEAE002043202020202020202020200023204F0F
:10FEBE0046204141202020202020202020002320E9
:10FECE004F46203956202020202020202020004C74
:10FEDE004153542052554E3A2020202020202000FD
:10FEEE00544F54414C2023204F46202020202020C8
:10FEFE00005052455353202A20544F2020202020BA
:10FF0E002000544F20434F4E54494E55452020203B
:10FF1E0020200023204F4620445241494E45442084
:10FF2E0020202000444F4E4521205052455353204F
:10FF3E002A2020200052554E4E494E473A2030304E
:10FF4E003A3030202000544F54414C2052554E2010
:10FF5E0054494D453A2000203C544F47474C4520CC
:10FF6E00204C4F47533E200053454E4420444154AD
:10FF7E004120544F205043200050524553532023CC
:10FF8E0020544F2053544F5020005045524D414E57
:10FF9E00454E54204C4F4720413A005045524D415A
:10FFAE004E454E54204C4F4720423A005045524D3C
:10FFBE00414E454E54204C4F4720433A0050455237
:10FFCE004D414E454E54204C4F4720443A003C2064
:10FFDE00544F47474C4520204C4F4753203E00502E
:10FFEE0052455353202A20544F205354415254000B
:01FFFE000002
:020000040020DA
:08000000FFFFFFFFFFFFFFFF00
:020000040030CA
:0E000000FF021F1EFF8381FF0FC00FE00F40A5
:00000001FF
