:0400000007EF00F016
:1000080048821AED03F0C6EF04F0000E946E000E5D
:10001800956E9368000E8A6E000E8B6E000EC26E8F
:10002800C168F086F28A470ED56E67EC04F0100EB0
:10003800206E270E216E000E226E000E236EEAEC53
:1000480003F0F28E48D0F29E800E20EC05F0DD0E13
:100058001F6EFF0E206E94EC01F0C00E20EC05F030
:10006800EE0E1F6EFF0E206E94EC01F0F28E000E65
:100078003D6E310E3D6401D00ED0020E4718D8A453
:100088000AD0210E356E760EE82EFED7352EFCD717
:1000980000D03D2AEED7800E20EC05F0C00E20ECF3
:1000A80005F0BB0E1F6EFF0E206E94EC01F0000EE3
:1000B8003D6E310E3D6401D00ED0020E4718D8A413
:1000C8000AD0210E356E760EE82EFED7352EFCD7D7
:1000D80000D03D2AEED7020E4718D8A413D0B3D7C4
:1000E800800E20EC05F0440E1F6EFF0E206E94EC7F
:1000F80001F0C00E20EC05F0330E1F6EFF0E206ECF
:1001080094EC01F04704D8A413D0EAD7800E20EC71
:1001180005F0990E1F6EFF0E206E94EC01F0C00ED4
:1001280020EC05F0660E1F6EFF0E206E94EC01F0B9
:100138004750D8A41FD0EAD7F29E010E366E010EA2
:10014800376E800E20EC05F0AA0E1F6EFF0E206E93
:1001580094EC01F0C00E20EC05F09E0E1F6EFE0E12
:10016800206E36C021F0226A37C023F0246A94EC4E
:1001780001F0F28E030E4718D8A418D0DDD7060E6A
:10018800386E800E20EC05F0CC0E1F6EFF0E206E30
:1001980094EC01F0C00E20EC05F00F0E1F6EFF0E60
:1001A800206E38C021F0226A94EC01F0040E471842
:1001B800D8A41AD0E4D7F29E030E396E800E20EC34
:1001C80005F0550E1F6EFF0E206E94EC01F0C00E68
:1001D80020EC05F00F0E1F6EFF0E206E39C021F0C7
:1001E800226A94EC01F0F28E050E4718D8A41AD0B2
:1001F800E2D7F29E0A0E3A6E800E20EC05F0880EC9
:100208001F6EFF0E206E94EC01F0C00E20EC05F07E
:10021800E50E1F6EFE0E206E3AC021F0226A94ECA5
:1002280001F0F28E060E4718D8A41AD0E2D7F29E33
:10023800020E3B6E800E20EC05F0770E1F6EFF0E4F
:10024800206E94EC01F0C00E20EC05F0FA0E1F6E43
:10025800FE0E206E3BC021F0226A94EC01F0F28E73
:10026800070E4718D8A457D0E2D72FEC05F0000E98
:10027800156ED00E146E26EC05F0000E156E000EED
:10028800146E26EC05F02BEC05F02FEC05F0000EB3
:10029800156ED10E146E26EC05F0000E3C6E050EA0
:1002A8003C6401D00ED03C50010D3E0EF324D96EB3
:1002B800000EF420DA6E010EEFEC04F0DF6E3C2A3B
:1002C800EED7000EEFEC04F0446E2BEC05F0800E38
:1002D80020EC05F0B70E1F6EFE0E206E44C021F014
:1002E800226A43C023F0246A42C025F0266A94ECAF
:1002F80001F0C00E20EC05F0CE0E1F6EFE0E206E33
:1003080040C021F0226A3FC023F0246A3EC025F095
:10031800266A94EC01F0080E4718D8A4DCD6A5D7B5
:10032800210E2C6E000E2D6E74D1250E3418D8B403
:1003380004D034501AEC05F06CD1000E336E000E68
:10034800326E000E316E03D031841F4A202A1FC03E
:10035800F6FF20C0F7FF0800F550300AD8B4F4D7EC
:100368001FC0F6FF20C0F7FF0800F55002EC05F0AB
:10037800D8A035D0000E336E000E326E32C013F0A6
:1003880033C014F0000E166E0A0E156EDCEC04F085
:1003980013C032F014C033F0D00E276EFF0E286E53
:1003A8001FC0F6FF20C0F7FF0800F550296E2A6A23
:1003B8002750292628502A22295032262A5033220B
:1003C8001F4A202A1FC0F6FF20C0F7FF0800F5507B
:1003D80002EC05F0D8A003D0D1D7318E17D01FC0BA
:1003E800F6FF20C0F7FF1F4A202A0800F5CF34F097
:1003F8003450000AD8B41200640AD8B407D00D0AE1
:10040800D8B404D0110AD8B4E8D703D131BE15D076
:100418002CC0D9FF2DC0DAFFDECF2FF0DDCF30F0B2
:10042800020E2C26000E2D2230AE44D0030E3112BF
:100438002F6C301ED8B0302A3DD02CC0D9FF2DC02B
:10044800DAFFDECF2FF0DDCF30F0020E2C26000EC3
:100458002D2230D0010E346E050E3418D8B432D0A7
:100468003450020D8C0EF324F66EFE0EF420F76E57
:100478000900F5502F5C0900F5503058D8A022D05B
:10048800342AEAD7010E346E040E3418D8B41AD0C0
:100498003450020D960EF324F66EFE0EF420F76E1D
:1004A8000900F5502F5C0900F5503058D8A00AD043
:1004B800342AEAD73150800B000AD8B4CBD7800A47
:1004C800D8B4E0D732503310D8B409D031C027F0AF
:1004D800030E2716D8B403D03206D8A03306800EF0
:1004E80034BE7F0E276E3250345C3350800A275852
:1004F800D8B007D03450325E000E34BEFF0E335AE7
:1005080004D0000E336E000E326E31A414D031C008
:1005180027F0030E2716D8B403D02D0E1AEC05F0D9
:1005280032503310D8B41ED0300E1AEC05F0320613
:10053800D8A03306F5D732503310D8B40AD0200EDD
:100548001AEC05F03206D8A0330632503310D8A47E
:10055800F6D731C027F0030E2716D8B403D02D0ED6
:100568001AEC05F034C02EF050D02E50020D8C0E2F
:10057800F324F66EFE0EF420F76E0900F5CF15F0A1
:100588000A00F5CF16F02FC013F030C014F017ECA6
:1005980004F013C01AF014C01BF0000E1D6E0A0EF2
:1005A8001C6E8AEC04F01A50300F346E2BD02FC01A
:1005B80013F030C014F02E50020D960EF324F66E90
:1005C800FE0EF420F76E0900F5CF15F00A00F5CFFE
:1005D80016F017EC04F013500F0B2B6E2B50010D77
:1005E800220EF324F66EFF0EF420F76E0800F5CF06
:1005F80034F008D03150800B000AD8B4B6D7800A3E
:10060800D8B4D5D734501AEC05F02E062E28D8A425
:10061800F1D71FC0F6FF20C0F7FF1F4A202A0800A5
:10062800F5CF34F03450D8B412007FD60600FACF94
:1006380004F0FBCF05F0E9CF06F0EACF07F0E1CFF1
:1006480008F0E2CF09F0D9CF0AF0DACF0BF0F3CFF8
:100658000CF0F4CF0DF0F6CF0EF0F7CF0FF0F8CF87
:1006680010F0F5CF11F0F0A036D04704D8B433D04D
:1006780081380F0B0F0B126E1250010D7B0EF324F5
:10068800F66EFE0EF420F76E0800F5502A0AD8A47C
:100698000ED0020E4718D8A404D0010E476ED58E8E
:1006A80019D04750D8A416D0020E476E13D0475021
:1006B800D8B410D0360E016E1250010D7B0EF32403
:1006C800F66EFE0EF420F76E0800F5CF02F0340E39
:1006D800ABEC04F0F0904704D8B4F2A418D0F2AA16
:1006E80016D0F294000ED76E000ED66E454A462AF2
:1006F80046BE0DD0D20E455C1A0E4658D8A007D07B
:10070800000E466E000E456E000E476ED59E11C057
:10071800F5FF10C0F8FF0FC0F7FF0EC0F6FF0DC0C1
:10072800F4FF0CC0F3FF0BC0DAFF0AC0D9FF09C001
:10073800E2FF08C0E1FF07C0EAFF06C0E9FF05C005
:10074800FBFF04C0FAFF48921100000E1B6E000E5A
:100758001C6E000E1D6E000E1E6E1750181019101C
:100768001A10D8B42AD0010E1F6E06D0D8901736AA
:10077800183619361A361F2A1AAEF8D7D8901B36EB
:100788001C361D361E361750135C18501458195055
:1007980015581A501658D8A009D01750135E18507B
:1007A800145A1950155A1A50165A1B80D8901A32D2
:1007B8001932183217321F2EE1D71BC013F01CC094
:1007C80014F01DC015F01EC016F01200000EC76E02
:1007D800280EC66E000EC56E800E136E960E146E31
:1007E800980E156E000E166E20C024F021C025F05C
:1007F80022C026F023C027F0020ED89024362536D2
:1008080026362736E82EF9D724C017F025C018F069
:1008180026C019F027C01AF0A9EC03F01304C86E1B
:10082800948694881200000E186E000E176E1550EC
:100838001610D8B41CD0010E196E04D0D8901536F5
:100848001636192A16AEFAD7D89017361836155014
:10085800135C16501458D8A005D01550135E1650C6
:10086800145A1780D89016321532192EEDD717C0A2
:1008780013F018C014F01200146E1450F00B136E1D
:100888008C500F0B8C6E13508C108C6E8C96190E2E
:10089800E82EFED78C86190EE82EFED71438F00BFA
:1008A800146E1450F00B136E8C500F0B8C6E13508B
:1008B8008C108C6E8C96190EE82EFED78C86190E2D
:1008C800E82EFED71200310E166EB20EE82EFED7B5
:1008D800162EFCD700D0330E20EC05F0320E20EC9B
:1008E80005F0280E20EC05F00F0E20EC05F0060EA2
:1008F80020EC05F0010E20EC05F0310E166EB20E5C
:10090800E82EFED7162EFCD700D012001C501D1062
:10091800D8B418D0010E1E6E04D0D8901C361D36DF
:100928001E2A1DAEFAD71C501A5C1D501B58D8A0A1
:1009380004D01C501A5E1D501B5AD8901D321C3210
:100948001E2EF1D71AC01AF01BC01BF01200036E3E
:1009580001500218D8A409D0020E4718D8A403D011
:10096800080E476E12004706120003500218D8A45A
:100978001200080E4718D8A403D0020E476E1200C2
:10098800472A1200660EF66E0A0EF76E000EF86E13
:100998000900F5CF47F000EE3EF0090EEE6AE806D2
:1009A800FDE148904892000EF86E000109EF00F052
:1009B80013501502F3CF17F0F4CF18F013501602A6
:1009C800F350182614501502F350182617C013F0C8
:1009D80018C014F01200146E11EC05F0C58611EC65
:1009E80005F0C9CF15F011EC05F01450D8A402D0C9
:1009F800C58A01D0C59AC58815501200156E000E1B
:100A0800146E3A0E156005D02F0E156402D0010E33
:100A1800146E14C013F013301200C7B4FED7C5CF3C
:100A280013F01F0E1316D8B41200F7D7156E8C8466
:100A3800155040EC04F01200156E8C94155040ECE3
:100A480004F0120011EC05F014C0C9FF120011ECFB
:0F0A580005F0C584120011EC05F0C580120002F4
:10FE7A00003132334134353642373839432A302358
:10FE8A00440001000A006400E80310270100100082
:10FE9A0000010010253032783A25303278202020AF
:10FEAA0020202020202020202020202000444154EF
:10FEBA00453A20253032782F253032782F253032B6
:10FECA007820200054494D453A20253032783A2589
:10FEDA003032783A25303278202000424154544555
:10FEEA00524945533A2025303264202020202000F0
:10FEFA004241545445524945533A202530327820DC
:10FF0A0020202020004241545445524945533A206A
:10FF1A0025303264202020003031323334353637F0
:10FF2A003839616263646566002020202020202021
:10FF3A002020202020202020200052554E4E494EBD
:10FF4A00472E2E2E202020202020004E554D42459F
:10FF5A0052204F462043202020202000544F204387
:10FF6A004F4E54494E55452020202020004E554DD5
:10FF7A00424552204F4620414120202020004E5524
:10FF8A004D424552204F4620395620202020004419
:10FF9A004F4E4521205052455353202A20202000FD
:10FFAA00544F54414C2052554E2054494D453A2005
:10FFBA0000203C3420202044415441202020363E59
:10FFCA002000544F54414C204E554D424552204F2B
:10FFDA0046200053544152543A202020505245534F
:10FFEA0053202A003C203420202044415441202020
:06FFFA002036203E00004D
:020000040020DA
:08000000FFFFFFFFFFFFFFFF00
:020000040030CA
:0E000000FF021F1EFF8381FF0FC00FE00F40A5
:00000001FF
